{
	"contracts/UserManager.sol": {
		"UserManagerContract": {
			"abi": [
				{
					"inputs": [
						{
							"internalType": "address",
							"name": "_roleManagerAddress",
							"type": "address"
						}
					],
					"stateMutability": "nonpayable",
					"type": "constructor"
				},
				{
					"inputs": [
						{
							"internalType": "address",
							"name": "userAddr",
							"type": "address"
						},
						{
							"internalType": "uint256",
							"name": "tokenId",
							"type": "uint256"
						}
					],
					"name": "addNftToUser",
					"outputs": [],
					"stateMutability": "nonpayable",
					"type": "function"
				},
				{
					"inputs": [
						{
							"internalType": "string",
							"name": "_fullName",
							"type": "string"
						},
						{
							"internalType": "uint256",
							"name": "_dateOfBirth",
							"type": "uint256"
						},
						{
							"internalType": "enum UserManagerContract.Gender",
							"name": "_gender",
							"type": "uint8"
						}
					],
					"name": "createUser",
					"outputs": [],
					"stateMutability": "nonpayable",
					"type": "function"
				},
				{
					"inputs": [],
					"name": "getCurrentUserData",
					"outputs": [
						{
							"components": [
								{
									"internalType": "string",
									"name": "fullName",
									"type": "string"
								},
								{
									"internalType": "uint256",
									"name": "dateOfBirth",
									"type": "uint256"
								},
								{
									"internalType": "enum UserManagerContract.Gender",
									"name": "gender",
									"type": "uint8"
								}
							],
							"internalType": "struct UserManagerContract.User",
							"name": "",
							"type": "tuple"
						}
					],
					"stateMutability": "view",
					"type": "function"
				},
				{
					"inputs": [
						{
							"internalType": "address",
							"name": "userAddr",
							"type": "address"
						}
					],
					"name": "getOtherUserData",
					"outputs": [
						{
							"components": [
								{
									"internalType": "string",
									"name": "fullName",
									"type": "string"
								},
								{
									"internalType": "uint256",
									"name": "dateOfBirth",
									"type": "uint256"
								},
								{
									"internalType": "enum UserManagerContract.Gender",
									"name": "gender",
									"type": "uint8"
								}
							],
							"internalType": "struct UserManagerContract.User",
							"name": "",
							"type": "tuple"
						}
					],
					"stateMutability": "view",
					"type": "function"
				},
				{
					"inputs": [
						{
							"internalType": "address",
							"name": "userAddr",
							"type": "address"
						}
					],
					"name": "listAllNftsOfUser",
					"outputs": [
						{
							"internalType": "uint256[]",
							"name": "",
							"type": "uint256[]"
						}
					],
					"stateMutability": "view",
					"type": "function"
				}
			],
			"devdoc": {
				"kind": "dev",
				"methods": {},
				"version": 1
			},
			"evm": {
				"assembly": "    /* \"contracts/UserManager.sol\":137:2983  contract UserManagerContract {... */\n  mstore(0x40, 0x80)\n    /* \"contracts/UserManager.sol\":555:747  constructor(address _roleManagerAddress) {... */\n  callvalue\n  dup1\n  iszero\n  tag_1\n  jumpi\n  revert(0x00, 0x00)\ntag_1:\n  pop\n  mload(0x40)\n  sub(codesize, bytecodeSize)\n  dup1\n  bytecodeSize\n  dup4\n  codecopy\n  dup2\n  dup2\n  add\n  0x40\n  mstore\n  dup2\n  add\n  swap1\n  tag_2\n  swap2\n  swap1\n  tag_3\n  jump\t// in\ntag_2:\n    /* \"contracts/UserManager.sol\":641:660  _roleManagerAddress */\n  dup1\n    /* \"contracts/UserManager.sol\":607:618  roleManager */\n  0x00\n  0x00\n    /* \"contracts/UserManager.sol\":607:661  roleManager = RoleManagerContract(_roleManagerAddress) */\n  0x0100\n  exp\n  dup2\n  sload\n  dup2\n  0xffffffffffffffffffffffffffffffffffffffff\n  mul\n  not\n  and\n  swap1\n  dup4\n  0xffffffffffffffffffffffffffffffffffffffff\n  and\n  mul\n  or\n  swap1\n  sstore\n  pop\n    /* \"contracts/UserManager.sol\":702:739  User(\"Admin\", 10000000, Gender.Other) */\n  mload(0x40)\n  dup1\n  0x60\n  add\n  0x40\n  mstore\n  dup1\n  mload(0x40)\n  dup1\n  0x40\n  add\n  0x40\n  mstore\n  dup1\n  0x05\n  dup2\n  mstore\n  0x20\n  add\n  0x41646d696e000000000000000000000000000000000000000000000000000000\n  dup2\n  mstore\n  pop\n  dup2\n  mstore\n  0x20\n  add\n    /* \"contracts/UserManager.sol\":716:724  10000000 */\n  0x989680\n    /* \"contracts/UserManager.sol\":702:739  User(\"Admin\", 10000000, Gender.Other) */\n  dup2\n  mstore\n  0x20\n  add\n    /* \"contracts/UserManager.sol\":726:738  Gender.Other */\n  0x02\n    /* \"contracts/UserManager.sol\":702:739  User(\"Admin\", 10000000, Gender.Other) */\n  dup1\n  dup2\n  gt\n  iszero\n  tag_6\n  jumpi\n  tag_7\n  tag_8\n  jump\t// in\ntag_7:\ntag_6:\n  dup2\n  mstore\n  pop\n    /* \"contracts/UserManager.sol\":682:687  users */\n  0x01\n    /* \"contracts/UserManager.sol\":682:699  users[msg.sender] */\n  0x00\n    /* \"contracts/UserManager.sol\":688:698  msg.sender */\n  caller\n    /* \"contracts/UserManager.sol\":682:699  users[msg.sender] */\n  0xffffffffffffffffffffffffffffffffffffffff\n  and\n  0xffffffffffffffffffffffffffffffffffffffff\n  and\n  dup2\n  mstore\n  0x20\n  add\n  swap1\n  dup2\n  mstore\n  0x20\n  add\n  0x00\n  keccak256\n    /* \"contracts/UserManager.sol\":682:739  users[msg.sender] = User(\"Admin\", 10000000, Gender.Other) */\n  0x00\n  dup3\n  add\n  mload\n  dup2\n  0x00\n  add\n  swap1\n  dup2\n  tag_9\n  swap2\n  swap1\n  tag_10\n  jump\t// in\ntag_9:\n  pop\n  0x20\n  dup3\n  add\n  mload\n  dup2\n  0x01\n  add\n  sstore\n  0x40\n  dup3\n  add\n  mload\n  dup2\n  0x02\n  add\n  exp(0x0100, 0x00)\n  dup2\n  sload\n  dup2\n  0xff\n  mul\n  not\n  and\n  swap1\n  dup4\n  0x02\n  dup2\n  gt\n  iszero\n  tag_11\n  jumpi\n  tag_12\n  tag_8\n  jump\t// in\ntag_12:\ntag_11:\n  mul\n  or\n  swap1\n  sstore\n  pop\n  swap1\n  pop\n  pop\n    /* \"contracts/UserManager.sol\":555:747  constructor(address _roleManagerAddress) {... */\n  pop\n    /* \"contracts/UserManager.sol\":137:2983  contract UserManagerContract {... */\n  jump(tag_13)\n    /* \"#utility.yul\":88:205   */\ntag_15:\n    /* \"#utility.yul\":197:198   */\n  0x00\n    /* \"#utility.yul\":194:195   */\n  0x00\n    /* \"#utility.yul\":187:199   */\n  revert\n    /* \"#utility.yul\":334:460   */\ntag_17:\n    /* \"#utility.yul\":371:378   */\n  0x00\n    /* \"#utility.yul\":411:453   */\n  0xffffffffffffffffffffffffffffffffffffffff\n    /* \"#utility.yul\":404:409   */\n  dup3\n    /* \"#utility.yul\":400:454   */\n  and\n    /* \"#utility.yul\":389:454   */\n  swap1\n  pop\n    /* \"#utility.yul\":334:460   */\n  swap2\n  swap1\n  pop\n  jump\t// out\n    /* \"#utility.yul\":466:562   */\ntag_18:\n    /* \"#utility.yul\":503:510   */\n  0x00\n    /* \"#utility.yul\":532:556   */\n  tag_47\n    /* \"#utility.yul\":550:555   */\n  dup3\n    /* \"#utility.yul\":532:556   */\n  tag_17\n  jump\t// in\ntag_47:\n    /* \"#utility.yul\":521:556   */\n  swap1\n  pop\n    /* \"#utility.yul\":466:562   */\n  swap2\n  swap1\n  pop\n  jump\t// out\n    /* \"#utility.yul\":568:690   */\ntag_19:\n    /* \"#utility.yul\":641:665   */\n  tag_49\n    /* \"#utility.yul\":659:664   */\n  dup2\n    /* \"#utility.yul\":641:665   */\n  tag_18\n  jump\t// in\ntag_49:\n    /* \"#utility.yul\":634:639   */\n  dup2\n    /* \"#utility.yul\":631:666   */\n  eq\n    /* \"#utility.yul\":621:684   */\n  tag_50\n  jumpi\n    /* \"#utility.yul\":680:681   */\n  0x00\n    /* \"#utility.yul\":677:678   */\n  0x00\n    /* \"#utility.yul\":670:682   */\n  revert\n    /* \"#utility.yul\":621:684   */\ntag_50:\n    /* \"#utility.yul\":568:690   */\n  pop\n  jump\t// out\n    /* \"#utility.yul\":696:839   */\ntag_20:\n    /* \"#utility.yul\":753:758   */\n  0x00\n    /* \"#utility.yul\":784:790   */\n  dup2\n    /* \"#utility.yul\":778:791   */\n  mload\n    /* \"#utility.yul\":769:791   */\n  swap1\n  pop\n    /* \"#utility.yul\":800:833   */\n  tag_52\n    /* \"#utility.yul\":827:832   */\n  dup2\n    /* \"#utility.yul\":800:833   */\n  tag_19\n  jump\t// in\ntag_52:\n    /* \"#utility.yul\":696:839   */\n  swap3\n  swap2\n  pop\n  pop\n  jump\t// out\n    /* \"#utility.yul\":845:1196   */\ntag_3:\n    /* \"#utility.yul\":915:921   */\n  0x00\n    /* \"#utility.yul\":964:966   */\n  0x20\n    /* \"#utility.yul\":952:961   */\n  dup3\n    /* \"#utility.yul\":943:950   */\n  dup5\n    /* \"#utility.yul\":939:962   */\n  sub\n    /* \"#utility.yul\":935:967   */\n  slt\n    /* \"#utility.yul\":932:1051   */\n  iszero\n  tag_54\n  jumpi\n    /* \"#utility.yul\":970:1049   */\n  tag_55\n  tag_15\n  jump\t// in\ntag_55:\n    /* \"#utility.yul\":932:1051   */\ntag_54:\n    /* \"#utility.yul\":1090:1091   */\n  0x00\n    /* \"#utility.yul\":1115:1179   */\n  tag_56\n    /* \"#utility.yul\":1171:1178   */\n  dup5\n    /* \"#utility.yul\":1162:1168   */\n  dup3\n    /* \"#utility.yul\":1151:1160   */\n  dup6\n    /* \"#utility.yul\":1147:1169   */\n  add\n    /* \"#utility.yul\":1115:1179   */\n  tag_20\n  jump\t// in\ntag_56:\n    /* \"#utility.yul\":1105:1179   */\n  swap2\n  pop\n    /* \"#utility.yul\":1061:1189   */\n  pop\n    /* \"#utility.yul\":845:1196   */\n  swap3\n  swap2\n  pop\n  pop\n  jump\t// out\n    /* \"#utility.yul\":1202:1382   */\ntag_8:\n    /* \"#utility.yul\":1250:1327   */\n  0x4e487b7100000000000000000000000000000000000000000000000000000000\n    /* \"#utility.yul\":1247:1248   */\n  0x00\n    /* \"#utility.yul\":1240:1328   */\n  mstore\n    /* \"#utility.yul\":1347:1351   */\n  0x21\n    /* \"#utility.yul\":1344:1345   */\n  0x04\n    /* \"#utility.yul\":1337:1352   */\n  mstore\n    /* \"#utility.yul\":1371:1375   */\n  0x24\n    /* \"#utility.yul\":1368:1369   */\n  0x00\n    /* \"#utility.yul\":1361:1376   */\n  revert\n    /* \"#utility.yul\":1388:1487   */\ntag_21:\n    /* \"#utility.yul\":1440:1446   */\n  0x00\n    /* \"#utility.yul\":1474:1479   */\n  dup2\n    /* \"#utility.yul\":1468:1480   */\n  mload\n    /* \"#utility.yul\":1458:1480   */\n  swap1\n  pop\n    /* \"#utility.yul\":1388:1487   */\n  swap2\n  swap1\n  pop\n  jump\t// out\n    /* \"#utility.yul\":1493:1673   */\ntag_22:\n    /* \"#utility.yul\":1541:1618   */\n  0x4e487b7100000000000000000000000000000000000000000000000000000000\n    /* \"#utility.yul\":1538:1539   */\n  0x00\n    /* \"#utility.yul\":1531:1619   */\n  mstore\n    /* \"#utility.yul\":1638:1642   */\n  0x41\n    /* \"#utility.yul\":1635:1636   */\n  0x04\n    /* \"#utility.yul\":1628:1643   */\n  mstore\n    /* \"#utility.yul\":1662:1666   */\n  0x24\n    /* \"#utility.yul\":1659:1660   */\n  0x00\n    /* \"#utility.yul\":1652:1667   */\n  revert\n    /* \"#utility.yul\":1679:1859   */\ntag_23:\n    /* \"#utility.yul\":1727:1804   */\n  0x4e487b7100000000000000000000000000000000000000000000000000000000\n    /* \"#utility.yul\":1724:1725   */\n  0x00\n    /* \"#utility.yul\":1717:1805   */\n  mstore\n    /* \"#utility.yul\":1824:1828   */\n  0x22\n    /* \"#utility.yul\":1821:1822   */\n  0x04\n    /* \"#utility.yul\":1814:1829   */\n  mstore\n    /* \"#utility.yul\":1848:1852   */\n  0x24\n    /* \"#utility.yul\":1845:1846   */\n  0x00\n    /* \"#utility.yul\":1838:1853   */\n  revert\n    /* \"#utility.yul\":1865:2185   */\ntag_24:\n    /* \"#utility.yul\":1909:1915   */\n  0x00\n    /* \"#utility.yul\":1946:1947   */\n  0x02\n    /* \"#utility.yul\":1940:1944   */\n  dup3\n    /* \"#utility.yul\":1936:1948   */\n  div\n    /* \"#utility.yul\":1926:1948   */\n  swap1\n  pop\n    /* \"#utility.yul\":1993:1994   */\n  0x01\n    /* \"#utility.yul\":1987:1991   */\n  dup3\n    /* \"#utility.yul\":1983:1995   */\n  and\n    /* \"#utility.yul\":2014:2032   */\n  dup1\n    /* \"#utility.yul\":2004:2085   */\n  tag_62\n  jumpi\n    /* \"#utility.yul\":2070:2074   */\n  0x7f\n    /* \"#utility.yul\":2062:2068   */\n  dup3\n    /* \"#utility.yul\":2058:2075   */\n  and\n    /* \"#utility.yul\":2048:2075   */\n  swap2\n  pop\n    /* \"#utility.yul\":2004:2085   */\ntag_62:\n    /* \"#utility.yul\":2132:2134   */\n  0x20\n    /* \"#utility.yul\":2124:2130   */\n  dup3\n    /* \"#utility.yul\":2121:2135   */\n  lt\n    /* \"#utility.yul\":2101:2119   */\n  dup2\n    /* \"#utility.yul\":2098:2136   */\n  sub\n    /* \"#utility.yul\":2095:2179   */\n  tag_63\n  jumpi\n    /* \"#utility.yul\":2151:2169   */\n  tag_64\n  tag_23\n  jump\t// in\ntag_64:\n    /* \"#utility.yul\":2095:2179   */\ntag_63:\n    /* \"#utility.yul\":1916:2185   */\n  pop\n    /* \"#utility.yul\":1865:2185   */\n  swap2\n  swap1\n  pop\n  jump\t// out\n    /* \"#utility.yul\":2191:2332   */\ntag_25:\n    /* \"#utility.yul\":2240:2244   */\n  0x00\n    /* \"#utility.yul\":2263:2266   */\n  dup2\n    /* \"#utility.yul\":2255:2266   */\n  swap1\n  pop\n    /* \"#utility.yul\":2286:2289   */\n  dup2\n    /* \"#utility.yul\":2283:2284   */\n  0x00\n    /* \"#utility.yul\":2276:2290   */\n  mstore\n    /* \"#utility.yul\":2320:2324   */\n  0x20\n    /* \"#utility.yul\":2317:2318   */\n  0x00\n    /* \"#utility.yul\":2307:2325   */\n  keccak256\n    /* \"#utility.yul\":2299:2325   */\n  swap1\n  pop\n    /* \"#utility.yul\":2191:2332   */\n  swap2\n  swap1\n  pop\n  jump\t// out\n    /* \"#utility.yul\":2338:2431   */\ntag_26:\n    /* \"#utility.yul\":2375:2381   */\n  0x00\n    /* \"#utility.yul\":2422:2424   */\n  0x20\n    /* \"#utility.yul\":2417:2419   */\n  0x1f\n    /* \"#utility.yul\":2410:2415   */\n  dup4\n    /* \"#utility.yul\":2406:2420   */\n  add\n    /* \"#utility.yul\":2402:2425   */\n  div\n    /* \"#utility.yul\":2392:2425   */\n  swap1\n  pop\n    /* \"#utility.yul\":2338:2431   */\n  swap2\n  swap1\n  pop\n  jump\t// out\n    /* \"#utility.yul\":2437:2544   */\ntag_27:\n    /* \"#utility.yul\":2481:2489   */\n  0x00\n    /* \"#utility.yul\":2531:2536   */\n  dup3\n    /* \"#utility.yul\":2525:2529   */\n  dup3\n    /* \"#utility.yul\":2521:2537   */\n  shl\n    /* \"#utility.yul\":2500:2537   */\n  swap1\n  pop\n    /* \"#utility.yul\":2437:2544   */\n  swap3\n  swap2\n  pop\n  pop\n  jump\t// out\n    /* \"#utility.yul\":2550:2943   */\ntag_28:\n    /* \"#utility.yul\":2619:2625   */\n  0x00\n    /* \"#utility.yul\":2669:2670   */\n  0x08\n    /* \"#utility.yul\":2657:2667   */\n  dup4\n    /* \"#utility.yul\":2653:2671   */\n  mul\n    /* \"#utility.yul\":2692:2789   */\n  tag_69\n    /* \"#utility.yul\":2722:2788   */\n  0xffffffffffffffffffffffffffffffffffffffffffffffffffffffffffffffff\n    /* \"#utility.yul\":2711:2720   */\n  dup3\n    /* \"#utility.yul\":2692:2789   */\n  tag_27\n  jump\t// in\ntag_69:\n    /* \"#utility.yul\":2810:2849   */\n  tag_70\n    /* \"#utility.yul\":2840:2848   */\n  dup7\n    /* \"#utility.yul\":2829:2838   */\n  dup4\n    /* \"#utility.yul\":2810:2849   */\n  tag_27\n  jump\t// in\ntag_70:\n    /* \"#utility.yul\":2798:2849   */\n  swap6\n  pop\n    /* \"#utility.yul\":2882:2886   */\n  dup1\n    /* \"#utility.yul\":2878:2887   */\n  not\n    /* \"#utility.yul\":2871:2876   */\n  dup5\n    /* \"#utility.yul\":2867:2888   */\n  and\n    /* \"#utility.yul\":2858:2888   */\n  swap4\n  pop\n    /* \"#utility.yul\":2931:2935   */\n  dup1\n    /* \"#utility.yul\":2921:2929   */\n  dup7\n    /* \"#utility.yul\":2917:2936   */\n  and\n    /* \"#utility.yul\":2910:2915   */\n  dup5\n    /* \"#utility.yul\":2907:2937   */\n  or\n    /* \"#utility.yul\":2897:2937   */\n  swap3\n  pop\n    /* \"#utility.yul\":2626:2943   */\n  pop\n  pop\n    /* \"#utility.yul\":2550:2943   */\n  swap4\n  swap3\n  pop\n  pop\n  pop\n  jump\t// out\n    /* \"#utility.yul\":2949:3026   */\ntag_29:\n    /* \"#utility.yul\":2986:2993   */\n  0x00\n    /* \"#utility.yul\":3015:3020   */\n  dup2\n    /* \"#utility.yul\":3004:3020   */\n  swap1\n  pop\n    /* \"#utility.yul\":2949:3026   */\n  swap2\n  swap1\n  pop\n  jump\t// out\n    /* \"#utility.yul\":3032:3092   */\ntag_30:\n    /* \"#utility.yul\":3060:3063   */\n  0x00\n    /* \"#utility.yul\":3081:3086   */\n  dup2\n    /* \"#utility.yul\":3074:3086   */\n  swap1\n  pop\n    /* \"#utility.yul\":3032:3092   */\n  swap2\n  swap1\n  pop\n  jump\t// out\n    /* \"#utility.yul\":3098:3240   */\ntag_31:\n    /* \"#utility.yul\":3148:3157   */\n  0x00\n    /* \"#utility.yul\":3181:3234   */\n  tag_74\n    /* \"#utility.yul\":3199:3233   */\n  tag_75\n    /* \"#utility.yul\":3208:3232   */\n  tag_76\n    /* \"#utility.yul\":3226:3231   */\n  dup5\n    /* \"#utility.yul\":3208:3232   */\n  tag_29\n  jump\t// in\ntag_76:\n    /* \"#utility.yul\":3199:3233   */\n  tag_30\n  jump\t// in\ntag_75:\n    /* \"#utility.yul\":3181:3234   */\n  tag_29\n  jump\t// in\ntag_74:\n    /* \"#utility.yul\":3168:3234   */\n  swap1\n  pop\n    /* \"#utility.yul\":3098:3240   */\n  swap2\n  swap1\n  pop\n  jump\t// out\n    /* \"#utility.yul\":3246:3321   */\ntag_32:\n    /* \"#utility.yul\":3289:3292   */\n  0x00\n    /* \"#utility.yul\":3310:3315   */\n  dup2\n    /* \"#utility.yul\":3303:3315   */\n  swap1\n  pop\n    /* \"#utility.yul\":3246:3321   */\n  swap2\n  swap1\n  pop\n  jump\t// out\n    /* \"#utility.yul\":3327:3596   */\ntag_33:\n    /* \"#utility.yul\":3437:3476   */\n  tag_79\n    /* \"#utility.yul\":3468:3475   */\n  dup4\n    /* \"#utility.yul\":3437:3476   */\n  tag_31\n  jump\t// in\ntag_79:\n    /* \"#utility.yul\":3498:3589   */\n  tag_80\n    /* \"#utility.yul\":3547:3588   */\n  tag_81\n    /* \"#utility.yul\":3571:3587   */\n  dup3\n    /* \"#utility.yul\":3547:3588   */\n  tag_32\n  jump\t// in\ntag_81:\n    /* \"#utility.yul\":3539:3545   */\n  dup5\n    /* \"#utility.yul\":3532:3536   */\n  dup5\n    /* \"#utility.yul\":3526:3537   */\n  sload\n    /* \"#utility.yul\":3498:3589   */\n  tag_28\n  jump\t// in\ntag_80:\n    /* \"#utility.yul\":3492:3496   */\n  dup3\n    /* \"#utility.yul\":3485:3590   */\n  sstore\n    /* \"#utility.yul\":3403:3596   */\n  pop\n    /* \"#utility.yul\":3327:3596   */\n  pop\n  pop\n  pop\n  jump\t// out\n    /* \"#utility.yul\":3602:3675   */\ntag_34:\n    /* \"#utility.yul\":3647:3650   */\n  0x00\n    /* \"#utility.yul\":3668:3669   */\n  0x00\n    /* \"#utility.yul\":3661:3669   */\n  swap1\n  pop\n    /* \"#utility.yul\":3602:3675   */\n  swap1\n  jump\t// out\n    /* \"#utility.yul\":3681:3870   */\ntag_35:\n    /* \"#utility.yul\":3758:3790   */\n  tag_84\n  tag_34\n  jump\t// in\ntag_84:\n    /* \"#utility.yul\":3799:3864   */\n  tag_85\n    /* \"#utility.yul\":3857:3863   */\n  dup2\n    /* \"#utility.yul\":3849:3855   */\n  dup5\n    /* \"#utility.yul\":3843:3847   */\n  dup5\n    /* \"#utility.yul\":3799:3864   */\n  tag_33\n  jump\t// in\ntag_85:\n    /* \"#utility.yul\":3734:3870   */\n  pop\n    /* \"#utility.yul\":3681:3870   */\n  pop\n  pop\n  jump\t// out\n    /* \"#utility.yul\":3876:4062   */\ntag_36:\n    /* \"#utility.yul\":3936:4056   */\ntag_87:\n    /* \"#utility.yul\":3953:3956   */\n  dup2\n    /* \"#utility.yul\":3946:3951   */\n  dup2\n    /* \"#utility.yul\":3943:3957   */\n  lt\n    /* \"#utility.yul\":3936:4056   */\n  iszero\n  tag_89\n  jumpi\n    /* \"#utility.yul\":4007:4046   */\n  tag_90\n    /* \"#utility.yul\":4044:4045   */\n  0x00\n    /* \"#utility.yul\":4037:4042   */\n  dup3\n    /* \"#utility.yul\":4007:4046   */\n  tag_35\n  jump\t// in\ntag_90:\n    /* \"#utility.yul\":3980:3981   */\n  0x01\n    /* \"#utility.yul\":3973:3978   */\n  dup2\n    /* \"#utility.yul\":3969:3982   */\n  add\n    /* \"#utility.yul\":3960:3982   */\n  swap1\n  pop\n    /* \"#utility.yul\":3936:4056   */\n  jump(tag_87)\ntag_89:\n    /* \"#utility.yul\":3876:4062   */\n  pop\n  pop\n  jump\t// out\n    /* \"#utility.yul\":4068:4611   */\ntag_37:\n    /* \"#utility.yul\":4169:4171   */\n  0x1f\n    /* \"#utility.yul\":4164:4167   */\n  dup3\n    /* \"#utility.yul\":4161:4172   */\n  gt\n    /* \"#utility.yul\":4158:4604   */\n  iszero\n  tag_92\n  jumpi\n    /* \"#utility.yul\":4203:4241   */\n  tag_93\n    /* \"#utility.yul\":4235:4240   */\n  dup2\n    /* \"#utility.yul\":4203:4241   */\n  tag_25\n  jump\t// in\ntag_93:\n    /* \"#utility.yul\":4287:4316   */\n  tag_94\n    /* \"#utility.yul\":4305:4315   */\n  dup5\n    /* \"#utility.yul\":4287:4316   */\n  tag_26\n  jump\t// in\ntag_94:\n    /* \"#utility.yul\":4277:4285   */\n  dup2\n    /* \"#utility.yul\":4273:4317   */\n  add\n    /* \"#utility.yul\":4470:4472   */\n  0x20\n    /* \"#utility.yul\":4458:4468   */\n  dup6\n    /* \"#utility.yul\":4455:4473   */\n  lt\n    /* \"#utility.yul\":4452:4501   */\n  iszero\n  tag_95\n  jumpi\n    /* \"#utility.yul\":4491:4499   */\n  dup2\n    /* \"#utility.yul\":4476:4499   */\n  swap1\n  pop\n    /* \"#utility.yul\":4452:4501   */\ntag_95:\n    /* \"#utility.yul\":4514:4594   */\n  tag_96\n    /* \"#utility.yul\":4570:4592   */\n  tag_97\n    /* \"#utility.yul\":4588:4591   */\n  dup6\n    /* \"#utility.yul\":4570:4592   */\n  tag_26\n  jump\t// in\ntag_97:\n    /* \"#utility.yul\":4560:4568   */\n  dup4\n    /* \"#utility.yul\":4556:4593   */\n  add\n    /* \"#utility.yul\":4543:4554   */\n  dup3\n    /* \"#utility.yul\":4514:4594   */\n  tag_36\n  jump\t// in\ntag_96:\n    /* \"#utility.yul\":4173:4604   */\n  pop\n  pop\n    /* \"#utility.yul\":4158:4604   */\ntag_92:\n    /* \"#utility.yul\":4068:4611   */\n  pop\n  pop\n  pop\n  jump\t// out\n    /* \"#utility.yul\":4617:4734   */\ntag_38:\n    /* \"#utility.yul\":4671:4679   */\n  0x00\n    /* \"#utility.yul\":4721:4726   */\n  dup3\n    /* \"#utility.yul\":4715:4719   */\n  dup3\n    /* \"#utility.yul\":4711:4727   */\n  shr\n    /* \"#utility.yul\":4690:4727   */\n  swap1\n  pop\n    /* \"#utility.yul\":4617:4734   */\n  swap3\n  swap2\n  pop\n  pop\n  jump\t// out\n    /* \"#utility.yul\":4740:4909   */\ntag_39:\n    /* \"#utility.yul\":4784:4790   */\n  0x00\n    /* \"#utility.yul\":4817:4868   */\n  tag_100\n    /* \"#utility.yul\":4865:4866   */\n  0x00\n    /* \"#utility.yul\":4861:4867   */\n  not\n    /* \"#utility.yul\":4853:4858   */\n  dup5\n    /* \"#utility.yul\":4850:4851   */\n  0x08\n    /* \"#utility.yul\":4846:4859   */\n  mul\n    /* \"#utility.yul\":4817:4868   */\n  tag_38\n  jump\t// in\ntag_100:\n    /* \"#utility.yul\":4813:4869   */\n  not\n    /* \"#utility.yul\":4898:4902   */\n  dup1\n    /* \"#utility.yul\":4892:4896   */\n  dup4\n    /* \"#utility.yul\":4888:4903   */\n  and\n    /* \"#utility.yul\":4878:4903   */\n  swap2\n  pop\n    /* \"#utility.yul\":4791:4909   */\n  pop\n    /* \"#utility.yul\":4740:4909   */\n  swap3\n  swap2\n  pop\n  pop\n  jump\t// out\n    /* \"#utility.yul\":4914:5209   */\ntag_40:\n    /* \"#utility.yul\":4990:4994   */\n  0x00\n    /* \"#utility.yul\":5136:5165   */\n  tag_102\n    /* \"#utility.yul\":5161:5164   */\n  dup4\n    /* \"#utility.yul\":5155:5159   */\n  dup4\n    /* \"#utility.yul\":5136:5165   */\n  tag_39\n  jump\t// in\ntag_102:\n    /* \"#utility.yul\":5128:5165   */\n  swap2\n  pop\n    /* \"#utility.yul\":5198:5201   */\n  dup3\n    /* \"#utility.yul\":5195:5196   */\n  0x02\n    /* \"#utility.yul\":5191:5202   */\n  mul\n    /* \"#utility.yul\":5185:5189   */\n  dup3\n    /* \"#utility.yul\":5182:5203   */\n  or\n    /* \"#utility.yul\":5174:5203   */\n  swap1\n  pop\n    /* \"#utility.yul\":4914:5209   */\n  swap3\n  swap2\n  pop\n  pop\n  jump\t// out\n    /* \"#utility.yul\":5214:6609   */\ntag_10:\n    /* \"#utility.yul\":5331:5368   */\n  tag_104\n    /* \"#utility.yul\":5364:5367   */\n  dup3\n    /* \"#utility.yul\":5331:5368   */\n  tag_21\n  jump\t// in\ntag_104:\n    /* \"#utility.yul\":5433:5451   */\n  0xffffffffffffffff\n    /* \"#utility.yul\":5425:5431   */\n  dup2\n    /* \"#utility.yul\":5422:5452   */\n  gt\n    /* \"#utility.yul\":5419:5475   */\n  iszero\n  tag_105\n  jumpi\n    /* \"#utility.yul\":5455:5473   */\n  tag_106\n  tag_22\n  jump\t// in\ntag_106:\n    /* \"#utility.yul\":5419:5475   */\ntag_105:\n    /* \"#utility.yul\":5499:5537   */\n  tag_107\n    /* \"#utility.yul\":5531:5535   */\n  dup3\n    /* \"#utility.yul\":5525:5536   */\n  sload\n    /* \"#utility.yul\":5499:5537   */\n  tag_24\n  jump\t// in\ntag_107:\n    /* \"#utility.yul\":5584:5651   */\n  tag_108\n    /* \"#utility.yul\":5644:5650   */\n  dup3\n    /* \"#utility.yul\":5636:5642   */\n  dup3\n    /* \"#utility.yul\":5630:5634   */\n  dup6\n    /* \"#utility.yul\":5584:5651   */\n  tag_37\n  jump\t// in\ntag_108:\n    /* \"#utility.yul\":5678:5679   */\n  0x00\n    /* \"#utility.yul\":5702:5706   */\n  0x20\n    /* \"#utility.yul\":5689:5706   */\n  swap1\n  pop\n    /* \"#utility.yul\":5734:5736   */\n  0x1f\n    /* \"#utility.yul\":5726:5732   */\n  dup4\n    /* \"#utility.yul\":5723:5737   */\n  gt\n    /* \"#utility.yul\":5751:5752   */\n  0x01\n    /* \"#utility.yul\":5746:6364   */\n  dup2\n  eq\n  tag_110\n  jumpi\n    /* \"#utility.yul\":6408:6409   */\n  0x00\n    /* \"#utility.yul\":6425:6431   */\n  dup5\n    /* \"#utility.yul\":6422:6499   */\n  iszero\n  tag_111\n  jumpi\n    /* \"#utility.yul\":6474:6483   */\n  dup3\n    /* \"#utility.yul\":6469:6472   */\n  dup8\n    /* \"#utility.yul\":6465:6484   */\n  add\n    /* \"#utility.yul\":6459:6485   */\n  mload\n    /* \"#utility.yul\":6450:6485   */\n  swap1\n  pop\n    /* \"#utility.yul\":6422:6499   */\ntag_111:\n    /* \"#utility.yul\":6525:6592   */\n  tag_112\n    /* \"#utility.yul\":6585:6591   */\n  dup6\n    /* \"#utility.yul\":6578:6583   */\n  dup3\n    /* \"#utility.yul\":6525:6592   */\n  tag_40\n  jump\t// in\ntag_112:\n    /* \"#utility.yul\":6519:6523   */\n  dup7\n    /* \"#utility.yul\":6512:6593   */\n  sstore\n    /* \"#utility.yul\":6381:6603   */\n  pop\n    /* \"#utility.yul\":5716:6603   */\n  jump(tag_109)\n    /* \"#utility.yul\":5746:6364   */\ntag_110:\n    /* \"#utility.yul\":5798:5802   */\n  0x1f\n    /* \"#utility.yul\":5794:5803   */\n  not\n    /* \"#utility.yul\":5786:5792   */\n  dup5\n    /* \"#utility.yul\":5782:5804   */\n  and\n    /* \"#utility.yul\":5832:5869   */\n  tag_113\n    /* \"#utility.yul\":5864:5868   */\n  dup7\n    /* \"#utility.yul\":5832:5869   */\n  tag_25\n  jump\t// in\ntag_113:\n    /* \"#utility.yul\":5891:5892   */\n  0x00\n    /* \"#utility.yul\":5905:6113   */\ntag_114:\n    /* \"#utility.yul\":5919:5926   */\n  dup3\n    /* \"#utility.yul\":5916:5917   */\n  dup2\n    /* \"#utility.yul\":5913:5927   */\n  lt\n    /* \"#utility.yul\":5905:6113   */\n  iszero\n  tag_116\n  jumpi\n    /* \"#utility.yul\":5998:6007   */\n  dup5\n    /* \"#utility.yul\":5993:5996   */\n  dup10\n    /* \"#utility.yul\":5989:6008   */\n  add\n    /* \"#utility.yul\":5983:6009   */\n  mload\n    /* \"#utility.yul\":5975:5981   */\n  dup3\n    /* \"#utility.yul\":5968:6010   */\n  sstore\n    /* \"#utility.yul\":6049:6050   */\n  0x01\n    /* \"#utility.yul\":6041:6047   */\n  dup3\n    /* \"#utility.yul\":6037:6051   */\n  add\n    /* \"#utility.yul\":6027:6051   */\n  swap2\n  pop\n    /* \"#utility.yul\":6096:6098   */\n  0x20\n    /* \"#utility.yul\":6085:6094   */\n  dup6\n    /* \"#utility.yul\":6081:6099   */\n  add\n    /* \"#utility.yul\":6068:6099   */\n  swap5\n  pop\n    /* \"#utility.yul\":5942:5946   */\n  0x20\n    /* \"#utility.yul\":5939:5940   */\n  dup2\n    /* \"#utility.yul\":5935:5947   */\n  add\n    /* \"#utility.yul\":5930:5947   */\n  swap1\n  pop\n    /* \"#utility.yul\":5905:6113   */\n  jump(tag_114)\ntag_116:\n    /* \"#utility.yul\":6141:6147   */\n  dup7\n    /* \"#utility.yul\":6132:6139   */\n  dup4\n    /* \"#utility.yul\":6129:6148   */\n  lt\n    /* \"#utility.yul\":6126:6305   */\n  iszero\n  tag_117\n  jumpi\n    /* \"#utility.yul\":6199:6208   */\n  dup5\n    /* \"#utility.yul\":6194:6197   */\n  dup10\n    /* \"#utility.yul\":6190:6209   */\n  add\n    /* \"#utility.yul\":6184:6210   */\n  mload\n    /* \"#utility.yul\":6242:6290   */\n  tag_118\n    /* \"#utility.yul\":6284:6288   */\n  0x1f\n    /* \"#utility.yul\":6276:6282   */\n  dup10\n    /* \"#utility.yul\":6272:6289   */\n  and\n    /* \"#utility.yul\":6261:6270   */\n  dup3\n    /* \"#utility.yul\":6242:6290   */\n  tag_39\n  jump\t// in\ntag_118:\n    /* \"#utility.yul\":6234:6240   */\n  dup4\n    /* \"#utility.yul\":6227:6291   */\n  sstore\n    /* \"#utility.yul\":6149:6305   */\n  pop\n    /* \"#utility.yul\":6126:6305   */\ntag_117:\n    /* \"#utility.yul\":6351:6352   */\n  0x01\n    /* \"#utility.yul\":6347:6348   */\n  0x02\n    /* \"#utility.yul\":6339:6345   */\n  dup9\n    /* \"#utility.yul\":6335:6349   */\n  mul\n    /* \"#utility.yul\":6331:6353   */\n  add\n    /* \"#utility.yul\":6325:6329   */\n  dup9\n    /* \"#utility.yul\":6318:6354   */\n  sstore\n    /* \"#utility.yul\":5753:6364   */\n  pop\n  pop\n  pop\n    /* \"#utility.yul\":5716:6603   */\ntag_109:\n  pop\n    /* \"#utility.yul\":5306:6609   */\n  pop\n  pop\n  pop\n    /* \"#utility.yul\":5214:6609   */\n  pop\n  pop\n  jump\t// out\n    /* \"contracts/UserManager.sol\":137:2983  contract UserManagerContract {... */\ntag_13:\n  dataSize(sub_0)\n  dup1\n  dataOffset(sub_0)\n  0x00\n  codecopy\n  0x00\n  return\nstop\n\nsub_0: assembly {\n        /* \"contracts/UserManager.sol\":137:2983  contract UserManagerContract {... */\n      mstore(0x40, 0x80)\n      callvalue\n      dup1\n      iszero\n      tag_1\n      jumpi\n      revert(0x00, 0x00)\n    tag_1:\n      pop\n      jumpi(tag_2, lt(calldatasize, 0x04))\n      shr(0xe0, calldataload(0x00))\n      dup1\n      0x704c6c\n      eq\n      tag_3\n      jumpi\n      dup1\n      0x091c4553\n      eq\n      tag_4\n      jumpi\n      dup1\n      0x541709da\n      eq\n      tag_5\n      jumpi\n      dup1\n      0x80b6e64a\n      eq\n      tag_6\n      jumpi\n      dup1\n      0xd9781122\n      eq\n      tag_7\n      jumpi\n    tag_2:\n      revert(0x00, 0x00)\n        /* \"contracts/UserManager.sol\":2180:2418  function addNftToUser(address userAddr, uint256 tokenId) ... */\n    tag_3:\n      tag_8\n      0x04\n      dup1\n      calldatasize\n      sub\n      dup2\n      add\n      swap1\n      tag_9\n      swap2\n      swap1\n      tag_10\n      jump\t// in\n    tag_9:\n      tag_11\n      jump\t// in\n    tag_8:\n      stop\n        /* \"contracts/UserManager.sol\":1963:2150  function getOtherUserData(address userAddr) ... */\n    tag_4:\n      tag_12\n      0x04\n      dup1\n      calldatasize\n      sub\n      dup2\n      add\n      swap1\n      tag_13\n      swap2\n      swap1\n      tag_14\n      jump\t// in\n    tag_13:\n      tag_15\n      jump\t// in\n    tag_12:\n      mload(0x40)\n      tag_16\n      swap2\n      swap1\n      tag_17\n      jump\t// in\n    tag_16:\n      mload(0x40)\n      dup1\n      swap2\n      sub\n      swap1\n      return\n        /* \"contracts/UserManager.sol\":1777:1955  function getCurrentUserData() ... */\n    tag_5:\n      tag_18\n      tag_19\n      jump\t// in\n    tag_18:\n      mload(0x40)\n      tag_20\n      swap2\n      swap1\n      tag_17\n      jump\t// in\n    tag_20:\n      mload(0x40)\n      dup1\n      swap2\n      sub\n      swap1\n      return\n        /* \"contracts/UserManager.sol\":1251:1502  function createUser(string memory _fullName, uint256 _dateOfBirth, Gender _gender) ... */\n    tag_6:\n      tag_21\n      0x04\n      dup1\n      calldatasize\n      sub\n      dup2\n      add\n      swap1\n      tag_22\n      swap2\n      swap1\n      tag_23\n      jump\t// in\n    tag_22:\n      tag_24\n      jump\t// in\n    tag_21:\n      stop\n        /* \"contracts/UserManager.sol\":2426:2980  function listAllNftsOfUser(address userAddr)... */\n    tag_7:\n      tag_25\n      0x04\n      dup1\n      calldatasize\n      sub\n      dup2\n      add\n      swap1\n      tag_26\n      swap2\n      swap1\n      tag_14\n      jump\t// in\n    tag_26:\n      tag_27\n      jump\t// in\n    tag_25:\n      mload(0x40)\n      tag_28\n      swap2\n      swap1\n      tag_29\n      jump\t// in\n    tag_28:\n      mload(0x40)\n      dup1\n      swap2\n      sub\n      swap1\n      return\n        /* \"contracts/UserManager.sol\":2180:2418  function addNftToUser(address userAddr, uint256 tokenId) ... */\n    tag_11:\n        /* \"contracts/UserManager.sol\":2259:2293  RoleManagerContract.RoleType.ADMIN */\n      0x00\n        /* \"contracts/UserManager.sol\":1164:1168  role */\n      dup1\n        /* \"contracts/UserManager.sol\":1139:1168  roleManager.getRole() == role */\n      0x02\n      dup2\n      gt\n      iszero\n      tag_31\n      jumpi\n      tag_32\n      tag_33\n      jump\t// in\n    tag_32:\n    tag_31:\n        /* \"contracts/UserManager.sol\":1139:1150  roleManager */\n      0x00\n      0x00\n      swap1\n      sload\n      swap1\n      0x0100\n      exp\n      swap1\n      div\n      0xffffffffffffffffffffffffffffffffffffffff\n      and\n        /* \"contracts/UserManager.sol\":1139:1158  roleManager.getRole */\n      0xffffffffffffffffffffffffffffffffffffffff\n      and\n      0xfde08174\n        /* \"contracts/UserManager.sol\":1139:1160  roleManager.getRole() */\n      mload(0x40)\n      dup2\n      0xffffffff\n      and\n      0xe0\n      shl\n      dup2\n      mstore\n      0x04\n      add\n      0x20\n      mload(0x40)\n      dup1\n      dup4\n      sub\n      dup2\n      dup7\n      gas\n      staticcall\n      iszero\n      dup1\n      iszero\n      tag_35\n      jumpi\n      returndatacopy(0x00, 0x00, returndatasize)\n      revert(0x00, returndatasize)\n    tag_35:\n      pop\n      pop\n      pop\n      pop\n      mload(0x40)\n      returndatasize\n      not(0x1f)\n      0x1f\n      dup3\n      add\n      and\n      dup3\n      add\n      dup1\n      0x40\n      mstore\n      pop\n      dup2\n      add\n      swap1\n      tag_36\n      swap2\n      swap1\n      tag_37\n      jump\t// in\n    tag_36:\n        /* \"contracts/UserManager.sol\":1139:1168  roleManager.getRole() == role */\n      0x02\n      dup2\n      gt\n      iszero\n      tag_38\n      jumpi\n      tag_39\n      tag_33\n      jump\t// in\n    tag_39:\n    tag_38:\n      eq\n        /* \"contracts/UserManager.sol\":1170:1199  ErrorCodes.ERROR_UNAUTHORIZED */\n      mload(0x40)\n      dup1\n      0x40\n      add\n      0x40\n      mstore\n      dup1\n      0x0c\n      dup2\n      mstore\n      0x20\n      add\n      0x554e415554484f52495a45440000000000000000000000000000000000000000\n      dup2\n      mstore\n      pop\n        /* \"contracts/UserManager.sol\":1131:1200  require(roleManager.getRole() == role, ErrorCodes.ERROR_UNAUTHORIZED) */\n      swap1\n      tag_40\n      jumpi\n      mload(0x40)\n      0x08c379a000000000000000000000000000000000000000000000000000000000\n      dup2\n      mstore\n      0x04\n      add\n      tag_41\n      swap2\n      swap1\n      tag_42\n      jump\t// in\n    tag_41:\n      mload(0x40)\n      dup1\n      swap2\n      sub\n      swap1\n      revert\n    tag_40:\n      pop\n        /* \"contracts/UserManager.sol\":2306:2331  UserToken memory newToken */\n      0x00\n        /* \"contracts/UserManager.sol\":2334:2358  UserToken(tokenId,false) */\n      mload(0x40)\n      dup1\n      0x40\n      add\n      0x40\n      mstore\n      dup1\n        /* \"contracts/UserManager.sol\":2344:2351  tokenId */\n      dup5\n        /* \"contracts/UserManager.sol\":2334:2358  UserToken(tokenId,false) */\n      dup2\n      mstore\n      0x20\n      add\n        /* \"contracts/UserManager.sol\":2352:2357  false */\n      0x00\n        /* \"contracts/UserManager.sol\":2334:2358  UserToken(tokenId,false) */\n      iszero\n      iszero\n      dup2\n      mstore\n      pop\n        /* \"contracts/UserManager.sol\":2306:2358  UserToken memory newToken = UserToken(tokenId,false) */\n      swap1\n      pop\n        /* \"contracts/UserManager.sol\":2369:2385  listOfUsersToken */\n      0x02\n        /* \"contracts/UserManager.sol\":2369:2395  listOfUsersToken[userAddr] */\n      0x00\n        /* \"contracts/UserManager.sol\":2386:2394  userAddr */\n      dup6\n        /* \"contracts/UserManager.sol\":2369:2395  listOfUsersToken[userAddr] */\n      0xffffffffffffffffffffffffffffffffffffffff\n      and\n      0xffffffffffffffffffffffffffffffffffffffff\n      and\n      dup2\n      mstore\n      0x20\n      add\n      swap1\n      dup2\n      mstore\n      0x20\n      add\n      0x00\n      keccak256\n        /* \"contracts/UserManager.sol\":2401:2409  newToken */\n      dup2\n        /* \"contracts/UserManager.sol\":2369:2410  listOfUsersToken[userAddr].push(newToken) */\n      swap1\n      dup1\n      0x01\n      dup2\n      sload\n      add\n      dup1\n      dup3\n      sstore\n      dup1\n      swap2\n      pop\n      pop\n      0x01\n      swap1\n      sub\n      swap1\n      0x00\n      mstore\n      keccak256(0x00, 0x20)\n      swap1\n      0x02\n      mul\n      add\n      0x00\n      swap1\n      swap2\n      swap1\n      swap2\n      swap1\n      swap2\n      pop\n      0x00\n      dup3\n      add\n      mload\n      dup2\n      0x00\n      add\n      sstore\n      0x20\n      dup3\n      add\n      mload\n      dup2\n      0x01\n      add\n      exp(0x0100, 0x00)\n      dup2\n      sload\n      dup2\n      0xff\n      mul\n      not\n      and\n      swap1\n      dup4\n      iszero\n      iszero\n      mul\n      or\n      swap1\n      sstore\n      pop\n      pop\n      pop\n        /* \"contracts/UserManager.sol\":2295:2418  {... */\n      pop\n        /* \"contracts/UserManager.sol\":2180:2418  function addNftToUser(address userAddr, uint256 tokenId) ... */\n      pop\n      pop\n      pop\n      jump\t// out\n        /* \"contracts/UserManager.sol\":1963:2150  function getOtherUserData(address userAddr) ... */\n    tag_15:\n        /* \"contracts/UserManager.sol\":2062:2073  User memory */\n      tag_45\n      tag_46\n      jump\t// in\n    tag_45:\n        /* \"contracts/UserManager.sol\":2037:2045  userAddr */\n      dup2\n        /* \"contracts/UserManager.sol\":1001:1002  0 */\n      0x00\n        /* \"contracts/UserManager.sol\":971:976  users */\n      0x01\n        /* \"contracts/UserManager.sol\":971:986  users[userAddr] */\n      0x00\n        /* \"contracts/UserManager.sol\":977:985  userAddr */\n      dup4\n        /* \"contracts/UserManager.sol\":971:986  users[userAddr] */\n      0xffffffffffffffffffffffffffffffffffffffff\n      and\n      0xffffffffffffffffffffffffffffffffffffffff\n      and\n      dup2\n      mstore\n      0x20\n      add\n      swap1\n      dup2\n      mstore\n      0x20\n      add\n      0x00\n      keccak256\n        /* \"contracts/UserManager.sol\":971:998  users[userAddr].dateOfBirth */\n      0x01\n      add\n      sload\n        /* \"contracts/UserManager.sol\":971:1002  users[userAddr].dateOfBirth > 0 */\n      gt\n        /* \"contracts/UserManager.sol\":1004:1038  ErrorCodes.ERROR_USER_IS_NOT_FOUND */\n      mload(0x40)\n      dup1\n      0x40\n      add\n      0x40\n      mstore\n      dup1\n      0x11\n      dup2\n      mstore\n      0x20\n      add\n      0x555345525f49535f4e4f545f464f554e44000000000000000000000000000000\n      dup2\n      mstore\n      pop\n        /* \"contracts/UserManager.sol\":963:1039  require(users[userAddr].dateOfBirth > 0, ErrorCodes.ERROR_USER_IS_NOT_FOUND) */\n      swap1\n      tag_48\n      jumpi\n      mload(0x40)\n      0x08c379a000000000000000000000000000000000000000000000000000000000\n      dup2\n      mstore\n      0x04\n      add\n      tag_49\n      swap2\n      swap1\n      tag_42\n      jump\t// in\n    tag_49:\n      mload(0x40)\n      dup1\n      swap2\n      sub\n      swap1\n      revert\n    tag_48:\n      pop\n        /* \"contracts/UserManager.sol\":2086:2102  User memory user */\n      0x00\n        /* \"contracts/UserManager.sol\":2105:2110  users */\n      0x01\n        /* \"contracts/UserManager.sol\":2105:2120  users[userAddr] */\n      0x00\n        /* \"contracts/UserManager.sol\":2111:2119  userAddr */\n      dup6\n        /* \"contracts/UserManager.sol\":2105:2120  users[userAddr] */\n      0xffffffffffffffffffffffffffffffffffffffff\n      and\n      0xffffffffffffffffffffffffffffffffffffffff\n      and\n      dup2\n      mstore\n      0x20\n      add\n      swap1\n      dup2\n      mstore\n      0x20\n      add\n      0x00\n      keccak256\n        /* \"contracts/UserManager.sol\":2086:2120  User memory user = users[userAddr] */\n      mload(0x40)\n      dup1\n      0x60\n      add\n      0x40\n      mstore\n      swap1\n      dup2\n      0x00\n      dup3\n      add\n      dup1\n      sload\n      tag_51\n      swap1\n      tag_52\n      jump\t// in\n    tag_51:\n      dup1\n      0x1f\n      add\n      0x20\n      dup1\n      swap2\n      div\n      mul\n      0x20\n      add\n      mload(0x40)\n      swap1\n      dup2\n      add\n      0x40\n      mstore\n      dup1\n      swap3\n      swap2\n      swap1\n      dup2\n      dup2\n      mstore\n      0x20\n      add\n      dup3\n      dup1\n      sload\n      tag_53\n      swap1\n      tag_52\n      jump\t// in\n    tag_53:\n      dup1\n      iszero\n      tag_54\n      jumpi\n      dup1\n      0x1f\n      lt\n      tag_55\n      jumpi\n      0x0100\n      dup1\n      dup4\n      sload\n      div\n      mul\n      dup4\n      mstore\n      swap2\n      0x20\n      add\n      swap2\n      jump(tag_54)\n    tag_55:\n      dup3\n      add\n      swap2\n      swap1\n      0x00\n      mstore\n      keccak256(0x00, 0x20)\n      swap1\n    tag_56:\n      dup2\n      sload\n      dup2\n      mstore\n      swap1\n      0x01\n      add\n      swap1\n      0x20\n      add\n      dup1\n      dup4\n      gt\n      tag_56\n      jumpi\n      dup3\n      swap1\n      sub\n      0x1f\n      and\n      dup3\n      add\n      swap2\n    tag_54:\n      pop\n      pop\n      pop\n      pop\n      pop\n      dup2\n      mstore\n      0x20\n      add\n      0x01\n      dup3\n      add\n      sload\n      dup2\n      mstore\n      0x20\n      add\n      0x02\n      dup3\n      add\n      0x00\n      swap1\n      sload\n      swap1\n      0x0100\n      exp\n      swap1\n      div\n      0xff\n      and\n      0x02\n      dup2\n      gt\n      iszero\n      tag_57\n      jumpi\n      tag_58\n      tag_33\n      jump\t// in\n    tag_58:\n    tag_57:\n      0x02\n      dup2\n      gt\n      iszero\n      tag_59\n      jumpi\n      tag_60\n      tag_33\n      jump\t// in\n    tag_60:\n    tag_59:\n      dup2\n      mstore\n      pop\n      pop\n      swap1\n      pop\n        /* \"contracts/UserManager.sol\":2138:2142  user */\n      dup1\n        /* \"contracts/UserManager.sol\":2131:2142  return user */\n      swap3\n      pop\n      pop\n        /* \"contracts/UserManager.sol\":1963:2150  function getOtherUserData(address userAddr) ... */\n      pop\n      swap2\n      swap1\n      pop\n      jump\t// out\n        /* \"contracts/UserManager.sol\":1777:1955  function getCurrentUserData() ... */\n    tag_19:\n        /* \"contracts/UserManager.sol\":1864:1875  User memory */\n      tag_61\n      tag_46\n      jump\t// in\n    tag_61:\n        /* \"contracts/UserManager.sol\":1837:1847  msg.sender */\n      caller\n        /* \"contracts/UserManager.sol\":1001:1002  0 */\n      0x00\n        /* \"contracts/UserManager.sol\":971:976  users */\n      0x01\n        /* \"contracts/UserManager.sol\":971:986  users[userAddr] */\n      0x00\n        /* \"contracts/UserManager.sol\":977:985  userAddr */\n      dup4\n        /* \"contracts/UserManager.sol\":971:986  users[userAddr] */\n      0xffffffffffffffffffffffffffffffffffffffff\n      and\n      0xffffffffffffffffffffffffffffffffffffffff\n      and\n      dup2\n      mstore\n      0x20\n      add\n      swap1\n      dup2\n      mstore\n      0x20\n      add\n      0x00\n      keccak256\n        /* \"contracts/UserManager.sol\":971:998  users[userAddr].dateOfBirth */\n      0x01\n      add\n      sload\n        /* \"contracts/UserManager.sol\":971:1002  users[userAddr].dateOfBirth > 0 */\n      gt\n        /* \"contracts/UserManager.sol\":1004:1038  ErrorCodes.ERROR_USER_IS_NOT_FOUND */\n      mload(0x40)\n      dup1\n      0x40\n      add\n      0x40\n      mstore\n      dup1\n      0x11\n      dup2\n      mstore\n      0x20\n      add\n      0x555345525f49535f4e4f545f464f554e44000000000000000000000000000000\n      dup2\n      mstore\n      pop\n        /* \"contracts/UserManager.sol\":963:1039  require(users[userAddr].dateOfBirth > 0, ErrorCodes.ERROR_USER_IS_NOT_FOUND) */\n      swap1\n      tag_63\n      jumpi\n      mload(0x40)\n      0x08c379a000000000000000000000000000000000000000000000000000000000\n      dup2\n      mstore\n      0x04\n      add\n      tag_64\n      swap2\n      swap1\n      tag_42\n      jump\t// in\n    tag_64:\n      mload(0x40)\n      dup1\n      swap2\n      sub\n      swap1\n      revert\n    tag_63:\n      pop\n        /* \"contracts/UserManager.sol\":1889:1905  User memory user */\n      0x00\n        /* \"contracts/UserManager.sol\":1908:1913  users */\n      0x01\n        /* \"contracts/UserManager.sol\":1908:1925  users[msg.sender] */\n      0x00\n        /* \"contracts/UserManager.sol\":1914:1924  msg.sender */\n      caller\n        /* \"contracts/UserManager.sol\":1908:1925  users[msg.sender] */\n      0xffffffffffffffffffffffffffffffffffffffff\n      and\n      0xffffffffffffffffffffffffffffffffffffffff\n      and\n      dup2\n      mstore\n      0x20\n      add\n      swap1\n      dup2\n      mstore\n      0x20\n      add\n      0x00\n      keccak256\n        /* \"contracts/UserManager.sol\":1889:1925  User memory user = users[msg.sender] */\n      mload(0x40)\n      dup1\n      0x60\n      add\n      0x40\n      mstore\n      swap1\n      dup2\n      0x00\n      dup3\n      add\n      dup1\n      sload\n      tag_66\n      swap1\n      tag_52\n      jump\t// in\n    tag_66:\n      dup1\n      0x1f\n      add\n      0x20\n      dup1\n      swap2\n      div\n      mul\n      0x20\n      add\n      mload(0x40)\n      swap1\n      dup2\n      add\n      0x40\n      mstore\n      dup1\n      swap3\n      swap2\n      swap1\n      dup2\n      dup2\n      mstore\n      0x20\n      add\n      dup3\n      dup1\n      sload\n      tag_67\n      swap1\n      tag_52\n      jump\t// in\n    tag_67:\n      dup1\n      iszero\n      tag_68\n      jumpi\n      dup1\n      0x1f\n      lt\n      tag_69\n      jumpi\n      0x0100\n      dup1\n      dup4\n      sload\n      div\n      mul\n      dup4\n      mstore\n      swap2\n      0x20\n      add\n      swap2\n      jump(tag_68)\n    tag_69:\n      dup3\n      add\n      swap2\n      swap1\n      0x00\n      mstore\n      keccak256(0x00, 0x20)\n      swap1\n    tag_70:\n      dup2\n      sload\n      dup2\n      mstore\n      swap1\n      0x01\n      add\n      swap1\n      0x20\n      add\n      dup1\n      dup4\n      gt\n      tag_70\n      jumpi\n      dup3\n      swap1\n      sub\n      0x1f\n      and\n      dup3\n      add\n      swap2\n    tag_68:\n      pop\n      pop\n      pop\n      pop\n      pop\n      dup2\n      mstore\n      0x20\n      add\n      0x01\n      dup3\n      add\n      sload\n      dup2\n      mstore\n      0x20\n      add\n      0x02\n      dup3\n      add\n      0x00\n      swap1\n      sload\n      swap1\n      0x0100\n      exp\n      swap1\n      div\n      0xff\n      and\n      0x02\n      dup2\n      gt\n      iszero\n      tag_71\n      jumpi\n      tag_72\n      tag_33\n      jump\t// in\n    tag_72:\n    tag_71:\n      0x02\n      dup2\n      gt\n      iszero\n      tag_73\n      jumpi\n      tag_74\n      tag_33\n      jump\t// in\n    tag_74:\n    tag_73:\n      dup2\n      mstore\n      pop\n      pop\n      swap1\n      pop\n        /* \"contracts/UserManager.sol\":1943:1947  user */\n      dup1\n        /* \"contracts/UserManager.sol\":1936:1947  return user */\n      swap3\n      pop\n      pop\n        /* \"contracts/UserManager.sol\":1777:1955  function getCurrentUserData() ... */\n      pop\n      swap1\n      jump\t// out\n        /* \"contracts/UserManager.sol\":1251:1502  function createUser(string memory _fullName, uint256 _dateOfBirth, Gender _gender) ... */\n    tag_24:\n        /* \"contracts/UserManager.sol\":1364:1374  msg.sender */\n      caller\n        /* \"contracts/UserManager.sol\":849:850  0 */\n      0x00\n        /* \"contracts/UserManager.sol\":818:823  users */\n      0x01\n        /* \"contracts/UserManager.sol\":818:833  users[userAddr] */\n      0x00\n        /* \"contracts/UserManager.sol\":824:832  userAddr */\n      dup4\n        /* \"contracts/UserManager.sol\":818:833  users[userAddr] */\n      0xffffffffffffffffffffffffffffffffffffffff\n      and\n      0xffffffffffffffffffffffffffffffffffffffff\n      and\n      dup2\n      mstore\n      0x20\n      add\n      swap1\n      dup2\n      mstore\n      0x20\n      add\n      0x00\n      keccak256\n        /* \"contracts/UserManager.sol\":818:845  users[userAddr].dateOfBirth */\n      0x01\n      add\n      sload\n        /* \"contracts/UserManager.sol\":818:850  users[userAddr].dateOfBirth == 0 */\n      eq\n        /* \"contracts/UserManager.sol\":852:884  ErrorCodes.ERROR_USER_IS_CREATED */\n      mload(0x40)\n      dup1\n      0x40\n      add\n      0x40\n      mstore\n      dup1\n      0x0f\n      dup2\n      mstore\n      0x20\n      add\n      0x555345525f49535f435245415445440000000000000000000000000000000000\n      dup2\n      mstore\n      pop\n        /* \"contracts/UserManager.sol\":810:885  require(users[userAddr].dateOfBirth == 0, ErrorCodes.ERROR_USER_IS_CREATED) */\n      swap1\n      tag_76\n      jumpi\n      mload(0x40)\n      0x08c379a000000000000000000000000000000000000000000000000000000000\n      dup2\n      mstore\n      0x04\n      add\n      tag_77\n      swap2\n      swap1\n      tag_42\n      jump\t// in\n    tag_77:\n      mload(0x40)\n      dup1\n      swap2\n      sub\n      swap1\n      revert\n    tag_76:\n      pop\n        /* \"contracts/UserManager.sol\":1407:1445  User(_fullName, _dateOfBirth, _gender) */\n      mload(0x40)\n      dup1\n      0x60\n      add\n      0x40\n      mstore\n      dup1\n        /* \"contracts/UserManager.sol\":1412:1421  _fullName */\n      dup6\n        /* \"contracts/UserManager.sol\":1407:1445  User(_fullName, _dateOfBirth, _gender) */\n      dup2\n      mstore\n      0x20\n      add\n        /* \"contracts/UserManager.sol\":1423:1435  _dateOfBirth */\n      dup5\n        /* \"contracts/UserManager.sol\":1407:1445  User(_fullName, _dateOfBirth, _gender) */\n      dup2\n      mstore\n      0x20\n      add\n        /* \"contracts/UserManager.sol\":1437:1444  _gender */\n      dup4\n        /* \"contracts/UserManager.sol\":1407:1445  User(_fullName, _dateOfBirth, _gender) */\n      0x02\n      dup2\n      gt\n      iszero\n      tag_79\n      jumpi\n      tag_80\n      tag_33\n      jump\t// in\n    tag_80:\n    tag_79:\n      dup2\n      mstore\n      pop\n        /* \"contracts/UserManager.sol\":1387:1392  users */\n      0x01\n        /* \"contracts/UserManager.sol\":1387:1404  users[msg.sender] */\n      0x00\n        /* \"contracts/UserManager.sol\":1393:1403  msg.sender */\n      caller\n        /* \"contracts/UserManager.sol\":1387:1404  users[msg.sender] */\n      0xffffffffffffffffffffffffffffffffffffffff\n      and\n      0xffffffffffffffffffffffffffffffffffffffff\n      and\n      dup2\n      mstore\n      0x20\n      add\n      swap1\n      dup2\n      mstore\n      0x20\n      add\n      0x00\n      keccak256\n        /* \"contracts/UserManager.sol\":1387:1445  users[msg.sender] = User(_fullName, _dateOfBirth, _gender) */\n      0x00\n      dup3\n      add\n      mload\n      dup2\n      0x00\n      add\n      swap1\n      dup2\n      tag_81\n      swap2\n      swap1\n      tag_82\n      jump\t// in\n    tag_81:\n      pop\n      0x20\n      dup3\n      add\n      mload\n      dup2\n      0x01\n      add\n      sstore\n      0x40\n      dup3\n      add\n      mload\n      dup2\n      0x02\n      add\n      exp(0x0100, 0x00)\n      dup2\n      sload\n      dup2\n      0xff\n      mul\n      not\n      and\n      swap1\n      dup4\n      0x02\n      dup2\n      gt\n      iszero\n      tag_83\n      jumpi\n      tag_84\n      tag_33\n      jump\t// in\n    tag_84:\n    tag_83:\n      mul\n      or\n      swap1\n      sstore\n      pop\n      swap1\n      pop\n      pop\n        /* \"contracts/UserManager.sol\":1456:1467  roleManager */\n      0x00\n      0x00\n      swap1\n      sload\n      swap1\n      0x0100\n      exp\n      swap1\n      div\n      0xffffffffffffffffffffffffffffffffffffffff\n      and\n        /* \"contracts/UserManager.sol\":1456:1482  roleManager.setStudentRole */\n      0xffffffffffffffffffffffffffffffffffffffff\n      and\n      0x2e1cd6c2\n        /* \"contracts/UserManager.sol\":1483:1493  msg.sender */\n      caller\n        /* \"contracts/UserManager.sol\":1456:1494  roleManager.setStudentRole(msg.sender) */\n      mload(0x40)\n      dup3\n      0xffffffff\n      and\n      0xe0\n      shl\n      dup2\n      mstore\n      0x04\n      add\n      tag_85\n      swap2\n      swap1\n      tag_86\n      jump\t// in\n    tag_85:\n      0x00\n      mload(0x40)\n      dup1\n      dup4\n      sub\n      dup2\n      0x00\n      dup8\n      dup1\n      extcodesize\n      iszero\n      dup1\n      iszero\n      tag_87\n      jumpi\n      revert(0x00, 0x00)\n    tag_87:\n      pop\n      gas\n      call\n      iszero\n      dup1\n      iszero\n      tag_89\n      jumpi\n      returndatacopy(0x00, 0x00, returndatasize)\n      revert(0x00, returndatasize)\n    tag_89:\n      pop\n      pop\n      pop\n      pop\n        /* \"contracts/UserManager.sol\":1251:1502  function createUser(string memory _fullName, uint256 _dateOfBirth, Gender _gender) ... */\n      pop\n      pop\n      pop\n      pop\n      jump\t// out\n        /* \"contracts/UserManager.sol\":2426:2980  function listAllNftsOfUser(address userAddr)... */\n    tag_27:\n        /* \"contracts/UserManager.sol\":2496:2512  uint256[] memory */\n      0x60\n        /* \"contracts/UserManager.sol\":2525:2553  UserToken[] memory listToken */\n      0x00\n        /* \"contracts/UserManager.sol\":2556:2572  listOfUsersToken */\n      0x02\n        /* \"contracts/UserManager.sol\":2556:2582  listOfUsersToken[userAddr] */\n      0x00\n        /* \"contracts/UserManager.sol\":2573:2581  userAddr */\n      dup5\n        /* \"contracts/UserManager.sol\":2556:2582  listOfUsersToken[userAddr] */\n      0xffffffffffffffffffffffffffffffffffffffff\n      and\n      0xffffffffffffffffffffffffffffffffffffffff\n      and\n      dup2\n      mstore\n      0x20\n      add\n      swap1\n      dup2\n      mstore\n      0x20\n      add\n      0x00\n      keccak256\n        /* \"contracts/UserManager.sol\":2525:2582  UserToken[] memory listToken = listOfUsersToken[userAddr] */\n      dup1\n      sload\n      dup1\n      0x20\n      mul\n      0x20\n      add\n      mload(0x40)\n      swap1\n      dup2\n      add\n      0x40\n      mstore\n      dup1\n      swap3\n      swap2\n      swap1\n      dup2\n      dup2\n      mstore\n      0x20\n      add\n      0x00\n      swap1\n    tag_91:\n      dup3\n      dup3\n      lt\n      iszero\n      tag_92\n      jumpi\n      dup4\n      dup3\n      swap1\n      0x00\n      mstore\n      keccak256(0x00, 0x20)\n      swap1\n      0x02\n      mul\n      add\n      mload(0x40)\n      dup1\n      0x40\n      add\n      0x40\n      mstore\n      swap1\n      dup2\n      0x00\n      dup3\n      add\n      sload\n      dup2\n      mstore\n      0x20\n      add\n      0x01\n      dup3\n      add\n      0x00\n      swap1\n      sload\n      swap1\n      0x0100\n      exp\n      swap1\n      div\n      0xff\n      and\n      iszero\n      iszero\n      iszero\n      iszero\n      dup2\n      mstore\n      pop\n      pop\n      dup2\n      mstore\n      0x20\n      add\n      swap1\n      0x01\n      add\n      swap1\n      jump(tag_91)\n    tag_92:\n      pop\n      pop\n      pop\n      pop\n      swap1\n      pop\n        /* \"contracts/UserManager.sol\":2593:2622  uint256[] memory tokenIdArray */\n      0x00\n        /* \"contracts/UserManager.sol\":2639:2648  listToken */\n      dup2\n        /* \"contracts/UserManager.sol\":2639:2655  listToken.length */\n      mload\n        /* \"contracts/UserManager.sol\":2625:2656  new uint256[](listToken.length) */\n      0xffffffffffffffff\n      dup2\n      gt\n      iszero\n      tag_94\n      jumpi\n      tag_95\n      tag_96\n      jump\t// in\n    tag_95:\n    tag_94:\n      mload(0x40)\n      swap1\n      dup1\n      dup3\n      mstore\n      dup1\n      0x20\n      mul\n      0x20\n      add\n      dup3\n      add\n      0x40\n      mstore\n      dup1\n      iszero\n      tag_97\n      jumpi\n      dup2\n      0x20\n      add\n      0x20\n      dup3\n      mul\n      dup1\n      calldatasize\n      dup4\n      calldatacopy\n      dup1\n      dup3\n      add\n      swap2\n      pop\n      pop\n      swap1\n      pop\n    tag_97:\n      pop\n        /* \"contracts/UserManager.sol\":2593:2656  uint256[] memory tokenIdArray = new uint256[](listToken.length) */\n      swap1\n      pop\n        /* \"contracts/UserManager.sol\":2667:2678  uint256 idx */\n      0x00\n        /* \"contracts/UserManager.sol\":2681:2682  0 */\n      0x00\n        /* \"contracts/UserManager.sol\":2667:2682  uint256 idx = 0 */\n      swap1\n      pop\n        /* \"contracts/UserManager.sol\":2698:2707  uint256 i */\n      0x00\n        /* \"contracts/UserManager.sol\":2710:2711  0 */\n      0x00\n        /* \"contracts/UserManager.sol\":2698:2711  uint256 i = 0 */\n      swap1\n      pop\n        /* \"contracts/UserManager.sol\":2693:2943  for (uint256 i = 0; i < listToken.length; i++) {... */\n    tag_98:\n        /* \"contracts/UserManager.sol\":2717:2726  listToken */\n      dup4\n        /* \"contracts/UserManager.sol\":2717:2733  listToken.length */\n      mload\n        /* \"contracts/UserManager.sol\":2713:2714  i */\n      dup2\n        /* \"contracts/UserManager.sol\":2713:2733  i < listToken.length */\n      lt\n        /* \"contracts/UserManager.sol\":2693:2943  for (uint256 i = 0; i < listToken.length; i++) {... */\n      iszero\n      tag_99\n      jumpi\n        /* \"contracts/UserManager.sol\":2772:2782  msg.sender */\n      caller\n        /* \"contracts/UserManager.sol\":2760:2782  userAddr == msg.sender */\n      0xffffffffffffffffffffffffffffffffffffffff\n      and\n        /* \"contracts/UserManager.sol\":2760:2768  userAddr */\n      dup7\n        /* \"contracts/UserManager.sol\":2760:2782  userAddr == msg.sender */\n      0xffffffffffffffffffffffffffffffffffffffff\n      and\n      eq\n        /* \"contracts/UserManager.sol\":2760:2808  userAddr == msg.sender && !listToken[i].isPublic */\n      dup1\n      iszero\n      tag_101\n      jumpi\n      pop\n        /* \"contracts/UserManager.sol\":2787:2796  listToken */\n      dup4\n        /* \"contracts/UserManager.sol\":2797:2798  i */\n      dup2\n        /* \"contracts/UserManager.sol\":2787:2799  listToken[i] */\n      dup2\n      mload\n      dup2\n      lt\n      tag_102\n      jumpi\n      tag_103\n      tag_104\n      jump\t// in\n    tag_103:\n    tag_102:\n      0x20\n      mul\n      0x20\n      add\n      add\n      mload\n        /* \"contracts/UserManager.sol\":2787:2808  listToken[i].isPublic */\n      0x20\n      add\n      mload\n        /* \"contracts/UserManager.sol\":2786:2808  !listToken[i].isPublic */\n      iszero\n        /* \"contracts/UserManager.sol\":2760:2808  userAddr == msg.sender && !listToken[i].isPublic */\n    tag_101:\n        /* \"contracts/UserManager.sol\":2759:2845  (userAddr == msg.sender && !listToken[i].isPublic) || roleManager.isCurrentUserAdmin() */\n      dup1\n      tag_105\n      jumpi\n      pop\n        /* \"contracts/UserManager.sol\":2813:2824  roleManager */\n      0x00\n      0x00\n      swap1\n      sload\n      swap1\n      0x0100\n      exp\n      swap1\n      div\n      0xffffffffffffffffffffffffffffffffffffffff\n      and\n        /* \"contracts/UserManager.sol\":2813:2843  roleManager.isCurrentUserAdmin */\n      0xffffffffffffffffffffffffffffffffffffffff\n      and\n      0x9805524a\n        /* \"contracts/UserManager.sol\":2813:2845  roleManager.isCurrentUserAdmin() */\n      mload(0x40)\n      dup2\n      0xffffffff\n      and\n      0xe0\n      shl\n      dup2\n      mstore\n      0x04\n      add\n      0x20\n      mload(0x40)\n      dup1\n      dup4\n      sub\n      dup2\n      dup7\n      gas\n      staticcall\n      iszero\n      dup1\n      iszero\n      tag_107\n      jumpi\n      returndatacopy(0x00, 0x00, returndatasize)\n      revert(0x00, returndatasize)\n    tag_107:\n      pop\n      pop\n      pop\n      pop\n      mload(0x40)\n      returndatasize\n      not(0x1f)\n      0x1f\n      dup3\n      add\n      and\n      dup3\n      add\n      dup1\n      0x40\n      mstore\n      pop\n      dup2\n      add\n      swap1\n      tag_108\n      swap2\n      swap1\n      tag_109\n      jump\t// in\n    tag_108:\n        /* \"contracts/UserManager.sol\":2759:2845  (userAddr == msg.sender && !listToken[i].isPublic) || roleManager.isCurrentUserAdmin() */\n    tag_105:\n        /* \"contracts/UserManager.sol\":2759:2870  (userAddr == msg.sender && !listToken[i].isPublic) || roleManager.isCurrentUserAdmin() || listToken[i].isPublic */\n      dup1\n      tag_110\n      jumpi\n      pop\n        /* \"contracts/UserManager.sol\":2849:2858  listToken */\n      dup4\n        /* \"contracts/UserManager.sol\":2859:2860  i */\n      dup2\n        /* \"contracts/UserManager.sol\":2849:2861  listToken[i] */\n      dup2\n      mload\n      dup2\n      lt\n      tag_111\n      jumpi\n      tag_112\n      tag_104\n      jump\t// in\n    tag_112:\n    tag_111:\n      0x20\n      mul\n      0x20\n      add\n      add\n      mload\n        /* \"contracts/UserManager.sol\":2849:2870  listToken[i].isPublic */\n      0x20\n      add\n      mload\n        /* \"contracts/UserManager.sol\":2759:2870  (userAddr == msg.sender && !listToken[i].isPublic) || roleManager.isCurrentUserAdmin() || listToken[i].isPublic */\n    tag_110:\n        /* \"contracts/UserManager.sol\":2755:2931  if ((userAddr == msg.sender && !listToken[i].isPublic) || roleManager.isCurrentUserAdmin() || listToken[i].isPublic)... */\n      iszero\n      tag_113\n      jumpi\n        /* \"contracts/UserManager.sol\":2911:2920  listToken */\n      dup4\n        /* \"contracts/UserManager.sol\":2921:2922  i */\n      dup2\n        /* \"contracts/UserManager.sol\":2911:2923  listToken[i] */\n      dup2\n      mload\n      dup2\n      lt\n      tag_114\n      jumpi\n      tag_115\n      tag_104\n      jump\t// in\n    tag_115:\n    tag_114:\n      0x20\n      mul\n      0x20\n      add\n      add\n      mload\n        /* \"contracts/UserManager.sol\":2911:2931  listToken[i].tokenId */\n      0x00\n      add\n      mload\n        /* \"contracts/UserManager.sol\":2889:2901  tokenIdArray */\n      dup4\n        /* \"contracts/UserManager.sol\":2902:2907  idx++ */\n      dup4\n      dup1\n      tag_116\n      swap1\n      tag_117\n      jump\t// in\n    tag_116:\n      swap5\n      pop\n        /* \"contracts/UserManager.sol\":2889:2908  tokenIdArray[idx++] */\n      dup2\n      mload\n      dup2\n      lt\n      tag_118\n      jumpi\n      tag_119\n      tag_104\n      jump\t// in\n    tag_119:\n    tag_118:\n      0x20\n      mul\n      0x20\n      add\n      add\n        /* \"contracts/UserManager.sol\":2889:2931  tokenIdArray[idx++] = listToken[i].tokenId */\n      dup2\n      dup2\n      mstore\n      pop\n      pop\n        /* \"contracts/UserManager.sol\":2755:2931  if ((userAddr == msg.sender && !listToken[i].isPublic) || roleManager.isCurrentUserAdmin() || listToken[i].isPublic)... */\n    tag_113:\n        /* \"contracts/UserManager.sol\":2735:2738  i++ */\n      dup1\n      dup1\n      0x01\n      add\n      swap2\n      pop\n      pop\n        /* \"contracts/UserManager.sol\":2693:2943  for (uint256 i = 0; i < listToken.length; i++) {... */\n      jump(tag_98)\n    tag_99:\n      pop\n        /* \"contracts/UserManager.sol\":2960:2972  tokenIdArray */\n      dup2\n        /* \"contracts/UserManager.sol\":2953:2972  return tokenIdArray */\n      swap4\n      pop\n      pop\n      pop\n      pop\n        /* \"contracts/UserManager.sol\":2426:2980  function listAllNftsOfUser(address userAddr)... */\n      swap2\n      swap1\n      pop\n      jump\t// out\n    tag_46:\n      mload(0x40)\n      dup1\n      0x60\n      add\n      0x40\n      mstore\n      dup1\n      0x60\n      dup2\n      mstore\n      0x20\n      add\n      0x00\n      dup2\n      mstore\n      0x20\n      add\n      0x00\n      0x02\n      dup2\n      gt\n      iszero\n      tag_120\n      jumpi\n      tag_121\n      tag_33\n      jump\t// in\n    tag_121:\n    tag_120:\n      dup2\n      mstore\n      pop\n      swap1\n      jump\t// out\n        /* \"#utility.yul\":7:82   */\n    tag_122:\n        /* \"#utility.yul\":40:46   */\n      0x00\n        /* \"#utility.yul\":73:75   */\n      0x40\n        /* \"#utility.yul\":67:76   */\n      mload\n        /* \"#utility.yul\":57:76   */\n      swap1\n      pop\n        /* \"#utility.yul\":7:82   */\n      swap1\n      jump\t// out\n        /* \"#utility.yul\":88:205   */\n    tag_123:\n        /* \"#utility.yul\":197:198   */\n      0x00\n        /* \"#utility.yul\":194:195   */\n      0x00\n        /* \"#utility.yul\":187:199   */\n      revert\n        /* \"#utility.yul\":211:328   */\n    tag_124:\n        /* \"#utility.yul\":320:321   */\n      0x00\n        /* \"#utility.yul\":317:318   */\n      0x00\n        /* \"#utility.yul\":310:322   */\n      revert\n        /* \"#utility.yul\":334:460   */\n    tag_125:\n        /* \"#utility.yul\":371:378   */\n      0x00\n        /* \"#utility.yul\":411:453   */\n      0xffffffffffffffffffffffffffffffffffffffff\n        /* \"#utility.yul\":404:409   */\n      dup3\n        /* \"#utility.yul\":400:454   */\n      and\n        /* \"#utility.yul\":389:454   */\n      swap1\n      pop\n        /* \"#utility.yul\":334:460   */\n      swap2\n      swap1\n      pop\n      jump\t// out\n        /* \"#utility.yul\":466:562   */\n    tag_126:\n        /* \"#utility.yul\":503:510   */\n      0x00\n        /* \"#utility.yul\":532:556   */\n      tag_190\n        /* \"#utility.yul\":550:555   */\n      dup3\n        /* \"#utility.yul\":532:556   */\n      tag_125\n      jump\t// in\n    tag_190:\n        /* \"#utility.yul\":521:556   */\n      swap1\n      pop\n        /* \"#utility.yul\":466:562   */\n      swap2\n      swap1\n      pop\n      jump\t// out\n        /* \"#utility.yul\":568:690   */\n    tag_127:\n        /* \"#utility.yul\":641:665   */\n      tag_192\n        /* \"#utility.yul\":659:664   */\n      dup2\n        /* \"#utility.yul\":641:665   */\n      tag_126\n      jump\t// in\n    tag_192:\n        /* \"#utility.yul\":634:639   */\n      dup2\n        /* \"#utility.yul\":631:666   */\n      eq\n        /* \"#utility.yul\":621:684   */\n      tag_193\n      jumpi\n        /* \"#utility.yul\":680:681   */\n      0x00\n        /* \"#utility.yul\":677:678   */\n      0x00\n        /* \"#utility.yul\":670:682   */\n      revert\n        /* \"#utility.yul\":621:684   */\n    tag_193:\n        /* \"#utility.yul\":568:690   */\n      pop\n      jump\t// out\n        /* \"#utility.yul\":696:835   */\n    tag_128:\n        /* \"#utility.yul\":742:747   */\n      0x00\n        /* \"#utility.yul\":780:786   */\n      dup2\n        /* \"#utility.yul\":767:787   */\n      calldataload\n        /* \"#utility.yul\":758:787   */\n      swap1\n      pop\n        /* \"#utility.yul\":796:829   */\n      tag_195\n        /* \"#utility.yul\":823:828   */\n      dup2\n        /* \"#utility.yul\":796:829   */\n      tag_127\n      jump\t// in\n    tag_195:\n        /* \"#utility.yul\":696:835   */\n      swap3\n      swap2\n      pop\n      pop\n      jump\t// out\n        /* \"#utility.yul\":841:918   */\n    tag_129:\n        /* \"#utility.yul\":878:885   */\n      0x00\n        /* \"#utility.yul\":907:912   */\n      dup2\n        /* \"#utility.yul\":896:912   */\n      swap1\n      pop\n        /* \"#utility.yul\":841:918   */\n      swap2\n      swap1\n      pop\n      jump\t// out\n        /* \"#utility.yul\":924:1046   */\n    tag_130:\n        /* \"#utility.yul\":997:1021   */\n      tag_198\n        /* \"#utility.yul\":1015:1020   */\n      dup2\n        /* \"#utility.yul\":997:1021   */\n      tag_129\n      jump\t// in\n    tag_198:\n        /* \"#utility.yul\":990:995   */\n      dup2\n        /* \"#utility.yul\":987:1022   */\n      eq\n        /* \"#utility.yul\":977:1040   */\n      tag_199\n      jumpi\n        /* \"#utility.yul\":1036:1037   */\n      0x00\n        /* \"#utility.yul\":1033:1034   */\n      0x00\n        /* \"#utility.yul\":1026:1038   */\n      revert\n        /* \"#utility.yul\":977:1040   */\n    tag_199:\n        /* \"#utility.yul\":924:1046   */\n      pop\n      jump\t// out\n        /* \"#utility.yul\":1052:1191   */\n    tag_131:\n        /* \"#utility.yul\":1098:1103   */\n      0x00\n        /* \"#utility.yul\":1136:1142   */\n      dup2\n        /* \"#utility.yul\":1123:1143   */\n      calldataload\n        /* \"#utility.yul\":1114:1143   */\n      swap1\n      pop\n        /* \"#utility.yul\":1152:1185   */\n      tag_201\n        /* \"#utility.yul\":1179:1184   */\n      dup2\n        /* \"#utility.yul\":1152:1185   */\n      tag_130\n      jump\t// in\n    tag_201:\n        /* \"#utility.yul\":1052:1191   */\n      swap3\n      swap2\n      pop\n      pop\n      jump\t// out\n        /* \"#utility.yul\":1197:1671   */\n    tag_10:\n        /* \"#utility.yul\":1265:1271   */\n      0x00\n        /* \"#utility.yul\":1273:1279   */\n      0x00\n        /* \"#utility.yul\":1322:1324   */\n      0x40\n        /* \"#utility.yul\":1310:1319   */\n      dup4\n        /* \"#utility.yul\":1301:1308   */\n      dup6\n        /* \"#utility.yul\":1297:1320   */\n      sub\n        /* \"#utility.yul\":1293:1325   */\n      slt\n        /* \"#utility.yul\":1290:1409   */\n      iszero\n      tag_203\n      jumpi\n        /* \"#utility.yul\":1328:1407   */\n      tag_204\n      tag_123\n      jump\t// in\n    tag_204:\n        /* \"#utility.yul\":1290:1409   */\n    tag_203:\n        /* \"#utility.yul\":1448:1449   */\n      0x00\n        /* \"#utility.yul\":1473:1526   */\n      tag_205\n        /* \"#utility.yul\":1518:1525   */\n      dup6\n        /* \"#utility.yul\":1509:1515   */\n      dup3\n        /* \"#utility.yul\":1498:1507   */\n      dup7\n        /* \"#utility.yul\":1494:1516   */\n      add\n        /* \"#utility.yul\":1473:1526   */\n      tag_128\n      jump\t// in\n    tag_205:\n        /* \"#utility.yul\":1463:1526   */\n      swap3\n      pop\n        /* \"#utility.yul\":1419:1536   */\n      pop\n        /* \"#utility.yul\":1575:1577   */\n      0x20\n        /* \"#utility.yul\":1601:1654   */\n      tag_206\n        /* \"#utility.yul\":1646:1653   */\n      dup6\n        /* \"#utility.yul\":1637:1643   */\n      dup3\n        /* \"#utility.yul\":1626:1635   */\n      dup7\n        /* \"#utility.yul\":1622:1644   */\n      add\n        /* \"#utility.yul\":1601:1654   */\n      tag_131\n      jump\t// in\n    tag_206:\n        /* \"#utility.yul\":1591:1654   */\n      swap2\n      pop\n        /* \"#utility.yul\":1546:1664   */\n      pop\n        /* \"#utility.yul\":1197:1671   */\n      swap3\n      pop\n      swap3\n      swap1\n      pop\n      jump\t// out\n        /* \"#utility.yul\":1677:2006   */\n    tag_14:\n        /* \"#utility.yul\":1736:1742   */\n      0x00\n        /* \"#utility.yul\":1785:1787   */\n      0x20\n        /* \"#utility.yul\":1773:1782   */\n      dup3\n        /* \"#utility.yul\":1764:1771   */\n      dup5\n        /* \"#utility.yul\":1760:1783   */\n      sub\n        /* \"#utility.yul\":1756:1788   */\n      slt\n        /* \"#utility.yul\":1753:1872   */\n      iszero\n      tag_208\n      jumpi\n        /* \"#utility.yul\":1791:1870   */\n      tag_209\n      tag_123\n      jump\t// in\n    tag_209:\n        /* \"#utility.yul\":1753:1872   */\n    tag_208:\n        /* \"#utility.yul\":1911:1912   */\n      0x00\n        /* \"#utility.yul\":1936:1989   */\n      tag_210\n        /* \"#utility.yul\":1981:1988   */\n      dup5\n        /* \"#utility.yul\":1972:1978   */\n      dup3\n        /* \"#utility.yul\":1961:1970   */\n      dup6\n        /* \"#utility.yul\":1957:1979   */\n      add\n        /* \"#utility.yul\":1936:1989   */\n      tag_128\n      jump\t// in\n    tag_210:\n        /* \"#utility.yul\":1926:1989   */\n      swap2\n      pop\n        /* \"#utility.yul\":1882:1999   */\n      pop\n        /* \"#utility.yul\":1677:2006   */\n      swap3\n      swap2\n      pop\n      pop\n      jump\t// out\n        /* \"#utility.yul\":2012:2111   */\n    tag_132:\n        /* \"#utility.yul\":2064:2070   */\n      0x00\n        /* \"#utility.yul\":2098:2103   */\n      dup2\n        /* \"#utility.yul\":2092:2104   */\n      mload\n        /* \"#utility.yul\":2082:2104   */\n      swap1\n      pop\n        /* \"#utility.yul\":2012:2111   */\n      swap2\n      swap1\n      pop\n      jump\t// out\n        /* \"#utility.yul\":2117:2276   */\n    tag_133:\n        /* \"#utility.yul\":2191:2202   */\n      0x00\n        /* \"#utility.yul\":2225:2231   */\n      dup3\n        /* \"#utility.yul\":2220:2223   */\n      dup3\n        /* \"#utility.yul\":2213:2232   */\n      mstore\n        /* \"#utility.yul\":2265:2269   */\n      0x20\n        /* \"#utility.yul\":2260:2263   */\n      dup3\n        /* \"#utility.yul\":2256:2270   */\n      add\n        /* \"#utility.yul\":2241:2270   */\n      swap1\n      pop\n        /* \"#utility.yul\":2117:2276   */\n      swap3\n      swap2\n      pop\n      pop\n      jump\t// out\n        /* \"#utility.yul\":2282:2421   */\n    tag_134:\n        /* \"#utility.yul\":2371:2377   */\n      dup3\n        /* \"#utility.yul\":2366:2369   */\n      dup2\n        /* \"#utility.yul\":2361:2364   */\n      dup4\n        /* \"#utility.yul\":2355:2378   */\n      mcopy\n        /* \"#utility.yul\":2412:2413   */\n      0x00\n        /* \"#utility.yul\":2403:2409   */\n      dup4\n        /* \"#utility.yul\":2398:2401   */\n      dup4\n        /* \"#utility.yul\":2394:2410   */\n      add\n        /* \"#utility.yul\":2387:2414   */\n      mstore\n        /* \"#utility.yul\":2282:2421   */\n      pop\n      pop\n      pop\n      jump\t// out\n        /* \"#utility.yul\":2427:2529   */\n    tag_135:\n        /* \"#utility.yul\":2468:2474   */\n      0x00\n        /* \"#utility.yul\":2519:2521   */\n      0x1f\n        /* \"#utility.yul\":2515:2522   */\n      not\n        /* \"#utility.yul\":2510:2512   */\n      0x1f\n        /* \"#utility.yul\":2503:2508   */\n      dup4\n        /* \"#utility.yul\":2499:2513   */\n      add\n        /* \"#utility.yul\":2495:2523   */\n      and\n        /* \"#utility.yul\":2485:2523   */\n      swap1\n      pop\n        /* \"#utility.yul\":2427:2529   */\n      swap2\n      swap1\n      pop\n      jump\t// out\n        /* \"#utility.yul\":2535:2892   */\n    tag_136:\n        /* \"#utility.yul\":2613:2616   */\n      0x00\n        /* \"#utility.yul\":2641:2680   */\n      tag_216\n        /* \"#utility.yul\":2674:2679   */\n      dup3\n        /* \"#utility.yul\":2641:2680   */\n      tag_132\n      jump\t// in\n    tag_216:\n        /* \"#utility.yul\":2696:2757   */\n      tag_217\n        /* \"#utility.yul\":2750:2756   */\n      dup2\n        /* \"#utility.yul\":2745:2748   */\n      dup6\n        /* \"#utility.yul\":2696:2757   */\n      tag_133\n      jump\t// in\n    tag_217:\n        /* \"#utility.yul\":2689:2757   */\n      swap4\n      pop\n        /* \"#utility.yul\":2766:2831   */\n      tag_218\n        /* \"#utility.yul\":2824:2830   */\n      dup2\n        /* \"#utility.yul\":2819:2822   */\n      dup6\n        /* \"#utility.yul\":2812:2816   */\n      0x20\n        /* \"#utility.yul\":2805:2810   */\n      dup7\n        /* \"#utility.yul\":2801:2817   */\n      add\n        /* \"#utility.yul\":2766:2831   */\n      tag_134\n      jump\t// in\n    tag_218:\n        /* \"#utility.yul\":2856:2885   */\n      tag_219\n        /* \"#utility.yul\":2878:2884   */\n      dup2\n        /* \"#utility.yul\":2856:2885   */\n      tag_135\n      jump\t// in\n    tag_219:\n        /* \"#utility.yul\":2851:2854   */\n      dup5\n        /* \"#utility.yul\":2847:2886   */\n      add\n        /* \"#utility.yul\":2840:2886   */\n      swap2\n      pop\n        /* \"#utility.yul\":2617:2892   */\n      pop\n        /* \"#utility.yul\":2535:2892   */\n      swap3\n      swap2\n      pop\n      pop\n      jump\t// out\n        /* \"#utility.yul\":2898:3006   */\n    tag_137:\n        /* \"#utility.yul\":2975:2999   */\n      tag_221\n        /* \"#utility.yul\":2993:2998   */\n      dup2\n        /* \"#utility.yul\":2975:2999   */\n      tag_129\n      jump\t// in\n    tag_221:\n        /* \"#utility.yul\":2970:2973   */\n      dup3\n        /* \"#utility.yul\":2963:3000   */\n      mstore\n        /* \"#utility.yul\":2898:3006   */\n      pop\n      pop\n      jump\t// out\n        /* \"#utility.yul\":3012:3192   */\n    tag_33:\n        /* \"#utility.yul\":3060:3137   */\n      0x4e487b7100000000000000000000000000000000000000000000000000000000\n        /* \"#utility.yul\":3057:3058   */\n      0x00\n        /* \"#utility.yul\":3050:3138   */\n      mstore\n        /* \"#utility.yul\":3157:3161   */\n      0x21\n        /* \"#utility.yul\":3154:3155   */\n      0x04\n        /* \"#utility.yul\":3147:3162   */\n      mstore\n        /* \"#utility.yul\":3181:3185   */\n      0x24\n        /* \"#utility.yul\":3178:3179   */\n      0x00\n        /* \"#utility.yul\":3171:3186   */\n      revert\n        /* \"#utility.yul\":3198:3313   */\n    tag_138:\n        /* \"#utility.yul\":3281:3282   */\n      0x03\n        /* \"#utility.yul\":3274:3279   */\n      dup2\n        /* \"#utility.yul\":3271:3283   */\n      lt\n        /* \"#utility.yul\":3261:3307   */\n      tag_224\n      jumpi\n        /* \"#utility.yul\":3287:3305   */\n      tag_225\n      tag_33\n      jump\t// in\n    tag_225:\n        /* \"#utility.yul\":3261:3307   */\n    tag_224:\n        /* \"#utility.yul\":3198:3313   */\n      pop\n      jump\t// out\n        /* \"#utility.yul\":3319:3450   */\n    tag_139:\n        /* \"#utility.yul\":3366:3373   */\n      0x00\n        /* \"#utility.yul\":3395:3400   */\n      dup2\n        /* \"#utility.yul\":3384:3400   */\n      swap1\n      pop\n        /* \"#utility.yul\":3401:3444   */\n      tag_227\n        /* \"#utility.yul\":3438:3443   */\n      dup3\n        /* \"#utility.yul\":3401:3444   */\n      tag_138\n      jump\t// in\n    tag_227:\n        /* \"#utility.yul\":3319:3450   */\n      swap2\n      swap1\n      pop\n      jump\t// out\n        /* \"#utility.yul\":3456:3587   */\n    tag_140:\n        /* \"#utility.yul\":3514:3523   */\n      0x00\n        /* \"#utility.yul\":3547:3581   */\n      tag_229\n        /* \"#utility.yul\":3575:3580   */\n      dup3\n        /* \"#utility.yul\":3547:3581   */\n      tag_139\n      jump\t// in\n    tag_229:\n        /* \"#utility.yul\":3534:3581   */\n      swap1\n      pop\n        /* \"#utility.yul\":3456:3587   */\n      swap2\n      swap1\n      pop\n      jump\t// out\n        /* \"#utility.yul\":3593:3730   */\n    tag_141:\n        /* \"#utility.yul\":3678:3723   */\n      tag_231\n        /* \"#utility.yul\":3717:3722   */\n      dup2\n        /* \"#utility.yul\":3678:3723   */\n      tag_140\n      jump\t// in\n    tag_231:\n        /* \"#utility.yul\":3673:3676   */\n      dup3\n        /* \"#utility.yul\":3666:3724   */\n      mstore\n        /* \"#utility.yul\":3593:3730   */\n      pop\n      pop\n      jump\t// out\n        /* \"#utility.yul\":3810:4603   */\n    tag_142:\n        /* \"#utility.yul\":3921:3924   */\n      0x00\n        /* \"#utility.yul\":3957:3961   */\n      0x60\n        /* \"#utility.yul\":3952:3955   */\n      dup4\n        /* \"#utility.yul\":3948:3962   */\n      add\n        /* \"#utility.yul\":4048:4052   */\n      0x00\n        /* \"#utility.yul\":4041:4046   */\n      dup4\n        /* \"#utility.yul\":4037:4053   */\n      add\n        /* \"#utility.yul\":4031:4054   */\n      mload\n        /* \"#utility.yul\":4101:4104   */\n      dup5\n        /* \"#utility.yul\":4095:4099   */\n      dup3\n        /* \"#utility.yul\":4091:4105   */\n      sub\n        /* \"#utility.yul\":4084:4088   */\n      0x00\n        /* \"#utility.yul\":4079:4082   */\n      dup7\n        /* \"#utility.yul\":4075:4089   */\n      add\n        /* \"#utility.yul\":4068:4106   */\n      mstore\n        /* \"#utility.yul\":4127:4200   */\n      tag_233\n        /* \"#utility.yul\":4195:4199   */\n      dup3\n        /* \"#utility.yul\":4181:4193   */\n      dup3\n        /* \"#utility.yul\":4127:4200   */\n      tag_136\n      jump\t// in\n    tag_233:\n        /* \"#utility.yul\":4119:4200   */\n      swap2\n      pop\n        /* \"#utility.yul\":3972:4211   */\n      pop\n        /* \"#utility.yul\":4300:4304   */\n      0x20\n        /* \"#utility.yul\":4293:4298   */\n      dup4\n        /* \"#utility.yul\":4289:4305   */\n      add\n        /* \"#utility.yul\":4283:4306   */\n      mload\n        /* \"#utility.yul\":4319:4382   */\n      tag_234\n        /* \"#utility.yul\":4376:4380   */\n      0x20\n        /* \"#utility.yul\":4371:4374   */\n      dup7\n        /* \"#utility.yul\":4367:4381   */\n      add\n        /* \"#utility.yul\":4353:4365   */\n      dup3\n        /* \"#utility.yul\":4319:4382   */\n      tag_137\n      jump\t// in\n    tag_234:\n        /* \"#utility.yul\":4221:4392   */\n      pop\n        /* \"#utility.yul\":4476:4480   */\n      0x40\n        /* \"#utility.yul\":4469:4474   */\n      dup4\n        /* \"#utility.yul\":4465:4481   */\n      add\n        /* \"#utility.yul\":4459:4482   */\n      mload\n        /* \"#utility.yul\":4495:4566   */\n      tag_235\n        /* \"#utility.yul\":4560:4564   */\n      0x40\n        /* \"#utility.yul\":4555:4558   */\n      dup7\n        /* \"#utility.yul\":4551:4565   */\n      add\n        /* \"#utility.yul\":4537:4549   */\n      dup3\n        /* \"#utility.yul\":4495:4566   */\n      tag_141\n      jump\t// in\n    tag_235:\n        /* \"#utility.yul\":4402:4576   */\n      pop\n        /* \"#utility.yul\":4593:4597   */\n      dup1\n        /* \"#utility.yul\":4586:4597   */\n      swap2\n      pop\n        /* \"#utility.yul\":3926:4603   */\n      pop\n        /* \"#utility.yul\":3810:4603   */\n      swap3\n      swap2\n      pop\n      pop\n      jump\t// out\n        /* \"#utility.yul\":4609:4966   */\n    tag_17:\n        /* \"#utility.yul\":4744:4748   */\n      0x00\n        /* \"#utility.yul\":4782:4784   */\n      0x20\n        /* \"#utility.yul\":4771:4780   */\n      dup3\n        /* \"#utility.yul\":4767:4785   */\n      add\n        /* \"#utility.yul\":4759:4785   */\n      swap1\n      pop\n        /* \"#utility.yul\":4831:4840   */\n      dup2\n        /* \"#utility.yul\":4825:4829   */\n      dup2\n        /* \"#utility.yul\":4821:4841   */\n      sub\n        /* \"#utility.yul\":4817:4818   */\n      0x00\n        /* \"#utility.yul\":4806:4815   */\n      dup4\n        /* \"#utility.yul\":4802:4819   */\n      add\n        /* \"#utility.yul\":4795:4842   */\n      mstore\n        /* \"#utility.yul\":4859:4959   */\n      tag_237\n        /* \"#utility.yul\":4954:4958   */\n      dup2\n        /* \"#utility.yul\":4945:4951   */\n      dup5\n        /* \"#utility.yul\":4859:4959   */\n      tag_142\n      jump\t// in\n    tag_237:\n        /* \"#utility.yul\":4851:4959   */\n      swap1\n      pop\n        /* \"#utility.yul\":4609:4966   */\n      swap3\n      swap2\n      pop\n      pop\n      jump\t// out\n        /* \"#utility.yul\":4972:5089   */\n    tag_143:\n        /* \"#utility.yul\":5081:5082   */\n      0x00\n        /* \"#utility.yul\":5078:5079   */\n      0x00\n        /* \"#utility.yul\":5071:5083   */\n      revert\n        /* \"#utility.yul\":5095:5212   */\n    tag_144:\n        /* \"#utility.yul\":5204:5205   */\n      0x00\n        /* \"#utility.yul\":5201:5202   */\n      0x00\n        /* \"#utility.yul\":5194:5206   */\n      revert\n        /* \"#utility.yul\":5218:5398   */\n    tag_96:\n        /* \"#utility.yul\":5266:5343   */\n      0x4e487b7100000000000000000000000000000000000000000000000000000000\n        /* \"#utility.yul\":5263:5264   */\n      0x00\n        /* \"#utility.yul\":5256:5344   */\n      mstore\n        /* \"#utility.yul\":5363:5367   */\n      0x41\n        /* \"#utility.yul\":5360:5361   */\n      0x04\n        /* \"#utility.yul\":5353:5368   */\n      mstore\n        /* \"#utility.yul\":5387:5391   */\n      0x24\n        /* \"#utility.yul\":5384:5385   */\n      0x00\n        /* \"#utility.yul\":5377:5392   */\n      revert\n        /* \"#utility.yul\":5404:5685   */\n    tag_145:\n        /* \"#utility.yul\":5487:5514   */\n      tag_242\n        /* \"#utility.yul\":5509:5513   */\n      dup3\n        /* \"#utility.yul\":5487:5514   */\n      tag_135\n      jump\t// in\n    tag_242:\n        /* \"#utility.yul\":5479:5485   */\n      dup2\n        /* \"#utility.yul\":5475:5515   */\n      add\n        /* \"#utility.yul\":5617:5623   */\n      dup2\n        /* \"#utility.yul\":5605:5615   */\n      dup2\n        /* \"#utility.yul\":5602:5624   */\n      lt\n        /* \"#utility.yul\":5581:5599   */\n      0xffffffffffffffff\n        /* \"#utility.yul\":5569:5579   */\n      dup3\n        /* \"#utility.yul\":5566:5600   */\n      gt\n        /* \"#utility.yul\":5563:5625   */\n      or\n        /* \"#utility.yul\":5560:5648   */\n      iszero\n      tag_243\n      jumpi\n        /* \"#utility.yul\":5628:5646   */\n      tag_244\n      tag_96\n      jump\t// in\n    tag_244:\n        /* \"#utility.yul\":5560:5648   */\n    tag_243:\n        /* \"#utility.yul\":5668:5678   */\n      dup1\n        /* \"#utility.yul\":5664:5666   */\n      0x40\n        /* \"#utility.yul\":5657:5679   */\n      mstore\n        /* \"#utility.yul\":5447:5685   */\n      pop\n        /* \"#utility.yul\":5404:5685   */\n      pop\n      pop\n      jump\t// out\n        /* \"#utility.yul\":5691:5820   */\n    tag_146:\n        /* \"#utility.yul\":5725:5731   */\n      0x00\n        /* \"#utility.yul\":5752:5772   */\n      tag_246\n      tag_122\n      jump\t// in\n    tag_246:\n        /* \"#utility.yul\":5742:5772   */\n      swap1\n      pop\n        /* \"#utility.yul\":5781:5814   */\n      tag_247\n        /* \"#utility.yul\":5809:5813   */\n      dup3\n        /* \"#utility.yul\":5801:5807   */\n      dup3\n        /* \"#utility.yul\":5781:5814   */\n      tag_145\n      jump\t// in\n    tag_247:\n        /* \"#utility.yul\":5691:5820   */\n      swap2\n      swap1\n      pop\n      jump\t// out\n        /* \"#utility.yul\":5826:6134   */\n    tag_147:\n        /* \"#utility.yul\":5888:5892   */\n      0x00\n        /* \"#utility.yul\":5978:5996   */\n      0xffffffffffffffff\n        /* \"#utility.yul\":5970:5976   */\n      dup3\n        /* \"#utility.yul\":5967:5997   */\n      gt\n        /* \"#utility.yul\":5964:6020   */\n      iszero\n      tag_249\n      jumpi\n        /* \"#utility.yul\":6000:6018   */\n      tag_250\n      tag_96\n      jump\t// in\n    tag_250:\n        /* \"#utility.yul\":5964:6020   */\n    tag_249:\n        /* \"#utility.yul\":6038:6067   */\n      tag_251\n        /* \"#utility.yul\":6060:6066   */\n      dup3\n        /* \"#utility.yul\":6038:6067   */\n      tag_135\n      jump\t// in\n    tag_251:\n        /* \"#utility.yul\":6030:6067   */\n      swap1\n      pop\n        /* \"#utility.yul\":6122:6126   */\n      0x20\n        /* \"#utility.yul\":6116:6120   */\n      dup2\n        /* \"#utility.yul\":6112:6127   */\n      add\n        /* \"#utility.yul\":6104:6127   */\n      swap1\n      pop\n        /* \"#utility.yul\":5826:6134   */\n      swap2\n      swap1\n      pop\n      jump\t// out\n        /* \"#utility.yul\":6140:6288   */\n    tag_148:\n        /* \"#utility.yul\":6238:6244   */\n      dup3\n        /* \"#utility.yul\":6233:6236   */\n      dup2\n        /* \"#utility.yul\":6228:6231   */\n      dup4\n        /* \"#utility.yul\":6215:6245   */\n      calldatacopy\n        /* \"#utility.yul\":6279:6280   */\n      0x00\n        /* \"#utility.yul\":6270:6276   */\n      dup4\n        /* \"#utility.yul\":6265:6268   */\n      dup4\n        /* \"#utility.yul\":6261:6277   */\n      add\n        /* \"#utility.yul\":6254:6281   */\n      mstore\n        /* \"#utility.yul\":6140:6288   */\n      pop\n      pop\n      pop\n      jump\t// out\n        /* \"#utility.yul\":6294:6719   */\n    tag_149:\n        /* \"#utility.yul\":6372:6377   */\n      0x00\n        /* \"#utility.yul\":6397:6463   */\n      tag_254\n        /* \"#utility.yul\":6413:6462   */\n      tag_255\n        /* \"#utility.yul\":6455:6461   */\n      dup5\n        /* \"#utility.yul\":6413:6462   */\n      tag_147\n      jump\t// in\n    tag_255:\n        /* \"#utility.yul\":6397:6463   */\n      tag_146\n      jump\t// in\n    tag_254:\n        /* \"#utility.yul\":6388:6463   */\n      swap1\n      pop\n        /* \"#utility.yul\":6486:6492   */\n      dup3\n        /* \"#utility.yul\":6479:6484   */\n      dup2\n        /* \"#utility.yul\":6472:6493   */\n      mstore\n        /* \"#utility.yul\":6524:6528   */\n      0x20\n        /* \"#utility.yul\":6517:6522   */\n      dup2\n        /* \"#utility.yul\":6513:6529   */\n      add\n        /* \"#utility.yul\":6562:6565   */\n      dup5\n        /* \"#utility.yul\":6553:6559   */\n      dup5\n        /* \"#utility.yul\":6548:6551   */\n      dup5\n        /* \"#utility.yul\":6544:6560   */\n      add\n        /* \"#utility.yul\":6541:6566   */\n      gt\n        /* \"#utility.yul\":6538:6650   */\n      iszero\n      tag_256\n      jumpi\n        /* \"#utility.yul\":6569:6648   */\n      tag_257\n      tag_144\n      jump\t// in\n    tag_257:\n        /* \"#utility.yul\":6538:6650   */\n    tag_256:\n        /* \"#utility.yul\":6659:6713   */\n      tag_258\n        /* \"#utility.yul\":6706:6712   */\n      dup5\n        /* \"#utility.yul\":6701:6704   */\n      dup3\n        /* \"#utility.yul\":6696:6699   */\n      dup6\n        /* \"#utility.yul\":6659:6713   */\n      tag_148\n      jump\t// in\n    tag_258:\n        /* \"#utility.yul\":6378:6719   */\n      pop\n        /* \"#utility.yul\":6294:6719   */\n      swap4\n      swap3\n      pop\n      pop\n      pop\n      jump\t// out\n        /* \"#utility.yul\":6739:7079   */\n    tag_150:\n        /* \"#utility.yul\":6795:6800   */\n      0x00\n        /* \"#utility.yul\":6844:6847   */\n      dup3\n        /* \"#utility.yul\":6837:6841   */\n      0x1f\n        /* \"#utility.yul\":6829:6835   */\n      dup4\n        /* \"#utility.yul\":6825:6842   */\n      add\n        /* \"#utility.yul\":6821:6848   */\n      slt\n        /* \"#utility.yul\":6811:6933   */\n      tag_260\n      jumpi\n        /* \"#utility.yul\":6852:6931   */\n      tag_261\n      tag_143\n      jump\t// in\n    tag_261:\n        /* \"#utility.yul\":6811:6933   */\n    tag_260:\n        /* \"#utility.yul\":6969:6975   */\n      dup2\n        /* \"#utility.yul\":6956:6976   */\n      calldataload\n        /* \"#utility.yul\":6994:7073   */\n      tag_262\n        /* \"#utility.yul\":7069:7072   */\n      dup5\n        /* \"#utility.yul\":7061:7067   */\n      dup3\n        /* \"#utility.yul\":7054:7058   */\n      0x20\n        /* \"#utility.yul\":7046:7052   */\n      dup7\n        /* \"#utility.yul\":7042:7059   */\n      add\n        /* \"#utility.yul\":6994:7073   */\n      tag_149\n      jump\t// in\n    tag_262:\n        /* \"#utility.yul\":6985:7073   */\n      swap2\n      pop\n        /* \"#utility.yul\":6801:7079   */\n      pop\n        /* \"#utility.yul\":6739:7079   */\n      swap3\n      swap2\n      pop\n      pop\n      jump\t// out\n        /* \"#utility.yul\":7085:7194   */\n    tag_151:\n        /* \"#utility.yul\":7168:7169   */\n      0x03\n        /* \"#utility.yul\":7161:7166   */\n      dup2\n        /* \"#utility.yul\":7158:7170   */\n      lt\n        /* \"#utility.yul\":7148:7188   */\n      tag_264\n      jumpi\n        /* \"#utility.yul\":7184:7185   */\n      0x00\n        /* \"#utility.yul\":7181:7182   */\n      0x00\n        /* \"#utility.yul\":7174:7186   */\n      revert\n        /* \"#utility.yul\":7148:7188   */\n    tag_264:\n        /* \"#utility.yul\":7085:7194   */\n      pop\n      jump\t// out\n        /* \"#utility.yul\":7200:7359   */\n    tag_152:\n        /* \"#utility.yul\":7256:7261   */\n      0x00\n        /* \"#utility.yul\":7294:7300   */\n      dup2\n        /* \"#utility.yul\":7281:7301   */\n      calldataload\n        /* \"#utility.yul\":7272:7301   */\n      swap1\n      pop\n        /* \"#utility.yul\":7310:7353   */\n      tag_266\n        /* \"#utility.yul\":7347:7352   */\n      dup2\n        /* \"#utility.yul\":7310:7353   */\n      tag_151\n      jump\t// in\n    tag_266:\n        /* \"#utility.yul\":7200:7359   */\n      swap3\n      swap2\n      pop\n      pop\n      jump\t// out\n        /* \"#utility.yul\":7365:8184   */\n    tag_23:\n        /* \"#utility.yul\":7462:7468   */\n      0x00\n        /* \"#utility.yul\":7470:7476   */\n      0x00\n        /* \"#utility.yul\":7478:7484   */\n      0x00\n        /* \"#utility.yul\":7527:7529   */\n      0x60\n        /* \"#utility.yul\":7515:7524   */\n      dup5\n        /* \"#utility.yul\":7506:7513   */\n      dup7\n        /* \"#utility.yul\":7502:7525   */\n      sub\n        /* \"#utility.yul\":7498:7530   */\n      slt\n        /* \"#utility.yul\":7495:7614   */\n      iszero\n      tag_268\n      jumpi\n        /* \"#utility.yul\":7533:7612   */\n      tag_269\n      tag_123\n      jump\t// in\n    tag_269:\n        /* \"#utility.yul\":7495:7614   */\n    tag_268:\n        /* \"#utility.yul\":7681:7682   */\n      0x00\n        /* \"#utility.yul\":7670:7679   */\n      dup5\n        /* \"#utility.yul\":7666:7683   */\n      add\n        /* \"#utility.yul\":7653:7684   */\n      calldataload\n        /* \"#utility.yul\":7711:7729   */\n      0xffffffffffffffff\n        /* \"#utility.yul\":7703:7709   */\n      dup2\n        /* \"#utility.yul\":7700:7730   */\n      gt\n        /* \"#utility.yul\":7697:7814   */\n      iszero\n      tag_270\n      jumpi\n        /* \"#utility.yul\":7733:7812   */\n      tag_271\n      tag_124\n      jump\t// in\n    tag_271:\n        /* \"#utility.yul\":7697:7814   */\n    tag_270:\n        /* \"#utility.yul\":7838:7901   */\n      tag_272\n        /* \"#utility.yul\":7893:7900   */\n      dup7\n        /* \"#utility.yul\":7884:7890   */\n      dup3\n        /* \"#utility.yul\":7873:7882   */\n      dup8\n        /* \"#utility.yul\":7869:7891   */\n      add\n        /* \"#utility.yul\":7838:7901   */\n      tag_150\n      jump\t// in\n    tag_272:\n        /* \"#utility.yul\":7828:7901   */\n      swap4\n      pop\n        /* \"#utility.yul\":7624:7911   */\n      pop\n        /* \"#utility.yul\":7950:7952   */\n      0x20\n        /* \"#utility.yul\":7976:8029   */\n      tag_273\n        /* \"#utility.yul\":8021:8028   */\n      dup7\n        /* \"#utility.yul\":8012:8018   */\n      dup3\n        /* \"#utility.yul\":8001:8010   */\n      dup8\n        /* \"#utility.yul\":7997:8019   */\n      add\n        /* \"#utility.yul\":7976:8029   */\n      tag_131\n      jump\t// in\n    tag_273:\n        /* \"#utility.yul\":7966:8029   */\n      swap3\n      pop\n        /* \"#utility.yul\":7921:8039   */\n      pop\n        /* \"#utility.yul\":8078:8080   */\n      0x40\n        /* \"#utility.yul\":8104:8167   */\n      tag_274\n        /* \"#utility.yul\":8159:8166   */\n      dup7\n        /* \"#utility.yul\":8150:8156   */\n      dup3\n        /* \"#utility.yul\":8139:8148   */\n      dup8\n        /* \"#utility.yul\":8135:8157   */\n      add\n        /* \"#utility.yul\":8104:8167   */\n      tag_152\n      jump\t// in\n    tag_274:\n        /* \"#utility.yul\":8094:8167   */\n      swap2\n      pop\n        /* \"#utility.yul\":8049:8177   */\n      pop\n        /* \"#utility.yul\":7365:8184   */\n      swap3\n      pop\n      swap3\n      pop\n      swap3\n      jump\t// out\n        /* \"#utility.yul\":8190:8304   */\n    tag_153:\n        /* \"#utility.yul\":8257:8263   */\n      0x00\n        /* \"#utility.yul\":8291:8296   */\n      dup2\n        /* \"#utility.yul\":8285:8297   */\n      mload\n        /* \"#utility.yul\":8275:8297   */\n      swap1\n      pop\n        /* \"#utility.yul\":8190:8304   */\n      swap2\n      swap1\n      pop\n      jump\t// out\n        /* \"#utility.yul\":8310:8494   */\n    tag_154:\n        /* \"#utility.yul\":8409:8420   */\n      0x00\n        /* \"#utility.yul\":8443:8449   */\n      dup3\n        /* \"#utility.yul\":8438:8441   */\n      dup3\n        /* \"#utility.yul\":8431:8450   */\n      mstore\n        /* \"#utility.yul\":8483:8487   */\n      0x20\n        /* \"#utility.yul\":8478:8481   */\n      dup3\n        /* \"#utility.yul\":8474:8488   */\n      add\n        /* \"#utility.yul\":8459:8488   */\n      swap1\n      pop\n        /* \"#utility.yul\":8310:8494   */\n      swap3\n      swap2\n      pop\n      pop\n      jump\t// out\n        /* \"#utility.yul\":8500:8632   */\n    tag_155:\n        /* \"#utility.yul\":8567:8571   */\n      0x00\n        /* \"#utility.yul\":8590:8593   */\n      dup2\n        /* \"#utility.yul\":8582:8593   */\n      swap1\n      pop\n        /* \"#utility.yul\":8620:8624   */\n      0x20\n        /* \"#utility.yul\":8615:8618   */\n      dup3\n        /* \"#utility.yul\":8611:8625   */\n      add\n        /* \"#utility.yul\":8603:8625   */\n      swap1\n      pop\n        /* \"#utility.yul\":8500:8632   */\n      swap2\n      swap1\n      pop\n      jump\t// out\n        /* \"#utility.yul\":8638:8817   */\n    tag_156:\n        /* \"#utility.yul\":8707:8717   */\n      0x00\n        /* \"#utility.yul\":8728:8774   */\n      tag_279\n        /* \"#utility.yul\":8770:8773   */\n      dup4\n        /* \"#utility.yul\":8762:8768   */\n      dup4\n        /* \"#utility.yul\":8728:8774   */\n      tag_137\n      jump\t// in\n    tag_279:\n        /* \"#utility.yul\":8806:8810   */\n      0x20\n        /* \"#utility.yul\":8801:8804   */\n      dup4\n        /* \"#utility.yul\":8797:8811   */\n      add\n        /* \"#utility.yul\":8783:8811   */\n      swap1\n      pop\n        /* \"#utility.yul\":8638:8817   */\n      swap3\n      swap2\n      pop\n      pop\n      jump\t// out\n        /* \"#utility.yul\":8823:8936   */\n    tag_157:\n        /* \"#utility.yul\":8893:8897   */\n      0x00\n        /* \"#utility.yul\":8925:8929   */\n      0x20\n        /* \"#utility.yul\":8920:8923   */\n      dup3\n        /* \"#utility.yul\":8916:8930   */\n      add\n        /* \"#utility.yul\":8908:8930   */\n      swap1\n      pop\n        /* \"#utility.yul\":8823:8936   */\n      swap2\n      swap1\n      pop\n      jump\t// out\n        /* \"#utility.yul\":8972:9704   */\n    tag_158:\n        /* \"#utility.yul\":9091:9094   */\n      0x00\n        /* \"#utility.yul\":9120:9174   */\n      tag_282\n        /* \"#utility.yul\":9168:9173   */\n      dup3\n        /* \"#utility.yul\":9120:9174   */\n      tag_153\n      jump\t// in\n    tag_282:\n        /* \"#utility.yul\":9190:9276   */\n      tag_283\n        /* \"#utility.yul\":9269:9275   */\n      dup2\n        /* \"#utility.yul\":9264:9267   */\n      dup6\n        /* \"#utility.yul\":9190:9276   */\n      tag_154\n      jump\t// in\n    tag_283:\n        /* \"#utility.yul\":9183:9276   */\n      swap4\n      pop\n        /* \"#utility.yul\":9300:9356   */\n      tag_284\n        /* \"#utility.yul\":9350:9355   */\n      dup4\n        /* \"#utility.yul\":9300:9356   */\n      tag_155\n      jump\t// in\n    tag_284:\n        /* \"#utility.yul\":9379:9386   */\n      dup1\n        /* \"#utility.yul\":9410:9411   */\n      0x00\n        /* \"#utility.yul\":9395:9679   */\n    tag_285:\n        /* \"#utility.yul\":9420:9426   */\n      dup4\n        /* \"#utility.yul\":9417:9418   */\n      dup2\n        /* \"#utility.yul\":9414:9427   */\n      lt\n        /* \"#utility.yul\":9395:9679   */\n      iszero\n      tag_287\n      jumpi\n        /* \"#utility.yul\":9496:9502   */\n      dup2\n        /* \"#utility.yul\":9490:9503   */\n      mload\n        /* \"#utility.yul\":9523:9586   */\n      tag_288\n        /* \"#utility.yul\":9582:9585   */\n      dup9\n        /* \"#utility.yul\":9567:9580   */\n      dup3\n        /* \"#utility.yul\":9523:9586   */\n      tag_156\n      jump\t// in\n    tag_288:\n        /* \"#utility.yul\":9516:9586   */\n      swap8\n      pop\n        /* \"#utility.yul\":9609:9669   */\n      tag_289\n        /* \"#utility.yul\":9662:9668   */\n      dup4\n        /* \"#utility.yul\":9609:9669   */\n      tag_157\n      jump\t// in\n    tag_289:\n        /* \"#utility.yul\":9599:9669   */\n      swap3\n      pop\n        /* \"#utility.yul\":9455:9679   */\n      pop\n        /* \"#utility.yul\":9442:9443   */\n      0x01\n        /* \"#utility.yul\":9439:9440   */\n      dup2\n        /* \"#utility.yul\":9435:9444   */\n      add\n        /* \"#utility.yul\":9430:9444   */\n      swap1\n      pop\n        /* \"#utility.yul\":9395:9679   */\n      jump(tag_285)\n    tag_287:\n        /* \"#utility.yul\":9399:9413   */\n      pop\n        /* \"#utility.yul\":9695:9698   */\n      dup6\n        /* \"#utility.yul\":9688:9698   */\n      swap4\n      pop\n        /* \"#utility.yul\":9096:9704   */\n      pop\n      pop\n      pop\n        /* \"#utility.yul\":8972:9704   */\n      swap3\n      swap2\n      pop\n      pop\n      jump\t// out\n        /* \"#utility.yul\":9710:10083   */\n    tag_29:\n        /* \"#utility.yul\":9853:9857   */\n      0x00\n        /* \"#utility.yul\":9891:9893   */\n      0x20\n        /* \"#utility.yul\":9880:9889   */\n      dup3\n        /* \"#utility.yul\":9876:9894   */\n      add\n        /* \"#utility.yul\":9868:9894   */\n      swap1\n      pop\n        /* \"#utility.yul\":9940:9949   */\n      dup2\n        /* \"#utility.yul\":9934:9938   */\n      dup2\n        /* \"#utility.yul\":9930:9950   */\n      sub\n        /* \"#utility.yul\":9926:9927   */\n      0x00\n        /* \"#utility.yul\":9915:9924   */\n      dup4\n        /* \"#utility.yul\":9911:9928   */\n      add\n        /* \"#utility.yul\":9904:9951   */\n      mstore\n        /* \"#utility.yul\":9968:10076   */\n      tag_291\n        /* \"#utility.yul\":10071:10075   */\n      dup2\n        /* \"#utility.yul\":10062:10068   */\n      dup5\n        /* \"#utility.yul\":9968:10076   */\n      tag_158\n      jump\t// in\n    tag_291:\n        /* \"#utility.yul\":9960:10076   */\n      swap1\n      pop\n        /* \"#utility.yul\":9710:10083   */\n      swap3\n      swap2\n      pop\n      pop\n      jump\t// out\n        /* \"#utility.yul\":10089:10199   */\n    tag_159:\n        /* \"#utility.yul\":10173:10174   */\n      0x03\n        /* \"#utility.yul\":10166:10171   */\n      dup2\n        /* \"#utility.yul\":10163:10175   */\n      lt\n        /* \"#utility.yul\":10153:10193   */\n      tag_293\n      jumpi\n        /* \"#utility.yul\":10189:10190   */\n      0x00\n        /* \"#utility.yul\":10186:10187   */\n      0x00\n        /* \"#utility.yul\":10179:10191   */\n      revert\n        /* \"#utility.yul\":10153:10193   */\n    tag_293:\n        /* \"#utility.yul\":10089:10199   */\n      pop\n      jump\t// out\n        /* \"#utility.yul\":10205:10370   */\n    tag_160:\n        /* \"#utility.yul\":10273:10278   */\n      0x00\n        /* \"#utility.yul\":10304:10310   */\n      dup2\n        /* \"#utility.yul\":10298:10311   */\n      mload\n        /* \"#utility.yul\":10289:10311   */\n      swap1\n      pop\n        /* \"#utility.yul\":10320:10364   */\n      tag_295\n        /* \"#utility.yul\":10358:10363   */\n      dup2\n        /* \"#utility.yul\":10320:10364   */\n      tag_159\n      jump\t// in\n    tag_295:\n        /* \"#utility.yul\":10205:10370   */\n      swap3\n      swap2\n      pop\n      pop\n      jump\t// out\n        /* \"#utility.yul\":10376:10749   */\n    tag_37:\n        /* \"#utility.yul\":10457:10463   */\n      0x00\n        /* \"#utility.yul\":10506:10508   */\n      0x20\n        /* \"#utility.yul\":10494:10503   */\n      dup3\n        /* \"#utility.yul\":10485:10492   */\n      dup5\n        /* \"#utility.yul\":10481:10504   */\n      sub\n        /* \"#utility.yul\":10477:10509   */\n      slt\n        /* \"#utility.yul\":10474:10593   */\n      iszero\n      tag_297\n      jumpi\n        /* \"#utility.yul\":10512:10591   */\n      tag_298\n      tag_123\n      jump\t// in\n    tag_298:\n        /* \"#utility.yul\":10474:10593   */\n    tag_297:\n        /* \"#utility.yul\":10632:10633   */\n      0x00\n        /* \"#utility.yul\":10657:10732   */\n      tag_299\n        /* \"#utility.yul\":10724:10731   */\n      dup5\n        /* \"#utility.yul\":10715:10721   */\n      dup3\n        /* \"#utility.yul\":10704:10713   */\n      dup6\n        /* \"#utility.yul\":10700:10722   */\n      add\n        /* \"#utility.yul\":10657:10732   */\n      tag_160\n      jump\t// in\n    tag_299:\n        /* \"#utility.yul\":10647:10732   */\n      swap2\n      pop\n        /* \"#utility.yul\":10603:10742   */\n      pop\n        /* \"#utility.yul\":10376:10749   */\n      swap3\n      swap2\n      pop\n      pop\n      jump\t// out\n        /* \"#utility.yul\":10755:10924   */\n    tag_161:\n        /* \"#utility.yul\":10839:10850   */\n      0x00\n        /* \"#utility.yul\":10873:10879   */\n      dup3\n        /* \"#utility.yul\":10868:10871   */\n      dup3\n        /* \"#utility.yul\":10861:10880   */\n      mstore\n        /* \"#utility.yul\":10913:10917   */\n      0x20\n        /* \"#utility.yul\":10908:10911   */\n      dup3\n        /* \"#utility.yul\":10904:10918   */\n      add\n        /* \"#utility.yul\":10889:10918   */\n      swap1\n      pop\n        /* \"#utility.yul\":10755:10924   */\n      swap3\n      swap2\n      pop\n      pop\n      jump\t// out\n        /* \"#utility.yul\":10930:11307   */\n    tag_162:\n        /* \"#utility.yul\":11018:11021   */\n      0x00\n        /* \"#utility.yul\":11046:11085   */\n      tag_302\n        /* \"#utility.yul\":11079:11084   */\n      dup3\n        /* \"#utility.yul\":11046:11085   */\n      tag_132\n      jump\t// in\n    tag_302:\n        /* \"#utility.yul\":11101:11172   */\n      tag_303\n        /* \"#utility.yul\":11165:11171   */\n      dup2\n        /* \"#utility.yul\":11160:11163   */\n      dup6\n        /* \"#utility.yul\":11101:11172   */\n      tag_161\n      jump\t// in\n    tag_303:\n        /* \"#utility.yul\":11094:11172   */\n      swap4\n      pop\n        /* \"#utility.yul\":11181:11246   */\n      tag_304\n        /* \"#utility.yul\":11239:11245   */\n      dup2\n        /* \"#utility.yul\":11234:11237   */\n      dup6\n        /* \"#utility.yul\":11227:11231   */\n      0x20\n        /* \"#utility.yul\":11220:11225   */\n      dup7\n        /* \"#utility.yul\":11216:11232   */\n      add\n        /* \"#utility.yul\":11181:11246   */\n      tag_134\n      jump\t// in\n    tag_304:\n        /* \"#utility.yul\":11271:11300   */\n      tag_305\n        /* \"#utility.yul\":11293:11299   */\n      dup2\n        /* \"#utility.yul\":11271:11300   */\n      tag_135\n      jump\t// in\n    tag_305:\n        /* \"#utility.yul\":11266:11269   */\n      dup5\n        /* \"#utility.yul\":11262:11301   */\n      add\n        /* \"#utility.yul\":11255:11301   */\n      swap2\n      pop\n        /* \"#utility.yul\":11022:11307   */\n      pop\n        /* \"#utility.yul\":10930:11307   */\n      swap3\n      swap2\n      pop\n      pop\n      jump\t// out\n        /* \"#utility.yul\":11313:11626   */\n    tag_42:\n        /* \"#utility.yul\":11426:11430   */\n      0x00\n        /* \"#utility.yul\":11464:11466   */\n      0x20\n        /* \"#utility.yul\":11453:11462   */\n      dup3\n        /* \"#utility.yul\":11449:11467   */\n      add\n        /* \"#utility.yul\":11441:11467   */\n      swap1\n      pop\n        /* \"#utility.yul\":11513:11522   */\n      dup2\n        /* \"#utility.yul\":11507:11511   */\n      dup2\n        /* \"#utility.yul\":11503:11523   */\n      sub\n        /* \"#utility.yul\":11499:11500   */\n      0x00\n        /* \"#utility.yul\":11488:11497   */\n      dup4\n        /* \"#utility.yul\":11484:11501   */\n      add\n        /* \"#utility.yul\":11477:11524   */\n      mstore\n        /* \"#utility.yul\":11541:11619   */\n      tag_307\n        /* \"#utility.yul\":11614:11618   */\n      dup2\n        /* \"#utility.yul\":11605:11611   */\n      dup5\n        /* \"#utility.yul\":11541:11619   */\n      tag_162\n      jump\t// in\n    tag_307:\n        /* \"#utility.yul\":11533:11619   */\n      swap1\n      pop\n        /* \"#utility.yul\":11313:11626   */\n      swap3\n      swap2\n      pop\n      pop\n      jump\t// out\n        /* \"#utility.yul\":11632:11812   */\n    tag_163:\n        /* \"#utility.yul\":11680:11757   */\n      0x4e487b7100000000000000000000000000000000000000000000000000000000\n        /* \"#utility.yul\":11677:11678   */\n      0x00\n        /* \"#utility.yul\":11670:11758   */\n      mstore\n        /* \"#utility.yul\":11777:11781   */\n      0x22\n        /* \"#utility.yul\":11774:11775   */\n      0x04\n        /* \"#utility.yul\":11767:11782   */\n      mstore\n        /* \"#utility.yul\":11801:11805   */\n      0x24\n        /* \"#utility.yul\":11798:11799   */\n      0x00\n        /* \"#utility.yul\":11791:11806   */\n      revert\n        /* \"#utility.yul\":11818:12138   */\n    tag_52:\n        /* \"#utility.yul\":11862:11868   */\n      0x00\n        /* \"#utility.yul\":11899:11900   */\n      0x02\n        /* \"#utility.yul\":11893:11897   */\n      dup3\n        /* \"#utility.yul\":11889:11901   */\n      div\n        /* \"#utility.yul\":11879:11901   */\n      swap1\n      pop\n        /* \"#utility.yul\":11946:11947   */\n      0x01\n        /* \"#utility.yul\":11940:11944   */\n      dup3\n        /* \"#utility.yul\":11936:11948   */\n      and\n        /* \"#utility.yul\":11967:11985   */\n      dup1\n        /* \"#utility.yul\":11957:12038   */\n      tag_310\n      jumpi\n        /* \"#utility.yul\":12023:12027   */\n      0x7f\n        /* \"#utility.yul\":12015:12021   */\n      dup3\n        /* \"#utility.yul\":12011:12028   */\n      and\n        /* \"#utility.yul\":12001:12028   */\n      swap2\n      pop\n        /* \"#utility.yul\":11957:12038   */\n    tag_310:\n        /* \"#utility.yul\":12085:12087   */\n      0x20\n        /* \"#utility.yul\":12077:12083   */\n      dup3\n        /* \"#utility.yul\":12074:12088   */\n      lt\n        /* \"#utility.yul\":12054:12072   */\n      dup2\n        /* \"#utility.yul\":12051:12089   */\n      sub\n        /* \"#utility.yul\":12048:12132   */\n      tag_311\n      jumpi\n        /* \"#utility.yul\":12104:12122   */\n      tag_312\n      tag_163\n      jump\t// in\n    tag_312:\n        /* \"#utility.yul\":12048:12132   */\n    tag_311:\n        /* \"#utility.yul\":11869:12138   */\n      pop\n        /* \"#utility.yul\":11818:12138   */\n      swap2\n      swap1\n      pop\n      jump\t// out\n        /* \"#utility.yul\":12144:12285   */\n    tag_164:\n        /* \"#utility.yul\":12193:12197   */\n      0x00\n        /* \"#utility.yul\":12216:12219   */\n      dup2\n        /* \"#utility.yul\":12208:12219   */\n      swap1\n      pop\n        /* \"#utility.yul\":12239:12242   */\n      dup2\n        /* \"#utility.yul\":12236:12237   */\n      0x00\n        /* \"#utility.yul\":12229:12243   */\n      mstore\n        /* \"#utility.yul\":12273:12277   */\n      0x20\n        /* \"#utility.yul\":12270:12271   */\n      0x00\n        /* \"#utility.yul\":12260:12278   */\n      keccak256\n        /* \"#utility.yul\":12252:12278   */\n      swap1\n      pop\n        /* \"#utility.yul\":12144:12285   */\n      swap2\n      swap1\n      pop\n      jump\t// out\n        /* \"#utility.yul\":12291:12384   */\n    tag_165:\n        /* \"#utility.yul\":12328:12334   */\n      0x00\n        /* \"#utility.yul\":12375:12377   */\n      0x20\n        /* \"#utility.yul\":12370:12372   */\n      0x1f\n        /* \"#utility.yul\":12363:12368   */\n      dup4\n        /* \"#utility.yul\":12359:12373   */\n      add\n        /* \"#utility.yul\":12355:12378   */\n      div\n        /* \"#utility.yul\":12345:12378   */\n      swap1\n      pop\n        /* \"#utility.yul\":12291:12384   */\n      swap2\n      swap1\n      pop\n      jump\t// out\n        /* \"#utility.yul\":12390:12497   */\n    tag_166:\n        /* \"#utility.yul\":12434:12442   */\n      0x00\n        /* \"#utility.yul\":12484:12489   */\n      dup3\n        /* \"#utility.yul\":12478:12482   */\n      dup3\n        /* \"#utility.yul\":12474:12490   */\n      shl\n        /* \"#utility.yul\":12453:12490   */\n      swap1\n      pop\n        /* \"#utility.yul\":12390:12497   */\n      swap3\n      swap2\n      pop\n      pop\n      jump\t// out\n        /* \"#utility.yul\":12503:12896   */\n    tag_167:\n        /* \"#utility.yul\":12572:12578   */\n      0x00\n        /* \"#utility.yul\":12622:12623   */\n      0x08\n        /* \"#utility.yul\":12610:12620   */\n      dup4\n        /* \"#utility.yul\":12606:12624   */\n      mul\n        /* \"#utility.yul\":12645:12742   */\n      tag_317\n        /* \"#utility.yul\":12675:12741   */\n      0xffffffffffffffffffffffffffffffffffffffffffffffffffffffffffffffff\n        /* \"#utility.yul\":12664:12673   */\n      dup3\n        /* \"#utility.yul\":12645:12742   */\n      tag_166\n      jump\t// in\n    tag_317:\n        /* \"#utility.yul\":12763:12802   */\n      tag_318\n        /* \"#utility.yul\":12793:12801   */\n      dup7\n        /* \"#utility.yul\":12782:12791   */\n      dup4\n        /* \"#utility.yul\":12763:12802   */\n      tag_166\n      jump\t// in\n    tag_318:\n        /* \"#utility.yul\":12751:12802   */\n      swap6\n      pop\n        /* \"#utility.yul\":12835:12839   */\n      dup1\n        /* \"#utility.yul\":12831:12840   */\n      not\n        /* \"#utility.yul\":12824:12829   */\n      dup5\n        /* \"#utility.yul\":12820:12841   */\n      and\n        /* \"#utility.yul\":12811:12841   */\n      swap4\n      pop\n        /* \"#utility.yul\":12884:12888   */\n      dup1\n        /* \"#utility.yul\":12874:12882   */\n      dup7\n        /* \"#utility.yul\":12870:12889   */\n      and\n        /* \"#utility.yul\":12863:12868   */\n      dup5\n        /* \"#utility.yul\":12860:12890   */\n      or\n        /* \"#utility.yul\":12850:12890   */\n      swap3\n      pop\n        /* \"#utility.yul\":12579:12896   */\n      pop\n      pop\n        /* \"#utility.yul\":12503:12896   */\n      swap4\n      swap3\n      pop\n      pop\n      pop\n      jump\t// out\n        /* \"#utility.yul\":12902:12962   */\n    tag_168:\n        /* \"#utility.yul\":12930:12933   */\n      0x00\n        /* \"#utility.yul\":12951:12956   */\n      dup2\n        /* \"#utility.yul\":12944:12956   */\n      swap1\n      pop\n        /* \"#utility.yul\":12902:12962   */\n      swap2\n      swap1\n      pop\n      jump\t// out\n        /* \"#utility.yul\":12968:13110   */\n    tag_169:\n        /* \"#utility.yul\":13018:13027   */\n      0x00\n        /* \"#utility.yul\":13051:13104   */\n      tag_321\n        /* \"#utility.yul\":13069:13103   */\n      tag_322\n        /* \"#utility.yul\":13078:13102   */\n      tag_323\n        /* \"#utility.yul\":13096:13101   */\n      dup5\n        /* \"#utility.yul\":13078:13102   */\n      tag_129\n      jump\t// in\n    tag_323:\n        /* \"#utility.yul\":13069:13103   */\n      tag_168\n      jump\t// in\n    tag_322:\n        /* \"#utility.yul\":13051:13104   */\n      tag_129\n      jump\t// in\n    tag_321:\n        /* \"#utility.yul\":13038:13104   */\n      swap1\n      pop\n        /* \"#utility.yul\":12968:13110   */\n      swap2\n      swap1\n      pop\n      jump\t// out\n        /* \"#utility.yul\":13116:13191   */\n    tag_170:\n        /* \"#utility.yul\":13159:13162   */\n      0x00\n        /* \"#utility.yul\":13180:13185   */\n      dup2\n        /* \"#utility.yul\":13173:13185   */\n      swap1\n      pop\n        /* \"#utility.yul\":13116:13191   */\n      swap2\n      swap1\n      pop\n      jump\t// out\n        /* \"#utility.yul\":13197:13466   */\n    tag_171:\n        /* \"#utility.yul\":13307:13346   */\n      tag_326\n        /* \"#utility.yul\":13338:13345   */\n      dup4\n        /* \"#utility.yul\":13307:13346   */\n      tag_169\n      jump\t// in\n    tag_326:\n        /* \"#utility.yul\":13368:13459   */\n      tag_327\n        /* \"#utility.yul\":13417:13458   */\n      tag_328\n        /* \"#utility.yul\":13441:13457   */\n      dup3\n        /* \"#utility.yul\":13417:13458   */\n      tag_170\n      jump\t// in\n    tag_328:\n        /* \"#utility.yul\":13409:13415   */\n      dup5\n        /* \"#utility.yul\":13402:13406   */\n      dup5\n        /* \"#utility.yul\":13396:13407   */\n      sload\n        /* \"#utility.yul\":13368:13459   */\n      tag_167\n      jump\t// in\n    tag_327:\n        /* \"#utility.yul\":13362:13366   */\n      dup3\n        /* \"#utility.yul\":13355:13460   */\n      sstore\n        /* \"#utility.yul\":13273:13466   */\n      pop\n        /* \"#utility.yul\":13197:13466   */\n      pop\n      pop\n      pop\n      jump\t// out\n        /* \"#utility.yul\":13472:13545   */\n    tag_172:\n        /* \"#utility.yul\":13517:13520   */\n      0x00\n        /* \"#utility.yul\":13538:13539   */\n      0x00\n        /* \"#utility.yul\":13531:13539   */\n      swap1\n      pop\n        /* \"#utility.yul\":13472:13545   */\n      swap1\n      jump\t// out\n        /* \"#utility.yul\":13551:13740   */\n    tag_173:\n        /* \"#utility.yul\":13628:13660   */\n      tag_331\n      tag_172\n      jump\t// in\n    tag_331:\n        /* \"#utility.yul\":13669:13734   */\n      tag_332\n        /* \"#utility.yul\":13727:13733   */\n      dup2\n        /* \"#utility.yul\":13719:13725   */\n      dup5\n        /* \"#utility.yul\":13713:13717   */\n      dup5\n        /* \"#utility.yul\":13669:13734   */\n      tag_171\n      jump\t// in\n    tag_332:\n        /* \"#utility.yul\":13604:13740   */\n      pop\n        /* \"#utility.yul\":13551:13740   */\n      pop\n      pop\n      jump\t// out\n        /* \"#utility.yul\":13746:13932   */\n    tag_174:\n        /* \"#utility.yul\":13806:13926   */\n    tag_334:\n        /* \"#utility.yul\":13823:13826   */\n      dup2\n        /* \"#utility.yul\":13816:13821   */\n      dup2\n        /* \"#utility.yul\":13813:13827   */\n      lt\n        /* \"#utility.yul\":13806:13926   */\n      iszero\n      tag_336\n      jumpi\n        /* \"#utility.yul\":13877:13916   */\n      tag_337\n        /* \"#utility.yul\":13914:13915   */\n      0x00\n        /* \"#utility.yul\":13907:13912   */\n      dup3\n        /* \"#utility.yul\":13877:13916   */\n      tag_173\n      jump\t// in\n    tag_337:\n        /* \"#utility.yul\":13850:13851   */\n      0x01\n        /* \"#utility.yul\":13843:13848   */\n      dup2\n        /* \"#utility.yul\":13839:13852   */\n      add\n        /* \"#utility.yul\":13830:13852   */\n      swap1\n      pop\n        /* \"#utility.yul\":13806:13926   */\n      jump(tag_334)\n    tag_336:\n        /* \"#utility.yul\":13746:13932   */\n      pop\n      pop\n      jump\t// out\n        /* \"#utility.yul\":13938:14481   */\n    tag_175:\n        /* \"#utility.yul\":14039:14041   */\n      0x1f\n        /* \"#utility.yul\":14034:14037   */\n      dup3\n        /* \"#utility.yul\":14031:14042   */\n      gt\n        /* \"#utility.yul\":14028:14474   */\n      iszero\n      tag_339\n      jumpi\n        /* \"#utility.yul\":14073:14111   */\n      tag_340\n        /* \"#utility.yul\":14105:14110   */\n      dup2\n        /* \"#utility.yul\":14073:14111   */\n      tag_164\n      jump\t// in\n    tag_340:\n        /* \"#utility.yul\":14157:14186   */\n      tag_341\n        /* \"#utility.yul\":14175:14185   */\n      dup5\n        /* \"#utility.yul\":14157:14186   */\n      tag_165\n      jump\t// in\n    tag_341:\n        /* \"#utility.yul\":14147:14155   */\n      dup2\n        /* \"#utility.yul\":14143:14187   */\n      add\n        /* \"#utility.yul\":14340:14342   */\n      0x20\n        /* \"#utility.yul\":14328:14338   */\n      dup6\n        /* \"#utility.yul\":14325:14343   */\n      lt\n        /* \"#utility.yul\":14322:14371   */\n      iszero\n      tag_342\n      jumpi\n        /* \"#utility.yul\":14361:14369   */\n      dup2\n        /* \"#utility.yul\":14346:14369   */\n      swap1\n      pop\n        /* \"#utility.yul\":14322:14371   */\n    tag_342:\n        /* \"#utility.yul\":14384:14464   */\n      tag_343\n        /* \"#utility.yul\":14440:14462   */\n      tag_344\n        /* \"#utility.yul\":14458:14461   */\n      dup6\n        /* \"#utility.yul\":14440:14462   */\n      tag_165\n      jump\t// in\n    tag_344:\n        /* \"#utility.yul\":14430:14438   */\n      dup4\n        /* \"#utility.yul\":14426:14463   */\n      add\n        /* \"#utility.yul\":14413:14424   */\n      dup3\n        /* \"#utility.yul\":14384:14464   */\n      tag_174\n      jump\t// in\n    tag_343:\n        /* \"#utility.yul\":14043:14474   */\n      pop\n      pop\n        /* \"#utility.yul\":14028:14474   */\n    tag_339:\n        /* \"#utility.yul\":13938:14481   */\n      pop\n      pop\n      pop\n      jump\t// out\n        /* \"#utility.yul\":14487:14604   */\n    tag_176:\n        /* \"#utility.yul\":14541:14549   */\n      0x00\n        /* \"#utility.yul\":14591:14596   */\n      dup3\n        /* \"#utility.yul\":14585:14589   */\n      dup3\n        /* \"#utility.yul\":14581:14597   */\n      shr\n        /* \"#utility.yul\":14560:14597   */\n      swap1\n      pop\n        /* \"#utility.yul\":14487:14604   */\n      swap3\n      swap2\n      pop\n      pop\n      jump\t// out\n        /* \"#utility.yul\":14610:14779   */\n    tag_177:\n        /* \"#utility.yul\":14654:14660   */\n      0x00\n        /* \"#utility.yul\":14687:14738   */\n      tag_347\n        /* \"#utility.yul\":14735:14736   */\n      0x00\n        /* \"#utility.yul\":14731:14737   */\n      not\n        /* \"#utility.yul\":14723:14728   */\n      dup5\n        /* \"#utility.yul\":14720:14721   */\n      0x08\n        /* \"#utility.yul\":14716:14729   */\n      mul\n        /* \"#utility.yul\":14687:14738   */\n      tag_176\n      jump\t// in\n    tag_347:\n        /* \"#utility.yul\":14683:14739   */\n      not\n        /* \"#utility.yul\":14768:14772   */\n      dup1\n        /* \"#utility.yul\":14762:14766   */\n      dup4\n        /* \"#utility.yul\":14758:14773   */\n      and\n        /* \"#utility.yul\":14748:14773   */\n      swap2\n      pop\n        /* \"#utility.yul\":14661:14779   */\n      pop\n        /* \"#utility.yul\":14610:14779   */\n      swap3\n      swap2\n      pop\n      pop\n      jump\t// out\n        /* \"#utility.yul\":14784:15079   */\n    tag_178:\n        /* \"#utility.yul\":14860:14864   */\n      0x00\n        /* \"#utility.yul\":15006:15035   */\n      tag_349\n        /* \"#utility.yul\":15031:15034   */\n      dup4\n        /* \"#utility.yul\":15025:15029   */\n      dup4\n        /* \"#utility.yul\":15006:15035   */\n      tag_177\n      jump\t// in\n    tag_349:\n        /* \"#utility.yul\":14998:15035   */\n      swap2\n      pop\n        /* \"#utility.yul\":15068:15071   */\n      dup3\n        /* \"#utility.yul\":15065:15066   */\n      0x02\n        /* \"#utility.yul\":15061:15072   */\n      mul\n        /* \"#utility.yul\":15055:15059   */\n      dup3\n        /* \"#utility.yul\":15052:15073   */\n      or\n        /* \"#utility.yul\":15044:15073   */\n      swap1\n      pop\n        /* \"#utility.yul\":14784:15079   */\n      swap3\n      swap2\n      pop\n      pop\n      jump\t// out\n        /* \"#utility.yul\":15084:16479   */\n    tag_82:\n        /* \"#utility.yul\":15201:15238   */\n      tag_351\n        /* \"#utility.yul\":15234:15237   */\n      dup3\n        /* \"#utility.yul\":15201:15238   */\n      tag_132\n      jump\t// in\n    tag_351:\n        /* \"#utility.yul\":15303:15321   */\n      0xffffffffffffffff\n        /* \"#utility.yul\":15295:15301   */\n      dup2\n        /* \"#utility.yul\":15292:15322   */\n      gt\n        /* \"#utility.yul\":15289:15345   */\n      iszero\n      tag_352\n      jumpi\n        /* \"#utility.yul\":15325:15343   */\n      tag_353\n      tag_96\n      jump\t// in\n    tag_353:\n        /* \"#utility.yul\":15289:15345   */\n    tag_352:\n        /* \"#utility.yul\":15369:15407   */\n      tag_354\n        /* \"#utility.yul\":15401:15405   */\n      dup3\n        /* \"#utility.yul\":15395:15406   */\n      sload\n        /* \"#utility.yul\":15369:15407   */\n      tag_52\n      jump\t// in\n    tag_354:\n        /* \"#utility.yul\":15454:15521   */\n      tag_355\n        /* \"#utility.yul\":15514:15520   */\n      dup3\n        /* \"#utility.yul\":15506:15512   */\n      dup3\n        /* \"#utility.yul\":15500:15504   */\n      dup6\n        /* \"#utility.yul\":15454:15521   */\n      tag_175\n      jump\t// in\n    tag_355:\n        /* \"#utility.yul\":15548:15549   */\n      0x00\n        /* \"#utility.yul\":15572:15576   */\n      0x20\n        /* \"#utility.yul\":15559:15576   */\n      swap1\n      pop\n        /* \"#utility.yul\":15604:15606   */\n      0x1f\n        /* \"#utility.yul\":15596:15602   */\n      dup4\n        /* \"#utility.yul\":15593:15607   */\n      gt\n        /* \"#utility.yul\":15621:15622   */\n      0x01\n        /* \"#utility.yul\":15616:16234   */\n      dup2\n      eq\n      tag_357\n      jumpi\n        /* \"#utility.yul\":16278:16279   */\n      0x00\n        /* \"#utility.yul\":16295:16301   */\n      dup5\n        /* \"#utility.yul\":16292:16369   */\n      iszero\n      tag_358\n      jumpi\n        /* \"#utility.yul\":16344:16353   */\n      dup3\n        /* \"#utility.yul\":16339:16342   */\n      dup8\n        /* \"#utility.yul\":16335:16354   */\n      add\n        /* \"#utility.yul\":16329:16355   */\n      mload\n        /* \"#utility.yul\":16320:16355   */\n      swap1\n      pop\n        /* \"#utility.yul\":16292:16369   */\n    tag_358:\n        /* \"#utility.yul\":16395:16462   */\n      tag_359\n        /* \"#utility.yul\":16455:16461   */\n      dup6\n        /* \"#utility.yul\":16448:16453   */\n      dup3\n        /* \"#utility.yul\":16395:16462   */\n      tag_178\n      jump\t// in\n    tag_359:\n        /* \"#utility.yul\":16389:16393   */\n      dup7\n        /* \"#utility.yul\":16382:16463   */\n      sstore\n        /* \"#utility.yul\":16251:16473   */\n      pop\n        /* \"#utility.yul\":15586:16473   */\n      jump(tag_356)\n        /* \"#utility.yul\":15616:16234   */\n    tag_357:\n        /* \"#utility.yul\":15668:15672   */\n      0x1f\n        /* \"#utility.yul\":15664:15673   */\n      not\n        /* \"#utility.yul\":15656:15662   */\n      dup5\n        /* \"#utility.yul\":15652:15674   */\n      and\n        /* \"#utility.yul\":15702:15739   */\n      tag_360\n        /* \"#utility.yul\":15734:15738   */\n      dup7\n        /* \"#utility.yul\":15702:15739   */\n      tag_164\n      jump\t// in\n    tag_360:\n        /* \"#utility.yul\":15761:15762   */\n      0x00\n        /* \"#utility.yul\":15775:15983   */\n    tag_361:\n        /* \"#utility.yul\":15789:15796   */\n      dup3\n        /* \"#utility.yul\":15786:15787   */\n      dup2\n        /* \"#utility.yul\":15783:15797   */\n      lt\n        /* \"#utility.yul\":15775:15983   */\n      iszero\n      tag_363\n      jumpi\n        /* \"#utility.yul\":15868:15877   */\n      dup5\n        /* \"#utility.yul\":15863:15866   */\n      dup10\n        /* \"#utility.yul\":15859:15878   */\n      add\n        /* \"#utility.yul\":15853:15879   */\n      mload\n        /* \"#utility.yul\":15845:15851   */\n      dup3\n        /* \"#utility.yul\":15838:15880   */\n      sstore\n        /* \"#utility.yul\":15919:15920   */\n      0x01\n        /* \"#utility.yul\":15911:15917   */\n      dup3\n        /* \"#utility.yul\":15907:15921   */\n      add\n        /* \"#utility.yul\":15897:15921   */\n      swap2\n      pop\n        /* \"#utility.yul\":15966:15968   */\n      0x20\n        /* \"#utility.yul\":15955:15964   */\n      dup6\n        /* \"#utility.yul\":15951:15969   */\n      add\n        /* \"#utility.yul\":15938:15969   */\n      swap5\n      pop\n        /* \"#utility.yul\":15812:15816   */\n      0x20\n        /* \"#utility.yul\":15809:15810   */\n      dup2\n        /* \"#utility.yul\":15805:15817   */\n      add\n        /* \"#utility.yul\":15800:15817   */\n      swap1\n      pop\n        /* \"#utility.yul\":15775:15983   */\n      jump(tag_361)\n    tag_363:\n        /* \"#utility.yul\":16011:16017   */\n      dup7\n        /* \"#utility.yul\":16002:16009   */\n      dup4\n        /* \"#utility.yul\":15999:16018   */\n      lt\n        /* \"#utility.yul\":15996:16175   */\n      iszero\n      tag_364\n      jumpi\n        /* \"#utility.yul\":16069:16078   */\n      dup5\n        /* \"#utility.yul\":16064:16067   */\n      dup10\n        /* \"#utility.yul\":16060:16079   */\n      add\n        /* \"#utility.yul\":16054:16080   */\n      mload\n        /* \"#utility.yul\":16112:16160   */\n      tag_365\n        /* \"#utility.yul\":16154:16158   */\n      0x1f\n        /* \"#utility.yul\":16146:16152   */\n      dup10\n        /* \"#utility.yul\":16142:16159   */\n      and\n        /* \"#utility.yul\":16131:16140   */\n      dup3\n        /* \"#utility.yul\":16112:16160   */\n      tag_177\n      jump\t// in\n    tag_365:\n        /* \"#utility.yul\":16104:16110   */\n      dup4\n        /* \"#utility.yul\":16097:16161   */\n      sstore\n        /* \"#utility.yul\":16019:16175   */\n      pop\n        /* \"#utility.yul\":15996:16175   */\n    tag_364:\n        /* \"#utility.yul\":16221:16222   */\n      0x01\n        /* \"#utility.yul\":16217:16218   */\n      0x02\n        /* \"#utility.yul\":16209:16215   */\n      dup9\n        /* \"#utility.yul\":16205:16219   */\n      mul\n        /* \"#utility.yul\":16201:16223   */\n      add\n        /* \"#utility.yul\":16195:16199   */\n      dup9\n        /* \"#utility.yul\":16188:16224   */\n      sstore\n        /* \"#utility.yul\":15623:16234   */\n      pop\n      pop\n      pop\n        /* \"#utility.yul\":15586:16473   */\n    tag_356:\n      pop\n        /* \"#utility.yul\":15176:16479   */\n      pop\n      pop\n      pop\n        /* \"#utility.yul\":15084:16479   */\n      pop\n      pop\n      jump\t// out\n        /* \"#utility.yul\":16485:16603   */\n    tag_179:\n        /* \"#utility.yul\":16572:16596   */\n      tag_367\n        /* \"#utility.yul\":16590:16595   */\n      dup2\n        /* \"#utility.yul\":16572:16596   */\n      tag_126\n      jump\t// in\n    tag_367:\n        /* \"#utility.yul\":16567:16570   */\n      dup3\n        /* \"#utility.yul\":16560:16597   */\n      mstore\n        /* \"#utility.yul\":16485:16603   */\n      pop\n      pop\n      jump\t// out\n        /* \"#utility.yul\":16609:16831   */\n    tag_86:\n        /* \"#utility.yul\":16702:16706   */\n      0x00\n        /* \"#utility.yul\":16740:16742   */\n      0x20\n        /* \"#utility.yul\":16729:16738   */\n      dup3\n        /* \"#utility.yul\":16725:16743   */\n      add\n        /* \"#utility.yul\":16717:16743   */\n      swap1\n      pop\n        /* \"#utility.yul\":16753:16824   */\n      tag_369\n        /* \"#utility.yul\":16821:16822   */\n      0x00\n        /* \"#utility.yul\":16810:16819   */\n      dup4\n        /* \"#utility.yul\":16806:16823   */\n      add\n        /* \"#utility.yul\":16797:16803   */\n      dup5\n        /* \"#utility.yul\":16753:16824   */\n      tag_179\n      jump\t// in\n    tag_369:\n        /* \"#utility.yul\":16609:16831   */\n      swap3\n      swap2\n      pop\n      pop\n      jump\t// out\n        /* \"#utility.yul\":16837:17017   */\n    tag_104:\n        /* \"#utility.yul\":16885:16962   */\n      0x4e487b7100000000000000000000000000000000000000000000000000000000\n        /* \"#utility.yul\":16882:16883   */\n      0x00\n        /* \"#utility.yul\":16875:16963   */\n      mstore\n        /* \"#utility.yul\":16982:16986   */\n      0x32\n        /* \"#utility.yul\":16979:16980   */\n      0x04\n        /* \"#utility.yul\":16972:16987   */\n      mstore\n        /* \"#utility.yul\":17006:17010   */\n      0x24\n        /* \"#utility.yul\":17003:17004   */\n      0x00\n        /* \"#utility.yul\":16996:17011   */\n      revert\n        /* \"#utility.yul\":17023:17113   */\n    tag_180:\n        /* \"#utility.yul\":17057:17064   */\n      0x00\n        /* \"#utility.yul\":17100:17105   */\n      dup2\n        /* \"#utility.yul\":17093:17106   */\n      iszero\n        /* \"#utility.yul\":17086:17107   */\n      iszero\n        /* \"#utility.yul\":17075:17107   */\n      swap1\n      pop\n        /* \"#utility.yul\":17023:17113   */\n      swap2\n      swap1\n      pop\n      jump\t// out\n        /* \"#utility.yul\":17119:17235   */\n    tag_181:\n        /* \"#utility.yul\":17189:17210   */\n      tag_373\n        /* \"#utility.yul\":17204:17209   */\n      dup2\n        /* \"#utility.yul\":17189:17210   */\n      tag_180\n      jump\t// in\n    tag_373:\n        /* \"#utility.yul\":17182:17187   */\n      dup2\n        /* \"#utility.yul\":17179:17211   */\n      eq\n        /* \"#utility.yul\":17169:17229   */\n      tag_374\n      jumpi\n        /* \"#utility.yul\":17225:17226   */\n      0x00\n        /* \"#utility.yul\":17222:17223   */\n      0x00\n        /* \"#utility.yul\":17215:17227   */\n      revert\n        /* \"#utility.yul\":17169:17229   */\n    tag_374:\n        /* \"#utility.yul\":17119:17235   */\n      pop\n      jump\t// out\n        /* \"#utility.yul\":17241:17378   */\n    tag_182:\n        /* \"#utility.yul\":17295:17300   */\n      0x00\n        /* \"#utility.yul\":17326:17332   */\n      dup2\n        /* \"#utility.yul\":17320:17333   */\n      mload\n        /* \"#utility.yul\":17311:17333   */\n      swap1\n      pop\n        /* \"#utility.yul\":17342:17372   */\n      tag_376\n        /* \"#utility.yul\":17366:17371   */\n      dup2\n        /* \"#utility.yul\":17342:17372   */\n      tag_181\n      jump\t// in\n    tag_376:\n        /* \"#utility.yul\":17241:17378   */\n      swap3\n      swap2\n      pop\n      pop\n      jump\t// out\n        /* \"#utility.yul\":17384:17729   */\n    tag_109:\n        /* \"#utility.yul\":17451:17457   */\n      0x00\n        /* \"#utility.yul\":17500:17502   */\n      0x20\n        /* \"#utility.yul\":17488:17497   */\n      dup3\n        /* \"#utility.yul\":17479:17486   */\n      dup5\n        /* \"#utility.yul\":17475:17498   */\n      sub\n        /* \"#utility.yul\":17471:17503   */\n      slt\n        /* \"#utility.yul\":17468:17587   */\n      iszero\n      tag_378\n      jumpi\n        /* \"#utility.yul\":17506:17585   */\n      tag_379\n      tag_123\n      jump\t// in\n    tag_379:\n        /* \"#utility.yul\":17468:17587   */\n    tag_378:\n        /* \"#utility.yul\":17626:17627   */\n      0x00\n        /* \"#utility.yul\":17651:17712   */\n      tag_380\n        /* \"#utility.yul\":17704:17711   */\n      dup5\n        /* \"#utility.yul\":17695:17701   */\n      dup3\n        /* \"#utility.yul\":17684:17693   */\n      dup6\n        /* \"#utility.yul\":17680:17702   */\n      add\n        /* \"#utility.yul\":17651:17712   */\n      tag_182\n      jump\t// in\n    tag_380:\n        /* \"#utility.yul\":17641:17712   */\n      swap2\n      pop\n        /* \"#utility.yul\":17597:17722   */\n      pop\n        /* \"#utility.yul\":17384:17729   */\n      swap3\n      swap2\n      pop\n      pop\n      jump\t// out\n        /* \"#utility.yul\":17735:17915   */\n    tag_183:\n        /* \"#utility.yul\":17783:17860   */\n      0x4e487b7100000000000000000000000000000000000000000000000000000000\n        /* \"#utility.yul\":17780:17781   */\n      0x00\n        /* \"#utility.yul\":17773:17861   */\n      mstore\n        /* \"#utility.yul\":17880:17884   */\n      0x11\n        /* \"#utility.yul\":17877:17878   */\n      0x04\n        /* \"#utility.yul\":17870:17885   */\n      mstore\n        /* \"#utility.yul\":17904:17908   */\n      0x24\n        /* \"#utility.yul\":17901:17902   */\n      0x00\n        /* \"#utility.yul\":17894:17909   */\n      revert\n        /* \"#utility.yul\":17921:18154   */\n    tag_117:\n        /* \"#utility.yul\":17960:17963   */\n      0x00\n        /* \"#utility.yul\":17983:18007   */\n      tag_383\n        /* \"#utility.yul\":18001:18006   */\n      dup3\n        /* \"#utility.yul\":17983:18007   */\n      tag_129\n      jump\t// in\n    tag_383:\n        /* \"#utility.yul\":17974:18007   */\n      swap2\n      pop\n        /* \"#utility.yul\":18029:18095   */\n      0xffffffffffffffffffffffffffffffffffffffffffffffffffffffffffffffff\n        /* \"#utility.yul\":18022:18027   */\n      dup3\n        /* \"#utility.yul\":18019:18096   */\n      sub\n        /* \"#utility.yul\":18016:18119   */\n      tag_384\n      jumpi\n        /* \"#utility.yul\":18099:18117   */\n      tag_385\n      tag_183\n      jump\t// in\n    tag_385:\n        /* \"#utility.yul\":18016:18119   */\n    tag_384:\n        /* \"#utility.yul\":18146:18147   */\n      0x01\n        /* \"#utility.yul\":18139:18144   */\n      dup3\n        /* \"#utility.yul\":18135:18148   */\n      add\n        /* \"#utility.yul\":18128:18148   */\n      swap1\n      pop\n        /* \"#utility.yul\":17921:18154   */\n      swap2\n      swap1\n      pop\n      jump\t// out\n\n    auxdata: 0xa26469706673582212206ee1f0170099e406148d43163884500b818828c39ecd694a81733aa56efaf2a964736f6c634300081e0033\n}\n",
				"bytecode": {
					"linkReferences": {},
					"object": "608060405234801561000f575f5ffd5b50604051611a81380380611a81833981810160405281019061003191906101c6565b805f5f6101000a81548173ffffffffffffffffffffffffffffffffffffffff021916908373ffffffffffffffffffffffffffffffffffffffff16021790555060405180606001604052806040518060400160405280600581526020017f41646d696e00000000000000000000000000000000000000000000000000000081525081526020016298968081526020016002808111156100d2576100d16101f1565b5b81525060015f3373ffffffffffffffffffffffffffffffffffffffff1673ffffffffffffffffffffffffffffffffffffffff1681526020019081526020015f205f820151815f019081610125919061045b565b50602082015181600101556040820151816002015f6101000a81548160ff0219169083600281111561015a576101596101f1565b5b02179055509050505061052a565b5f5ffd5b5f73ffffffffffffffffffffffffffffffffffffffff82169050919050565b5f6101958261016c565b9050919050565b6101a58161018b565b81146101af575f5ffd5b50565b5f815190506101c08161019c565b92915050565b5f602082840312156101db576101da610168565b5b5f6101e8848285016101b2565b91505092915050565b7f4e487b71000000000000000000000000000000000000000000000000000000005f52602160045260245ffd5b5f81519050919050565b7f4e487b71000000000000000000000000000000000000000000000000000000005f52604160045260245ffd5b7f4e487b71000000000000000000000000000000000000000000000000000000005f52602260045260245ffd5b5f600282049050600182168061029957607f821691505b6020821081036102ac576102ab610255565b5b50919050565b5f819050815f5260205f209050919050565b5f6020601f8301049050919050565b5f82821b905092915050565b5f6008830261030e7fffffffffffffffffffffffffffffffffffffffffffffffffffffffffffffffff826102d3565b61031886836102d3565b95508019841693508086168417925050509392505050565b5f819050919050565b5f819050919050565b5f61035c61035761035284610330565b610339565b610330565b9050919050565b5f819050919050565b61037583610342565b61038961038182610363565b8484546102df565b825550505050565b5f5f905090565b6103a0610391565b6103ab81848461036c565b505050565b5b818110156103ce576103c35f82610398565b6001810190506103b1565b5050565b601f821115610413576103e4816102b2565b6103ed846102c4565b810160208510156103fc578190505b610410610408856102c4565b8301826103b0565b50505b505050565b5f82821c905092915050565b5f6104335f1984600802610418565b1980831691505092915050565b5f61044b8383610424565b9150826002028217905092915050565b6104648261021e565b67ffffffffffffffff81111561047d5761047c610228565b5b6104878254610282565b6104928282856103d2565b5f60209050601f8311600181146104c3575f84156104b1578287015190505b6104bb8582610440565b865550610522565b601f1984166104d1866102b2565b5f5b828110156104f8578489015182556001820191506020850194506020810190506104d3565b868310156105155784890151610511601f891682610424565b8355505b6001600288020188555050505b505050505050565b61154a806105375f395ff3fe608060405234801561000f575f5ffd5b5060043610610054575f3560e01c8062704c6c14610058578063091c455314610074578063541709da146100a457806380b6e64a146100c2578063d9781122146100de575b5f5ffd5b610072600480360381019061006d9190610c1e565b61010e565b005b61008e60048036038101906100899190610c5c565b6102e7565b60405161009b9190610dc6565b60405180910390f35b6100ac6104d3565b6040516100b99190610dc6565b60405180910390f35b6100dc60048036038101906100d79190610f35565b6106bd565b005b6100f860048036038101906100f39190610c5c565b6108bf565b6040516101059190611049565b60405180910390f35b5f80600281111561012257610121610d06565b5b5f5f9054906101000a900473ffffffffffffffffffffffffffffffffffffffff1673ffffffffffffffffffffffffffffffffffffffff1663fde081746040518163ffffffff1660e01b8152600401602060405180830381865afa15801561018b573d5f5f3e3d5ffd5b505050506040513d601f19601f820116820180604052508101906101af919061108c565b60028111156101c1576101c0610d06565b5b146040518060400160405280600c81526020017f554e415554484f52495a4544000000000000000000000000000000000000000081525090610239576040517f08c379a000000000000000000000000000000000000000000000000000000000815260040161023091906110ff565b60405180910390fd5b505f60405180604001604052808481526020015f1515815250905060025f8573ffffffffffffffffffffffffffffffffffffffff1673ffffffffffffffffffffffffffffffffffffffff1681526020019081526020015f2081908060018154018082558091505060019003905f5260205f2090600202015f909190919091505f820151815f01556020820151816001015f6101000a81548160ff021916908315150217905550505050505050565b6102ef610b4f565b815f60015f8373ffffffffffffffffffffffffffffffffffffffff1673ffffffffffffffffffffffffffffffffffffffff1681526020019081526020015f2060010154116040518060400160405280601181526020017f555345525f49535f4e4f545f464f554e44000000000000000000000000000000815250906103aa576040517f08c379a00000000000000000000000000000000000000000000000000000000081526004016103a191906110ff565b60405180910390fd5b505f60015f8573ffffffffffffffffffffffffffffffffffffffff1673ffffffffffffffffffffffffffffffffffffffff1681526020019081526020015f206040518060600160405290815f820180546104039061114c565b80601f016020809104026020016040519081016040528092919081815260200182805461042f9061114c565b801561047a5780601f106104515761010080835404028352916020019161047a565b820191905f5260205f20905b81548152906001019060200180831161045d57829003601f168201915b5050505050815260200160018201548152602001600282015f9054906101000a900460ff1660028111156104b1576104b0610d06565b5b60028111156104c3576104c2610d06565b5b8152505090508092505050919050565b6104db610b4f565b335f60015f8373ffffffffffffffffffffffffffffffffffffffff1673ffffffffffffffffffffffffffffffffffffffff1681526020019081526020015f2060010154116040518060400160405280601181526020017f555345525f49535f4e4f545f464f554e4400000000000000000000000000000081525090610596576040517f08c379a000000000000000000000000000000000000000000000000000000000815260040161058d91906110ff565b60405180910390fd5b505f60015f3373ffffffffffffffffffffffffffffffffffffffff1673ffffffffffffffffffffffffffffffffffffffff1681526020019081526020015f206040518060600160405290815f820180546105ef9061114c565b80601f016020809104026020016040519081016040528092919081815260200182805461061b9061114c565b80156106665780601f1061063d57610100808354040283529160200191610666565b820191905f5260205f20905b81548152906001019060200180831161064957829003601f168201915b5050505050815260200160018201548152602001600282015f9054906101000a900460ff16600281111561069d5761069c610d06565b5b60028111156106af576106ae610d06565b5b815250509050809250505090565b335f60015f8373ffffffffffffffffffffffffffffffffffffffff1673ffffffffffffffffffffffffffffffffffffffff1681526020019081526020015f2060010154146040518060400160405280600f81526020017f555345525f49535f43524541544544000000000000000000000000000000000081525090610778576040517f08c379a000000000000000000000000000000000000000000000000000000000815260040161076f91906110ff565b60405180910390fd5b5060405180606001604052808581526020018481526020018360028111156107a3576107a2610d06565b5b81525060015f3373ffffffffffffffffffffffffffffffffffffffff1673ffffffffffffffffffffffffffffffffffffffff1681526020019081526020015f205f820151815f0190816107f6919061131c565b50602082015181600101556040820151816002015f6101000a81548160ff0219169083600281111561082b5761082a610d06565b5b02179055509050505f5f9054906101000a900473ffffffffffffffffffffffffffffffffffffffff1673ffffffffffffffffffffffffffffffffffffffff16632e1cd6c2336040518263ffffffff1660e01b815260040161088c91906113fa565b5f604051808303815f87803b1580156108a3575f5ffd5b505af11580156108b5573d5f5f3e3d5ffd5b5050505050505050565b60605f60025f8473ffffffffffffffffffffffffffffffffffffffff1673ffffffffffffffffffffffffffffffffffffffff1681526020019081526020015f20805480602002602001604051908101604052809291908181526020015f905b82821015610971578382905f5260205f2090600202016040518060400160405290815f8201548152602001600182015f9054906101000a900460ff1615151515815250508152602001906001019061091e565b5050505090505f815167ffffffffffffffff81111561099357610992610dee565b5b6040519080825280602002602001820160405280156109c15781602001602082028036833780820191505090505b5090505f5f90505f5f90505b8351811015610b43573373ffffffffffffffffffffffffffffffffffffffff168673ffffffffffffffffffffffffffffffffffffffff16148015610a2d5750838181518110610a1f57610a1e611413565b5b602002602001015160200151155b80610ac157505f5f9054906101000a900473ffffffffffffffffffffffffffffffffffffffff1673ffffffffffffffffffffffffffffffffffffffff16639805524a6040518163ffffffff1660e01b8152600401602060405180830381865afa158015610a9c573d5f5f3e3d5ffd5b505050506040513d601f19601f82011682018060405250810190610ac09190611475565b5b80610ae75750838181518110610ada57610ad9611413565b5b6020026020010151602001515b15610b3657838181518110610aff57610afe611413565b5b60200260200101515f0151838380610b16906114cd565b945081518110610b2957610b28611413565b5b6020026020010181815250505b80806001019150506109cd565b50819350505050919050565b6040518060600160405280606081526020015f81526020015f6002811115610b7a57610b79610d06565b5b81525090565b5f604051905090565b5f5ffd5b5f5ffd5b5f73ffffffffffffffffffffffffffffffffffffffff82169050919050565b5f610bba82610b91565b9050919050565b610bca81610bb0565b8114610bd4575f5ffd5b50565b5f81359050610be581610bc1565b92915050565b5f819050919050565b610bfd81610beb565b8114610c07575f5ffd5b50565b5f81359050610c1881610bf4565b92915050565b5f5f60408385031215610c3457610c33610b89565b5b5f610c4185828601610bd7565b9250506020610c5285828601610c0a565b9150509250929050565b5f60208284031215610c7157610c70610b89565b5b5f610c7e84828501610bd7565b91505092915050565b5f81519050919050565b5f82825260208201905092915050565b8281835e5f83830152505050565b5f601f19601f8301169050919050565b5f610cc982610c87565b610cd38185610c91565b9350610ce3818560208601610ca1565b610cec81610caf565b840191505092915050565b610d0081610beb565b82525050565b7f4e487b71000000000000000000000000000000000000000000000000000000005f52602160045260245ffd5b60038110610d4457610d43610d06565b5b50565b5f819050610d5482610d33565b919050565b5f610d6382610d47565b9050919050565b610d7381610d59565b82525050565b5f606083015f8301518482035f860152610d938282610cbf565b9150506020830151610da86020860182610cf7565b506040830151610dbb6040860182610d6a565b508091505092915050565b5f6020820190508181035f830152610dde8184610d79565b905092915050565b5f5ffd5b5f5ffd5b7f4e487b71000000000000000000000000000000000000000000000000000000005f52604160045260245ffd5b610e2482610caf565b810181811067ffffffffffffffff82111715610e4357610e42610dee565b5b80604052505050565b5f610e55610b80565b9050610e618282610e1b565b919050565b5f67ffffffffffffffff821115610e8057610e7f610dee565b5b610e8982610caf565b9050602081019050919050565b828183375f83830152505050565b5f610eb6610eb184610e66565b610e4c565b905082815260208101848484011115610ed257610ed1610dea565b5b610edd848285610e96565b509392505050565b5f82601f830112610ef957610ef8610de6565b5b8135610f09848260208601610ea4565b91505092915050565b60038110610f1e575f5ffd5b50565b5f81359050610f2f81610f12565b92915050565b5f5f5f60608486031215610f4c57610f4b610b89565b5b5f84013567ffffffffffffffff811115610f6957610f68610b8d565b5b610f7586828701610ee5565b9350506020610f8686828701610c0a565b9250506040610f9786828701610f21565b9150509250925092565b5f81519050919050565b5f82825260208201905092915050565b5f819050602082019050919050565b5f610fd58383610cf7565b60208301905092915050565b5f602082019050919050565b5f610ff782610fa1565b6110018185610fab565b935061100c83610fbb565b805f5b8381101561103c5781516110238882610fca565b975061102e83610fe1565b92505060018101905061100f565b5085935050505092915050565b5f6020820190508181035f8301526110618184610fed565b905092915050565b60038110611075575f5ffd5b50565b5f8151905061108681611069565b92915050565b5f602082840312156110a1576110a0610b89565b5b5f6110ae84828501611078565b91505092915050565b5f82825260208201905092915050565b5f6110d182610c87565b6110db81856110b7565b93506110eb818560208601610ca1565b6110f481610caf565b840191505092915050565b5f6020820190508181035f83015261111781846110c7565b905092915050565b7f4e487b71000000000000000000000000000000000000000000000000000000005f52602260045260245ffd5b5f600282049050600182168061116357607f821691505b6020821081036111765761117561111f565b5b50919050565b5f819050815f5260205f209050919050565b5f6020601f8301049050919050565b5f82821b905092915050565b5f600883026111d87fffffffffffffffffffffffffffffffffffffffffffffffffffffffffffffffff8261119d565b6111e2868361119d565b95508019841693508086168417925050509392505050565b5f819050919050565b5f61121d61121861121384610beb565b6111fa565b610beb565b9050919050565b5f819050919050565b61123683611203565b61124a61124282611224565b8484546111a9565b825550505050565b5f5f905090565b611261611252565b61126c81848461122d565b505050565b5b8181101561128f576112845f82611259565b600181019050611272565b5050565b601f8211156112d4576112a58161117c565b6112ae8461118e565b810160208510156112bd578190505b6112d16112c98561118e565b830182611271565b50505b505050565b5f82821c905092915050565b5f6112f45f19846008026112d9565b1980831691505092915050565b5f61130c83836112e5565b9150826002028217905092915050565b61132582610c87565b67ffffffffffffffff81111561133e5761133d610dee565b5b611348825461114c565b611353828285611293565b5f60209050601f831160018114611384575f8415611372578287015190505b61137c8582611301565b8655506113e3565b601f1984166113928661117c565b5f5b828110156113b957848901518255600182019150602085019450602081019050611394565b868310156113d657848901516113d2601f8916826112e5565b8355505b6001600288020188555050505b505050505050565b6113f481610bb0565b82525050565b5f60208201905061140d5f8301846113eb565b92915050565b7f4e487b71000000000000000000000000000000000000000000000000000000005f52603260045260245ffd5b5f8115159050919050565b61145481611440565b811461145e575f5ffd5b50565b5f8151905061146f8161144b565b92915050565b5f6020828403121561148a57611489610b89565b5b5f61149784828501611461565b91505092915050565b7f4e487b71000000000000000000000000000000000000000000000000000000005f52601160045260245ffd5b5f6114d782610beb565b91507fffffffffffffffffffffffffffffffffffffffffffffffffffffffffffffffff8203611509576115086114a0565b5b60018201905091905056fea26469706673582212206ee1f0170099e406148d43163884500b818828c39ecd694a81733aa56efaf2a964736f6c634300081e0033",
					"opcodes": "PUSH1 0x80 PUSH1 0x40 MSTORE CALLVALUE DUP1 ISZERO PUSH2 0xF JUMPI PUSH0 PUSH0 REVERT JUMPDEST POP PUSH1 0x40 MLOAD PUSH2 0x1A81 CODESIZE SUB DUP1 PUSH2 0x1A81 DUP4 CODECOPY DUP2 DUP2 ADD PUSH1 0x40 MSTORE DUP2 ADD SWAP1 PUSH2 0x31 SWAP2 SWAP1 PUSH2 0x1C6 JUMP JUMPDEST DUP1 PUSH0 PUSH0 PUSH2 0x100 EXP DUP2 SLOAD DUP2 PUSH20 0xFFFFFFFFFFFFFFFFFFFFFFFFFFFFFFFFFFFFFFFF MUL NOT AND SWAP1 DUP4 PUSH20 0xFFFFFFFFFFFFFFFFFFFFFFFFFFFFFFFFFFFFFFFF AND MUL OR SWAP1 SSTORE POP PUSH1 0x40 MLOAD DUP1 PUSH1 0x60 ADD PUSH1 0x40 MSTORE DUP1 PUSH1 0x40 MLOAD DUP1 PUSH1 0x40 ADD PUSH1 0x40 MSTORE DUP1 PUSH1 0x5 DUP2 MSTORE PUSH1 0x20 ADD PUSH32 0x41646D696E000000000000000000000000000000000000000000000000000000 DUP2 MSTORE POP DUP2 MSTORE PUSH1 0x20 ADD PUSH3 0x989680 DUP2 MSTORE PUSH1 0x20 ADD PUSH1 0x2 DUP1 DUP2 GT ISZERO PUSH2 0xD2 JUMPI PUSH2 0xD1 PUSH2 0x1F1 JUMP JUMPDEST JUMPDEST DUP2 MSTORE POP PUSH1 0x1 PUSH0 CALLER PUSH20 0xFFFFFFFFFFFFFFFFFFFFFFFFFFFFFFFFFFFFFFFF AND PUSH20 0xFFFFFFFFFFFFFFFFFFFFFFFFFFFFFFFFFFFFFFFF AND DUP2 MSTORE PUSH1 0x20 ADD SWAP1 DUP2 MSTORE PUSH1 0x20 ADD PUSH0 KECCAK256 PUSH0 DUP3 ADD MLOAD DUP2 PUSH0 ADD SWAP1 DUP2 PUSH2 0x125 SWAP2 SWAP1 PUSH2 0x45B JUMP JUMPDEST POP PUSH1 0x20 DUP3 ADD MLOAD DUP2 PUSH1 0x1 ADD SSTORE PUSH1 0x40 DUP3 ADD MLOAD DUP2 PUSH1 0x2 ADD PUSH0 PUSH2 0x100 EXP DUP2 SLOAD DUP2 PUSH1 0xFF MUL NOT AND SWAP1 DUP4 PUSH1 0x2 DUP2 GT ISZERO PUSH2 0x15A JUMPI PUSH2 0x159 PUSH2 0x1F1 JUMP JUMPDEST JUMPDEST MUL OR SWAP1 SSTORE POP SWAP1 POP POP POP PUSH2 0x52A JUMP JUMPDEST PUSH0 PUSH0 REVERT JUMPDEST PUSH0 PUSH20 0xFFFFFFFFFFFFFFFFFFFFFFFFFFFFFFFFFFFFFFFF DUP3 AND SWAP1 POP SWAP2 SWAP1 POP JUMP JUMPDEST PUSH0 PUSH2 0x195 DUP3 PUSH2 0x16C JUMP JUMPDEST SWAP1 POP SWAP2 SWAP1 POP JUMP JUMPDEST PUSH2 0x1A5 DUP2 PUSH2 0x18B JUMP JUMPDEST DUP2 EQ PUSH2 0x1AF JUMPI PUSH0 PUSH0 REVERT JUMPDEST POP JUMP JUMPDEST PUSH0 DUP2 MLOAD SWAP1 POP PUSH2 0x1C0 DUP2 PUSH2 0x19C JUMP JUMPDEST SWAP3 SWAP2 POP POP JUMP JUMPDEST PUSH0 PUSH1 0x20 DUP3 DUP5 SUB SLT ISZERO PUSH2 0x1DB JUMPI PUSH2 0x1DA PUSH2 0x168 JUMP JUMPDEST JUMPDEST PUSH0 PUSH2 0x1E8 DUP5 DUP3 DUP6 ADD PUSH2 0x1B2 JUMP JUMPDEST SWAP2 POP POP SWAP3 SWAP2 POP POP JUMP JUMPDEST PUSH32 0x4E487B7100000000000000000000000000000000000000000000000000000000 PUSH0 MSTORE PUSH1 0x21 PUSH1 0x4 MSTORE PUSH1 0x24 PUSH0 REVERT JUMPDEST PUSH0 DUP2 MLOAD SWAP1 POP SWAP2 SWAP1 POP JUMP JUMPDEST PUSH32 0x4E487B7100000000000000000000000000000000000000000000000000000000 PUSH0 MSTORE PUSH1 0x41 PUSH1 0x4 MSTORE PUSH1 0x24 PUSH0 REVERT JUMPDEST PUSH32 0x4E487B7100000000000000000000000000000000000000000000000000000000 PUSH0 MSTORE PUSH1 0x22 PUSH1 0x4 MSTORE PUSH1 0x24 PUSH0 REVERT JUMPDEST PUSH0 PUSH1 0x2 DUP3 DIV SWAP1 POP PUSH1 0x1 DUP3 AND DUP1 PUSH2 0x299 JUMPI PUSH1 0x7F DUP3 AND SWAP2 POP JUMPDEST PUSH1 0x20 DUP3 LT DUP2 SUB PUSH2 0x2AC JUMPI PUSH2 0x2AB PUSH2 0x255 JUMP JUMPDEST JUMPDEST POP SWAP2 SWAP1 POP JUMP JUMPDEST PUSH0 DUP2 SWAP1 POP DUP2 PUSH0 MSTORE PUSH1 0x20 PUSH0 KECCAK256 SWAP1 POP SWAP2 SWAP1 POP JUMP JUMPDEST PUSH0 PUSH1 0x20 PUSH1 0x1F DUP4 ADD DIV SWAP1 POP SWAP2 SWAP1 POP JUMP JUMPDEST PUSH0 DUP3 DUP3 SHL SWAP1 POP SWAP3 SWAP2 POP POP JUMP JUMPDEST PUSH0 PUSH1 0x8 DUP4 MUL PUSH2 0x30E PUSH32 0xFFFFFFFFFFFFFFFFFFFFFFFFFFFFFFFFFFFFFFFFFFFFFFFFFFFFFFFFFFFFFFFF DUP3 PUSH2 0x2D3 JUMP JUMPDEST PUSH2 0x318 DUP7 DUP4 PUSH2 0x2D3 JUMP JUMPDEST SWAP6 POP DUP1 NOT DUP5 AND SWAP4 POP DUP1 DUP7 AND DUP5 OR SWAP3 POP POP POP SWAP4 SWAP3 POP POP POP JUMP JUMPDEST PUSH0 DUP2 SWAP1 POP SWAP2 SWAP1 POP JUMP JUMPDEST PUSH0 DUP2 SWAP1 POP SWAP2 SWAP1 POP JUMP JUMPDEST PUSH0 PUSH2 0x35C PUSH2 0x357 PUSH2 0x352 DUP5 PUSH2 0x330 JUMP JUMPDEST PUSH2 0x339 JUMP JUMPDEST PUSH2 0x330 JUMP JUMPDEST SWAP1 POP SWAP2 SWAP1 POP JUMP JUMPDEST PUSH0 DUP2 SWAP1 POP SWAP2 SWAP1 POP JUMP JUMPDEST PUSH2 0x375 DUP4 PUSH2 0x342 JUMP JUMPDEST PUSH2 0x389 PUSH2 0x381 DUP3 PUSH2 0x363 JUMP JUMPDEST DUP5 DUP5 SLOAD PUSH2 0x2DF JUMP JUMPDEST DUP3 SSTORE POP POP POP POP JUMP JUMPDEST PUSH0 PUSH0 SWAP1 POP SWAP1 JUMP JUMPDEST PUSH2 0x3A0 PUSH2 0x391 JUMP JUMPDEST PUSH2 0x3AB DUP2 DUP5 DUP5 PUSH2 0x36C JUMP JUMPDEST POP POP POP JUMP JUMPDEST JUMPDEST DUP2 DUP2 LT ISZERO PUSH2 0x3CE JUMPI PUSH2 0x3C3 PUSH0 DUP3 PUSH2 0x398 JUMP JUMPDEST PUSH1 0x1 DUP2 ADD SWAP1 POP PUSH2 0x3B1 JUMP JUMPDEST POP POP JUMP JUMPDEST PUSH1 0x1F DUP3 GT ISZERO PUSH2 0x413 JUMPI PUSH2 0x3E4 DUP2 PUSH2 0x2B2 JUMP JUMPDEST PUSH2 0x3ED DUP5 PUSH2 0x2C4 JUMP JUMPDEST DUP2 ADD PUSH1 0x20 DUP6 LT ISZERO PUSH2 0x3FC JUMPI DUP2 SWAP1 POP JUMPDEST PUSH2 0x410 PUSH2 0x408 DUP6 PUSH2 0x2C4 JUMP JUMPDEST DUP4 ADD DUP3 PUSH2 0x3B0 JUMP JUMPDEST POP POP JUMPDEST POP POP POP JUMP JUMPDEST PUSH0 DUP3 DUP3 SHR SWAP1 POP SWAP3 SWAP2 POP POP JUMP JUMPDEST PUSH0 PUSH2 0x433 PUSH0 NOT DUP5 PUSH1 0x8 MUL PUSH2 0x418 JUMP JUMPDEST NOT DUP1 DUP4 AND SWAP2 POP POP SWAP3 SWAP2 POP POP JUMP JUMPDEST PUSH0 PUSH2 0x44B DUP4 DUP4 PUSH2 0x424 JUMP JUMPDEST SWAP2 POP DUP3 PUSH1 0x2 MUL DUP3 OR SWAP1 POP SWAP3 SWAP2 POP POP JUMP JUMPDEST PUSH2 0x464 DUP3 PUSH2 0x21E JUMP JUMPDEST PUSH8 0xFFFFFFFFFFFFFFFF DUP2 GT ISZERO PUSH2 0x47D JUMPI PUSH2 0x47C PUSH2 0x228 JUMP JUMPDEST JUMPDEST PUSH2 0x487 DUP3 SLOAD PUSH2 0x282 JUMP JUMPDEST PUSH2 0x492 DUP3 DUP3 DUP6 PUSH2 0x3D2 JUMP JUMPDEST PUSH0 PUSH1 0x20 SWAP1 POP PUSH1 0x1F DUP4 GT PUSH1 0x1 DUP2 EQ PUSH2 0x4C3 JUMPI PUSH0 DUP5 ISZERO PUSH2 0x4B1 JUMPI DUP3 DUP8 ADD MLOAD SWAP1 POP JUMPDEST PUSH2 0x4BB DUP6 DUP3 PUSH2 0x440 JUMP JUMPDEST DUP7 SSTORE POP PUSH2 0x522 JUMP JUMPDEST PUSH1 0x1F NOT DUP5 AND PUSH2 0x4D1 DUP7 PUSH2 0x2B2 JUMP JUMPDEST PUSH0 JUMPDEST DUP3 DUP2 LT ISZERO PUSH2 0x4F8 JUMPI DUP5 DUP10 ADD MLOAD DUP3 SSTORE PUSH1 0x1 DUP3 ADD SWAP2 POP PUSH1 0x20 DUP6 ADD SWAP5 POP PUSH1 0x20 DUP2 ADD SWAP1 POP PUSH2 0x4D3 JUMP JUMPDEST DUP7 DUP4 LT ISZERO PUSH2 0x515 JUMPI DUP5 DUP10 ADD MLOAD PUSH2 0x511 PUSH1 0x1F DUP10 AND DUP3 PUSH2 0x424 JUMP JUMPDEST DUP4 SSTORE POP JUMPDEST PUSH1 0x1 PUSH1 0x2 DUP9 MUL ADD DUP9 SSTORE POP POP POP JUMPDEST POP POP POP POP POP POP JUMP JUMPDEST PUSH2 0x154A DUP1 PUSH2 0x537 PUSH0 CODECOPY PUSH0 RETURN INVALID PUSH1 0x80 PUSH1 0x40 MSTORE CALLVALUE DUP1 ISZERO PUSH2 0xF JUMPI PUSH0 PUSH0 REVERT JUMPDEST POP PUSH1 0x4 CALLDATASIZE LT PUSH2 0x54 JUMPI PUSH0 CALLDATALOAD PUSH1 0xE0 SHR DUP1 PUSH3 0x704C6C EQ PUSH2 0x58 JUMPI DUP1 PUSH4 0x91C4553 EQ PUSH2 0x74 JUMPI DUP1 PUSH4 0x541709DA EQ PUSH2 0xA4 JUMPI DUP1 PUSH4 0x80B6E64A EQ PUSH2 0xC2 JUMPI DUP1 PUSH4 0xD9781122 EQ PUSH2 0xDE JUMPI JUMPDEST PUSH0 PUSH0 REVERT JUMPDEST PUSH2 0x72 PUSH1 0x4 DUP1 CALLDATASIZE SUB DUP2 ADD SWAP1 PUSH2 0x6D SWAP2 SWAP1 PUSH2 0xC1E JUMP JUMPDEST PUSH2 0x10E JUMP JUMPDEST STOP JUMPDEST PUSH2 0x8E PUSH1 0x4 DUP1 CALLDATASIZE SUB DUP2 ADD SWAP1 PUSH2 0x89 SWAP2 SWAP1 PUSH2 0xC5C JUMP JUMPDEST PUSH2 0x2E7 JUMP JUMPDEST PUSH1 0x40 MLOAD PUSH2 0x9B SWAP2 SWAP1 PUSH2 0xDC6 JUMP JUMPDEST PUSH1 0x40 MLOAD DUP1 SWAP2 SUB SWAP1 RETURN JUMPDEST PUSH2 0xAC PUSH2 0x4D3 JUMP JUMPDEST PUSH1 0x40 MLOAD PUSH2 0xB9 SWAP2 SWAP1 PUSH2 0xDC6 JUMP JUMPDEST PUSH1 0x40 MLOAD DUP1 SWAP2 SUB SWAP1 RETURN JUMPDEST PUSH2 0xDC PUSH1 0x4 DUP1 CALLDATASIZE SUB DUP2 ADD SWAP1 PUSH2 0xD7 SWAP2 SWAP1 PUSH2 0xF35 JUMP JUMPDEST PUSH2 0x6BD JUMP JUMPDEST STOP JUMPDEST PUSH2 0xF8 PUSH1 0x4 DUP1 CALLDATASIZE SUB DUP2 ADD SWAP1 PUSH2 0xF3 SWAP2 SWAP1 PUSH2 0xC5C JUMP JUMPDEST PUSH2 0x8BF JUMP JUMPDEST PUSH1 0x40 MLOAD PUSH2 0x105 SWAP2 SWAP1 PUSH2 0x1049 JUMP JUMPDEST PUSH1 0x40 MLOAD DUP1 SWAP2 SUB SWAP1 RETURN JUMPDEST PUSH0 DUP1 PUSH1 0x2 DUP2 GT ISZERO PUSH2 0x122 JUMPI PUSH2 0x121 PUSH2 0xD06 JUMP JUMPDEST JUMPDEST PUSH0 PUSH0 SWAP1 SLOAD SWAP1 PUSH2 0x100 EXP SWAP1 DIV PUSH20 0xFFFFFFFFFFFFFFFFFFFFFFFFFFFFFFFFFFFFFFFF AND PUSH20 0xFFFFFFFFFFFFFFFFFFFFFFFFFFFFFFFFFFFFFFFF AND PUSH4 0xFDE08174 PUSH1 0x40 MLOAD DUP2 PUSH4 0xFFFFFFFF AND PUSH1 0xE0 SHL DUP2 MSTORE PUSH1 0x4 ADD PUSH1 0x20 PUSH1 0x40 MLOAD DUP1 DUP4 SUB DUP2 DUP7 GAS STATICCALL ISZERO DUP1 ISZERO PUSH2 0x18B JUMPI RETURNDATASIZE PUSH0 PUSH0 RETURNDATACOPY RETURNDATASIZE PUSH0 REVERT JUMPDEST POP POP POP POP PUSH1 0x40 MLOAD RETURNDATASIZE PUSH1 0x1F NOT PUSH1 0x1F DUP3 ADD AND DUP3 ADD DUP1 PUSH1 0x40 MSTORE POP DUP2 ADD SWAP1 PUSH2 0x1AF SWAP2 SWAP1 PUSH2 0x108C JUMP JUMPDEST PUSH1 0x2 DUP2 GT ISZERO PUSH2 0x1C1 JUMPI PUSH2 0x1C0 PUSH2 0xD06 JUMP JUMPDEST JUMPDEST EQ PUSH1 0x40 MLOAD DUP1 PUSH1 0x40 ADD PUSH1 0x40 MSTORE DUP1 PUSH1 0xC DUP2 MSTORE PUSH1 0x20 ADD PUSH32 0x554E415554484F52495A45440000000000000000000000000000000000000000 DUP2 MSTORE POP SWAP1 PUSH2 0x239 JUMPI PUSH1 0x40 MLOAD PUSH32 0x8C379A000000000000000000000000000000000000000000000000000000000 DUP2 MSTORE PUSH1 0x4 ADD PUSH2 0x230 SWAP2 SWAP1 PUSH2 0x10FF JUMP JUMPDEST PUSH1 0x40 MLOAD DUP1 SWAP2 SUB SWAP1 REVERT JUMPDEST POP PUSH0 PUSH1 0x40 MLOAD DUP1 PUSH1 0x40 ADD PUSH1 0x40 MSTORE DUP1 DUP5 DUP2 MSTORE PUSH1 0x20 ADD PUSH0 ISZERO ISZERO DUP2 MSTORE POP SWAP1 POP PUSH1 0x2 PUSH0 DUP6 PUSH20 0xFFFFFFFFFFFFFFFFFFFFFFFFFFFFFFFFFFFFFFFF AND PUSH20 0xFFFFFFFFFFFFFFFFFFFFFFFFFFFFFFFFFFFFFFFF AND DUP2 MSTORE PUSH1 0x20 ADD SWAP1 DUP2 MSTORE PUSH1 0x20 ADD PUSH0 KECCAK256 DUP2 SWAP1 DUP1 PUSH1 0x1 DUP2 SLOAD ADD DUP1 DUP3 SSTORE DUP1 SWAP2 POP POP PUSH1 0x1 SWAP1 SUB SWAP1 PUSH0 MSTORE PUSH1 0x20 PUSH0 KECCAK256 SWAP1 PUSH1 0x2 MUL ADD PUSH0 SWAP1 SWAP2 SWAP1 SWAP2 SWAP1 SWAP2 POP PUSH0 DUP3 ADD MLOAD DUP2 PUSH0 ADD SSTORE PUSH1 0x20 DUP3 ADD MLOAD DUP2 PUSH1 0x1 ADD PUSH0 PUSH2 0x100 EXP DUP2 SLOAD DUP2 PUSH1 0xFF MUL NOT AND SWAP1 DUP4 ISZERO ISZERO MUL OR SWAP1 SSTORE POP POP POP POP POP POP POP JUMP JUMPDEST PUSH2 0x2EF PUSH2 0xB4F JUMP JUMPDEST DUP2 PUSH0 PUSH1 0x1 PUSH0 DUP4 PUSH20 0xFFFFFFFFFFFFFFFFFFFFFFFFFFFFFFFFFFFFFFFF AND PUSH20 0xFFFFFFFFFFFFFFFFFFFFFFFFFFFFFFFFFFFFFFFF AND DUP2 MSTORE PUSH1 0x20 ADD SWAP1 DUP2 MSTORE PUSH1 0x20 ADD PUSH0 KECCAK256 PUSH1 0x1 ADD SLOAD GT PUSH1 0x40 MLOAD DUP1 PUSH1 0x40 ADD PUSH1 0x40 MSTORE DUP1 PUSH1 0x11 DUP2 MSTORE PUSH1 0x20 ADD PUSH32 0x555345525F49535F4E4F545F464F554E44000000000000000000000000000000 DUP2 MSTORE POP SWAP1 PUSH2 0x3AA JUMPI PUSH1 0x40 MLOAD PUSH32 0x8C379A000000000000000000000000000000000000000000000000000000000 DUP2 MSTORE PUSH1 0x4 ADD PUSH2 0x3A1 SWAP2 SWAP1 PUSH2 0x10FF JUMP JUMPDEST PUSH1 0x40 MLOAD DUP1 SWAP2 SUB SWAP1 REVERT JUMPDEST POP PUSH0 PUSH1 0x1 PUSH0 DUP6 PUSH20 0xFFFFFFFFFFFFFFFFFFFFFFFFFFFFFFFFFFFFFFFF AND PUSH20 0xFFFFFFFFFFFFFFFFFFFFFFFFFFFFFFFFFFFFFFFF AND DUP2 MSTORE PUSH1 0x20 ADD SWAP1 DUP2 MSTORE PUSH1 0x20 ADD PUSH0 KECCAK256 PUSH1 0x40 MLOAD DUP1 PUSH1 0x60 ADD PUSH1 0x40 MSTORE SWAP1 DUP2 PUSH0 DUP3 ADD DUP1 SLOAD PUSH2 0x403 SWAP1 PUSH2 0x114C JUMP JUMPDEST DUP1 PUSH1 0x1F ADD PUSH1 0x20 DUP1 SWAP2 DIV MUL PUSH1 0x20 ADD PUSH1 0x40 MLOAD SWAP1 DUP2 ADD PUSH1 0x40 MSTORE DUP1 SWAP3 SWAP2 SWAP1 DUP2 DUP2 MSTORE PUSH1 0x20 ADD DUP3 DUP1 SLOAD PUSH2 0x42F SWAP1 PUSH2 0x114C JUMP JUMPDEST DUP1 ISZERO PUSH2 0x47A JUMPI DUP1 PUSH1 0x1F LT PUSH2 0x451 JUMPI PUSH2 0x100 DUP1 DUP4 SLOAD DIV MUL DUP4 MSTORE SWAP2 PUSH1 0x20 ADD SWAP2 PUSH2 0x47A JUMP JUMPDEST DUP3 ADD SWAP2 SWAP1 PUSH0 MSTORE PUSH1 0x20 PUSH0 KECCAK256 SWAP1 JUMPDEST DUP2 SLOAD DUP2 MSTORE SWAP1 PUSH1 0x1 ADD SWAP1 PUSH1 0x20 ADD DUP1 DUP4 GT PUSH2 0x45D JUMPI DUP3 SWAP1 SUB PUSH1 0x1F AND DUP3 ADD SWAP2 JUMPDEST POP POP POP POP POP DUP2 MSTORE PUSH1 0x20 ADD PUSH1 0x1 DUP3 ADD SLOAD DUP2 MSTORE PUSH1 0x20 ADD PUSH1 0x2 DUP3 ADD PUSH0 SWAP1 SLOAD SWAP1 PUSH2 0x100 EXP SWAP1 DIV PUSH1 0xFF AND PUSH1 0x2 DUP2 GT ISZERO PUSH2 0x4B1 JUMPI PUSH2 0x4B0 PUSH2 0xD06 JUMP JUMPDEST JUMPDEST PUSH1 0x2 DUP2 GT ISZERO PUSH2 0x4C3 JUMPI PUSH2 0x4C2 PUSH2 0xD06 JUMP JUMPDEST JUMPDEST DUP2 MSTORE POP POP SWAP1 POP DUP1 SWAP3 POP POP POP SWAP2 SWAP1 POP JUMP JUMPDEST PUSH2 0x4DB PUSH2 0xB4F JUMP JUMPDEST CALLER PUSH0 PUSH1 0x1 PUSH0 DUP4 PUSH20 0xFFFFFFFFFFFFFFFFFFFFFFFFFFFFFFFFFFFFFFFF AND PUSH20 0xFFFFFFFFFFFFFFFFFFFFFFFFFFFFFFFFFFFFFFFF AND DUP2 MSTORE PUSH1 0x20 ADD SWAP1 DUP2 MSTORE PUSH1 0x20 ADD PUSH0 KECCAK256 PUSH1 0x1 ADD SLOAD GT PUSH1 0x40 MLOAD DUP1 PUSH1 0x40 ADD PUSH1 0x40 MSTORE DUP1 PUSH1 0x11 DUP2 MSTORE PUSH1 0x20 ADD PUSH32 0x555345525F49535F4E4F545F464F554E44000000000000000000000000000000 DUP2 MSTORE POP SWAP1 PUSH2 0x596 JUMPI PUSH1 0x40 MLOAD PUSH32 0x8C379A000000000000000000000000000000000000000000000000000000000 DUP2 MSTORE PUSH1 0x4 ADD PUSH2 0x58D SWAP2 SWAP1 PUSH2 0x10FF JUMP JUMPDEST PUSH1 0x40 MLOAD DUP1 SWAP2 SUB SWAP1 REVERT JUMPDEST POP PUSH0 PUSH1 0x1 PUSH0 CALLER PUSH20 0xFFFFFFFFFFFFFFFFFFFFFFFFFFFFFFFFFFFFFFFF AND PUSH20 0xFFFFFFFFFFFFFFFFFFFFFFFFFFFFFFFFFFFFFFFF AND DUP2 MSTORE PUSH1 0x20 ADD SWAP1 DUP2 MSTORE PUSH1 0x20 ADD PUSH0 KECCAK256 PUSH1 0x40 MLOAD DUP1 PUSH1 0x60 ADD PUSH1 0x40 MSTORE SWAP1 DUP2 PUSH0 DUP3 ADD DUP1 SLOAD PUSH2 0x5EF SWAP1 PUSH2 0x114C JUMP JUMPDEST DUP1 PUSH1 0x1F ADD PUSH1 0x20 DUP1 SWAP2 DIV MUL PUSH1 0x20 ADD PUSH1 0x40 MLOAD SWAP1 DUP2 ADD PUSH1 0x40 MSTORE DUP1 SWAP3 SWAP2 SWAP1 DUP2 DUP2 MSTORE PUSH1 0x20 ADD DUP3 DUP1 SLOAD PUSH2 0x61B SWAP1 PUSH2 0x114C JUMP JUMPDEST DUP1 ISZERO PUSH2 0x666 JUMPI DUP1 PUSH1 0x1F LT PUSH2 0x63D JUMPI PUSH2 0x100 DUP1 DUP4 SLOAD DIV MUL DUP4 MSTORE SWAP2 PUSH1 0x20 ADD SWAP2 PUSH2 0x666 JUMP JUMPDEST DUP3 ADD SWAP2 SWAP1 PUSH0 MSTORE PUSH1 0x20 PUSH0 KECCAK256 SWAP1 JUMPDEST DUP2 SLOAD DUP2 MSTORE SWAP1 PUSH1 0x1 ADD SWAP1 PUSH1 0x20 ADD DUP1 DUP4 GT PUSH2 0x649 JUMPI DUP3 SWAP1 SUB PUSH1 0x1F AND DUP3 ADD SWAP2 JUMPDEST POP POP POP POP POP DUP2 MSTORE PUSH1 0x20 ADD PUSH1 0x1 DUP3 ADD SLOAD DUP2 MSTORE PUSH1 0x20 ADD PUSH1 0x2 DUP3 ADD PUSH0 SWAP1 SLOAD SWAP1 PUSH2 0x100 EXP SWAP1 DIV PUSH1 0xFF AND PUSH1 0x2 DUP2 GT ISZERO PUSH2 0x69D JUMPI PUSH2 0x69C PUSH2 0xD06 JUMP JUMPDEST JUMPDEST PUSH1 0x2 DUP2 GT ISZERO PUSH2 0x6AF JUMPI PUSH2 0x6AE PUSH2 0xD06 JUMP JUMPDEST JUMPDEST DUP2 MSTORE POP POP SWAP1 POP DUP1 SWAP3 POP POP POP SWAP1 JUMP JUMPDEST CALLER PUSH0 PUSH1 0x1 PUSH0 DUP4 PUSH20 0xFFFFFFFFFFFFFFFFFFFFFFFFFFFFFFFFFFFFFFFF AND PUSH20 0xFFFFFFFFFFFFFFFFFFFFFFFFFFFFFFFFFFFFFFFF AND DUP2 MSTORE PUSH1 0x20 ADD SWAP1 DUP2 MSTORE PUSH1 0x20 ADD PUSH0 KECCAK256 PUSH1 0x1 ADD SLOAD EQ PUSH1 0x40 MLOAD DUP1 PUSH1 0x40 ADD PUSH1 0x40 MSTORE DUP1 PUSH1 0xF DUP2 MSTORE PUSH1 0x20 ADD PUSH32 0x555345525F49535F435245415445440000000000000000000000000000000000 DUP2 MSTORE POP SWAP1 PUSH2 0x778 JUMPI PUSH1 0x40 MLOAD PUSH32 0x8C379A000000000000000000000000000000000000000000000000000000000 DUP2 MSTORE PUSH1 0x4 ADD PUSH2 0x76F SWAP2 SWAP1 PUSH2 0x10FF JUMP JUMPDEST PUSH1 0x40 MLOAD DUP1 SWAP2 SUB SWAP1 REVERT JUMPDEST POP PUSH1 0x40 MLOAD DUP1 PUSH1 0x60 ADD PUSH1 0x40 MSTORE DUP1 DUP6 DUP2 MSTORE PUSH1 0x20 ADD DUP5 DUP2 MSTORE PUSH1 0x20 ADD DUP4 PUSH1 0x2 DUP2 GT ISZERO PUSH2 0x7A3 JUMPI PUSH2 0x7A2 PUSH2 0xD06 JUMP JUMPDEST JUMPDEST DUP2 MSTORE POP PUSH1 0x1 PUSH0 CALLER PUSH20 0xFFFFFFFFFFFFFFFFFFFFFFFFFFFFFFFFFFFFFFFF AND PUSH20 0xFFFFFFFFFFFFFFFFFFFFFFFFFFFFFFFFFFFFFFFF AND DUP2 MSTORE PUSH1 0x20 ADD SWAP1 DUP2 MSTORE PUSH1 0x20 ADD PUSH0 KECCAK256 PUSH0 DUP3 ADD MLOAD DUP2 PUSH0 ADD SWAP1 DUP2 PUSH2 0x7F6 SWAP2 SWAP1 PUSH2 0x131C JUMP JUMPDEST POP PUSH1 0x20 DUP3 ADD MLOAD DUP2 PUSH1 0x1 ADD SSTORE PUSH1 0x40 DUP3 ADD MLOAD DUP2 PUSH1 0x2 ADD PUSH0 PUSH2 0x100 EXP DUP2 SLOAD DUP2 PUSH1 0xFF MUL NOT AND SWAP1 DUP4 PUSH1 0x2 DUP2 GT ISZERO PUSH2 0x82B JUMPI PUSH2 0x82A PUSH2 0xD06 JUMP JUMPDEST JUMPDEST MUL OR SWAP1 SSTORE POP SWAP1 POP POP PUSH0 PUSH0 SWAP1 SLOAD SWAP1 PUSH2 0x100 EXP SWAP1 DIV PUSH20 0xFFFFFFFFFFFFFFFFFFFFFFFFFFFFFFFFFFFFFFFF AND PUSH20 0xFFFFFFFFFFFFFFFFFFFFFFFFFFFFFFFFFFFFFFFF AND PUSH4 0x2E1CD6C2 CALLER PUSH1 0x40 MLOAD DUP3 PUSH4 0xFFFFFFFF AND PUSH1 0xE0 SHL DUP2 MSTORE PUSH1 0x4 ADD PUSH2 0x88C SWAP2 SWAP1 PUSH2 0x13FA JUMP JUMPDEST PUSH0 PUSH1 0x40 MLOAD DUP1 DUP4 SUB DUP2 PUSH0 DUP8 DUP1 EXTCODESIZE ISZERO DUP1 ISZERO PUSH2 0x8A3 JUMPI PUSH0 PUSH0 REVERT JUMPDEST POP GAS CALL ISZERO DUP1 ISZERO PUSH2 0x8B5 JUMPI RETURNDATASIZE PUSH0 PUSH0 RETURNDATACOPY RETURNDATASIZE PUSH0 REVERT JUMPDEST POP POP POP POP POP POP POP POP JUMP JUMPDEST PUSH1 0x60 PUSH0 PUSH1 0x2 PUSH0 DUP5 PUSH20 0xFFFFFFFFFFFFFFFFFFFFFFFFFFFFFFFFFFFFFFFF AND PUSH20 0xFFFFFFFFFFFFFFFFFFFFFFFFFFFFFFFFFFFFFFFF AND DUP2 MSTORE PUSH1 0x20 ADD SWAP1 DUP2 MSTORE PUSH1 0x20 ADD PUSH0 KECCAK256 DUP1 SLOAD DUP1 PUSH1 0x20 MUL PUSH1 0x20 ADD PUSH1 0x40 MLOAD SWAP1 DUP2 ADD PUSH1 0x40 MSTORE DUP1 SWAP3 SWAP2 SWAP1 DUP2 DUP2 MSTORE PUSH1 0x20 ADD PUSH0 SWAP1 JUMPDEST DUP3 DUP3 LT ISZERO PUSH2 0x971 JUMPI DUP4 DUP3 SWAP1 PUSH0 MSTORE PUSH1 0x20 PUSH0 KECCAK256 SWAP1 PUSH1 0x2 MUL ADD PUSH1 0x40 MLOAD DUP1 PUSH1 0x40 ADD PUSH1 0x40 MSTORE SWAP1 DUP2 PUSH0 DUP3 ADD SLOAD DUP2 MSTORE PUSH1 0x20 ADD PUSH1 0x1 DUP3 ADD PUSH0 SWAP1 SLOAD SWAP1 PUSH2 0x100 EXP SWAP1 DIV PUSH1 0xFF AND ISZERO ISZERO ISZERO ISZERO DUP2 MSTORE POP POP DUP2 MSTORE PUSH1 0x20 ADD SWAP1 PUSH1 0x1 ADD SWAP1 PUSH2 0x91E JUMP JUMPDEST POP POP POP POP SWAP1 POP PUSH0 DUP2 MLOAD PUSH8 0xFFFFFFFFFFFFFFFF DUP2 GT ISZERO PUSH2 0x993 JUMPI PUSH2 0x992 PUSH2 0xDEE JUMP JUMPDEST JUMPDEST PUSH1 0x40 MLOAD SWAP1 DUP1 DUP3 MSTORE DUP1 PUSH1 0x20 MUL PUSH1 0x20 ADD DUP3 ADD PUSH1 0x40 MSTORE DUP1 ISZERO PUSH2 0x9C1 JUMPI DUP2 PUSH1 0x20 ADD PUSH1 0x20 DUP3 MUL DUP1 CALLDATASIZE DUP4 CALLDATACOPY DUP1 DUP3 ADD SWAP2 POP POP SWAP1 POP JUMPDEST POP SWAP1 POP PUSH0 PUSH0 SWAP1 POP PUSH0 PUSH0 SWAP1 POP JUMPDEST DUP4 MLOAD DUP2 LT ISZERO PUSH2 0xB43 JUMPI CALLER PUSH20 0xFFFFFFFFFFFFFFFFFFFFFFFFFFFFFFFFFFFFFFFF AND DUP7 PUSH20 0xFFFFFFFFFFFFFFFFFFFFFFFFFFFFFFFFFFFFFFFF AND EQ DUP1 ISZERO PUSH2 0xA2D JUMPI POP DUP4 DUP2 DUP2 MLOAD DUP2 LT PUSH2 0xA1F JUMPI PUSH2 0xA1E PUSH2 0x1413 JUMP JUMPDEST JUMPDEST PUSH1 0x20 MUL PUSH1 0x20 ADD ADD MLOAD PUSH1 0x20 ADD MLOAD ISZERO JUMPDEST DUP1 PUSH2 0xAC1 JUMPI POP PUSH0 PUSH0 SWAP1 SLOAD SWAP1 PUSH2 0x100 EXP SWAP1 DIV PUSH20 0xFFFFFFFFFFFFFFFFFFFFFFFFFFFFFFFFFFFFFFFF AND PUSH20 0xFFFFFFFFFFFFFFFFFFFFFFFFFFFFFFFFFFFFFFFF AND PUSH4 0x9805524A PUSH1 0x40 MLOAD DUP2 PUSH4 0xFFFFFFFF AND PUSH1 0xE0 SHL DUP2 MSTORE PUSH1 0x4 ADD PUSH1 0x20 PUSH1 0x40 MLOAD DUP1 DUP4 SUB DUP2 DUP7 GAS STATICCALL ISZERO DUP1 ISZERO PUSH2 0xA9C JUMPI RETURNDATASIZE PUSH0 PUSH0 RETURNDATACOPY RETURNDATASIZE PUSH0 REVERT JUMPDEST POP POP POP POP PUSH1 0x40 MLOAD RETURNDATASIZE PUSH1 0x1F NOT PUSH1 0x1F DUP3 ADD AND DUP3 ADD DUP1 PUSH1 0x40 MSTORE POP DUP2 ADD SWAP1 PUSH2 0xAC0 SWAP2 SWAP1 PUSH2 0x1475 JUMP JUMPDEST JUMPDEST DUP1 PUSH2 0xAE7 JUMPI POP DUP4 DUP2 DUP2 MLOAD DUP2 LT PUSH2 0xADA JUMPI PUSH2 0xAD9 PUSH2 0x1413 JUMP JUMPDEST JUMPDEST PUSH1 0x20 MUL PUSH1 0x20 ADD ADD MLOAD PUSH1 0x20 ADD MLOAD JUMPDEST ISZERO PUSH2 0xB36 JUMPI DUP4 DUP2 DUP2 MLOAD DUP2 LT PUSH2 0xAFF JUMPI PUSH2 0xAFE PUSH2 0x1413 JUMP JUMPDEST JUMPDEST PUSH1 0x20 MUL PUSH1 0x20 ADD ADD MLOAD PUSH0 ADD MLOAD DUP4 DUP4 DUP1 PUSH2 0xB16 SWAP1 PUSH2 0x14CD JUMP JUMPDEST SWAP5 POP DUP2 MLOAD DUP2 LT PUSH2 0xB29 JUMPI PUSH2 0xB28 PUSH2 0x1413 JUMP JUMPDEST JUMPDEST PUSH1 0x20 MUL PUSH1 0x20 ADD ADD DUP2 DUP2 MSTORE POP POP JUMPDEST DUP1 DUP1 PUSH1 0x1 ADD SWAP2 POP POP PUSH2 0x9CD JUMP JUMPDEST POP DUP2 SWAP4 POP POP POP POP SWAP2 SWAP1 POP JUMP JUMPDEST PUSH1 0x40 MLOAD DUP1 PUSH1 0x60 ADD PUSH1 0x40 MSTORE DUP1 PUSH1 0x60 DUP2 MSTORE PUSH1 0x20 ADD PUSH0 DUP2 MSTORE PUSH1 0x20 ADD PUSH0 PUSH1 0x2 DUP2 GT ISZERO PUSH2 0xB7A JUMPI PUSH2 0xB79 PUSH2 0xD06 JUMP JUMPDEST JUMPDEST DUP2 MSTORE POP SWAP1 JUMP JUMPDEST PUSH0 PUSH1 0x40 MLOAD SWAP1 POP SWAP1 JUMP JUMPDEST PUSH0 PUSH0 REVERT JUMPDEST PUSH0 PUSH0 REVERT JUMPDEST PUSH0 PUSH20 0xFFFFFFFFFFFFFFFFFFFFFFFFFFFFFFFFFFFFFFFF DUP3 AND SWAP1 POP SWAP2 SWAP1 POP JUMP JUMPDEST PUSH0 PUSH2 0xBBA DUP3 PUSH2 0xB91 JUMP JUMPDEST SWAP1 POP SWAP2 SWAP1 POP JUMP JUMPDEST PUSH2 0xBCA DUP2 PUSH2 0xBB0 JUMP JUMPDEST DUP2 EQ PUSH2 0xBD4 JUMPI PUSH0 PUSH0 REVERT JUMPDEST POP JUMP JUMPDEST PUSH0 DUP2 CALLDATALOAD SWAP1 POP PUSH2 0xBE5 DUP2 PUSH2 0xBC1 JUMP JUMPDEST SWAP3 SWAP2 POP POP JUMP JUMPDEST PUSH0 DUP2 SWAP1 POP SWAP2 SWAP1 POP JUMP JUMPDEST PUSH2 0xBFD DUP2 PUSH2 0xBEB JUMP JUMPDEST DUP2 EQ PUSH2 0xC07 JUMPI PUSH0 PUSH0 REVERT JUMPDEST POP JUMP JUMPDEST PUSH0 DUP2 CALLDATALOAD SWAP1 POP PUSH2 0xC18 DUP2 PUSH2 0xBF4 JUMP JUMPDEST SWAP3 SWAP2 POP POP JUMP JUMPDEST PUSH0 PUSH0 PUSH1 0x40 DUP4 DUP6 SUB SLT ISZERO PUSH2 0xC34 JUMPI PUSH2 0xC33 PUSH2 0xB89 JUMP JUMPDEST JUMPDEST PUSH0 PUSH2 0xC41 DUP6 DUP3 DUP7 ADD PUSH2 0xBD7 JUMP JUMPDEST SWAP3 POP POP PUSH1 0x20 PUSH2 0xC52 DUP6 DUP3 DUP7 ADD PUSH2 0xC0A JUMP JUMPDEST SWAP2 POP POP SWAP3 POP SWAP3 SWAP1 POP JUMP JUMPDEST PUSH0 PUSH1 0x20 DUP3 DUP5 SUB SLT ISZERO PUSH2 0xC71 JUMPI PUSH2 0xC70 PUSH2 0xB89 JUMP JUMPDEST JUMPDEST PUSH0 PUSH2 0xC7E DUP5 DUP3 DUP6 ADD PUSH2 0xBD7 JUMP JUMPDEST SWAP2 POP POP SWAP3 SWAP2 POP POP JUMP JUMPDEST PUSH0 DUP2 MLOAD SWAP1 POP SWAP2 SWAP1 POP JUMP JUMPDEST PUSH0 DUP3 DUP3 MSTORE PUSH1 0x20 DUP3 ADD SWAP1 POP SWAP3 SWAP2 POP POP JUMP JUMPDEST DUP3 DUP2 DUP4 MCOPY PUSH0 DUP4 DUP4 ADD MSTORE POP POP POP JUMP JUMPDEST PUSH0 PUSH1 0x1F NOT PUSH1 0x1F DUP4 ADD AND SWAP1 POP SWAP2 SWAP1 POP JUMP JUMPDEST PUSH0 PUSH2 0xCC9 DUP3 PUSH2 0xC87 JUMP JUMPDEST PUSH2 0xCD3 DUP2 DUP6 PUSH2 0xC91 JUMP JUMPDEST SWAP4 POP PUSH2 0xCE3 DUP2 DUP6 PUSH1 0x20 DUP7 ADD PUSH2 0xCA1 JUMP JUMPDEST PUSH2 0xCEC DUP2 PUSH2 0xCAF JUMP JUMPDEST DUP5 ADD SWAP2 POP POP SWAP3 SWAP2 POP POP JUMP JUMPDEST PUSH2 0xD00 DUP2 PUSH2 0xBEB JUMP JUMPDEST DUP3 MSTORE POP POP JUMP JUMPDEST PUSH32 0x4E487B7100000000000000000000000000000000000000000000000000000000 PUSH0 MSTORE PUSH1 0x21 PUSH1 0x4 MSTORE PUSH1 0x24 PUSH0 REVERT JUMPDEST PUSH1 0x3 DUP2 LT PUSH2 0xD44 JUMPI PUSH2 0xD43 PUSH2 0xD06 JUMP JUMPDEST JUMPDEST POP JUMP JUMPDEST PUSH0 DUP2 SWAP1 POP PUSH2 0xD54 DUP3 PUSH2 0xD33 JUMP JUMPDEST SWAP2 SWAP1 POP JUMP JUMPDEST PUSH0 PUSH2 0xD63 DUP3 PUSH2 0xD47 JUMP JUMPDEST SWAP1 POP SWAP2 SWAP1 POP JUMP JUMPDEST PUSH2 0xD73 DUP2 PUSH2 0xD59 JUMP JUMPDEST DUP3 MSTORE POP POP JUMP JUMPDEST PUSH0 PUSH1 0x60 DUP4 ADD PUSH0 DUP4 ADD MLOAD DUP5 DUP3 SUB PUSH0 DUP7 ADD MSTORE PUSH2 0xD93 DUP3 DUP3 PUSH2 0xCBF JUMP JUMPDEST SWAP2 POP POP PUSH1 0x20 DUP4 ADD MLOAD PUSH2 0xDA8 PUSH1 0x20 DUP7 ADD DUP3 PUSH2 0xCF7 JUMP JUMPDEST POP PUSH1 0x40 DUP4 ADD MLOAD PUSH2 0xDBB PUSH1 0x40 DUP7 ADD DUP3 PUSH2 0xD6A JUMP JUMPDEST POP DUP1 SWAP2 POP POP SWAP3 SWAP2 POP POP JUMP JUMPDEST PUSH0 PUSH1 0x20 DUP3 ADD SWAP1 POP DUP2 DUP2 SUB PUSH0 DUP4 ADD MSTORE PUSH2 0xDDE DUP2 DUP5 PUSH2 0xD79 JUMP JUMPDEST SWAP1 POP SWAP3 SWAP2 POP POP JUMP JUMPDEST PUSH0 PUSH0 REVERT JUMPDEST PUSH0 PUSH0 REVERT JUMPDEST PUSH32 0x4E487B7100000000000000000000000000000000000000000000000000000000 PUSH0 MSTORE PUSH1 0x41 PUSH1 0x4 MSTORE PUSH1 0x24 PUSH0 REVERT JUMPDEST PUSH2 0xE24 DUP3 PUSH2 0xCAF JUMP JUMPDEST DUP2 ADD DUP2 DUP2 LT PUSH8 0xFFFFFFFFFFFFFFFF DUP3 GT OR ISZERO PUSH2 0xE43 JUMPI PUSH2 0xE42 PUSH2 0xDEE JUMP JUMPDEST JUMPDEST DUP1 PUSH1 0x40 MSTORE POP POP POP JUMP JUMPDEST PUSH0 PUSH2 0xE55 PUSH2 0xB80 JUMP JUMPDEST SWAP1 POP PUSH2 0xE61 DUP3 DUP3 PUSH2 0xE1B JUMP JUMPDEST SWAP2 SWAP1 POP JUMP JUMPDEST PUSH0 PUSH8 0xFFFFFFFFFFFFFFFF DUP3 GT ISZERO PUSH2 0xE80 JUMPI PUSH2 0xE7F PUSH2 0xDEE JUMP JUMPDEST JUMPDEST PUSH2 0xE89 DUP3 PUSH2 0xCAF JUMP JUMPDEST SWAP1 POP PUSH1 0x20 DUP2 ADD SWAP1 POP SWAP2 SWAP1 POP JUMP JUMPDEST DUP3 DUP2 DUP4 CALLDATACOPY PUSH0 DUP4 DUP4 ADD MSTORE POP POP POP JUMP JUMPDEST PUSH0 PUSH2 0xEB6 PUSH2 0xEB1 DUP5 PUSH2 0xE66 JUMP JUMPDEST PUSH2 0xE4C JUMP JUMPDEST SWAP1 POP DUP3 DUP2 MSTORE PUSH1 0x20 DUP2 ADD DUP5 DUP5 DUP5 ADD GT ISZERO PUSH2 0xED2 JUMPI PUSH2 0xED1 PUSH2 0xDEA JUMP JUMPDEST JUMPDEST PUSH2 0xEDD DUP5 DUP3 DUP6 PUSH2 0xE96 JUMP JUMPDEST POP SWAP4 SWAP3 POP POP POP JUMP JUMPDEST PUSH0 DUP3 PUSH1 0x1F DUP4 ADD SLT PUSH2 0xEF9 JUMPI PUSH2 0xEF8 PUSH2 0xDE6 JUMP JUMPDEST JUMPDEST DUP2 CALLDATALOAD PUSH2 0xF09 DUP5 DUP3 PUSH1 0x20 DUP7 ADD PUSH2 0xEA4 JUMP JUMPDEST SWAP2 POP POP SWAP3 SWAP2 POP POP JUMP JUMPDEST PUSH1 0x3 DUP2 LT PUSH2 0xF1E JUMPI PUSH0 PUSH0 REVERT JUMPDEST POP JUMP JUMPDEST PUSH0 DUP2 CALLDATALOAD SWAP1 POP PUSH2 0xF2F DUP2 PUSH2 0xF12 JUMP JUMPDEST SWAP3 SWAP2 POP POP JUMP JUMPDEST PUSH0 PUSH0 PUSH0 PUSH1 0x60 DUP5 DUP7 SUB SLT ISZERO PUSH2 0xF4C JUMPI PUSH2 0xF4B PUSH2 0xB89 JUMP JUMPDEST JUMPDEST PUSH0 DUP5 ADD CALLDATALOAD PUSH8 0xFFFFFFFFFFFFFFFF DUP2 GT ISZERO PUSH2 0xF69 JUMPI PUSH2 0xF68 PUSH2 0xB8D JUMP JUMPDEST JUMPDEST PUSH2 0xF75 DUP7 DUP3 DUP8 ADD PUSH2 0xEE5 JUMP JUMPDEST SWAP4 POP POP PUSH1 0x20 PUSH2 0xF86 DUP7 DUP3 DUP8 ADD PUSH2 0xC0A JUMP JUMPDEST SWAP3 POP POP PUSH1 0x40 PUSH2 0xF97 DUP7 DUP3 DUP8 ADD PUSH2 0xF21 JUMP JUMPDEST SWAP2 POP POP SWAP3 POP SWAP3 POP SWAP3 JUMP JUMPDEST PUSH0 DUP2 MLOAD SWAP1 POP SWAP2 SWAP1 POP JUMP JUMPDEST PUSH0 DUP3 DUP3 MSTORE PUSH1 0x20 DUP3 ADD SWAP1 POP SWAP3 SWAP2 POP POP JUMP JUMPDEST PUSH0 DUP2 SWAP1 POP PUSH1 0x20 DUP3 ADD SWAP1 POP SWAP2 SWAP1 POP JUMP JUMPDEST PUSH0 PUSH2 0xFD5 DUP4 DUP4 PUSH2 0xCF7 JUMP JUMPDEST PUSH1 0x20 DUP4 ADD SWAP1 POP SWAP3 SWAP2 POP POP JUMP JUMPDEST PUSH0 PUSH1 0x20 DUP3 ADD SWAP1 POP SWAP2 SWAP1 POP JUMP JUMPDEST PUSH0 PUSH2 0xFF7 DUP3 PUSH2 0xFA1 JUMP JUMPDEST PUSH2 0x1001 DUP2 DUP6 PUSH2 0xFAB JUMP JUMPDEST SWAP4 POP PUSH2 0x100C DUP4 PUSH2 0xFBB JUMP JUMPDEST DUP1 PUSH0 JUMPDEST DUP4 DUP2 LT ISZERO PUSH2 0x103C JUMPI DUP2 MLOAD PUSH2 0x1023 DUP9 DUP3 PUSH2 0xFCA JUMP JUMPDEST SWAP8 POP PUSH2 0x102E DUP4 PUSH2 0xFE1 JUMP JUMPDEST SWAP3 POP POP PUSH1 0x1 DUP2 ADD SWAP1 POP PUSH2 0x100F JUMP JUMPDEST POP DUP6 SWAP4 POP POP POP POP SWAP3 SWAP2 POP POP JUMP JUMPDEST PUSH0 PUSH1 0x20 DUP3 ADD SWAP1 POP DUP2 DUP2 SUB PUSH0 DUP4 ADD MSTORE PUSH2 0x1061 DUP2 DUP5 PUSH2 0xFED JUMP JUMPDEST SWAP1 POP SWAP3 SWAP2 POP POP JUMP JUMPDEST PUSH1 0x3 DUP2 LT PUSH2 0x1075 JUMPI PUSH0 PUSH0 REVERT JUMPDEST POP JUMP JUMPDEST PUSH0 DUP2 MLOAD SWAP1 POP PUSH2 0x1086 DUP2 PUSH2 0x1069 JUMP JUMPDEST SWAP3 SWAP2 POP POP JUMP JUMPDEST PUSH0 PUSH1 0x20 DUP3 DUP5 SUB SLT ISZERO PUSH2 0x10A1 JUMPI PUSH2 0x10A0 PUSH2 0xB89 JUMP JUMPDEST JUMPDEST PUSH0 PUSH2 0x10AE DUP5 DUP3 DUP6 ADD PUSH2 0x1078 JUMP JUMPDEST SWAP2 POP POP SWAP3 SWAP2 POP POP JUMP JUMPDEST PUSH0 DUP3 DUP3 MSTORE PUSH1 0x20 DUP3 ADD SWAP1 POP SWAP3 SWAP2 POP POP JUMP JUMPDEST PUSH0 PUSH2 0x10D1 DUP3 PUSH2 0xC87 JUMP JUMPDEST PUSH2 0x10DB DUP2 DUP6 PUSH2 0x10B7 JUMP JUMPDEST SWAP4 POP PUSH2 0x10EB DUP2 DUP6 PUSH1 0x20 DUP7 ADD PUSH2 0xCA1 JUMP JUMPDEST PUSH2 0x10F4 DUP2 PUSH2 0xCAF JUMP JUMPDEST DUP5 ADD SWAP2 POP POP SWAP3 SWAP2 POP POP JUMP JUMPDEST PUSH0 PUSH1 0x20 DUP3 ADD SWAP1 POP DUP2 DUP2 SUB PUSH0 DUP4 ADD MSTORE PUSH2 0x1117 DUP2 DUP5 PUSH2 0x10C7 JUMP JUMPDEST SWAP1 POP SWAP3 SWAP2 POP POP JUMP JUMPDEST PUSH32 0x4E487B7100000000000000000000000000000000000000000000000000000000 PUSH0 MSTORE PUSH1 0x22 PUSH1 0x4 MSTORE PUSH1 0x24 PUSH0 REVERT JUMPDEST PUSH0 PUSH1 0x2 DUP3 DIV SWAP1 POP PUSH1 0x1 DUP3 AND DUP1 PUSH2 0x1163 JUMPI PUSH1 0x7F DUP3 AND SWAP2 POP JUMPDEST PUSH1 0x20 DUP3 LT DUP2 SUB PUSH2 0x1176 JUMPI PUSH2 0x1175 PUSH2 0x111F JUMP JUMPDEST JUMPDEST POP SWAP2 SWAP1 POP JUMP JUMPDEST PUSH0 DUP2 SWAP1 POP DUP2 PUSH0 MSTORE PUSH1 0x20 PUSH0 KECCAK256 SWAP1 POP SWAP2 SWAP1 POP JUMP JUMPDEST PUSH0 PUSH1 0x20 PUSH1 0x1F DUP4 ADD DIV SWAP1 POP SWAP2 SWAP1 POP JUMP JUMPDEST PUSH0 DUP3 DUP3 SHL SWAP1 POP SWAP3 SWAP2 POP POP JUMP JUMPDEST PUSH0 PUSH1 0x8 DUP4 MUL PUSH2 0x11D8 PUSH32 0xFFFFFFFFFFFFFFFFFFFFFFFFFFFFFFFFFFFFFFFFFFFFFFFFFFFFFFFFFFFFFFFF DUP3 PUSH2 0x119D JUMP JUMPDEST PUSH2 0x11E2 DUP7 DUP4 PUSH2 0x119D JUMP JUMPDEST SWAP6 POP DUP1 NOT DUP5 AND SWAP4 POP DUP1 DUP7 AND DUP5 OR SWAP3 POP POP POP SWAP4 SWAP3 POP POP POP JUMP JUMPDEST PUSH0 DUP2 SWAP1 POP SWAP2 SWAP1 POP JUMP JUMPDEST PUSH0 PUSH2 0x121D PUSH2 0x1218 PUSH2 0x1213 DUP5 PUSH2 0xBEB JUMP JUMPDEST PUSH2 0x11FA JUMP JUMPDEST PUSH2 0xBEB JUMP JUMPDEST SWAP1 POP SWAP2 SWAP1 POP JUMP JUMPDEST PUSH0 DUP2 SWAP1 POP SWAP2 SWAP1 POP JUMP JUMPDEST PUSH2 0x1236 DUP4 PUSH2 0x1203 JUMP JUMPDEST PUSH2 0x124A PUSH2 0x1242 DUP3 PUSH2 0x1224 JUMP JUMPDEST DUP5 DUP5 SLOAD PUSH2 0x11A9 JUMP JUMPDEST DUP3 SSTORE POP POP POP POP JUMP JUMPDEST PUSH0 PUSH0 SWAP1 POP SWAP1 JUMP JUMPDEST PUSH2 0x1261 PUSH2 0x1252 JUMP JUMPDEST PUSH2 0x126C DUP2 DUP5 DUP5 PUSH2 0x122D JUMP JUMPDEST POP POP POP JUMP JUMPDEST JUMPDEST DUP2 DUP2 LT ISZERO PUSH2 0x128F JUMPI PUSH2 0x1284 PUSH0 DUP3 PUSH2 0x1259 JUMP JUMPDEST PUSH1 0x1 DUP2 ADD SWAP1 POP PUSH2 0x1272 JUMP JUMPDEST POP POP JUMP JUMPDEST PUSH1 0x1F DUP3 GT ISZERO PUSH2 0x12D4 JUMPI PUSH2 0x12A5 DUP2 PUSH2 0x117C JUMP JUMPDEST PUSH2 0x12AE DUP5 PUSH2 0x118E JUMP JUMPDEST DUP2 ADD PUSH1 0x20 DUP6 LT ISZERO PUSH2 0x12BD JUMPI DUP2 SWAP1 POP JUMPDEST PUSH2 0x12D1 PUSH2 0x12C9 DUP6 PUSH2 0x118E JUMP JUMPDEST DUP4 ADD DUP3 PUSH2 0x1271 JUMP JUMPDEST POP POP JUMPDEST POP POP POP JUMP JUMPDEST PUSH0 DUP3 DUP3 SHR SWAP1 POP SWAP3 SWAP2 POP POP JUMP JUMPDEST PUSH0 PUSH2 0x12F4 PUSH0 NOT DUP5 PUSH1 0x8 MUL PUSH2 0x12D9 JUMP JUMPDEST NOT DUP1 DUP4 AND SWAP2 POP POP SWAP3 SWAP2 POP POP JUMP JUMPDEST PUSH0 PUSH2 0x130C DUP4 DUP4 PUSH2 0x12E5 JUMP JUMPDEST SWAP2 POP DUP3 PUSH1 0x2 MUL DUP3 OR SWAP1 POP SWAP3 SWAP2 POP POP JUMP JUMPDEST PUSH2 0x1325 DUP3 PUSH2 0xC87 JUMP JUMPDEST PUSH8 0xFFFFFFFFFFFFFFFF DUP2 GT ISZERO PUSH2 0x133E JUMPI PUSH2 0x133D PUSH2 0xDEE JUMP JUMPDEST JUMPDEST PUSH2 0x1348 DUP3 SLOAD PUSH2 0x114C JUMP JUMPDEST PUSH2 0x1353 DUP3 DUP3 DUP6 PUSH2 0x1293 JUMP JUMPDEST PUSH0 PUSH1 0x20 SWAP1 POP PUSH1 0x1F DUP4 GT PUSH1 0x1 DUP2 EQ PUSH2 0x1384 JUMPI PUSH0 DUP5 ISZERO PUSH2 0x1372 JUMPI DUP3 DUP8 ADD MLOAD SWAP1 POP JUMPDEST PUSH2 0x137C DUP6 DUP3 PUSH2 0x1301 JUMP JUMPDEST DUP7 SSTORE POP PUSH2 0x13E3 JUMP JUMPDEST PUSH1 0x1F NOT DUP5 AND PUSH2 0x1392 DUP7 PUSH2 0x117C JUMP JUMPDEST PUSH0 JUMPDEST DUP3 DUP2 LT ISZERO PUSH2 0x13B9 JUMPI DUP5 DUP10 ADD MLOAD DUP3 SSTORE PUSH1 0x1 DUP3 ADD SWAP2 POP PUSH1 0x20 DUP6 ADD SWAP5 POP PUSH1 0x20 DUP2 ADD SWAP1 POP PUSH2 0x1394 JUMP JUMPDEST DUP7 DUP4 LT ISZERO PUSH2 0x13D6 JUMPI DUP5 DUP10 ADD MLOAD PUSH2 0x13D2 PUSH1 0x1F DUP10 AND DUP3 PUSH2 0x12E5 JUMP JUMPDEST DUP4 SSTORE POP JUMPDEST PUSH1 0x1 PUSH1 0x2 DUP9 MUL ADD DUP9 SSTORE POP POP POP JUMPDEST POP POP POP POP POP POP JUMP JUMPDEST PUSH2 0x13F4 DUP2 PUSH2 0xBB0 JUMP JUMPDEST DUP3 MSTORE POP POP JUMP JUMPDEST PUSH0 PUSH1 0x20 DUP3 ADD SWAP1 POP PUSH2 0x140D PUSH0 DUP4 ADD DUP5 PUSH2 0x13EB JUMP JUMPDEST SWAP3 SWAP2 POP POP JUMP JUMPDEST PUSH32 0x4E487B7100000000000000000000000000000000000000000000000000000000 PUSH0 MSTORE PUSH1 0x32 PUSH1 0x4 MSTORE PUSH1 0x24 PUSH0 REVERT JUMPDEST PUSH0 DUP2 ISZERO ISZERO SWAP1 POP SWAP2 SWAP1 POP JUMP JUMPDEST PUSH2 0x1454 DUP2 PUSH2 0x1440 JUMP JUMPDEST DUP2 EQ PUSH2 0x145E JUMPI PUSH0 PUSH0 REVERT JUMPDEST POP JUMP JUMPDEST PUSH0 DUP2 MLOAD SWAP1 POP PUSH2 0x146F DUP2 PUSH2 0x144B JUMP JUMPDEST SWAP3 SWAP2 POP POP JUMP JUMPDEST PUSH0 PUSH1 0x20 DUP3 DUP5 SUB SLT ISZERO PUSH2 0x148A JUMPI PUSH2 0x1489 PUSH2 0xB89 JUMP JUMPDEST JUMPDEST PUSH0 PUSH2 0x1497 DUP5 DUP3 DUP6 ADD PUSH2 0x1461 JUMP JUMPDEST SWAP2 POP POP SWAP3 SWAP2 POP POP JUMP JUMPDEST PUSH32 0x4E487B7100000000000000000000000000000000000000000000000000000000 PUSH0 MSTORE PUSH1 0x11 PUSH1 0x4 MSTORE PUSH1 0x24 PUSH0 REVERT JUMPDEST PUSH0 PUSH2 0x14D7 DUP3 PUSH2 0xBEB JUMP JUMPDEST SWAP2 POP PUSH32 0xFFFFFFFFFFFFFFFFFFFFFFFFFFFFFFFFFFFFFFFFFFFFFFFFFFFFFFFFFFFFFFFF DUP3 SUB PUSH2 0x1509 JUMPI PUSH2 0x1508 PUSH2 0x14A0 JUMP JUMPDEST JUMPDEST PUSH1 0x1 DUP3 ADD SWAP1 POP SWAP2 SWAP1 POP JUMP INVALID LOG2 PUSH5 0x6970667358 0x22 SLT KECCAK256 PUSH15 0xE1F0170099E406148D43163884500B DUP2 DUP9 0x28 0xC3 SWAP15 0xCD PUSH10 0x4A81733AA56EFAF2A964 PUSH20 0x6F6C634300081E00330000000000000000000000 "
				},
				"gasEstimates": {
					"creation": {
						"codeDepositCost": "1090000",
						"executionCost": "infinite",
						"totalCost": "infinite"
					},
					"external": {
						"addNftToUser(address,uint256)": "infinite",
						"createUser(string,uint256,uint8)": "infinite",
						"getCurrentUserData()": "infinite",
						"getOtherUserData(address)": "infinite",
						"listAllNftsOfUser(address)": "infinite"
					}
				},
				"methodIdentifiers": {
					"addNftToUser(address,uint256)": "00704c6c",
					"createUser(string,uint256,uint8)": "80b6e64a",
					"getCurrentUserData()": "541709da",
					"getOtherUserData(address)": "091c4553",
					"listAllNftsOfUser(address)": "d9781122"
				}
			},
			"storageLayout": {
				"storage": [
					{
						"astId": 138,
						"contract": "contracts/UserManager.sol:UserManagerContract",
						"label": "roleManager",
						"offset": 0,
						"slot": "0",
						"type": "t_contract(RoleManagerContract)131"
					},
					{
						"astId": 160,
						"contract": "contracts/UserManager.sol:UserManagerContract",
						"label": "users",
						"offset": 0,
						"slot": "1",
						"type": "t_mapping(t_address,t_struct(User)150_storage)"
					},
					{
						"astId": 166,
						"contract": "contracts/UserManager.sol:UserManagerContract",
						"label": "listOfUsersToken",
						"offset": 0,
						"slot": "2",
						"type": "t_mapping(t_address,t_array(t_struct(UserToken)155_storage)dyn_storage)"
					}
				],
				"types": {
					"t_address": {
						"encoding": "inplace",
						"label": "address",
						"numberOfBytes": "20"
					},
					"t_array(t_struct(UserToken)155_storage)dyn_storage": {
						"base": "t_struct(UserToken)155_storage",
						"encoding": "dynamic_array",
						"label": "struct UserManagerContract.UserToken[]",
						"numberOfBytes": "32"
					},
					"t_bool": {
						"encoding": "inplace",
						"label": "bool",
						"numberOfBytes": "1"
					},
					"t_contract(RoleManagerContract)131": {
						"encoding": "inplace",
						"label": "contract RoleManagerContract",
						"numberOfBytes": "20"
					},
					"t_enum(Gender)142": {
						"encoding": "inplace",
						"label": "enum UserManagerContract.Gender",
						"numberOfBytes": "1"
					},
					"t_mapping(t_address,t_array(t_struct(UserToken)155_storage)dyn_storage)": {
						"encoding": "mapping",
						"key": "t_address",
						"label": "mapping(address => struct UserManagerContract.UserToken[])",
						"numberOfBytes": "32",
						"value": "t_array(t_struct(UserToken)155_storage)dyn_storage"
					},
					"t_mapping(t_address,t_struct(User)150_storage)": {
						"encoding": "mapping",
						"key": "t_address",
						"label": "mapping(address => struct UserManagerContract.User)",
						"numberOfBytes": "32",
						"value": "t_struct(User)150_storage"
					},
					"t_string_storage": {
						"encoding": "bytes",
						"label": "string",
						"numberOfBytes": "32"
					},
					"t_struct(User)150_storage": {
						"encoding": "inplace",
						"label": "struct UserManagerContract.User",
						"members": [
							{
								"astId": 144,
								"contract": "contracts/UserManager.sol:UserManagerContract",
								"label": "fullName",
								"offset": 0,
								"slot": "0",
								"type": "t_string_storage"
							},
							{
								"astId": 146,
								"contract": "contracts/UserManager.sol:UserManagerContract",
								"label": "dateOfBirth",
								"offset": 0,
								"slot": "1",
								"type": "t_uint256"
							},
							{
								"astId": 149,
								"contract": "contracts/UserManager.sol:UserManagerContract",
								"label": "gender",
								"offset": 0,
								"slot": "2",
								"type": "t_enum(Gender)142"
							}
						],
						"numberOfBytes": "96"
					},
					"t_struct(UserToken)155_storage": {
						"encoding": "inplace",
						"label": "struct UserManagerContract.UserToken",
						"members": [
							{
								"astId": 152,
								"contract": "contracts/UserManager.sol:UserManagerContract",
								"label": "tokenId",
								"offset": 0,
								"slot": "0",
								"type": "t_uint256"
							},
							{
								"astId": 154,
								"contract": "contracts/UserManager.sol:UserManagerContract",
								"label": "isPublic",
								"offset": 0,
								"slot": "1",
								"type": "t_bool"
							}
						],
						"numberOfBytes": "64"
					},
					"t_uint256": {
						"encoding": "inplace",
						"label": "uint256",
						"numberOfBytes": "32"
					}
				}
			},
			"userdoc": {
				"kind": "user",
				"methods": {},
				"version": 1
			}
		}
	}
}