{
	"constants/Errors.const.sol": {
		"ErrorCodes": {
			"abi": [
				{
					"inputs": [],
					"name": "ERROR_UNAUTHORIZED",
					"outputs": [
						{
							"internalType": "string",
							"name": "",
							"type": "string"
						}
					],
					"stateMutability": "view",
					"type": "function"
				},
				{
					"inputs": [],
					"name": "ERROR_USER_IS_CREATED",
					"outputs": [
						{
							"internalType": "string",
							"name": "",
							"type": "string"
						}
					],
					"stateMutability": "view",
					"type": "function"
				},
				{
					"inputs": [],
					"name": "ERROR_USER_IS_NOT_FOUND",
					"outputs": [
						{
							"internalType": "string",
							"name": "",
							"type": "string"
						}
					],
					"stateMutability": "view",
					"type": "function"
				}
			],
			"devdoc": {
				"kind": "dev",
				"methods": {},
				"version": 1
			},
			"evm": {
				"assembly": "    /* \"constants/Errors.const.sol\":60:342  library ErrorCodes {... */\n  dataSize(sub_0)\n  dataOffset(sub_0)\n  0x0b\n  dup3\n  dup3\n  dup3\n  codecopy\n  dup1\n  mload\n  0x00\n  byte\n  0x73\n  eq\n  tag_1\n  jumpi\n  mstore(0x00, 0x4e487b7100000000000000000000000000000000000000000000000000000000)\n  mstore(0x04, 0x00)\n  revert(0x00, 0x24)\ntag_1:\n  mstore(0x00, address)\n  0x73\n  dup2\n  mstore8\n  dup3\n  dup2\n  return\nstop\n\nsub_0: assembly {\n        /* \"constants/Errors.const.sol\":60:342  library ErrorCodes {... */\n      eq(address, deployTimeAddress())\n      mstore(0x40, 0x80)\n      jumpi(tag_1, lt(calldatasize, 0x04))\n      shr(0xe0, calldataload(0x00))\n      dup1\n      0xa6557519\n      eq\n      tag_2\n      jumpi\n      dup1\n      0xbb9b18e3\n      eq\n      tag_3\n      jumpi\n      dup1\n      0xce796de4\n      eq\n      tag_4\n      jumpi\n    tag_1:\n      revert(0x00, 0x00)\n        /* \"constants/Errors.const.sol\":280:338  string public constant ERROR_UNAUTHORIZED = \"UNAUTHORIZED\" */\n    tag_2:\n      tag_5\n      tag_6\n      jump\t// in\n    tag_5:\n      mload(0x40)\n      tag_7\n      swap2\n      swap1\n      tag_8\n      jump\t// in\n    tag_7:\n      mload(0x40)\n      dup1\n      swap2\n      sub\n      swap1\n      return\n        /* \"constants/Errors.const.sol\":106:174  string public constant ERROR_USER_IS_NOT_FOUND = \"USER_IS_NOT_FOUND\" */\n    tag_3:\n      tag_9\n      tag_10\n      jump\t// in\n    tag_9:\n      mload(0x40)\n      tag_11\n      swap2\n      swap1\n      tag_8\n      jump\t// in\n    tag_11:\n      mload(0x40)\n      dup1\n      swap2\n      sub\n      swap1\n      return\n        /* \"constants/Errors.const.sol\":181:245  string public constant ERROR_USER_IS_CREATED = \"USER_IS_CREATED\" */\n    tag_4:\n      tag_12\n      tag_13\n      jump\t// in\n    tag_12:\n      mload(0x40)\n      tag_14\n      swap2\n      swap1\n      tag_8\n      jump\t// in\n    tag_14:\n      mload(0x40)\n      dup1\n      swap2\n      sub\n      swap1\n      return\n        /* \"constants/Errors.const.sol\":280:338  string public constant ERROR_UNAUTHORIZED = \"UNAUTHORIZED\" */\n    tag_6:\n      mload(0x40)\n      dup1\n      0x40\n      add\n      0x40\n      mstore\n      dup1\n      0x0c\n      dup2\n      mstore\n      0x20\n      add\n      0x554e415554484f52495a45440000000000000000000000000000000000000000\n      dup2\n      mstore\n      pop\n      dup2\n      jump\t// out\n        /* \"constants/Errors.const.sol\":106:174  string public constant ERROR_USER_IS_NOT_FOUND = \"USER_IS_NOT_FOUND\" */\n    tag_10:\n      mload(0x40)\n      dup1\n      0x40\n      add\n      0x40\n      mstore\n      dup1\n      0x11\n      dup2\n      mstore\n      0x20\n      add\n      0x555345525f49535f4e4f545f464f554e44000000000000000000000000000000\n      dup2\n      mstore\n      pop\n      dup2\n      jump\t// out\n        /* \"constants/Errors.const.sol\":181:245  string public constant ERROR_USER_IS_CREATED = \"USER_IS_CREATED\" */\n    tag_13:\n      mload(0x40)\n      dup1\n      0x40\n      add\n      0x40\n      mstore\n      dup1\n      0x0f\n      dup2\n      mstore\n      0x20\n      add\n      0x555345525f49535f435245415445440000000000000000000000000000000000\n      dup2\n      mstore\n      pop\n      dup2\n      jump\t// out\n        /* \"#utility.yul\":7:106   */\n    tag_15:\n        /* \"#utility.yul\":59:65   */\n      0x00\n        /* \"#utility.yul\":93:98   */\n      dup2\n        /* \"#utility.yul\":87:99   */\n      mload\n        /* \"#utility.yul\":77:99   */\n      swap1\n      pop\n        /* \"#utility.yul\":7:106   */\n      swap2\n      swap1\n      pop\n      jump\t// out\n        /* \"#utility.yul\":112:289   */\n    tag_16:\n        /* \"#utility.yul\":204:215   */\n      0x00\n        /* \"#utility.yul\":238:244   */\n      dup3\n        /* \"#utility.yul\":233:236   */\n      dup3\n        /* \"#utility.yul\":226:245   */\n      mstore\n        /* \"#utility.yul\":278:282   */\n      0x20\n        /* \"#utility.yul\":273:276   */\n      dup3\n        /* \"#utility.yul\":269:283   */\n      add\n        /* \"#utility.yul\":254:283   */\n      swap1\n      pop\n        /* \"#utility.yul\":112:289   */\n      swap3\n      swap2\n      pop\n      pop\n      jump\t// out\n        /* \"#utility.yul\":295:434   */\n    tag_17:\n        /* \"#utility.yul\":384:390   */\n      dup3\n        /* \"#utility.yul\":379:382   */\n      dup2\n        /* \"#utility.yul\":374:377   */\n      dup4\n        /* \"#utility.yul\":368:391   */\n      mcopy\n        /* \"#utility.yul\":425:426   */\n      0x00\n        /* \"#utility.yul\":416:422   */\n      dup4\n        /* \"#utility.yul\":411:414   */\n      dup4\n        /* \"#utility.yul\":407:423   */\n      add\n        /* \"#utility.yul\":400:427   */\n      mstore\n        /* \"#utility.yul\":295:434   */\n      pop\n      pop\n      pop\n      jump\t// out\n        /* \"#utility.yul\":440:542   */\n    tag_18:\n        /* \"#utility.yul\":481:487   */\n      0x00\n        /* \"#utility.yul\":532:534   */\n      0x1f\n        /* \"#utility.yul\":528:535   */\n      not\n        /* \"#utility.yul\":523:525   */\n      0x1f\n        /* \"#utility.yul\":516:521   */\n      dup4\n        /* \"#utility.yul\":512:526   */\n      add\n        /* \"#utility.yul\":508:536   */\n      and\n        /* \"#utility.yul\":498:536   */\n      swap1\n      pop\n        /* \"#utility.yul\":440:542   */\n      swap2\n      swap1\n      pop\n      jump\t// out\n        /* \"#utility.yul\":548:941   */\n    tag_19:\n        /* \"#utility.yul\":644:647   */\n      0x00\n        /* \"#utility.yul\":672:711   */\n      tag_26\n        /* \"#utility.yul\":705:710   */\n      dup3\n        /* \"#utility.yul\":672:711   */\n      tag_15\n      jump\t// in\n    tag_26:\n        /* \"#utility.yul\":727:806   */\n      tag_27\n        /* \"#utility.yul\":799:805   */\n      dup2\n        /* \"#utility.yul\":794:797   */\n      dup6\n        /* \"#utility.yul\":727:806   */\n      tag_16\n      jump\t// in\n    tag_27:\n        /* \"#utility.yul\":720:806   */\n      swap4\n      pop\n        /* \"#utility.yul\":815:880   */\n      tag_28\n        /* \"#utility.yul\":873:879   */\n      dup2\n        /* \"#utility.yul\":868:871   */\n      dup6\n        /* \"#utility.yul\":861:865   */\n      0x20\n        /* \"#utility.yul\":854:859   */\n      dup7\n        /* \"#utility.yul\":850:866   */\n      add\n        /* \"#utility.yul\":815:880   */\n      tag_17\n      jump\t// in\n    tag_28:\n        /* \"#utility.yul\":905:934   */\n      tag_29\n        /* \"#utility.yul\":927:933   */\n      dup2\n        /* \"#utility.yul\":905:934   */\n      tag_18\n      jump\t// in\n    tag_29:\n        /* \"#utility.yul\":900:903   */\n      dup5\n        /* \"#utility.yul\":896:935   */\n      add\n        /* \"#utility.yul\":889:935   */\n      swap2\n      pop\n        /* \"#utility.yul\":648:941   */\n      pop\n        /* \"#utility.yul\":548:941   */\n      swap3\n      swap2\n      pop\n      pop\n      jump\t// out\n        /* \"#utility.yul\":947:1276   */\n    tag_8:\n        /* \"#utility.yul\":1068:1072   */\n      0x00\n        /* \"#utility.yul\":1106:1108   */\n      0x20\n        /* \"#utility.yul\":1095:1104   */\n      dup3\n        /* \"#utility.yul\":1091:1109   */\n      add\n        /* \"#utility.yul\":1083:1109   */\n      swap1\n      pop\n        /* \"#utility.yul\":1155:1164   */\n      dup2\n        /* \"#utility.yul\":1149:1153   */\n      dup2\n        /* \"#utility.yul\":1145:1165   */\n      sub\n        /* \"#utility.yul\":1141:1142   */\n      0x00\n        /* \"#utility.yul\":1130:1139   */\n      dup4\n        /* \"#utility.yul\":1126:1143   */\n      add\n        /* \"#utility.yul\":1119:1166   */\n      mstore\n        /* \"#utility.yul\":1183:1269   */\n      tag_31\n        /* \"#utility.yul\":1264:1268   */\n      dup2\n        /* \"#utility.yul\":1255:1261   */\n      dup5\n        /* \"#utility.yul\":1183:1269   */\n      tag_19\n      jump\t// in\n    tag_31:\n        /* \"#utility.yul\":1175:1269   */\n      swap1\n      pop\n        /* \"#utility.yul\":947:1276   */\n      swap3\n      swap2\n      pop\n      pop\n      jump\t// out\n\n    auxdata: 0xa264697066735822122042caad377253a7996e65a0b0eb5038a568030b110f632e8676c1e385b88d559364736f6c634300081e0033\n}\n",
				"bytecode": {
					"linkReferences": {},
					"object": "61021961004d600b8282823980515f1a6073146041577f4e487b71000000000000000000000000000000000000000000000000000000005f525f60045260245ffd5b305f52607381538281f3fe730000000000000000000000000000000000000000301460806040526004361061004a575f3560e01c8063a65575191461004e578063bb9b18e31461006c578063ce796de41461008a575b5f5ffd5b6100566100a8565b60405161006391906101c3565b60405180910390f35b6100746100e1565b60405161008191906101c3565b60405180910390f35b61009261011a565b60405161009f91906101c3565b60405180910390f35b6040518060400160405280600c81526020017f554e415554484f52495a4544000000000000000000000000000000000000000081525081565b6040518060400160405280601181526020017f555345525f49535f4e4f545f464f554e4400000000000000000000000000000081525081565b6040518060400160405280600f81526020017f555345525f49535f43524541544544000000000000000000000000000000000081525081565b5f81519050919050565b5f82825260208201905092915050565b8281835e5f83830152505050565b5f601f19601f8301169050919050565b5f61019582610153565b61019f818561015d565b93506101af81856020860161016d565b6101b88161017b565b840191505092915050565b5f6020820190508181035f8301526101db818461018b565b90509291505056fea264697066735822122042caad377253a7996e65a0b0eb5038a568030b110f632e8676c1e385b88d559364736f6c634300081e0033",
					"opcodes": "PUSH2 0x219 PUSH2 0x4D PUSH1 0xB DUP3 DUP3 DUP3 CODECOPY DUP1 MLOAD PUSH0 BYTE PUSH1 0x73 EQ PUSH1 0x41 JUMPI PUSH32 0x4E487B7100000000000000000000000000000000000000000000000000000000 PUSH0 MSTORE PUSH0 PUSH1 0x4 MSTORE PUSH1 0x24 PUSH0 REVERT JUMPDEST ADDRESS PUSH0 MSTORE PUSH1 0x73 DUP2 MSTORE8 DUP3 DUP2 RETURN INVALID PUSH20 0x0 ADDRESS EQ PUSH1 0x80 PUSH1 0x40 MSTORE PUSH1 0x4 CALLDATASIZE LT PUSH2 0x4A JUMPI PUSH0 CALLDATALOAD PUSH1 0xE0 SHR DUP1 PUSH4 0xA6557519 EQ PUSH2 0x4E JUMPI DUP1 PUSH4 0xBB9B18E3 EQ PUSH2 0x6C JUMPI DUP1 PUSH4 0xCE796DE4 EQ PUSH2 0x8A JUMPI JUMPDEST PUSH0 PUSH0 REVERT JUMPDEST PUSH2 0x56 PUSH2 0xA8 JUMP JUMPDEST PUSH1 0x40 MLOAD PUSH2 0x63 SWAP2 SWAP1 PUSH2 0x1C3 JUMP JUMPDEST PUSH1 0x40 MLOAD DUP1 SWAP2 SUB SWAP1 RETURN JUMPDEST PUSH2 0x74 PUSH2 0xE1 JUMP JUMPDEST PUSH1 0x40 MLOAD PUSH2 0x81 SWAP2 SWAP1 PUSH2 0x1C3 JUMP JUMPDEST PUSH1 0x40 MLOAD DUP1 SWAP2 SUB SWAP1 RETURN JUMPDEST PUSH2 0x92 PUSH2 0x11A JUMP JUMPDEST PUSH1 0x40 MLOAD PUSH2 0x9F SWAP2 SWAP1 PUSH2 0x1C3 JUMP JUMPDEST PUSH1 0x40 MLOAD DUP1 SWAP2 SUB SWAP1 RETURN JUMPDEST PUSH1 0x40 MLOAD DUP1 PUSH1 0x40 ADD PUSH1 0x40 MSTORE DUP1 PUSH1 0xC DUP2 MSTORE PUSH1 0x20 ADD PUSH32 0x554E415554484F52495A45440000000000000000000000000000000000000000 DUP2 MSTORE POP DUP2 JUMP JUMPDEST PUSH1 0x40 MLOAD DUP1 PUSH1 0x40 ADD PUSH1 0x40 MSTORE DUP1 PUSH1 0x11 DUP2 MSTORE PUSH1 0x20 ADD PUSH32 0x555345525F49535F4E4F545F464F554E44000000000000000000000000000000 DUP2 MSTORE POP DUP2 JUMP JUMPDEST PUSH1 0x40 MLOAD DUP1 PUSH1 0x40 ADD PUSH1 0x40 MSTORE DUP1 PUSH1 0xF DUP2 MSTORE PUSH1 0x20 ADD PUSH32 0x555345525F49535F435245415445440000000000000000000000000000000000 DUP2 MSTORE POP DUP2 JUMP JUMPDEST PUSH0 DUP2 MLOAD SWAP1 POP SWAP2 SWAP1 POP JUMP JUMPDEST PUSH0 DUP3 DUP3 MSTORE PUSH1 0x20 DUP3 ADD SWAP1 POP SWAP3 SWAP2 POP POP JUMP JUMPDEST DUP3 DUP2 DUP4 MCOPY PUSH0 DUP4 DUP4 ADD MSTORE POP POP POP JUMP JUMPDEST PUSH0 PUSH1 0x1F NOT PUSH1 0x1F DUP4 ADD AND SWAP1 POP SWAP2 SWAP1 POP JUMP JUMPDEST PUSH0 PUSH2 0x195 DUP3 PUSH2 0x153 JUMP JUMPDEST PUSH2 0x19F DUP2 DUP6 PUSH2 0x15D JUMP JUMPDEST SWAP4 POP PUSH2 0x1AF DUP2 DUP6 PUSH1 0x20 DUP7 ADD PUSH2 0x16D JUMP JUMPDEST PUSH2 0x1B8 DUP2 PUSH2 0x17B JUMP JUMPDEST DUP5 ADD SWAP2 POP POP SWAP3 SWAP2 POP POP JUMP JUMPDEST PUSH0 PUSH1 0x20 DUP3 ADD SWAP1 POP DUP2 DUP2 SUB PUSH0 DUP4 ADD MSTORE PUSH2 0x1DB DUP2 DUP5 PUSH2 0x18B JUMP JUMPDEST SWAP1 POP SWAP3 SWAP2 POP POP JUMP INVALID LOG2 PUSH5 0x6970667358 0x22 SLT KECCAK256 TIMESTAMP 0xCA 0xAD CALLDATACOPY PUSH19 0x53A7996E65A0B0EB5038A568030B110F632E86 PUSH23 0xC1E385B88D559364736F6C634300081E00330000000000 "
				},
				"gasEstimates": {
					"creation": {
						"codeDepositCost": "107400",
						"executionCost": "179",
						"totalCost": "107579"
					},
					"external": {
						"ERROR_UNAUTHORIZED()": "infinite",
						"ERROR_USER_IS_CREATED()": "infinite",
						"ERROR_USER_IS_NOT_FOUND()": "infinite"
					}
				},
				"methodIdentifiers": {
					"ERROR_UNAUTHORIZED()": "a6557519",
					"ERROR_USER_IS_CREATED()": "ce796de4",
					"ERROR_USER_IS_NOT_FOUND()": "bb9b18e3"
				}
			},
			"storageLayout": {
				"storage": [],
				"types": null
			},
			"userdoc": {
				"kind": "user",
				"methods": {},
				"version": 1
			}
		}
	}
}