{
	"contracts/RoleManager.sol": {
		"RoleManagerContract": {
			"abi": [
				{
					"inputs": [],
					"stateMutability": "nonpayable",
					"type": "constructor"
				},
				{
					"inputs": [],
					"name": "getRole",
					"outputs": [
						{
							"internalType": "enum RoleManagerContract.RoleType",
							"name": "",
							"type": "uint8"
						}
					],
					"stateMutability": "view",
					"type": "function"
				},
				{
					"inputs": [],
					"name": "isCurrentUserAdmin",
					"outputs": [
						{
							"internalType": "bool",
							"name": "",
							"type": "bool"
						}
					],
					"stateMutability": "view",
					"type": "function"
				},
				{
					"inputs": [
						{
							"internalType": "address",
							"name": "userAddr",
							"type": "address"
						}
					],
					"name": "setAdminRole",
					"outputs": [],
					"stateMutability": "nonpayable",
					"type": "function"
				},
				{
					"inputs": [
						{
							"internalType": "address",
							"name": "userAddr",
							"type": "address"
						}
					],
					"name": "setOrganizationRole",
					"outputs": [],
					"stateMutability": "nonpayable",
					"type": "function"
				},
				{
					"inputs": [
						{
							"internalType": "address",
							"name": "userAddr",
							"type": "address"
						}
					],
					"name": "setStudentRole",
					"outputs": [],
					"stateMutability": "nonpayable",
					"type": "function"
				}
			],
			"devdoc": {
				"kind": "dev",
				"methods": {},
				"version": 1
			},
			"evm": {
				"assembly": "    /* \"contracts/RoleManager.sol\":100:1148  contract RoleManagerContract {... */\n  mstore(0x40, 0x80)\n    /* \"contracts/RoleManager.sol\":243:314  constructor() {... */\n  callvalue\n  dup1\n  iszero\n  tag_1\n  jumpi\n  0x00\n  dup1\n  revert\ntag_1:\n  pop\n    /* \"contracts/RoleManager.sol\":292:306  RoleType.ADMIN */\n  0x00\n    /* \"contracts/RoleManager.sol\":268:277  userRoles */\n  dup1\n    /* \"contracts/RoleManager.sol\":268:289  userRoles[msg.sender] */\n  0x00\n    /* \"contracts/RoleManager.sol\":278:288  msg.sender */\n  caller\n    /* \"contracts/RoleManager.sol\":268:289  userRoles[msg.sender] */\n  0xffffffffffffffffffffffffffffffffffffffff\n  and\n  0xffffffffffffffffffffffffffffffffffffffff\n  and\n  dup2\n  mstore\n  0x20\n  add\n  swap1\n  dup2\n  mstore\n  0x20\n  add\n  0x00\n  keccak256\n  0x00\n    /* \"contracts/RoleManager.sol\":268:306  userRoles[msg.sender] = RoleType.ADMIN */\n  0x0100\n  exp\n  dup2\n  sload\n  dup2\n  0xff\n  mul\n  not\n  and\n  swap1\n  dup4\n  0x02\n  dup2\n  gt\n  iszero\n  tag_4\n  jumpi\n  tag_5\n  tag_6\n  jump\t// in\ntag_5:\ntag_4:\n  mul\n  or\n  swap1\n  sstore\n  pop\n    /* \"contracts/RoleManager.sol\":100:1148  contract RoleManagerContract {... */\n  jump(tag_7)\n    /* \"#utility.yul\":7:187   */\ntag_6:\n    /* \"#utility.yul\":55:132   */\n  0x4e487b7100000000000000000000000000000000000000000000000000000000\n    /* \"#utility.yul\":52:53   */\n  0x00\n    /* \"#utility.yul\":45:133   */\n  mstore\n    /* \"#utility.yul\":152:156   */\n  0x21\n    /* \"#utility.yul\":149:150   */\n  0x04\n    /* \"#utility.yul\":142:157   */\n  mstore\n    /* \"#utility.yul\":176:180   */\n  0x24\n    /* \"#utility.yul\":173:174   */\n  0x00\n    /* \"#utility.yul\":166:181   */\n  revert\n    /* \"contracts/RoleManager.sol\":100:1148  contract RoleManagerContract {... */\ntag_7:\n  dataSize(sub_0)\n  dup1\n  dataOffset(sub_0)\n  0x00\n  codecopy\n  0x00\n  return\nstop\n\nsub_0: assembly {\n        /* \"contracts/RoleManager.sol\":100:1148  contract RoleManagerContract {... */\n      mstore(0x40, 0x80)\n      callvalue\n      dup1\n      iszero\n      tag_1\n      jumpi\n      0x00\n      dup1\n      revert\n    tag_1:\n      pop\n      jumpi(tag_2, lt(calldatasize, 0x04))\n      shr(0xe0, calldataload(0x00))\n      dup1\n      0x2e1cd6c2\n      eq\n      tag_3\n      jumpi\n      dup1\n      0x4adc7cfd\n      eq\n      tag_4\n      jumpi\n      dup1\n      0x9805524a\n      eq\n      tag_5\n      jumpi\n      dup1\n      0xf10a45d4\n      eq\n      tag_6\n      jumpi\n      dup1\n      0xfde08174\n      eq\n      tag_7\n      jumpi\n    tag_2:\n      0x00\n      dup1\n      revert\n        /* \"contracts/RoleManager.sol\":910:1041  function setStudentRole(address userAddr) public onlyRole(RoleType.ADMIN) {... */\n    tag_3:\n      tag_8\n      0x04\n      dup1\n      calldatasize\n      sub\n      dup2\n      add\n      swap1\n      tag_9\n      swap2\n      swap1\n      tag_10\n      jump\t// in\n    tag_9:\n      tag_11\n      jump\t// in\n    tag_8:\n      stop\n        /* \"contracts/RoleManager.sol\":626:753  function setAdminRole(address userAddr) public onlyRole(RoleType.ADMIN) {... */\n    tag_4:\n      tag_12\n      0x04\n      dup1\n      calldatasize\n      sub\n      dup2\n      add\n      swap1\n      tag_13\n      swap2\n      swap1\n      tag_10\n      jump\t// in\n    tag_13:\n      tag_14\n      jump\t// in\n    tag_12:\n      stop\n        /* \"contracts/RoleManager.sol\":451:618  function isCurrentUserAdmin() ... */\n    tag_5:\n      tag_15\n      tag_16\n      jump\t// in\n    tag_15:\n      mload(0x40)\n      tag_17\n      swap2\n      swap1\n      tag_18\n      jump\t// in\n    tag_17:\n      mload(0x40)\n      dup1\n      swap2\n      sub\n      swap1\n      return\n        /* \"contracts/RoleManager.sol\":761:902  function setOrganizationRole(address userAddr) public onlyRole(RoleType.ADMIN) {... */\n    tag_6:\n      tag_19\n      0x04\n      dup1\n      calldatasize\n      sub\n      dup2\n      add\n      swap1\n      tag_20\n      swap2\n      swap1\n      tag_10\n      jump\t// in\n    tag_20:\n      tag_21\n      jump\t// in\n    tag_19:\n      stop\n        /* \"contracts/RoleManager.sol\":1049:1145  function getRole() public view returns(RoleType) {... */\n    tag_7:\n      tag_22\n      tag_23\n      jump\t// in\n    tag_22:\n      mload(0x40)\n      tag_24\n      swap2\n      swap1\n      tag_25\n      jump\t// in\n    tag_24:\n      mload(0x40)\n      dup1\n      swap2\n      sub\n      swap1\n      return\n        /* \"contracts/RoleManager.sol\":910:1041  function setStudentRole(address userAddr) public onlyRole(RoleType.ADMIN) {... */\n    tag_11:\n        /* \"contracts/RoleManager.sol\":968:982  RoleType.ADMIN */\n      0x00\n        /* \"contracts/RoleManager.sol\":387:391  role */\n      dup1\n        /* \"contracts/RoleManager.sol\":374:391  getRole() == role */\n      0x02\n      dup2\n      gt\n      iszero\n      tag_27\n      jumpi\n      tag_28\n      tag_29\n      jump\t// in\n    tag_28:\n    tag_27:\n        /* \"contracts/RoleManager.sol\":374:383  getRole() */\n      tag_30\n        /* \"contracts/RoleManager.sol\":374:381  getRole */\n      tag_23\n        /* \"contracts/RoleManager.sol\":374:383  getRole() */\n      jump\t// in\n    tag_30:\n        /* \"contracts/RoleManager.sol\":374:391  getRole() == role */\n      0x02\n      dup2\n      gt\n      iszero\n      tag_31\n      jumpi\n      tag_32\n      tag_29\n      jump\t// in\n    tag_32:\n    tag_31:\n      eq\n        /* \"contracts/RoleManager.sol\":393:422  ErrorCodes.ERROR_UNAUTHORIZED */\n      mload(0x40)\n      dup1\n      0x40\n      add\n      0x40\n      mstore\n      dup1\n      0x0c\n      dup2\n      mstore\n      0x20\n      add\n      0x554e415554484f52495a45440000000000000000000000000000000000000000\n      dup2\n      mstore\n      pop\n        /* \"contracts/RoleManager.sol\":366:423  require(getRole() == role, ErrorCodes.ERROR_UNAUTHORIZED) */\n      swap1\n      tag_33\n      jumpi\n      mload(0x40)\n      0x08c379a000000000000000000000000000000000000000000000000000000000\n      dup2\n      mstore\n      0x04\n      add\n      tag_34\n      swap2\n      swap1\n      tag_35\n      jump\t// in\n    tag_34:\n      mload(0x40)\n      dup1\n      swap2\n      sub\n      swap1\n      revert\n    tag_33:\n      pop\n        /* \"contracts/RoleManager.sol\":1017:1033  RoleType.STUDENT */\n      0x02\n        /* \"contracts/RoleManager.sol\":995:1004  userRoles */\n      0x00\n        /* \"contracts/RoleManager.sol\":995:1014  userRoles[userAddr] */\n      dup1\n        /* \"contracts/RoleManager.sol\":1005:1013  userAddr */\n      dup5\n        /* \"contracts/RoleManager.sol\":995:1014  userRoles[userAddr] */\n      0xffffffffffffffffffffffffffffffffffffffff\n      and\n      0xffffffffffffffffffffffffffffffffffffffff\n      and\n      dup2\n      mstore\n      0x20\n      add\n      swap1\n      dup2\n      mstore\n      0x20\n      add\n      0x00\n      keccak256\n      0x00\n        /* \"contracts/RoleManager.sol\":995:1033  userRoles[userAddr] = RoleType.STUDENT */\n      0x0100\n      exp\n      dup2\n      sload\n      dup2\n      0xff\n      mul\n      not\n      and\n      swap1\n      dup4\n      0x02\n      dup2\n      gt\n      iszero\n      tag_37\n      jumpi\n      tag_38\n      tag_29\n      jump\t// in\n    tag_38:\n    tag_37:\n      mul\n      or\n      swap1\n      sstore\n      pop\n        /* \"contracts/RoleManager.sol\":910:1041  function setStudentRole(address userAddr) public onlyRole(RoleType.ADMIN) {... */\n      pop\n      pop\n      jump\t// out\n        /* \"contracts/RoleManager.sol\":626:753  function setAdminRole(address userAddr) public onlyRole(RoleType.ADMIN) {... */\n    tag_14:\n        /* \"contracts/RoleManager.sol\":682:696  RoleType.ADMIN */\n      0x00\n        /* \"contracts/RoleManager.sol\":387:391  role */\n      dup1\n        /* \"contracts/RoleManager.sol\":374:391  getRole() == role */\n      0x02\n      dup2\n      gt\n      iszero\n      tag_40\n      jumpi\n      tag_41\n      tag_29\n      jump\t// in\n    tag_41:\n    tag_40:\n        /* \"contracts/RoleManager.sol\":374:383  getRole() */\n      tag_42\n        /* \"contracts/RoleManager.sol\":374:381  getRole */\n      tag_23\n        /* \"contracts/RoleManager.sol\":374:383  getRole() */\n      jump\t// in\n    tag_42:\n        /* \"contracts/RoleManager.sol\":374:391  getRole() == role */\n      0x02\n      dup2\n      gt\n      iszero\n      tag_43\n      jumpi\n      tag_44\n      tag_29\n      jump\t// in\n    tag_44:\n    tag_43:\n      eq\n        /* \"contracts/RoleManager.sol\":393:422  ErrorCodes.ERROR_UNAUTHORIZED */\n      mload(0x40)\n      dup1\n      0x40\n      add\n      0x40\n      mstore\n      dup1\n      0x0c\n      dup2\n      mstore\n      0x20\n      add\n      0x554e415554484f52495a45440000000000000000000000000000000000000000\n      dup2\n      mstore\n      pop\n        /* \"contracts/RoleManager.sol\":366:423  require(getRole() == role, ErrorCodes.ERROR_UNAUTHORIZED) */\n      swap1\n      tag_45\n      jumpi\n      mload(0x40)\n      0x08c379a000000000000000000000000000000000000000000000000000000000\n      dup2\n      mstore\n      0x04\n      add\n      tag_46\n      swap2\n      swap1\n      tag_35\n      jump\t// in\n    tag_46:\n      mload(0x40)\n      dup1\n      swap2\n      sub\n      swap1\n      revert\n    tag_45:\n      pop\n        /* \"contracts/RoleManager.sol\":731:745  RoleType.ADMIN */\n      0x00\n        /* \"contracts/RoleManager.sol\":709:718  userRoles */\n      dup1\n        /* \"contracts/RoleManager.sol\":709:728  userRoles[userAddr] */\n      0x00\n        /* \"contracts/RoleManager.sol\":719:727  userAddr */\n      dup5\n        /* \"contracts/RoleManager.sol\":709:728  userRoles[userAddr] */\n      0xffffffffffffffffffffffffffffffffffffffff\n      and\n      0xffffffffffffffffffffffffffffffffffffffff\n      and\n      dup2\n      mstore\n      0x20\n      add\n      swap1\n      dup2\n      mstore\n      0x20\n      add\n      0x00\n      keccak256\n      0x00\n        /* \"contracts/RoleManager.sol\":709:745  userRoles[userAddr] = RoleType.ADMIN */\n      0x0100\n      exp\n      dup2\n      sload\n      dup2\n      0xff\n      mul\n      not\n      and\n      swap1\n      dup4\n      0x02\n      dup2\n      gt\n      iszero\n      tag_48\n      jumpi\n      tag_49\n      tag_29\n      jump\t// in\n    tag_49:\n    tag_48:\n      mul\n      or\n      swap1\n      sstore\n      pop\n        /* \"contracts/RoleManager.sol\":626:753  function setAdminRole(address userAddr) public onlyRole(RoleType.ADMIN) {... */\n      pop\n      pop\n      jump\t// out\n        /* \"contracts/RoleManager.sol\":451:618  function isCurrentUserAdmin() ... */\n    tag_16:\n        /* \"contracts/RoleManager.sol\":513:517  bool */\n      0x00\n        /* \"contracts/RoleManager.sol\":547:561  RoleType.ADMIN */\n      dup1\n        /* \"contracts/RoleManager.sol\":534:561  getRole() == RoleType.ADMIN */\n      0x02\n      dup2\n      gt\n      iszero\n      tag_51\n      jumpi\n      tag_52\n      tag_29\n      jump\t// in\n    tag_52:\n    tag_51:\n        /* \"contracts/RoleManager.sol\":534:543  getRole() */\n      tag_53\n        /* \"contracts/RoleManager.sol\":534:541  getRole */\n      tag_23\n        /* \"contracts/RoleManager.sol\":534:543  getRole() */\n      jump\t// in\n    tag_53:\n        /* \"contracts/RoleManager.sol\":534:561  getRole() == RoleType.ADMIN */\n      0x02\n      dup2\n      gt\n      iszero\n      tag_54\n      jumpi\n      tag_55\n      tag_29\n      jump\t// in\n    tag_55:\n    tag_54:\n      sub\n        /* \"contracts/RoleManager.sol\":530:587  if (getRole() == RoleType.ADMIN)... */\n      tag_56\n      jumpi\n        /* \"contracts/RoleManager.sol\":583:587  true */\n      0x01\n        /* \"contracts/RoleManager.sol\":576:587  return true */\n      swap1\n      pop\n      jump(tag_50)\n        /* \"contracts/RoleManager.sol\":530:587  if (getRole() == RoleType.ADMIN)... */\n    tag_56:\n        /* \"contracts/RoleManager.sol\":605:610  false */\n      0x00\n        /* \"contracts/RoleManager.sol\":598:610  return false */\n      swap1\n      pop\n        /* \"contracts/RoleManager.sol\":451:618  function isCurrentUserAdmin() ... */\n    tag_50:\n      swap1\n      jump\t// out\n        /* \"contracts/RoleManager.sol\":761:902  function setOrganizationRole(address userAddr) public onlyRole(RoleType.ADMIN) {... */\n    tag_21:\n        /* \"contracts/RoleManager.sol\":824:838  RoleType.ADMIN */\n      0x00\n        /* \"contracts/RoleManager.sol\":387:391  role */\n      dup1\n        /* \"contracts/RoleManager.sol\":374:391  getRole() == role */\n      0x02\n      dup2\n      gt\n      iszero\n      tag_58\n      jumpi\n      tag_59\n      tag_29\n      jump\t// in\n    tag_59:\n    tag_58:\n        /* \"contracts/RoleManager.sol\":374:383  getRole() */\n      tag_60\n        /* \"contracts/RoleManager.sol\":374:381  getRole */\n      tag_23\n        /* \"contracts/RoleManager.sol\":374:383  getRole() */\n      jump\t// in\n    tag_60:\n        /* \"contracts/RoleManager.sol\":374:391  getRole() == role */\n      0x02\n      dup2\n      gt\n      iszero\n      tag_61\n      jumpi\n      tag_62\n      tag_29\n      jump\t// in\n    tag_62:\n    tag_61:\n      eq\n        /* \"contracts/RoleManager.sol\":393:422  ErrorCodes.ERROR_UNAUTHORIZED */\n      mload(0x40)\n      dup1\n      0x40\n      add\n      0x40\n      mstore\n      dup1\n      0x0c\n      dup2\n      mstore\n      0x20\n      add\n      0x554e415554484f52495a45440000000000000000000000000000000000000000\n      dup2\n      mstore\n      pop\n        /* \"contracts/RoleManager.sol\":366:423  require(getRole() == role, ErrorCodes.ERROR_UNAUTHORIZED) */\n      swap1\n      tag_63\n      jumpi\n      mload(0x40)\n      0x08c379a000000000000000000000000000000000000000000000000000000000\n      dup2\n      mstore\n      0x04\n      add\n      tag_64\n      swap2\n      swap1\n      tag_35\n      jump\t// in\n    tag_64:\n      mload(0x40)\n      dup1\n      swap2\n      sub\n      swap1\n      revert\n    tag_63:\n      pop\n        /* \"contracts/RoleManager.sol\":873:894  RoleType.ORGANIZATION */\n      0x01\n        /* \"contracts/RoleManager.sol\":851:860  userRoles */\n      0x00\n        /* \"contracts/RoleManager.sol\":851:870  userRoles[userAddr] */\n      dup1\n        /* \"contracts/RoleManager.sol\":861:869  userAddr */\n      dup5\n        /* \"contracts/RoleManager.sol\":851:870  userRoles[userAddr] */\n      0xffffffffffffffffffffffffffffffffffffffff\n      and\n      0xffffffffffffffffffffffffffffffffffffffff\n      and\n      dup2\n      mstore\n      0x20\n      add\n      swap1\n      dup2\n      mstore\n      0x20\n      add\n      0x00\n      keccak256\n      0x00\n        /* \"contracts/RoleManager.sol\":851:894  userRoles[userAddr] = RoleType.ORGANIZATION */\n      0x0100\n      exp\n      dup2\n      sload\n      dup2\n      0xff\n      mul\n      not\n      and\n      swap1\n      dup4\n      0x02\n      dup2\n      gt\n      iszero\n      tag_66\n      jumpi\n      tag_67\n      tag_29\n      jump\t// in\n    tag_67:\n    tag_66:\n      mul\n      or\n      swap1\n      sstore\n      pop\n        /* \"contracts/RoleManager.sol\":761:902  function setOrganizationRole(address userAddr) public onlyRole(RoleType.ADMIN) {... */\n      pop\n      pop\n      jump\t// out\n        /* \"contracts/RoleManager.sol\":1049:1145  function getRole() public view returns(RoleType) {... */\n    tag_23:\n        /* \"contracts/RoleManager.sol\":1088:1096  RoleType */\n      0x00\n        /* \"contracts/RoleManager.sol\":1116:1125  userRoles */\n      dup1\n        /* \"contracts/RoleManager.sol\":1116:1137  userRoles[msg.sender] */\n      0x00\n        /* \"contracts/RoleManager.sol\":1126:1136  msg.sender */\n      caller\n        /* \"contracts/RoleManager.sol\":1116:1137  userRoles[msg.sender] */\n      0xffffffffffffffffffffffffffffffffffffffff\n      and\n      0xffffffffffffffffffffffffffffffffffffffff\n      and\n      dup2\n      mstore\n      0x20\n      add\n      swap1\n      dup2\n      mstore\n      0x20\n      add\n      0x00\n      keccak256\n      0x00\n      swap1\n      sload\n      swap1\n      0x0100\n      exp\n      swap1\n      div\n      0xff\n      and\n        /* \"contracts/RoleManager.sol\":1109:1137  return userRoles[msg.sender] */\n      swap1\n      pop\n        /* \"contracts/RoleManager.sol\":1049:1145  function getRole() public view returns(RoleType) {... */\n      swap1\n      jump\t// out\n        /* \"#utility.yul\":88:205   */\n    tag_70:\n        /* \"#utility.yul\":197:198   */\n      0x00\n        /* \"#utility.yul\":194:195   */\n      dup1\n        /* \"#utility.yul\":187:199   */\n      revert\n        /* \"#utility.yul\":334:460   */\n    tag_72:\n        /* \"#utility.yul\":371:378   */\n      0x00\n        /* \"#utility.yul\":411:453   */\n      0xffffffffffffffffffffffffffffffffffffffff\n        /* \"#utility.yul\":404:409   */\n      dup3\n        /* \"#utility.yul\":400:454   */\n      and\n        /* \"#utility.yul\":389:454   */\n      swap1\n      pop\n        /* \"#utility.yul\":334:460   */\n      swap2\n      swap1\n      pop\n      jump\t// out\n        /* \"#utility.yul\":466:562   */\n    tag_73:\n        /* \"#utility.yul\":503:510   */\n      0x00\n        /* \"#utility.yul\":532:556   */\n      tag_93\n        /* \"#utility.yul\":550:555   */\n      dup3\n        /* \"#utility.yul\":532:556   */\n      tag_72\n      jump\t// in\n    tag_93:\n        /* \"#utility.yul\":521:556   */\n      swap1\n      pop\n        /* \"#utility.yul\":466:562   */\n      swap2\n      swap1\n      pop\n      jump\t// out\n        /* \"#utility.yul\":568:690   */\n    tag_74:\n        /* \"#utility.yul\":641:665   */\n      tag_95\n        /* \"#utility.yul\":659:664   */\n      dup2\n        /* \"#utility.yul\":641:665   */\n      tag_73\n      jump\t// in\n    tag_95:\n        /* \"#utility.yul\":634:639   */\n      dup2\n        /* \"#utility.yul\":631:666   */\n      eq\n        /* \"#utility.yul\":621:684   */\n      tag_96\n      jumpi\n        /* \"#utility.yul\":680:681   */\n      0x00\n        /* \"#utility.yul\":677:678   */\n      dup1\n        /* \"#utility.yul\":670:682   */\n      revert\n        /* \"#utility.yul\":621:684   */\n    tag_96:\n        /* \"#utility.yul\":568:690   */\n      pop\n      jump\t// out\n        /* \"#utility.yul\":696:835   */\n    tag_75:\n        /* \"#utility.yul\":742:747   */\n      0x00\n        /* \"#utility.yul\":780:786   */\n      dup2\n        /* \"#utility.yul\":767:787   */\n      calldataload\n        /* \"#utility.yul\":758:787   */\n      swap1\n      pop\n        /* \"#utility.yul\":796:829   */\n      tag_98\n        /* \"#utility.yul\":823:828   */\n      dup2\n        /* \"#utility.yul\":796:829   */\n      tag_74\n      jump\t// in\n    tag_98:\n        /* \"#utility.yul\":696:835   */\n      swap3\n      swap2\n      pop\n      pop\n      jump\t// out\n        /* \"#utility.yul\":841:1170   */\n    tag_10:\n        /* \"#utility.yul\":900:906   */\n      0x00\n        /* \"#utility.yul\":949:951   */\n      0x20\n        /* \"#utility.yul\":937:946   */\n      dup3\n        /* \"#utility.yul\":928:935   */\n      dup5\n        /* \"#utility.yul\":924:947   */\n      sub\n        /* \"#utility.yul\":920:952   */\n      slt\n        /* \"#utility.yul\":917:1036   */\n      iszero\n      tag_100\n      jumpi\n        /* \"#utility.yul\":955:1034   */\n      tag_101\n      tag_70\n      jump\t// in\n    tag_101:\n        /* \"#utility.yul\":917:1036   */\n    tag_100:\n        /* \"#utility.yul\":1075:1076   */\n      0x00\n        /* \"#utility.yul\":1100:1153   */\n      tag_102\n        /* \"#utility.yul\":1145:1152   */\n      dup5\n        /* \"#utility.yul\":1136:1142   */\n      dup3\n        /* \"#utility.yul\":1125:1134   */\n      dup6\n        /* \"#utility.yul\":1121:1143   */\n      add\n        /* \"#utility.yul\":1100:1153   */\n      tag_75\n      jump\t// in\n    tag_102:\n        /* \"#utility.yul\":1090:1153   */\n      swap2\n      pop\n        /* \"#utility.yul\":1046:1163   */\n      pop\n        /* \"#utility.yul\":841:1170   */\n      swap3\n      swap2\n      pop\n      pop\n      jump\t// out\n        /* \"#utility.yul\":1176:1266   */\n    tag_76:\n        /* \"#utility.yul\":1210:1217   */\n      0x00\n        /* \"#utility.yul\":1253:1258   */\n      dup2\n        /* \"#utility.yul\":1246:1259   */\n      iszero\n        /* \"#utility.yul\":1239:1260   */\n      iszero\n        /* \"#utility.yul\":1228:1260   */\n      swap1\n      pop\n        /* \"#utility.yul\":1176:1266   */\n      swap2\n      swap1\n      pop\n      jump\t// out\n        /* \"#utility.yul\":1272:1381   */\n    tag_77:\n        /* \"#utility.yul\":1353:1374   */\n      tag_105\n        /* \"#utility.yul\":1368:1373   */\n      dup2\n        /* \"#utility.yul\":1353:1374   */\n      tag_76\n      jump\t// in\n    tag_105:\n        /* \"#utility.yul\":1348:1351   */\n      dup3\n        /* \"#utility.yul\":1341:1375   */\n      mstore\n        /* \"#utility.yul\":1272:1381   */\n      pop\n      pop\n      jump\t// out\n        /* \"#utility.yul\":1387:1597   */\n    tag_18:\n        /* \"#utility.yul\":1474:1478   */\n      0x00\n        /* \"#utility.yul\":1512:1514   */\n      0x20\n        /* \"#utility.yul\":1501:1510   */\n      dup3\n        /* \"#utility.yul\":1497:1515   */\n      add\n        /* \"#utility.yul\":1489:1515   */\n      swap1\n      pop\n        /* \"#utility.yul\":1525:1590   */\n      tag_107\n        /* \"#utility.yul\":1587:1588   */\n      0x00\n        /* \"#utility.yul\":1576:1585   */\n      dup4\n        /* \"#utility.yul\":1572:1589   */\n      add\n        /* \"#utility.yul\":1563:1569   */\n      dup5\n        /* \"#utility.yul\":1525:1590   */\n      tag_77\n      jump\t// in\n    tag_107:\n        /* \"#utility.yul\":1387:1597   */\n      swap3\n      swap2\n      pop\n      pop\n      jump\t// out\n        /* \"#utility.yul\":1603:1783   */\n    tag_29:\n        /* \"#utility.yul\":1651:1728   */\n      0x4e487b7100000000000000000000000000000000000000000000000000000000\n        /* \"#utility.yul\":1648:1649   */\n      0x00\n        /* \"#utility.yul\":1641:1729   */\n      mstore\n        /* \"#utility.yul\":1748:1752   */\n      0x21\n        /* \"#utility.yul\":1745:1746   */\n      0x04\n        /* \"#utility.yul\":1738:1753   */\n      mstore\n        /* \"#utility.yul\":1772:1776   */\n      0x24\n        /* \"#utility.yul\":1769:1770   */\n      0x00\n        /* \"#utility.yul\":1762:1777   */\n      revert\n        /* \"#utility.yul\":1789:1905   */\n    tag_78:\n        /* \"#utility.yul\":1873:1874   */\n      0x03\n        /* \"#utility.yul\":1866:1871   */\n      dup2\n        /* \"#utility.yul\":1863:1875   */\n      lt\n        /* \"#utility.yul\":1853:1899   */\n      tag_110\n      jumpi\n        /* \"#utility.yul\":1879:1897   */\n      tag_111\n      tag_29\n      jump\t// in\n    tag_111:\n        /* \"#utility.yul\":1853:1899   */\n    tag_110:\n        /* \"#utility.yul\":1789:1905   */\n      pop\n      jump\t// out\n        /* \"#utility.yul\":1911:2044   */\n    tag_79:\n        /* \"#utility.yul\":1959:1966   */\n      0x00\n        /* \"#utility.yul\":1988:1993   */\n      dup2\n        /* \"#utility.yul\":1977:1993   */\n      swap1\n      pop\n        /* \"#utility.yul\":1994:2038   */\n      tag_113\n        /* \"#utility.yul\":2032:2037   */\n      dup3\n        /* \"#utility.yul\":1994:2038   */\n      tag_78\n      jump\t// in\n    tag_113:\n        /* \"#utility.yul\":1911:2044   */\n      swap2\n      swap1\n      pop\n      jump\t// out\n        /* \"#utility.yul\":2050:2183   */\n    tag_80:\n        /* \"#utility.yul\":2109:2118   */\n      0x00\n        /* \"#utility.yul\":2142:2177   */\n      tag_115\n        /* \"#utility.yul\":2171:2176   */\n      dup3\n        /* \"#utility.yul\":2142:2177   */\n      tag_79\n      jump\t// in\n    tag_115:\n        /* \"#utility.yul\":2129:2177   */\n      swap1\n      pop\n        /* \"#utility.yul\":2050:2183   */\n      swap2\n      swap1\n      pop\n      jump\t// out\n        /* \"#utility.yul\":2189:2338   */\n    tag_81:\n        /* \"#utility.yul\":2285:2331   */\n      tag_117\n        /* \"#utility.yul\":2325:2330   */\n      dup2\n        /* \"#utility.yul\":2285:2331   */\n      tag_80\n      jump\t// in\n    tag_117:\n        /* \"#utility.yul\":2280:2283   */\n      dup3\n        /* \"#utility.yul\":2273:2332   */\n      mstore\n        /* \"#utility.yul\":2189:2338   */\n      pop\n      pop\n      jump\t// out\n        /* \"#utility.yul\":2344:2584   */\n    tag_25:\n        /* \"#utility.yul\":2446:2450   */\n      0x00\n        /* \"#utility.yul\":2484:2486   */\n      0x20\n        /* \"#utility.yul\":2473:2482   */\n      dup3\n        /* \"#utility.yul\":2469:2487   */\n      add\n        /* \"#utility.yul\":2461:2487   */\n      swap1\n      pop\n        /* \"#utility.yul\":2497:2577   */\n      tag_119\n        /* \"#utility.yul\":2574:2575   */\n      0x00\n        /* \"#utility.yul\":2563:2572   */\n      dup4\n        /* \"#utility.yul\":2559:2576   */\n      add\n        /* \"#utility.yul\":2550:2556   */\n      dup5\n        /* \"#utility.yul\":2497:2577   */\n      tag_81\n      jump\t// in\n    tag_119:\n        /* \"#utility.yul\":2344:2584   */\n      swap3\n      swap2\n      pop\n      pop\n      jump\t// out\n        /* \"#utility.yul\":2590:2689   */\n    tag_82:\n        /* \"#utility.yul\":2642:2648   */\n      0x00\n        /* \"#utility.yul\":2676:2681   */\n      dup2\n        /* \"#utility.yul\":2670:2682   */\n      mload\n        /* \"#utility.yul\":2660:2682   */\n      swap1\n      pop\n        /* \"#utility.yul\":2590:2689   */\n      swap2\n      swap1\n      pop\n      jump\t// out\n        /* \"#utility.yul\":2695:2864   */\n    tag_83:\n        /* \"#utility.yul\":2779:2790   */\n      0x00\n        /* \"#utility.yul\":2813:2819   */\n      dup3\n        /* \"#utility.yul\":2808:2811   */\n      dup3\n        /* \"#utility.yul\":2801:2820   */\n      mstore\n        /* \"#utility.yul\":2853:2857   */\n      0x20\n        /* \"#utility.yul\":2848:2851   */\n      dup3\n        /* \"#utility.yul\":2844:2858   */\n      add\n        /* \"#utility.yul\":2829:2858   */\n      swap1\n      pop\n        /* \"#utility.yul\":2695:2864   */\n      swap3\n      swap2\n      pop\n      pop\n      jump\t// out\n        /* \"#utility.yul\":2870:3009   */\n    tag_84:\n        /* \"#utility.yul\":2959:2965   */\n      dup3\n        /* \"#utility.yul\":2954:2957   */\n      dup2\n        /* \"#utility.yul\":2949:2952   */\n      dup4\n        /* \"#utility.yul\":2943:2966   */\n      mcopy\n        /* \"#utility.yul\":3000:3001   */\n      0x00\n        /* \"#utility.yul\":2991:2997   */\n      dup4\n        /* \"#utility.yul\":2986:2989   */\n      dup4\n        /* \"#utility.yul\":2982:2998   */\n      add\n        /* \"#utility.yul\":2975:3002   */\n      mstore\n        /* \"#utility.yul\":2870:3009   */\n      pop\n      pop\n      pop\n      jump\t// out\n        /* \"#utility.yul\":3015:3117   */\n    tag_85:\n        /* \"#utility.yul\":3056:3062   */\n      0x00\n        /* \"#utility.yul\":3107:3109   */\n      0x1f\n        /* \"#utility.yul\":3103:3110   */\n      not\n        /* \"#utility.yul\":3098:3100   */\n      0x1f\n        /* \"#utility.yul\":3091:3096   */\n      dup4\n        /* \"#utility.yul\":3087:3101   */\n      add\n        /* \"#utility.yul\":3083:3111   */\n      and\n        /* \"#utility.yul\":3073:3111   */\n      swap1\n      pop\n        /* \"#utility.yul\":3015:3117   */\n      swap2\n      swap1\n      pop\n      jump\t// out\n        /* \"#utility.yul\":3123:3500   */\n    tag_86:\n        /* \"#utility.yul\":3211:3214   */\n      0x00\n        /* \"#utility.yul\":3239:3278   */\n      tag_125\n        /* \"#utility.yul\":3272:3277   */\n      dup3\n        /* \"#utility.yul\":3239:3278   */\n      tag_82\n      jump\t// in\n    tag_125:\n        /* \"#utility.yul\":3294:3365   */\n      tag_126\n        /* \"#utility.yul\":3358:3364   */\n      dup2\n        /* \"#utility.yul\":3353:3356   */\n      dup6\n        /* \"#utility.yul\":3294:3365   */\n      tag_83\n      jump\t// in\n    tag_126:\n        /* \"#utility.yul\":3287:3365   */\n      swap4\n      pop\n        /* \"#utility.yul\":3374:3439   */\n      tag_127\n        /* \"#utility.yul\":3432:3438   */\n      dup2\n        /* \"#utility.yul\":3427:3430   */\n      dup6\n        /* \"#utility.yul\":3420:3424   */\n      0x20\n        /* \"#utility.yul\":3413:3418   */\n      dup7\n        /* \"#utility.yul\":3409:3425   */\n      add\n        /* \"#utility.yul\":3374:3439   */\n      tag_84\n      jump\t// in\n    tag_127:\n        /* \"#utility.yul\":3464:3493   */\n      tag_128\n        /* \"#utility.yul\":3486:3492   */\n      dup2\n        /* \"#utility.yul\":3464:3493   */\n      tag_85\n      jump\t// in\n    tag_128:\n        /* \"#utility.yul\":3459:3462   */\n      dup5\n        /* \"#utility.yul\":3455:3494   */\n      add\n        /* \"#utility.yul\":3448:3494   */\n      swap2\n      pop\n        /* \"#utility.yul\":3215:3500   */\n      pop\n        /* \"#utility.yul\":3123:3500   */\n      swap3\n      swap2\n      pop\n      pop\n      jump\t// out\n        /* \"#utility.yul\":3506:3819   */\n    tag_35:\n        /* \"#utility.yul\":3619:3623   */\n      0x00\n        /* \"#utility.yul\":3657:3659   */\n      0x20\n        /* \"#utility.yul\":3646:3655   */\n      dup3\n        /* \"#utility.yul\":3642:3660   */\n      add\n        /* \"#utility.yul\":3634:3660   */\n      swap1\n      pop\n        /* \"#utility.yul\":3706:3715   */\n      dup2\n        /* \"#utility.yul\":3700:3704   */\n      dup2\n        /* \"#utility.yul\":3696:3716   */\n      sub\n        /* \"#utility.yul\":3692:3693   */\n      0x00\n        /* \"#utility.yul\":3681:3690   */\n      dup4\n        /* \"#utility.yul\":3677:3694   */\n      add\n        /* \"#utility.yul\":3670:3717   */\n      mstore\n        /* \"#utility.yul\":3734:3812   */\n      tag_130\n        /* \"#utility.yul\":3807:3811   */\n      dup2\n        /* \"#utility.yul\":3798:3804   */\n      dup5\n        /* \"#utility.yul\":3734:3812   */\n      tag_86\n      jump\t// in\n    tag_130:\n        /* \"#utility.yul\":3726:3812   */\n      swap1\n      pop\n        /* \"#utility.yul\":3506:3819   */\n      swap3\n      swap2\n      pop\n      pop\n      jump\t// out\n\n    auxdata: 0xa2646970667358221220d71a0fe94e5badc1796dd125caf56571eb390c7f419eb7760dfba3844eca871364736f6c634300081a0033\n}\n",
				"bytecode": {
					"linkReferences": {},
					"object": "6080604052348015600e575f80fd5b505f805f3373ffffffffffffffffffffffffffffffffffffffff1673ffffffffffffffffffffffffffffffffffffffff1681526020019081526020015f205f6101000a81548160ff02191690836002811115606a5760696073565b5b021790555060a0565b7f4e487b71000000000000000000000000000000000000000000000000000000005f52602160045260245ffd5b6106b5806100ad5f395ff3fe608060405234801561000f575f80fd5b5060043610610055575f3560e01c80632e1cd6c2146100595780634adc7cfd146100755780639805524a14610091578063f10a45d4146100af578063fde08174146100cb575b5f80fd5b610073600480360381019061006e9190610505565b6100e9565b005b61008f600480360381019061008a9190610505565b6101f8565b005b610099610306565b6040516100a6919061054a565b60405180910390f35b6100c960048036038101906100c49190610505565b610349565b005b6100d3610458565b6040516100e091906105d6565b60405180910390f35b5f8060028111156100fd576100fc610563565b5b610105610458565b600281111561011757610116610563565b5b146040518060400160405280600c81526020017f554e415554484f52495a454400000000000000000000000000000000000000008152509061018f576040517f08c379a0000000000000000000000000000000000000000000000000000000008152600401610186919061065f565b60405180910390fd5b5060025f808473ffffffffffffffffffffffffffffffffffffffff1673ffffffffffffffffffffffffffffffffffffffff1681526020019081526020015f205f6101000a81548160ff021916908360028111156101ef576101ee610563565b5b02179055505050565b5f80600281111561020c5761020b610563565b5b610214610458565b600281111561022657610225610563565b5b146040518060400160405280600c81526020017f554e415554484f52495a454400000000000000000000000000000000000000008152509061029e576040517f08c379a0000000000000000000000000000000000000000000000000000000008152600401610295919061065f565b60405180910390fd5b505f805f8473ffffffffffffffffffffffffffffffffffffffff1673ffffffffffffffffffffffffffffffffffffffff1681526020019081526020015f205f6101000a81548160ff021916908360028111156102fd576102fc610563565b5b02179055505050565b5f80600281111561031a57610319610563565b5b610322610458565b600281111561033457610333610563565b5b036103425760019050610346565b5f90505b90565b5f80600281111561035d5761035c610563565b5b610365610458565b600281111561037757610376610563565b5b146040518060400160405280600c81526020017f554e415554484f52495a45440000000000000000000000000000000000000000815250906103ef576040517f08c379a00000000000000000000000000000000000000000000000000000000081526004016103e6919061065f565b60405180910390fd5b5060015f808473ffffffffffffffffffffffffffffffffffffffff1673ffffffffffffffffffffffffffffffffffffffff1681526020019081526020015f205f6101000a81548160ff0219169083600281111561044f5761044e610563565b5b02179055505050565b5f805f3373ffffffffffffffffffffffffffffffffffffffff1673ffffffffffffffffffffffffffffffffffffffff1681526020019081526020015f205f9054906101000a900460ff16905090565b5f80fd5b5f73ffffffffffffffffffffffffffffffffffffffff82169050919050565b5f6104d4826104ab565b9050919050565b6104e4816104ca565b81146104ee575f80fd5b50565b5f813590506104ff816104db565b92915050565b5f6020828403121561051a576105196104a7565b5b5f610527848285016104f1565b91505092915050565b5f8115159050919050565b61054481610530565b82525050565b5f60208201905061055d5f83018461053b565b92915050565b7f4e487b71000000000000000000000000000000000000000000000000000000005f52602160045260245ffd5b600381106105a1576105a0610563565b5b50565b5f8190506105b182610590565b919050565b5f6105c0826105a4565b9050919050565b6105d0816105b6565b82525050565b5f6020820190506105e95f8301846105c7565b92915050565b5f81519050919050565b5f82825260208201905092915050565b8281835e5f83830152505050565b5f601f19601f8301169050919050565b5f610631826105ef565b61063b81856105f9565b935061064b818560208601610609565b61065481610617565b840191505092915050565b5f6020820190508181035f8301526106778184610627565b90509291505056fea2646970667358221220d71a0fe94e5badc1796dd125caf56571eb390c7f419eb7760dfba3844eca871364736f6c634300081a0033",
					"opcodes": "PUSH1 0x80 PUSH1 0x40 MSTORE CALLVALUE DUP1 ISZERO PUSH1 0xE JUMPI PUSH0 DUP1 REVERT JUMPDEST POP PUSH0 DUP1 PUSH0 CALLER PUSH20 0xFFFFFFFFFFFFFFFFFFFFFFFFFFFFFFFFFFFFFFFF AND PUSH20 0xFFFFFFFFFFFFFFFFFFFFFFFFFFFFFFFFFFFFFFFF AND DUP2 MSTORE PUSH1 0x20 ADD SWAP1 DUP2 MSTORE PUSH1 0x20 ADD PUSH0 KECCAK256 PUSH0 PUSH2 0x100 EXP DUP2 SLOAD DUP2 PUSH1 0xFF MUL NOT AND SWAP1 DUP4 PUSH1 0x2 DUP2 GT ISZERO PUSH1 0x6A JUMPI PUSH1 0x69 PUSH1 0x73 JUMP JUMPDEST JUMPDEST MUL OR SWAP1 SSTORE POP PUSH1 0xA0 JUMP JUMPDEST PUSH32 0x4E487B7100000000000000000000000000000000000000000000000000000000 PUSH0 MSTORE PUSH1 0x21 PUSH1 0x4 MSTORE PUSH1 0x24 PUSH0 REVERT JUMPDEST PUSH2 0x6B5 DUP1 PUSH2 0xAD PUSH0 CODECOPY PUSH0 RETURN INVALID PUSH1 0x80 PUSH1 0x40 MSTORE CALLVALUE DUP1 ISZERO PUSH2 0xF JUMPI PUSH0 DUP1 REVERT JUMPDEST POP PUSH1 0x4 CALLDATASIZE LT PUSH2 0x55 JUMPI PUSH0 CALLDATALOAD PUSH1 0xE0 SHR DUP1 PUSH4 0x2E1CD6C2 EQ PUSH2 0x59 JUMPI DUP1 PUSH4 0x4ADC7CFD EQ PUSH2 0x75 JUMPI DUP1 PUSH4 0x9805524A EQ PUSH2 0x91 JUMPI DUP1 PUSH4 0xF10A45D4 EQ PUSH2 0xAF JUMPI DUP1 PUSH4 0xFDE08174 EQ PUSH2 0xCB JUMPI JUMPDEST PUSH0 DUP1 REVERT JUMPDEST PUSH2 0x73 PUSH1 0x4 DUP1 CALLDATASIZE SUB DUP2 ADD SWAP1 PUSH2 0x6E SWAP2 SWAP1 PUSH2 0x505 JUMP JUMPDEST PUSH2 0xE9 JUMP JUMPDEST STOP JUMPDEST PUSH2 0x8F PUSH1 0x4 DUP1 CALLDATASIZE SUB DUP2 ADD SWAP1 PUSH2 0x8A SWAP2 SWAP1 PUSH2 0x505 JUMP JUMPDEST PUSH2 0x1F8 JUMP JUMPDEST STOP JUMPDEST PUSH2 0x99 PUSH2 0x306 JUMP JUMPDEST PUSH1 0x40 MLOAD PUSH2 0xA6 SWAP2 SWAP1 PUSH2 0x54A JUMP JUMPDEST PUSH1 0x40 MLOAD DUP1 SWAP2 SUB SWAP1 RETURN JUMPDEST PUSH2 0xC9 PUSH1 0x4 DUP1 CALLDATASIZE SUB DUP2 ADD SWAP1 PUSH2 0xC4 SWAP2 SWAP1 PUSH2 0x505 JUMP JUMPDEST PUSH2 0x349 JUMP JUMPDEST STOP JUMPDEST PUSH2 0xD3 PUSH2 0x458 JUMP JUMPDEST PUSH1 0x40 MLOAD PUSH2 0xE0 SWAP2 SWAP1 PUSH2 0x5D6 JUMP JUMPDEST PUSH1 0x40 MLOAD DUP1 SWAP2 SUB SWAP1 RETURN JUMPDEST PUSH0 DUP1 PUSH1 0x2 DUP2 GT ISZERO PUSH2 0xFD JUMPI PUSH2 0xFC PUSH2 0x563 JUMP JUMPDEST JUMPDEST PUSH2 0x105 PUSH2 0x458 JUMP JUMPDEST PUSH1 0x2 DUP2 GT ISZERO PUSH2 0x117 JUMPI PUSH2 0x116 PUSH2 0x563 JUMP JUMPDEST JUMPDEST EQ PUSH1 0x40 MLOAD DUP1 PUSH1 0x40 ADD PUSH1 0x40 MSTORE DUP1 PUSH1 0xC DUP2 MSTORE PUSH1 0x20 ADD PUSH32 0x554E415554484F52495A45440000000000000000000000000000000000000000 DUP2 MSTORE POP SWAP1 PUSH2 0x18F JUMPI PUSH1 0x40 MLOAD PUSH32 0x8C379A000000000000000000000000000000000000000000000000000000000 DUP2 MSTORE PUSH1 0x4 ADD PUSH2 0x186 SWAP2 SWAP1 PUSH2 0x65F JUMP JUMPDEST PUSH1 0x40 MLOAD DUP1 SWAP2 SUB SWAP1 REVERT JUMPDEST POP PUSH1 0x2 PUSH0 DUP1 DUP5 PUSH20 0xFFFFFFFFFFFFFFFFFFFFFFFFFFFFFFFFFFFFFFFF AND PUSH20 0xFFFFFFFFFFFFFFFFFFFFFFFFFFFFFFFFFFFFFFFF AND DUP2 MSTORE PUSH1 0x20 ADD SWAP1 DUP2 MSTORE PUSH1 0x20 ADD PUSH0 KECCAK256 PUSH0 PUSH2 0x100 EXP DUP2 SLOAD DUP2 PUSH1 0xFF MUL NOT AND SWAP1 DUP4 PUSH1 0x2 DUP2 GT ISZERO PUSH2 0x1EF JUMPI PUSH2 0x1EE PUSH2 0x563 JUMP JUMPDEST JUMPDEST MUL OR SWAP1 SSTORE POP POP POP JUMP JUMPDEST PUSH0 DUP1 PUSH1 0x2 DUP2 GT ISZERO PUSH2 0x20C JUMPI PUSH2 0x20B PUSH2 0x563 JUMP JUMPDEST JUMPDEST PUSH2 0x214 PUSH2 0x458 JUMP JUMPDEST PUSH1 0x2 DUP2 GT ISZERO PUSH2 0x226 JUMPI PUSH2 0x225 PUSH2 0x563 JUMP JUMPDEST JUMPDEST EQ PUSH1 0x40 MLOAD DUP1 PUSH1 0x40 ADD PUSH1 0x40 MSTORE DUP1 PUSH1 0xC DUP2 MSTORE PUSH1 0x20 ADD PUSH32 0x554E415554484F52495A45440000000000000000000000000000000000000000 DUP2 MSTORE POP SWAP1 PUSH2 0x29E JUMPI PUSH1 0x40 MLOAD PUSH32 0x8C379A000000000000000000000000000000000000000000000000000000000 DUP2 MSTORE PUSH1 0x4 ADD PUSH2 0x295 SWAP2 SWAP1 PUSH2 0x65F JUMP JUMPDEST PUSH1 0x40 MLOAD DUP1 SWAP2 SUB SWAP1 REVERT JUMPDEST POP PUSH0 DUP1 PUSH0 DUP5 PUSH20 0xFFFFFFFFFFFFFFFFFFFFFFFFFFFFFFFFFFFFFFFF AND PUSH20 0xFFFFFFFFFFFFFFFFFFFFFFFFFFFFFFFFFFFFFFFF AND DUP2 MSTORE PUSH1 0x20 ADD SWAP1 DUP2 MSTORE PUSH1 0x20 ADD PUSH0 KECCAK256 PUSH0 PUSH2 0x100 EXP DUP2 SLOAD DUP2 PUSH1 0xFF MUL NOT AND SWAP1 DUP4 PUSH1 0x2 DUP2 GT ISZERO PUSH2 0x2FD JUMPI PUSH2 0x2FC PUSH2 0x563 JUMP JUMPDEST JUMPDEST MUL OR SWAP1 SSTORE POP POP POP JUMP JUMPDEST PUSH0 DUP1 PUSH1 0x2 DUP2 GT ISZERO PUSH2 0x31A JUMPI PUSH2 0x319 PUSH2 0x563 JUMP JUMPDEST JUMPDEST PUSH2 0x322 PUSH2 0x458 JUMP JUMPDEST PUSH1 0x2 DUP2 GT ISZERO PUSH2 0x334 JUMPI PUSH2 0x333 PUSH2 0x563 JUMP JUMPDEST JUMPDEST SUB PUSH2 0x342 JUMPI PUSH1 0x1 SWAP1 POP PUSH2 0x346 JUMP JUMPDEST PUSH0 SWAP1 POP JUMPDEST SWAP1 JUMP JUMPDEST PUSH0 DUP1 PUSH1 0x2 DUP2 GT ISZERO PUSH2 0x35D JUMPI PUSH2 0x35C PUSH2 0x563 JUMP JUMPDEST JUMPDEST PUSH2 0x365 PUSH2 0x458 JUMP JUMPDEST PUSH1 0x2 DUP2 GT ISZERO PUSH2 0x377 JUMPI PUSH2 0x376 PUSH2 0x563 JUMP JUMPDEST JUMPDEST EQ PUSH1 0x40 MLOAD DUP1 PUSH1 0x40 ADD PUSH1 0x40 MSTORE DUP1 PUSH1 0xC DUP2 MSTORE PUSH1 0x20 ADD PUSH32 0x554E415554484F52495A45440000000000000000000000000000000000000000 DUP2 MSTORE POP SWAP1 PUSH2 0x3EF JUMPI PUSH1 0x40 MLOAD PUSH32 0x8C379A000000000000000000000000000000000000000000000000000000000 DUP2 MSTORE PUSH1 0x4 ADD PUSH2 0x3E6 SWAP2 SWAP1 PUSH2 0x65F JUMP JUMPDEST PUSH1 0x40 MLOAD DUP1 SWAP2 SUB SWAP1 REVERT JUMPDEST POP PUSH1 0x1 PUSH0 DUP1 DUP5 PUSH20 0xFFFFFFFFFFFFFFFFFFFFFFFFFFFFFFFFFFFFFFFF AND PUSH20 0xFFFFFFFFFFFFFFFFFFFFFFFFFFFFFFFFFFFFFFFF AND DUP2 MSTORE PUSH1 0x20 ADD SWAP1 DUP2 MSTORE PUSH1 0x20 ADD PUSH0 KECCAK256 PUSH0 PUSH2 0x100 EXP DUP2 SLOAD DUP2 PUSH1 0xFF MUL NOT AND SWAP1 DUP4 PUSH1 0x2 DUP2 GT ISZERO PUSH2 0x44F JUMPI PUSH2 0x44E PUSH2 0x563 JUMP JUMPDEST JUMPDEST MUL OR SWAP1 SSTORE POP POP POP JUMP JUMPDEST PUSH0 DUP1 PUSH0 CALLER PUSH20 0xFFFFFFFFFFFFFFFFFFFFFFFFFFFFFFFFFFFFFFFF AND PUSH20 0xFFFFFFFFFFFFFFFFFFFFFFFFFFFFFFFFFFFFFFFF AND DUP2 MSTORE PUSH1 0x20 ADD SWAP1 DUP2 MSTORE PUSH1 0x20 ADD PUSH0 KECCAK256 PUSH0 SWAP1 SLOAD SWAP1 PUSH2 0x100 EXP SWAP1 DIV PUSH1 0xFF AND SWAP1 POP SWAP1 JUMP JUMPDEST PUSH0 DUP1 REVERT JUMPDEST PUSH0 PUSH20 0xFFFFFFFFFFFFFFFFFFFFFFFFFFFFFFFFFFFFFFFF DUP3 AND SWAP1 POP SWAP2 SWAP1 POP JUMP JUMPDEST PUSH0 PUSH2 0x4D4 DUP3 PUSH2 0x4AB JUMP JUMPDEST SWAP1 POP SWAP2 SWAP1 POP JUMP JUMPDEST PUSH2 0x4E4 DUP2 PUSH2 0x4CA JUMP JUMPDEST DUP2 EQ PUSH2 0x4EE JUMPI PUSH0 DUP1 REVERT JUMPDEST POP JUMP JUMPDEST PUSH0 DUP2 CALLDATALOAD SWAP1 POP PUSH2 0x4FF DUP2 PUSH2 0x4DB JUMP JUMPDEST SWAP3 SWAP2 POP POP JUMP JUMPDEST PUSH0 PUSH1 0x20 DUP3 DUP5 SUB SLT ISZERO PUSH2 0x51A JUMPI PUSH2 0x519 PUSH2 0x4A7 JUMP JUMPDEST JUMPDEST PUSH0 PUSH2 0x527 DUP5 DUP3 DUP6 ADD PUSH2 0x4F1 JUMP JUMPDEST SWAP2 POP POP SWAP3 SWAP2 POP POP JUMP JUMPDEST PUSH0 DUP2 ISZERO ISZERO SWAP1 POP SWAP2 SWAP1 POP JUMP JUMPDEST PUSH2 0x544 DUP2 PUSH2 0x530 JUMP JUMPDEST DUP3 MSTORE POP POP JUMP JUMPDEST PUSH0 PUSH1 0x20 DUP3 ADD SWAP1 POP PUSH2 0x55D PUSH0 DUP4 ADD DUP5 PUSH2 0x53B JUMP JUMPDEST SWAP3 SWAP2 POP POP JUMP JUMPDEST PUSH32 0x4E487B7100000000000000000000000000000000000000000000000000000000 PUSH0 MSTORE PUSH1 0x21 PUSH1 0x4 MSTORE PUSH1 0x24 PUSH0 REVERT JUMPDEST PUSH1 0x3 DUP2 LT PUSH2 0x5A1 JUMPI PUSH2 0x5A0 PUSH2 0x563 JUMP JUMPDEST JUMPDEST POP JUMP JUMPDEST PUSH0 DUP2 SWAP1 POP PUSH2 0x5B1 DUP3 PUSH2 0x590 JUMP JUMPDEST SWAP2 SWAP1 POP JUMP JUMPDEST PUSH0 PUSH2 0x5C0 DUP3 PUSH2 0x5A4 JUMP JUMPDEST SWAP1 POP SWAP2 SWAP1 POP JUMP JUMPDEST PUSH2 0x5D0 DUP2 PUSH2 0x5B6 JUMP JUMPDEST DUP3 MSTORE POP POP JUMP JUMPDEST PUSH0 PUSH1 0x20 DUP3 ADD SWAP1 POP PUSH2 0x5E9 PUSH0 DUP4 ADD DUP5 PUSH2 0x5C7 JUMP JUMPDEST SWAP3 SWAP2 POP POP JUMP JUMPDEST PUSH0 DUP2 MLOAD SWAP1 POP SWAP2 SWAP1 POP JUMP JUMPDEST PUSH0 DUP3 DUP3 MSTORE PUSH1 0x20 DUP3 ADD SWAP1 POP SWAP3 SWAP2 POP POP JUMP JUMPDEST DUP3 DUP2 DUP4 MCOPY PUSH0 DUP4 DUP4 ADD MSTORE POP POP POP JUMP JUMPDEST PUSH0 PUSH1 0x1F NOT PUSH1 0x1F DUP4 ADD AND SWAP1 POP SWAP2 SWAP1 POP JUMP JUMPDEST PUSH0 PUSH2 0x631 DUP3 PUSH2 0x5EF JUMP JUMPDEST PUSH2 0x63B DUP2 DUP6 PUSH2 0x5F9 JUMP JUMPDEST SWAP4 POP PUSH2 0x64B DUP2 DUP6 PUSH1 0x20 DUP7 ADD PUSH2 0x609 JUMP JUMPDEST PUSH2 0x654 DUP2 PUSH2 0x617 JUMP JUMPDEST DUP5 ADD SWAP2 POP POP SWAP3 SWAP2 POP POP JUMP JUMPDEST PUSH0 PUSH1 0x20 DUP3 ADD SWAP1 POP DUP2 DUP2 SUB PUSH0 DUP4 ADD MSTORE PUSH2 0x677 DUP2 DUP5 PUSH2 0x627 JUMP JUMPDEST SWAP1 POP SWAP3 SWAP2 POP POP JUMP INVALID LOG2 PUSH5 0x6970667358 0x22 SLT KECCAK256 0xD7 BYTE 0xF 0xE9 0x4E JUMPDEST 0xAD 0xC1 PUSH26 0x6DD125CAF56571EB390C7F419EB7760DFBA3844ECA871364736F PUSH13 0x634300081A0033000000000000 "
				},
				"gasEstimates": {
					"creation": {
						"codeDepositCost": "343400",
						"executionCost": "24762",
						"totalCost": "368162"
					},
					"external": {
						"getRole()": "2714",
						"isCurrentUserAdmin()": "2702",
						"setAdminRole(address)": "infinite",
						"setOrganizationRole(address)": "infinite",
						"setStudentRole(address)": "infinite"
					}
				},
				"methodIdentifiers": {
					"getRole()": "fde08174",
					"isCurrentUserAdmin()": "9805524a",
					"setAdminRole(address)": "4adc7cfd",
					"setOrganizationRole(address)": "f10a45d4",
					"setStudentRole(address)": "2e1cd6c2"
				}
			},
			"storageLayout": {
				"storage": [
					{
						"astId": 23,
						"contract": "contracts/RoleManager.sol:RoleManagerContract",
						"label": "userRoles",
						"offset": 0,
						"slot": "0",
						"type": "t_mapping(t_address,t_enum(RoleType)18)"
					}
				],
				"types": {
					"t_address": {
						"encoding": "inplace",
						"label": "address",
						"numberOfBytes": "20"
					},
					"t_enum(RoleType)18": {
						"encoding": "inplace",
						"label": "enum RoleManagerContract.RoleType",
						"numberOfBytes": "1"
					},
					"t_mapping(t_address,t_enum(RoleType)18)": {
						"encoding": "mapping",
						"key": "t_address",
						"label": "mapping(address => enum RoleManagerContract.RoleType)",
						"numberOfBytes": "32",
						"value": "t_enum(RoleType)18"
					}
				}
			},
			"userdoc": {
				"kind": "user",
				"methods": {},
				"version": 1
			}
		}
	}
}