{
	"contracts/UserManager.sol": {
		"UserManagerContract": {
			"abi": [
				{
					"inputs": [
						{
							"internalType": "address",
							"name": "_roleManagerAddress",
							"type": "address"
						}
					],
					"stateMutability": "nonpayable",
					"type": "constructor"
				},
				{
					"inputs": [
						{
							"internalType": "address",
							"name": "userAddr",
							"type": "address"
						},
						{
							"internalType": "uint256",
							"name": "tokenId",
							"type": "uint256"
						}
					],
					"name": "addNftToUser",
					"outputs": [],
					"stateMutability": "nonpayable",
					"type": "function"
				},
				{
					"inputs": [
						{
							"internalType": "string",
							"name": "_fullName",
							"type": "string"
						},
						{
							"internalType": "uint256",
							"name": "_dateOfBirth",
							"type": "uint256"
						},
						{
							"internalType": "enum UserManagerContract.Gender",
							"name": "_gender",
							"type": "uint8"
						}
					],
					"name": "createUser",
					"outputs": [],
					"stateMutability": "nonpayable",
					"type": "function"
				},
				{
					"inputs": [],
					"name": "getCurrentUserData",
					"outputs": [
						{
							"internalType": "string",
							"name": "",
							"type": "string"
						},
						{
							"internalType": "uint256",
							"name": "",
							"type": "uint256"
						},
						{
							"internalType": "enum UserManagerContract.Gender",
							"name": "",
							"type": "uint8"
						}
					],
					"stateMutability": "view",
					"type": "function"
				},
				{
					"inputs": [
						{
							"internalType": "address",
							"name": "userAddr",
							"type": "address"
						}
					],
					"name": "getOtherUserData",
					"outputs": [
						{
							"internalType": "string",
							"name": "",
							"type": "string"
						},
						{
							"internalType": "uint256",
							"name": "",
							"type": "uint256"
						},
						{
							"internalType": "enum UserManagerContract.Gender",
							"name": "",
							"type": "uint8"
						}
					],
					"stateMutability": "view",
					"type": "function"
				},
				{
					"inputs": [
						{
							"internalType": "address",
							"name": "userAddr",
							"type": "address"
						}
					],
					"name": "listAllNftsOfUser",
					"outputs": [
						{
							"internalType": "uint256[]",
							"name": "",
							"type": "uint256[]"
						}
					],
					"stateMutability": "view",
					"type": "function"
				}
			],
			"devdoc": {
				"kind": "dev",
				"methods": {},
				"version": 1
			},
			"evm": {
				"assembly": "    /* \"contracts/UserManager.sol\":137:3105  contract UserManagerContract {... */\n  mstore(0x40, 0x80)\n    /* \"contracts/UserManager.sol\":555:747  constructor(address _roleManagerAddress) {... */\n  callvalue\n  dup1\n  iszero\n  tag_1\n  jumpi\n  0x00\n  dup1\n  revert\ntag_1:\n  pop\n  mload(0x40)\n  sub(codesize, bytecodeSize)\n  dup1\n  bytecodeSize\n  dup4\n  codecopy\n  dup2\n  dup2\n  add\n  0x40\n  mstore\n  dup2\n  add\n  swap1\n  tag_2\n  swap2\n  swap1\n  tag_3\n  jump\t// in\ntag_2:\n    /* \"contracts/UserManager.sol\":641:660  _roleManagerAddress */\n  dup1\n    /* \"contracts/UserManager.sol\":607:618  roleManager */\n  0x00\n  dup1\n    /* \"contracts/UserManager.sol\":607:661  roleManager = RoleManagerContract(_roleManagerAddress) */\n  0x0100\n  exp\n  dup2\n  sload\n  dup2\n  0xffffffffffffffffffffffffffffffffffffffff\n  mul\n  not\n  and\n  swap1\n  dup4\n  0xffffffffffffffffffffffffffffffffffffffff\n  and\n  mul\n  or\n  swap1\n  sstore\n  pop\n    /* \"contracts/UserManager.sol\":702:739  User(\"Admin\", 10000000, Gender.Other) */\n  mload(0x40)\n  dup1\n  0x60\n  add\n  0x40\n  mstore\n  dup1\n  mload(0x40)\n  dup1\n  0x40\n  add\n  0x40\n  mstore\n  dup1\n  0x05\n  dup2\n  mstore\n  0x20\n  add\n  0x41646d696e000000000000000000000000000000000000000000000000000000\n  dup2\n  mstore\n  pop\n  dup2\n  mstore\n  0x20\n  add\n    /* \"contracts/UserManager.sol\":716:724  10000000 */\n  0x989680\n    /* \"contracts/UserManager.sol\":702:739  User(\"Admin\", 10000000, Gender.Other) */\n  dup2\n  mstore\n  0x20\n  add\n    /* \"contracts/UserManager.sol\":726:738  Gender.Other */\n  0x02\n    /* \"contracts/UserManager.sol\":702:739  User(\"Admin\", 10000000, Gender.Other) */\n  dup1\n  dup2\n  gt\n  iszero\n  tag_6\n  jumpi\n  tag_7\n  tag_8\n  jump\t// in\ntag_7:\ntag_6:\n  dup2\n  mstore\n  pop\n    /* \"contracts/UserManager.sol\":682:687  users */\n  0x01\n    /* \"contracts/UserManager.sol\":682:699  users[msg.sender] */\n  0x00\n    /* \"contracts/UserManager.sol\":688:698  msg.sender */\n  caller\n    /* \"contracts/UserManager.sol\":682:699  users[msg.sender] */\n  0xffffffffffffffffffffffffffffffffffffffff\n  and\n  0xffffffffffffffffffffffffffffffffffffffff\n  and\n  dup2\n  mstore\n  0x20\n  add\n  swap1\n  dup2\n  mstore\n  0x20\n  add\n  0x00\n  keccak256\n    /* \"contracts/UserManager.sol\":682:739  users[msg.sender] = User(\"Admin\", 10000000, Gender.Other) */\n  0x00\n  dup3\n  add\n  mload\n  dup2\n  0x00\n  add\n  swap1\n  dup2\n  tag_9\n  swap2\n  swap1\n  tag_10\n  jump\t// in\ntag_9:\n  pop\n  0x20\n  dup3\n  add\n  mload\n  dup2\n  0x01\n  add\n  sstore\n  0x40\n  dup3\n  add\n  mload\n  dup2\n  0x02\n  add\n  exp(0x0100, 0x00)\n  dup2\n  sload\n  dup2\n  0xff\n  mul\n  not\n  and\n  swap1\n  dup4\n  0x02\n  dup2\n  gt\n  iszero\n  tag_11\n  jumpi\n  tag_12\n  tag_8\n  jump\t// in\ntag_12:\ntag_11:\n  mul\n  or\n  swap1\n  sstore\n  pop\n  swap1\n  pop\n  pop\n    /* \"contracts/UserManager.sol\":555:747  constructor(address _roleManagerAddress) {... */\n  pop\n    /* \"contracts/UserManager.sol\":137:3105  contract UserManagerContract {... */\n  jump(tag_13)\n    /* \"#utility.yul\":88:205   */\ntag_15:\n    /* \"#utility.yul\":197:198   */\n  0x00\n    /* \"#utility.yul\":194:195   */\n  dup1\n    /* \"#utility.yul\":187:199   */\n  revert\n    /* \"#utility.yul\":334:460   */\ntag_17:\n    /* \"#utility.yul\":371:378   */\n  0x00\n    /* \"#utility.yul\":411:453   */\n  0xffffffffffffffffffffffffffffffffffffffff\n    /* \"#utility.yul\":404:409   */\n  dup3\n    /* \"#utility.yul\":400:454   */\n  and\n    /* \"#utility.yul\":389:454   */\n  swap1\n  pop\n    /* \"#utility.yul\":334:460   */\n  swap2\n  swap1\n  pop\n  jump\t// out\n    /* \"#utility.yul\":466:562   */\ntag_18:\n    /* \"#utility.yul\":503:510   */\n  0x00\n    /* \"#utility.yul\":532:556   */\n  tag_47\n    /* \"#utility.yul\":550:555   */\n  dup3\n    /* \"#utility.yul\":532:556   */\n  tag_17\n  jump\t// in\ntag_47:\n    /* \"#utility.yul\":521:556   */\n  swap1\n  pop\n    /* \"#utility.yul\":466:562   */\n  swap2\n  swap1\n  pop\n  jump\t// out\n    /* \"#utility.yul\":568:690   */\ntag_19:\n    /* \"#utility.yul\":641:665   */\n  tag_49\n    /* \"#utility.yul\":659:664   */\n  dup2\n    /* \"#utility.yul\":641:665   */\n  tag_18\n  jump\t// in\ntag_49:\n    /* \"#utility.yul\":634:639   */\n  dup2\n    /* \"#utility.yul\":631:666   */\n  eq\n    /* \"#utility.yul\":621:684   */\n  tag_50\n  jumpi\n    /* \"#utility.yul\":680:681   */\n  0x00\n    /* \"#utility.yul\":677:678   */\n  dup1\n    /* \"#utility.yul\":670:682   */\n  revert\n    /* \"#utility.yul\":621:684   */\ntag_50:\n    /* \"#utility.yul\":568:690   */\n  pop\n  jump\t// out\n    /* \"#utility.yul\":696:839   */\ntag_20:\n    /* \"#utility.yul\":753:758   */\n  0x00\n    /* \"#utility.yul\":784:790   */\n  dup2\n    /* \"#utility.yul\":778:791   */\n  mload\n    /* \"#utility.yul\":769:791   */\n  swap1\n  pop\n    /* \"#utility.yul\":800:833   */\n  tag_52\n    /* \"#utility.yul\":827:832   */\n  dup2\n    /* \"#utility.yul\":800:833   */\n  tag_19\n  jump\t// in\ntag_52:\n    /* \"#utility.yul\":696:839   */\n  swap3\n  swap2\n  pop\n  pop\n  jump\t// out\n    /* \"#utility.yul\":845:1196   */\ntag_3:\n    /* \"#utility.yul\":915:921   */\n  0x00\n    /* \"#utility.yul\":964:966   */\n  0x20\n    /* \"#utility.yul\":952:961   */\n  dup3\n    /* \"#utility.yul\":943:950   */\n  dup5\n    /* \"#utility.yul\":939:962   */\n  sub\n    /* \"#utility.yul\":935:967   */\n  slt\n    /* \"#utility.yul\":932:1051   */\n  iszero\n  tag_54\n  jumpi\n    /* \"#utility.yul\":970:1049   */\n  tag_55\n  tag_15\n  jump\t// in\ntag_55:\n    /* \"#utility.yul\":932:1051   */\ntag_54:\n    /* \"#utility.yul\":1090:1091   */\n  0x00\n    /* \"#utility.yul\":1115:1179   */\n  tag_56\n    /* \"#utility.yul\":1171:1178   */\n  dup5\n    /* \"#utility.yul\":1162:1168   */\n  dup3\n    /* \"#utility.yul\":1151:1160   */\n  dup6\n    /* \"#utility.yul\":1147:1169   */\n  add\n    /* \"#utility.yul\":1115:1179   */\n  tag_20\n  jump\t// in\ntag_56:\n    /* \"#utility.yul\":1105:1179   */\n  swap2\n  pop\n    /* \"#utility.yul\":1061:1189   */\n  pop\n    /* \"#utility.yul\":845:1196   */\n  swap3\n  swap2\n  pop\n  pop\n  jump\t// out\n    /* \"#utility.yul\":1202:1382   */\ntag_8:\n    /* \"#utility.yul\":1250:1327   */\n  0x4e487b7100000000000000000000000000000000000000000000000000000000\n    /* \"#utility.yul\":1247:1248   */\n  0x00\n    /* \"#utility.yul\":1240:1328   */\n  mstore\n    /* \"#utility.yul\":1347:1351   */\n  0x21\n    /* \"#utility.yul\":1344:1345   */\n  0x04\n    /* \"#utility.yul\":1337:1352   */\n  mstore\n    /* \"#utility.yul\":1371:1375   */\n  0x24\n    /* \"#utility.yul\":1368:1369   */\n  0x00\n    /* \"#utility.yul\":1361:1376   */\n  revert\n    /* \"#utility.yul\":1388:1487   */\ntag_21:\n    /* \"#utility.yul\":1440:1446   */\n  0x00\n    /* \"#utility.yul\":1474:1479   */\n  dup2\n    /* \"#utility.yul\":1468:1480   */\n  mload\n    /* \"#utility.yul\":1458:1480   */\n  swap1\n  pop\n    /* \"#utility.yul\":1388:1487   */\n  swap2\n  swap1\n  pop\n  jump\t// out\n    /* \"#utility.yul\":1493:1673   */\ntag_22:\n    /* \"#utility.yul\":1541:1618   */\n  0x4e487b7100000000000000000000000000000000000000000000000000000000\n    /* \"#utility.yul\":1538:1539   */\n  0x00\n    /* \"#utility.yul\":1531:1619   */\n  mstore\n    /* \"#utility.yul\":1638:1642   */\n  0x41\n    /* \"#utility.yul\":1635:1636   */\n  0x04\n    /* \"#utility.yul\":1628:1643   */\n  mstore\n    /* \"#utility.yul\":1662:1666   */\n  0x24\n    /* \"#utility.yul\":1659:1660   */\n  0x00\n    /* \"#utility.yul\":1652:1667   */\n  revert\n    /* \"#utility.yul\":1679:1859   */\ntag_23:\n    /* \"#utility.yul\":1727:1804   */\n  0x4e487b7100000000000000000000000000000000000000000000000000000000\n    /* \"#utility.yul\":1724:1725   */\n  0x00\n    /* \"#utility.yul\":1717:1805   */\n  mstore\n    /* \"#utility.yul\":1824:1828   */\n  0x22\n    /* \"#utility.yul\":1821:1822   */\n  0x04\n    /* \"#utility.yul\":1814:1829   */\n  mstore\n    /* \"#utility.yul\":1848:1852   */\n  0x24\n    /* \"#utility.yul\":1845:1846   */\n  0x00\n    /* \"#utility.yul\":1838:1853   */\n  revert\n    /* \"#utility.yul\":1865:2185   */\ntag_24:\n    /* \"#utility.yul\":1909:1915   */\n  0x00\n    /* \"#utility.yul\":1946:1947   */\n  0x02\n    /* \"#utility.yul\":1940:1944   */\n  dup3\n    /* \"#utility.yul\":1936:1948   */\n  div\n    /* \"#utility.yul\":1926:1948   */\n  swap1\n  pop\n    /* \"#utility.yul\":1993:1994   */\n  0x01\n    /* \"#utility.yul\":1987:1991   */\n  dup3\n    /* \"#utility.yul\":1983:1995   */\n  and\n    /* \"#utility.yul\":2014:2032   */\n  dup1\n    /* \"#utility.yul\":2004:2085   */\n  tag_62\n  jumpi\n    /* \"#utility.yul\":2070:2074   */\n  0x7f\n    /* \"#utility.yul\":2062:2068   */\n  dup3\n    /* \"#utility.yul\":2058:2075   */\n  and\n    /* \"#utility.yul\":2048:2075   */\n  swap2\n  pop\n    /* \"#utility.yul\":2004:2085   */\ntag_62:\n    /* \"#utility.yul\":2132:2134   */\n  0x20\n    /* \"#utility.yul\":2124:2130   */\n  dup3\n    /* \"#utility.yul\":2121:2135   */\n  lt\n    /* \"#utility.yul\":2101:2119   */\n  dup2\n    /* \"#utility.yul\":2098:2136   */\n  sub\n    /* \"#utility.yul\":2095:2179   */\n  tag_63\n  jumpi\n    /* \"#utility.yul\":2151:2169   */\n  tag_64\n  tag_23\n  jump\t// in\ntag_64:\n    /* \"#utility.yul\":2095:2179   */\ntag_63:\n    /* \"#utility.yul\":1916:2185   */\n  pop\n    /* \"#utility.yul\":1865:2185   */\n  swap2\n  swap1\n  pop\n  jump\t// out\n    /* \"#utility.yul\":2191:2332   */\ntag_25:\n    /* \"#utility.yul\":2240:2244   */\n  0x00\n    /* \"#utility.yul\":2263:2266   */\n  dup2\n    /* \"#utility.yul\":2255:2266   */\n  swap1\n  pop\n    /* \"#utility.yul\":2286:2289   */\n  dup2\n    /* \"#utility.yul\":2283:2284   */\n  0x00\n    /* \"#utility.yul\":2276:2290   */\n  mstore\n    /* \"#utility.yul\":2320:2324   */\n  0x20\n    /* \"#utility.yul\":2317:2318   */\n  0x00\n    /* \"#utility.yul\":2307:2325   */\n  keccak256\n    /* \"#utility.yul\":2299:2325   */\n  swap1\n  pop\n    /* \"#utility.yul\":2191:2332   */\n  swap2\n  swap1\n  pop\n  jump\t// out\n    /* \"#utility.yul\":2338:2431   */\ntag_26:\n    /* \"#utility.yul\":2375:2381   */\n  0x00\n    /* \"#utility.yul\":2422:2424   */\n  0x20\n    /* \"#utility.yul\":2417:2419   */\n  0x1f\n    /* \"#utility.yul\":2410:2415   */\n  dup4\n    /* \"#utility.yul\":2406:2420   */\n  add\n    /* \"#utility.yul\":2402:2425   */\n  div\n    /* \"#utility.yul\":2392:2425   */\n  swap1\n  pop\n    /* \"#utility.yul\":2338:2431   */\n  swap2\n  swap1\n  pop\n  jump\t// out\n    /* \"#utility.yul\":2437:2544   */\ntag_27:\n    /* \"#utility.yul\":2481:2489   */\n  0x00\n    /* \"#utility.yul\":2531:2536   */\n  dup3\n    /* \"#utility.yul\":2525:2529   */\n  dup3\n    /* \"#utility.yul\":2521:2537   */\n  shl\n    /* \"#utility.yul\":2500:2537   */\n  swap1\n  pop\n    /* \"#utility.yul\":2437:2544   */\n  swap3\n  swap2\n  pop\n  pop\n  jump\t// out\n    /* \"#utility.yul\":2550:2943   */\ntag_28:\n    /* \"#utility.yul\":2619:2625   */\n  0x00\n    /* \"#utility.yul\":2669:2670   */\n  0x08\n    /* \"#utility.yul\":2657:2667   */\n  dup4\n    /* \"#utility.yul\":2653:2671   */\n  mul\n    /* \"#utility.yul\":2692:2789   */\n  tag_69\n    /* \"#utility.yul\":2722:2788   */\n  0xffffffffffffffffffffffffffffffffffffffffffffffffffffffffffffffff\n    /* \"#utility.yul\":2711:2720   */\n  dup3\n    /* \"#utility.yul\":2692:2789   */\n  tag_27\n  jump\t// in\ntag_69:\n    /* \"#utility.yul\":2810:2849   */\n  tag_70\n    /* \"#utility.yul\":2840:2848   */\n  dup7\n    /* \"#utility.yul\":2829:2838   */\n  dup4\n    /* \"#utility.yul\":2810:2849   */\n  tag_27\n  jump\t// in\ntag_70:\n    /* \"#utility.yul\":2798:2849   */\n  swap6\n  pop\n    /* \"#utility.yul\":2882:2886   */\n  dup1\n    /* \"#utility.yul\":2878:2887   */\n  not\n    /* \"#utility.yul\":2871:2876   */\n  dup5\n    /* \"#utility.yul\":2867:2888   */\n  and\n    /* \"#utility.yul\":2858:2888   */\n  swap4\n  pop\n    /* \"#utility.yul\":2931:2935   */\n  dup1\n    /* \"#utility.yul\":2921:2929   */\n  dup7\n    /* \"#utility.yul\":2917:2936   */\n  and\n    /* \"#utility.yul\":2910:2915   */\n  dup5\n    /* \"#utility.yul\":2907:2937   */\n  or\n    /* \"#utility.yul\":2897:2937   */\n  swap3\n  pop\n    /* \"#utility.yul\":2626:2943   */\n  pop\n  pop\n    /* \"#utility.yul\":2550:2943   */\n  swap4\n  swap3\n  pop\n  pop\n  pop\n  jump\t// out\n    /* \"#utility.yul\":2949:3026   */\ntag_29:\n    /* \"#utility.yul\":2986:2993   */\n  0x00\n    /* \"#utility.yul\":3015:3020   */\n  dup2\n    /* \"#utility.yul\":3004:3020   */\n  swap1\n  pop\n    /* \"#utility.yul\":2949:3026   */\n  swap2\n  swap1\n  pop\n  jump\t// out\n    /* \"#utility.yul\":3032:3092   */\ntag_30:\n    /* \"#utility.yul\":3060:3063   */\n  0x00\n    /* \"#utility.yul\":3081:3086   */\n  dup2\n    /* \"#utility.yul\":3074:3086   */\n  swap1\n  pop\n    /* \"#utility.yul\":3032:3092   */\n  swap2\n  swap1\n  pop\n  jump\t// out\n    /* \"#utility.yul\":3098:3240   */\ntag_31:\n    /* \"#utility.yul\":3148:3157   */\n  0x00\n    /* \"#utility.yul\":3181:3234   */\n  tag_74\n    /* \"#utility.yul\":3199:3233   */\n  tag_75\n    /* \"#utility.yul\":3208:3232   */\n  tag_76\n    /* \"#utility.yul\":3226:3231   */\n  dup5\n    /* \"#utility.yul\":3208:3232   */\n  tag_29\n  jump\t// in\ntag_76:\n    /* \"#utility.yul\":3199:3233   */\n  tag_30\n  jump\t// in\ntag_75:\n    /* \"#utility.yul\":3181:3234   */\n  tag_29\n  jump\t// in\ntag_74:\n    /* \"#utility.yul\":3168:3234   */\n  swap1\n  pop\n    /* \"#utility.yul\":3098:3240   */\n  swap2\n  swap1\n  pop\n  jump\t// out\n    /* \"#utility.yul\":3246:3321   */\ntag_32:\n    /* \"#utility.yul\":3289:3292   */\n  0x00\n    /* \"#utility.yul\":3310:3315   */\n  dup2\n    /* \"#utility.yul\":3303:3315   */\n  swap1\n  pop\n    /* \"#utility.yul\":3246:3321   */\n  swap2\n  swap1\n  pop\n  jump\t// out\n    /* \"#utility.yul\":3327:3596   */\ntag_33:\n    /* \"#utility.yul\":3437:3476   */\n  tag_79\n    /* \"#utility.yul\":3468:3475   */\n  dup4\n    /* \"#utility.yul\":3437:3476   */\n  tag_31\n  jump\t// in\ntag_79:\n    /* \"#utility.yul\":3498:3589   */\n  tag_80\n    /* \"#utility.yul\":3547:3588   */\n  tag_81\n    /* \"#utility.yul\":3571:3587   */\n  dup3\n    /* \"#utility.yul\":3547:3588   */\n  tag_32\n  jump\t// in\ntag_81:\n    /* \"#utility.yul\":3539:3545   */\n  dup5\n    /* \"#utility.yul\":3532:3536   */\n  dup5\n    /* \"#utility.yul\":3526:3537   */\n  sload\n    /* \"#utility.yul\":3498:3589   */\n  tag_28\n  jump\t// in\ntag_80:\n    /* \"#utility.yul\":3492:3496   */\n  dup3\n    /* \"#utility.yul\":3485:3590   */\n  sstore\n    /* \"#utility.yul\":3403:3596   */\n  pop\n    /* \"#utility.yul\":3327:3596   */\n  pop\n  pop\n  pop\n  jump\t// out\n    /* \"#utility.yul\":3602:3675   */\ntag_34:\n    /* \"#utility.yul\":3647:3650   */\n  0x00\n    /* \"#utility.yul\":3602:3675   */\n  swap1\n  jump\t// out\n    /* \"#utility.yul\":3681:3870   */\ntag_35:\n    /* \"#utility.yul\":3758:3790   */\n  tag_84\n  tag_34\n  jump\t// in\ntag_84:\n    /* \"#utility.yul\":3799:3864   */\n  tag_85\n    /* \"#utility.yul\":3857:3863   */\n  dup2\n    /* \"#utility.yul\":3849:3855   */\n  dup5\n    /* \"#utility.yul\":3843:3847   */\n  dup5\n    /* \"#utility.yul\":3799:3864   */\n  tag_33\n  jump\t// in\ntag_85:\n    /* \"#utility.yul\":3734:3870   */\n  pop\n    /* \"#utility.yul\":3681:3870   */\n  pop\n  pop\n  jump\t// out\n    /* \"#utility.yul\":3876:4062   */\ntag_36:\n    /* \"#utility.yul\":3936:4056   */\ntag_87:\n    /* \"#utility.yul\":3953:3956   */\n  dup2\n    /* \"#utility.yul\":3946:3951   */\n  dup2\n    /* \"#utility.yul\":3943:3957   */\n  lt\n    /* \"#utility.yul\":3936:4056   */\n  iszero\n  tag_89\n  jumpi\n    /* \"#utility.yul\":4007:4046   */\n  tag_90\n    /* \"#utility.yul\":4044:4045   */\n  0x00\n    /* \"#utility.yul\":4037:4042   */\n  dup3\n    /* \"#utility.yul\":4007:4046   */\n  tag_35\n  jump\t// in\ntag_90:\n    /* \"#utility.yul\":3980:3981   */\n  0x01\n    /* \"#utility.yul\":3973:3978   */\n  dup2\n    /* \"#utility.yul\":3969:3982   */\n  add\n    /* \"#utility.yul\":3960:3982   */\n  swap1\n  pop\n    /* \"#utility.yul\":3936:4056   */\n  jump(tag_87)\ntag_89:\n    /* \"#utility.yul\":3876:4062   */\n  pop\n  pop\n  jump\t// out\n    /* \"#utility.yul\":4068:4611   */\ntag_37:\n    /* \"#utility.yul\":4169:4171   */\n  0x1f\n    /* \"#utility.yul\":4164:4167   */\n  dup3\n    /* \"#utility.yul\":4161:4172   */\n  gt\n    /* \"#utility.yul\":4158:4604   */\n  iszero\n  tag_92\n  jumpi\n    /* \"#utility.yul\":4203:4241   */\n  tag_93\n    /* \"#utility.yul\":4235:4240   */\n  dup2\n    /* \"#utility.yul\":4203:4241   */\n  tag_25\n  jump\t// in\ntag_93:\n    /* \"#utility.yul\":4287:4316   */\n  tag_94\n    /* \"#utility.yul\":4305:4315   */\n  dup5\n    /* \"#utility.yul\":4287:4316   */\n  tag_26\n  jump\t// in\ntag_94:\n    /* \"#utility.yul\":4277:4285   */\n  dup2\n    /* \"#utility.yul\":4273:4317   */\n  add\n    /* \"#utility.yul\":4470:4472   */\n  0x20\n    /* \"#utility.yul\":4458:4468   */\n  dup6\n    /* \"#utility.yul\":4455:4473   */\n  lt\n    /* \"#utility.yul\":4452:4501   */\n  iszero\n  tag_95\n  jumpi\n    /* \"#utility.yul\":4491:4499   */\n  dup2\n    /* \"#utility.yul\":4476:4499   */\n  swap1\n  pop\n    /* \"#utility.yul\":4452:4501   */\ntag_95:\n    /* \"#utility.yul\":4514:4594   */\n  tag_96\n    /* \"#utility.yul\":4570:4592   */\n  tag_97\n    /* \"#utility.yul\":4588:4591   */\n  dup6\n    /* \"#utility.yul\":4570:4592   */\n  tag_26\n  jump\t// in\ntag_97:\n    /* \"#utility.yul\":4560:4568   */\n  dup4\n    /* \"#utility.yul\":4556:4593   */\n  add\n    /* \"#utility.yul\":4543:4554   */\n  dup3\n    /* \"#utility.yul\":4514:4594   */\n  tag_36\n  jump\t// in\ntag_96:\n    /* \"#utility.yul\":4173:4604   */\n  pop\n  pop\n    /* \"#utility.yul\":4158:4604   */\ntag_92:\n    /* \"#utility.yul\":4068:4611   */\n  pop\n  pop\n  pop\n  jump\t// out\n    /* \"#utility.yul\":4617:4734   */\ntag_38:\n    /* \"#utility.yul\":4671:4679   */\n  0x00\n    /* \"#utility.yul\":4721:4726   */\n  dup3\n    /* \"#utility.yul\":4715:4719   */\n  dup3\n    /* \"#utility.yul\":4711:4727   */\n  shr\n    /* \"#utility.yul\":4690:4727   */\n  swap1\n  pop\n    /* \"#utility.yul\":4617:4734   */\n  swap3\n  swap2\n  pop\n  pop\n  jump\t// out\n    /* \"#utility.yul\":4740:4909   */\ntag_39:\n    /* \"#utility.yul\":4784:4790   */\n  0x00\n    /* \"#utility.yul\":4817:4868   */\n  tag_100\n    /* \"#utility.yul\":4865:4866   */\n  0x00\n    /* \"#utility.yul\":4861:4867   */\n  not\n    /* \"#utility.yul\":4853:4858   */\n  dup5\n    /* \"#utility.yul\":4850:4851   */\n  0x08\n    /* \"#utility.yul\":4846:4859   */\n  mul\n    /* \"#utility.yul\":4817:4868   */\n  tag_38\n  jump\t// in\ntag_100:\n    /* \"#utility.yul\":4813:4869   */\n  not\n    /* \"#utility.yul\":4898:4902   */\n  dup1\n    /* \"#utility.yul\":4892:4896   */\n  dup4\n    /* \"#utility.yul\":4888:4903   */\n  and\n    /* \"#utility.yul\":4878:4903   */\n  swap2\n  pop\n    /* \"#utility.yul\":4791:4909   */\n  pop\n    /* \"#utility.yul\":4740:4909   */\n  swap3\n  swap2\n  pop\n  pop\n  jump\t// out\n    /* \"#utility.yul\":4914:5209   */\ntag_40:\n    /* \"#utility.yul\":4990:4994   */\n  0x00\n    /* \"#utility.yul\":5136:5165   */\n  tag_102\n    /* \"#utility.yul\":5161:5164   */\n  dup4\n    /* \"#utility.yul\":5155:5159   */\n  dup4\n    /* \"#utility.yul\":5136:5165   */\n  tag_39\n  jump\t// in\ntag_102:\n    /* \"#utility.yul\":5128:5165   */\n  swap2\n  pop\n    /* \"#utility.yul\":5198:5201   */\n  dup3\n    /* \"#utility.yul\":5195:5196   */\n  0x02\n    /* \"#utility.yul\":5191:5202   */\n  mul\n    /* \"#utility.yul\":5185:5189   */\n  dup3\n    /* \"#utility.yul\":5182:5203   */\n  or\n    /* \"#utility.yul\":5174:5203   */\n  swap1\n  pop\n    /* \"#utility.yul\":4914:5209   */\n  swap3\n  swap2\n  pop\n  pop\n  jump\t// out\n    /* \"#utility.yul\":5214:6609   */\ntag_10:\n    /* \"#utility.yul\":5331:5368   */\n  tag_104\n    /* \"#utility.yul\":5364:5367   */\n  dup3\n    /* \"#utility.yul\":5331:5368   */\n  tag_21\n  jump\t// in\ntag_104:\n    /* \"#utility.yul\":5433:5451   */\n  0xffffffffffffffff\n    /* \"#utility.yul\":5425:5431   */\n  dup2\n    /* \"#utility.yul\":5422:5452   */\n  gt\n    /* \"#utility.yul\":5419:5475   */\n  iszero\n  tag_105\n  jumpi\n    /* \"#utility.yul\":5455:5473   */\n  tag_106\n  tag_22\n  jump\t// in\ntag_106:\n    /* \"#utility.yul\":5419:5475   */\ntag_105:\n    /* \"#utility.yul\":5499:5537   */\n  tag_107\n    /* \"#utility.yul\":5531:5535   */\n  dup3\n    /* \"#utility.yul\":5525:5536   */\n  sload\n    /* \"#utility.yul\":5499:5537   */\n  tag_24\n  jump\t// in\ntag_107:\n    /* \"#utility.yul\":5584:5651   */\n  tag_108\n    /* \"#utility.yul\":5644:5650   */\n  dup3\n    /* \"#utility.yul\":5636:5642   */\n  dup3\n    /* \"#utility.yul\":5630:5634   */\n  dup6\n    /* \"#utility.yul\":5584:5651   */\n  tag_37\n  jump\t// in\ntag_108:\n    /* \"#utility.yul\":5678:5679   */\n  0x00\n    /* \"#utility.yul\":5702:5706   */\n  0x20\n    /* \"#utility.yul\":5689:5706   */\n  swap1\n  pop\n    /* \"#utility.yul\":5734:5736   */\n  0x1f\n    /* \"#utility.yul\":5726:5732   */\n  dup4\n    /* \"#utility.yul\":5723:5737   */\n  gt\n    /* \"#utility.yul\":5751:5752   */\n  0x01\n    /* \"#utility.yul\":5746:6364   */\n  dup2\n  eq\n  tag_110\n  jumpi\n    /* \"#utility.yul\":6408:6409   */\n  0x00\n    /* \"#utility.yul\":6425:6431   */\n  dup5\n    /* \"#utility.yul\":6422:6499   */\n  iszero\n  tag_111\n  jumpi\n    /* \"#utility.yul\":6474:6483   */\n  dup3\n    /* \"#utility.yul\":6469:6472   */\n  dup8\n    /* \"#utility.yul\":6465:6484   */\n  add\n    /* \"#utility.yul\":6459:6485   */\n  mload\n    /* \"#utility.yul\":6450:6485   */\n  swap1\n  pop\n    /* \"#utility.yul\":6422:6499   */\ntag_111:\n    /* \"#utility.yul\":6525:6592   */\n  tag_112\n    /* \"#utility.yul\":6585:6591   */\n  dup6\n    /* \"#utility.yul\":6578:6583   */\n  dup3\n    /* \"#utility.yul\":6525:6592   */\n  tag_40\n  jump\t// in\ntag_112:\n    /* \"#utility.yul\":6519:6523   */\n  dup7\n    /* \"#utility.yul\":6512:6593   */\n  sstore\n    /* \"#utility.yul\":6381:6603   */\n  pop\n    /* \"#utility.yul\":5716:6603   */\n  jump(tag_109)\n    /* \"#utility.yul\":5746:6364   */\ntag_110:\n    /* \"#utility.yul\":5798:5802   */\n  0x1f\n    /* \"#utility.yul\":5794:5803   */\n  not\n    /* \"#utility.yul\":5786:5792   */\n  dup5\n    /* \"#utility.yul\":5782:5804   */\n  and\n    /* \"#utility.yul\":5832:5869   */\n  tag_113\n    /* \"#utility.yul\":5864:5868   */\n  dup7\n    /* \"#utility.yul\":5832:5869   */\n  tag_25\n  jump\t// in\ntag_113:\n    /* \"#utility.yul\":5891:5892   */\n  0x00\n    /* \"#utility.yul\":5905:6113   */\ntag_114:\n    /* \"#utility.yul\":5919:5926   */\n  dup3\n    /* \"#utility.yul\":5916:5917   */\n  dup2\n    /* \"#utility.yul\":5913:5927   */\n  lt\n    /* \"#utility.yul\":5905:6113   */\n  iszero\n  tag_116\n  jumpi\n    /* \"#utility.yul\":5998:6007   */\n  dup5\n    /* \"#utility.yul\":5993:5996   */\n  dup10\n    /* \"#utility.yul\":5989:6008   */\n  add\n    /* \"#utility.yul\":5983:6009   */\n  mload\n    /* \"#utility.yul\":5975:5981   */\n  dup3\n    /* \"#utility.yul\":5968:6010   */\n  sstore\n    /* \"#utility.yul\":6049:6050   */\n  0x01\n    /* \"#utility.yul\":6041:6047   */\n  dup3\n    /* \"#utility.yul\":6037:6051   */\n  add\n    /* \"#utility.yul\":6027:6051   */\n  swap2\n  pop\n    /* \"#utility.yul\":6096:6098   */\n  0x20\n    /* \"#utility.yul\":6085:6094   */\n  dup6\n    /* \"#utility.yul\":6081:6099   */\n  add\n    /* \"#utility.yul\":6068:6099   */\n  swap5\n  pop\n    /* \"#utility.yul\":5942:5946   */\n  0x20\n    /* \"#utility.yul\":5939:5940   */\n  dup2\n    /* \"#utility.yul\":5935:5947   */\n  add\n    /* \"#utility.yul\":5930:5947   */\n  swap1\n  pop\n    /* \"#utility.yul\":5905:6113   */\n  jump(tag_114)\ntag_116:\n    /* \"#utility.yul\":6141:6147   */\n  dup7\n    /* \"#utility.yul\":6132:6139   */\n  dup4\n    /* \"#utility.yul\":6129:6148   */\n  lt\n    /* \"#utility.yul\":6126:6305   */\n  iszero\n  tag_117\n  jumpi\n    /* \"#utility.yul\":6199:6208   */\n  dup5\n    /* \"#utility.yul\":6194:6197   */\n  dup10\n    /* \"#utility.yul\":6190:6209   */\n  add\n    /* \"#utility.yul\":6184:6210   */\n  mload\n    /* \"#utility.yul\":6242:6290   */\n  tag_118\n    /* \"#utility.yul\":6284:6288   */\n  0x1f\n    /* \"#utility.yul\":6276:6282   */\n  dup10\n    /* \"#utility.yul\":6272:6289   */\n  and\n    /* \"#utility.yul\":6261:6270   */\n  dup3\n    /* \"#utility.yul\":6242:6290   */\n  tag_39\n  jump\t// in\ntag_118:\n    /* \"#utility.yul\":6234:6240   */\n  dup4\n    /* \"#utility.yul\":6227:6291   */\n  sstore\n    /* \"#utility.yul\":6149:6305   */\n  pop\n    /* \"#utility.yul\":6126:6305   */\ntag_117:\n    /* \"#utility.yul\":6351:6352   */\n  0x01\n    /* \"#utility.yul\":6347:6348   */\n  0x02\n    /* \"#utility.yul\":6339:6345   */\n  dup9\n    /* \"#utility.yul\":6335:6349   */\n  mul\n    /* \"#utility.yul\":6331:6353   */\n  add\n    /* \"#utility.yul\":6325:6329   */\n  dup9\n    /* \"#utility.yul\":6318:6354   */\n  sstore\n    /* \"#utility.yul\":5753:6364   */\n  pop\n  pop\n  pop\n    /* \"#utility.yul\":5716:6603   */\ntag_109:\n  pop\n    /* \"#utility.yul\":5306:6609   */\n  pop\n  pop\n  pop\n    /* \"#utility.yul\":5214:6609   */\n  pop\n  pop\n  jump\t// out\n    /* \"contracts/UserManager.sol\":137:3105  contract UserManagerContract {... */\ntag_13:\n  dataSize(sub_0)\n  dup1\n  dataOffset(sub_0)\n  0x00\n  codecopy\n  0x00\n  return\nstop\n\nsub_0: assembly {\n        /* \"contracts/UserManager.sol\":137:3105  contract UserManagerContract {... */\n      mstore(0x40, 0x80)\n      callvalue\n      dup1\n      iszero\n      tag_1\n      jumpi\n      0x00\n      dup1\n      revert\n    tag_1:\n      pop\n      jumpi(tag_2, lt(calldatasize, 0x04))\n      shr(0xe0, calldataload(0x00))\n      dup1\n      0x704c6c\n      eq\n      tag_3\n      jumpi\n      dup1\n      0x091c4553\n      eq\n      tag_4\n      jumpi\n      dup1\n      0x541709da\n      eq\n      tag_5\n      jumpi\n      dup1\n      0x80b6e64a\n      eq\n      tag_6\n      jumpi\n      dup1\n      0xd9781122\n      eq\n      tag_7\n      jumpi\n    tag_2:\n      0x00\n      dup1\n      revert\n        /* \"contracts/UserManager.sol\":2302:2540  function addNftToUser(address userAddr, uint256 tokenId) ... */\n    tag_3:\n      tag_8\n      0x04\n      dup1\n      calldatasize\n      sub\n      dup2\n      add\n      swap1\n      tag_9\n      swap2\n      swap1\n      tag_10\n      jump\t// in\n    tag_9:\n      tag_11\n      jump\t// in\n    tag_8:\n      stop\n        /* \"contracts/UserManager.sol\":2024:2272  function getOtherUserData(address userAddr) ... */\n    tag_4:\n      tag_12\n      0x04\n      dup1\n      calldatasize\n      sub\n      dup2\n      add\n      swap1\n      tag_13\n      swap2\n      swap1\n      tag_14\n      jump\t// in\n    tag_13:\n      tag_15\n      jump\t// in\n    tag_12:\n      mload(0x40)\n      tag_16\n      swap4\n      swap3\n      swap2\n      swap1\n      tag_17\n      jump\t// in\n    tag_16:\n      mload(0x40)\n      dup1\n      swap2\n      sub\n      swap1\n      return\n        /* \"contracts/UserManager.sol\":1777:2016  function getCurrentUserData() ... */\n    tag_5:\n      tag_18\n      tag_19\n      jump\t// in\n    tag_18:\n      mload(0x40)\n      tag_20\n      swap4\n      swap3\n      swap2\n      swap1\n      tag_17\n      jump\t// in\n    tag_20:\n      mload(0x40)\n      dup1\n      swap2\n      sub\n      swap1\n      return\n        /* \"contracts/UserManager.sol\":1251:1502  function createUser(string memory _fullName, uint256 _dateOfBirth, Gender _gender) ... */\n    tag_6:\n      tag_21\n      0x04\n      dup1\n      calldatasize\n      sub\n      dup2\n      add\n      swap1\n      tag_22\n      swap2\n      swap1\n      tag_23\n      jump\t// in\n    tag_22:\n      tag_24\n      jump\t// in\n    tag_21:\n      stop\n        /* \"contracts/UserManager.sol\":2548:3102  function listAllNftsOfUser(address userAddr)... */\n    tag_7:\n      tag_25\n      0x04\n      dup1\n      calldatasize\n      sub\n      dup2\n      add\n      swap1\n      tag_26\n      swap2\n      swap1\n      tag_14\n      jump\t// in\n    tag_26:\n      tag_27\n      jump\t// in\n    tag_25:\n      mload(0x40)\n      tag_28\n      swap2\n      swap1\n      tag_29\n      jump\t// in\n    tag_28:\n      mload(0x40)\n      dup1\n      swap2\n      sub\n      swap1\n      return\n        /* \"contracts/UserManager.sol\":2302:2540  function addNftToUser(address userAddr, uint256 tokenId) ... */\n    tag_11:\n        /* \"contracts/UserManager.sol\":2381:2415  RoleManagerContract.RoleType.ADMIN */\n      0x00\n        /* \"contracts/UserManager.sol\":1164:1168  role */\n      dup1\n        /* \"contracts/UserManager.sol\":1139:1168  roleManager.getRole() == role */\n      0x02\n      dup2\n      gt\n      iszero\n      tag_31\n      jumpi\n      tag_32\n      tag_33\n      jump\t// in\n    tag_32:\n    tag_31:\n        /* \"contracts/UserManager.sol\":1139:1150  roleManager */\n      0x00\n      dup1\n      sload\n      swap1\n      0x0100\n      exp\n      swap1\n      div\n      0xffffffffffffffffffffffffffffffffffffffff\n      and\n        /* \"contracts/UserManager.sol\":1139:1158  roleManager.getRole */\n      0xffffffffffffffffffffffffffffffffffffffff\n      and\n      0xfde08174\n        /* \"contracts/UserManager.sol\":1139:1160  roleManager.getRole() */\n      mload(0x40)\n      dup2\n      0xffffffff\n      and\n      0xe0\n      shl\n      dup2\n      mstore\n      0x04\n      add\n      0x20\n      mload(0x40)\n      dup1\n      dup4\n      sub\n      dup2\n      dup7\n      gas\n      staticcall\n      iszero\n      dup1\n      iszero\n      tag_35\n      jumpi\n      returndatasize\n      0x00\n      dup1\n      returndatacopy\n      revert(0x00, returndatasize)\n    tag_35:\n      pop\n      pop\n      pop\n      pop\n      mload(0x40)\n      returndatasize\n      not(0x1f)\n      0x1f\n      dup3\n      add\n      and\n      dup3\n      add\n      dup1\n      0x40\n      mstore\n      pop\n      dup2\n      add\n      swap1\n      tag_36\n      swap2\n      swap1\n      tag_37\n      jump\t// in\n    tag_36:\n        /* \"contracts/UserManager.sol\":1139:1168  roleManager.getRole() == role */\n      0x02\n      dup2\n      gt\n      iszero\n      tag_38\n      jumpi\n      tag_39\n      tag_33\n      jump\t// in\n    tag_39:\n    tag_38:\n      eq\n        /* \"contracts/UserManager.sol\":1170:1199  ErrorCodes.ERROR_UNAUTHORIZED */\n      mload(0x40)\n      dup1\n      0x40\n      add\n      0x40\n      mstore\n      dup1\n      0x0c\n      dup2\n      mstore\n      0x20\n      add\n      0x554e415554484f52495a45440000000000000000000000000000000000000000\n      dup2\n      mstore\n      pop\n        /* \"contracts/UserManager.sol\":1131:1200  require(roleManager.getRole() == role, ErrorCodes.ERROR_UNAUTHORIZED) */\n      swap1\n      tag_40\n      jumpi\n      mload(0x40)\n      0x08c379a000000000000000000000000000000000000000000000000000000000\n      dup2\n      mstore\n      0x04\n      add\n      tag_41\n      swap2\n      swap1\n      tag_42\n      jump\t// in\n    tag_41:\n      mload(0x40)\n      dup1\n      swap2\n      sub\n      swap1\n      revert\n    tag_40:\n      pop\n        /* \"contracts/UserManager.sol\":2428:2453  UserToken memory newToken */\n      0x00\n        /* \"contracts/UserManager.sol\":2456:2480  UserToken(tokenId,false) */\n      mload(0x40)\n      dup1\n      0x40\n      add\n      0x40\n      mstore\n      dup1\n        /* \"contracts/UserManager.sol\":2466:2473  tokenId */\n      dup5\n        /* \"contracts/UserManager.sol\":2456:2480  UserToken(tokenId,false) */\n      dup2\n      mstore\n      0x20\n      add\n        /* \"contracts/UserManager.sol\":2474:2479  false */\n      0x00\n        /* \"contracts/UserManager.sol\":2456:2480  UserToken(tokenId,false) */\n      iszero\n      iszero\n      dup2\n      mstore\n      pop\n        /* \"contracts/UserManager.sol\":2428:2480  UserToken memory newToken = UserToken(tokenId,false) */\n      swap1\n      pop\n        /* \"contracts/UserManager.sol\":2491:2507  listOfUsersToken */\n      0x02\n        /* \"contracts/UserManager.sol\":2491:2517  listOfUsersToken[userAddr] */\n      0x00\n        /* \"contracts/UserManager.sol\":2508:2516  userAddr */\n      dup6\n        /* \"contracts/UserManager.sol\":2491:2517  listOfUsersToken[userAddr] */\n      0xffffffffffffffffffffffffffffffffffffffff\n      and\n      0xffffffffffffffffffffffffffffffffffffffff\n      and\n      dup2\n      mstore\n      0x20\n      add\n      swap1\n      dup2\n      mstore\n      0x20\n      add\n      0x00\n      keccak256\n        /* \"contracts/UserManager.sol\":2523:2531  newToken */\n      dup2\n        /* \"contracts/UserManager.sol\":2491:2532  listOfUsersToken[userAddr].push(newToken) */\n      swap1\n      dup1\n      0x01\n      dup2\n      sload\n      add\n      dup1\n      dup3\n      sstore\n      dup1\n      swap2\n      pop\n      pop\n      0x01\n      swap1\n      sub\n      swap1\n      0x00\n      mstore\n      keccak256(0x00, 0x20)\n      swap1\n      0x02\n      mul\n      add\n      0x00\n      swap1\n      swap2\n      swap1\n      swap2\n      swap1\n      swap2\n      pop\n      0x00\n      dup3\n      add\n      mload\n      dup2\n      0x00\n      add\n      sstore\n      0x20\n      dup3\n      add\n      mload\n      dup2\n      0x01\n      add\n      exp(0x0100, 0x00)\n      dup2\n      sload\n      dup2\n      0xff\n      mul\n      not\n      and\n      swap1\n      dup4\n      iszero\n      iszero\n      mul\n      or\n      swap1\n      sstore\n      pop\n      pop\n      pop\n        /* \"contracts/UserManager.sol\":2417:2540  {... */\n      pop\n        /* \"contracts/UserManager.sol\":2302:2540  function addNftToUser(address userAddr, uint256 tokenId) ... */\n      pop\n      pop\n      pop\n      jump\t// out\n        /* \"contracts/UserManager.sol\":2024:2272  function getOtherUserData(address userAddr) ... */\n    tag_15:\n        /* \"contracts/UserManager.sol\":2123:2136  string memory */\n      0x60\n        /* \"contracts/UserManager.sol\":2138:2145  uint256 */\n      0x00\n        /* \"contracts/UserManager.sol\":2147:2153  Gender */\n      dup1\n        /* \"contracts/UserManager.sol\":2098:2106  userAddr */\n      dup4\n        /* \"contracts/UserManager.sol\":1001:1002  0 */\n      0x00\n        /* \"contracts/UserManager.sol\":971:976  users */\n      0x01\n        /* \"contracts/UserManager.sol\":971:986  users[userAddr] */\n      0x00\n        /* \"contracts/UserManager.sol\":977:985  userAddr */\n      dup4\n        /* \"contracts/UserManager.sol\":971:986  users[userAddr] */\n      0xffffffffffffffffffffffffffffffffffffffff\n      and\n      0xffffffffffffffffffffffffffffffffffffffff\n      and\n      dup2\n      mstore\n      0x20\n      add\n      swap1\n      dup2\n      mstore\n      0x20\n      add\n      0x00\n      keccak256\n        /* \"contracts/UserManager.sol\":971:998  users[userAddr].dateOfBirth */\n      0x01\n      add\n      sload\n        /* \"contracts/UserManager.sol\":971:1002  users[userAddr].dateOfBirth > 0 */\n      gt\n        /* \"contracts/UserManager.sol\":1004:1038  ErrorCodes.ERROR_USER_IS_NOT_FOUND */\n      mload(0x40)\n      dup1\n      0x40\n      add\n      0x40\n      mstore\n      dup1\n      0x11\n      dup2\n      mstore\n      0x20\n      add\n      0x555345525f49535f4e4f545f464f554e44000000000000000000000000000000\n      dup2\n      mstore\n      pop\n        /* \"contracts/UserManager.sol\":963:1039  require(users[userAddr].dateOfBirth > 0, ErrorCodes.ERROR_USER_IS_NOT_FOUND) */\n      swap1\n      tag_46\n      jumpi\n      mload(0x40)\n      0x08c379a000000000000000000000000000000000000000000000000000000000\n      dup2\n      mstore\n      0x04\n      add\n      tag_47\n      swap2\n      swap1\n      tag_42\n      jump\t// in\n    tag_47:\n      mload(0x40)\n      dup1\n      swap2\n      sub\n      swap1\n      revert\n    tag_46:\n      pop\n        /* \"contracts/UserManager.sol\":2166:2182  User memory user */\n      0x00\n        /* \"contracts/UserManager.sol\":2185:2190  users */\n      0x01\n        /* \"contracts/UserManager.sol\":2185:2200  users[userAddr] */\n      0x00\n        /* \"contracts/UserManager.sol\":2191:2199  userAddr */\n      dup8\n        /* \"contracts/UserManager.sol\":2185:2200  users[userAddr] */\n      0xffffffffffffffffffffffffffffffffffffffff\n      and\n      0xffffffffffffffffffffffffffffffffffffffff\n      and\n      dup2\n      mstore\n      0x20\n      add\n      swap1\n      dup2\n      mstore\n      0x20\n      add\n      0x00\n      keccak256\n        /* \"contracts/UserManager.sol\":2166:2200  User memory user = users[userAddr] */\n      mload(0x40)\n      dup1\n      0x60\n      add\n      0x40\n      mstore\n      swap1\n      dup2\n      0x00\n      dup3\n      add\n      dup1\n      sload\n      tag_49\n      swap1\n      tag_50\n      jump\t// in\n    tag_49:\n      dup1\n      0x1f\n      add\n      0x20\n      dup1\n      swap2\n      div\n      mul\n      0x20\n      add\n      mload(0x40)\n      swap1\n      dup2\n      add\n      0x40\n      mstore\n      dup1\n      swap3\n      swap2\n      swap1\n      dup2\n      dup2\n      mstore\n      0x20\n      add\n      dup3\n      dup1\n      sload\n      tag_51\n      swap1\n      tag_50\n      jump\t// in\n    tag_51:\n      dup1\n      iszero\n      tag_52\n      jumpi\n      dup1\n      0x1f\n      lt\n      tag_53\n      jumpi\n      0x0100\n      dup1\n      dup4\n      sload\n      div\n      mul\n      dup4\n      mstore\n      swap2\n      0x20\n      add\n      swap2\n      jump(tag_52)\n    tag_53:\n      dup3\n      add\n      swap2\n      swap1\n      0x00\n      mstore\n      keccak256(0x00, 0x20)\n      swap1\n    tag_54:\n      dup2\n      sload\n      dup2\n      mstore\n      swap1\n      0x01\n      add\n      swap1\n      0x20\n      add\n      dup1\n      dup4\n      gt\n      tag_54\n      jumpi\n      dup3\n      swap1\n      sub\n      0x1f\n      and\n      dup3\n      add\n      swap2\n    tag_52:\n      pop\n      pop\n      pop\n      pop\n      pop\n      dup2\n      mstore\n      0x20\n      add\n      0x01\n      dup3\n      add\n      sload\n      dup2\n      mstore\n      0x20\n      add\n      0x02\n      dup3\n      add\n      0x00\n      swap1\n      sload\n      swap1\n      0x0100\n      exp\n      swap1\n      div\n      0xff\n      and\n      0x02\n      dup2\n      gt\n      iszero\n      tag_55\n      jumpi\n      tag_56\n      tag_33\n      jump\t// in\n    tag_56:\n    tag_55:\n      0x02\n      dup2\n      gt\n      iszero\n      tag_57\n      jumpi\n      tag_58\n      tag_33\n      jump\t// in\n    tag_58:\n    tag_57:\n      dup2\n      mstore\n      pop\n      pop\n      swap1\n      pop\n        /* \"contracts/UserManager.sol\":2219:2223  user */\n      dup1\n        /* \"contracts/UserManager.sol\":2219:2232  user.fullName */\n      0x00\n      add\n      mload\n        /* \"contracts/UserManager.sol\":2234:2238  user */\n      dup2\n        /* \"contracts/UserManager.sol\":2234:2250  user.dateOfBirth */\n      0x20\n      add\n      mload\n        /* \"contracts/UserManager.sol\":2252:2256  user */\n      dup3\n        /* \"contracts/UserManager.sol\":2252:2263  user.gender */\n      0x40\n      add\n      mload\n        /* \"contracts/UserManager.sol\":2211:2264  return (user.fullName, user.dateOfBirth, user.gender) */\n      swap5\n      pop\n      swap5\n      pop\n      swap5\n      pop\n      pop\n        /* \"contracts/UserManager.sol\":2024:2272  function getOtherUserData(address userAddr) ... */\n      pop\n      swap2\n      swap4\n      swap1\n      swap3\n      pop\n      jump\t// out\n        /* \"contracts/UserManager.sol\":1777:2016  function getCurrentUserData() ... */\n    tag_19:\n        /* \"contracts/UserManager.sol\":1864:1877  string memory */\n      0x60\n        /* \"contracts/UserManager.sol\":1879:1886  uint256 */\n      0x00\n        /* \"contracts/UserManager.sol\":1888:1894  Gender */\n      dup1\n        /* \"contracts/UserManager.sol\":1837:1847  msg.sender */\n      caller\n        /* \"contracts/UserManager.sol\":1001:1002  0 */\n      0x00\n        /* \"contracts/UserManager.sol\":971:976  users */\n      0x01\n        /* \"contracts/UserManager.sol\":971:986  users[userAddr] */\n      0x00\n        /* \"contracts/UserManager.sol\":977:985  userAddr */\n      dup4\n        /* \"contracts/UserManager.sol\":971:986  users[userAddr] */\n      0xffffffffffffffffffffffffffffffffffffffff\n      and\n      0xffffffffffffffffffffffffffffffffffffffff\n      and\n      dup2\n      mstore\n      0x20\n      add\n      swap1\n      dup2\n      mstore\n      0x20\n      add\n      0x00\n      keccak256\n        /* \"contracts/UserManager.sol\":971:998  users[userAddr].dateOfBirth */\n      0x01\n      add\n      sload\n        /* \"contracts/UserManager.sol\":971:1002  users[userAddr].dateOfBirth > 0 */\n      gt\n        /* \"contracts/UserManager.sol\":1004:1038  ErrorCodes.ERROR_USER_IS_NOT_FOUND */\n      mload(0x40)\n      dup1\n      0x40\n      add\n      0x40\n      mstore\n      dup1\n      0x11\n      dup2\n      mstore\n      0x20\n      add\n      0x555345525f49535f4e4f545f464f554e44000000000000000000000000000000\n      dup2\n      mstore\n      pop\n        /* \"contracts/UserManager.sol\":963:1039  require(users[userAddr].dateOfBirth > 0, ErrorCodes.ERROR_USER_IS_NOT_FOUND) */\n      swap1\n      tag_60\n      jumpi\n      mload(0x40)\n      0x08c379a000000000000000000000000000000000000000000000000000000000\n      dup2\n      mstore\n      0x04\n      add\n      tag_61\n      swap2\n      swap1\n      tag_42\n      jump\t// in\n    tag_61:\n      mload(0x40)\n      dup1\n      swap2\n      sub\n      swap1\n      revert\n    tag_60:\n      pop\n        /* \"contracts/UserManager.sol\":1908:1924  User memory user */\n      0x00\n        /* \"contracts/UserManager.sol\":1927:1932  users */\n      0x01\n        /* \"contracts/UserManager.sol\":1927:1944  users[msg.sender] */\n      0x00\n        /* \"contracts/UserManager.sol\":1933:1943  msg.sender */\n      caller\n        /* \"contracts/UserManager.sol\":1927:1944  users[msg.sender] */\n      0xffffffffffffffffffffffffffffffffffffffff\n      and\n      0xffffffffffffffffffffffffffffffffffffffff\n      and\n      dup2\n      mstore\n      0x20\n      add\n      swap1\n      dup2\n      mstore\n      0x20\n      add\n      0x00\n      keccak256\n        /* \"contracts/UserManager.sol\":1908:1944  User memory user = users[msg.sender] */\n      mload(0x40)\n      dup1\n      0x60\n      add\n      0x40\n      mstore\n      swap1\n      dup2\n      0x00\n      dup3\n      add\n      dup1\n      sload\n      tag_63\n      swap1\n      tag_50\n      jump\t// in\n    tag_63:\n      dup1\n      0x1f\n      add\n      0x20\n      dup1\n      swap2\n      div\n      mul\n      0x20\n      add\n      mload(0x40)\n      swap1\n      dup2\n      add\n      0x40\n      mstore\n      dup1\n      swap3\n      swap2\n      swap1\n      dup2\n      dup2\n      mstore\n      0x20\n      add\n      dup3\n      dup1\n      sload\n      tag_64\n      swap1\n      tag_50\n      jump\t// in\n    tag_64:\n      dup1\n      iszero\n      tag_65\n      jumpi\n      dup1\n      0x1f\n      lt\n      tag_66\n      jumpi\n      0x0100\n      dup1\n      dup4\n      sload\n      div\n      mul\n      dup4\n      mstore\n      swap2\n      0x20\n      add\n      swap2\n      jump(tag_65)\n    tag_66:\n      dup3\n      add\n      swap2\n      swap1\n      0x00\n      mstore\n      keccak256(0x00, 0x20)\n      swap1\n    tag_67:\n      dup2\n      sload\n      dup2\n      mstore\n      swap1\n      0x01\n      add\n      swap1\n      0x20\n      add\n      dup1\n      dup4\n      gt\n      tag_67\n      jumpi\n      dup3\n      swap1\n      sub\n      0x1f\n      and\n      dup3\n      add\n      swap2\n    tag_65:\n      pop\n      pop\n      pop\n      pop\n      pop\n      dup2\n      mstore\n      0x20\n      add\n      0x01\n      dup3\n      add\n      sload\n      dup2\n      mstore\n      0x20\n      add\n      0x02\n      dup3\n      add\n      0x00\n      swap1\n      sload\n      swap1\n      0x0100\n      exp\n      swap1\n      div\n      0xff\n      and\n      0x02\n      dup2\n      gt\n      iszero\n      tag_68\n      jumpi\n      tag_69\n      tag_33\n      jump\t// in\n    tag_69:\n    tag_68:\n      0x02\n      dup2\n      gt\n      iszero\n      tag_70\n      jumpi\n      tag_71\n      tag_33\n      jump\t// in\n    tag_71:\n    tag_70:\n      dup2\n      mstore\n      pop\n      pop\n      swap1\n      pop\n        /* \"contracts/UserManager.sol\":1963:1967  user */\n      dup1\n        /* \"contracts/UserManager.sol\":1963:1976  user.fullName */\n      0x00\n      add\n      mload\n        /* \"contracts/UserManager.sol\":1978:1982  user */\n      dup2\n        /* \"contracts/UserManager.sol\":1978:1994  user.dateOfBirth */\n      0x20\n      add\n      mload\n        /* \"contracts/UserManager.sol\":1996:2000  user */\n      dup3\n        /* \"contracts/UserManager.sol\":1996:2007  user.gender */\n      0x40\n      add\n      mload\n        /* \"contracts/UserManager.sol\":1955:2008  return (user.fullName, user.dateOfBirth, user.gender) */\n      swap5\n      pop\n      swap5\n      pop\n      swap5\n      pop\n      pop\n        /* \"contracts/UserManager.sol\":1777:2016  function getCurrentUserData() ... */\n      pop\n      swap1\n      swap2\n      swap3\n      jump\t// out\n        /* \"contracts/UserManager.sol\":1251:1502  function createUser(string memory _fullName, uint256 _dateOfBirth, Gender _gender) ... */\n    tag_24:\n        /* \"contracts/UserManager.sol\":1364:1374  msg.sender */\n      caller\n        /* \"contracts/UserManager.sol\":849:850  0 */\n      0x00\n        /* \"contracts/UserManager.sol\":818:823  users */\n      0x01\n        /* \"contracts/UserManager.sol\":818:833  users[userAddr] */\n      0x00\n        /* \"contracts/UserManager.sol\":824:832  userAddr */\n      dup4\n        /* \"contracts/UserManager.sol\":818:833  users[userAddr] */\n      0xffffffffffffffffffffffffffffffffffffffff\n      and\n      0xffffffffffffffffffffffffffffffffffffffff\n      and\n      dup2\n      mstore\n      0x20\n      add\n      swap1\n      dup2\n      mstore\n      0x20\n      add\n      0x00\n      keccak256\n        /* \"contracts/UserManager.sol\":818:845  users[userAddr].dateOfBirth */\n      0x01\n      add\n      sload\n        /* \"contracts/UserManager.sol\":818:850  users[userAddr].dateOfBirth == 0 */\n      eq\n        /* \"contracts/UserManager.sol\":852:884  ErrorCodes.ERROR_USER_IS_CREATED */\n      mload(0x40)\n      dup1\n      0x40\n      add\n      0x40\n      mstore\n      dup1\n      0x0f\n      dup2\n      mstore\n      0x20\n      add\n      0x555345525f49535f435245415445440000000000000000000000000000000000\n      dup2\n      mstore\n      pop\n        /* \"contracts/UserManager.sol\":810:885  require(users[userAddr].dateOfBirth == 0, ErrorCodes.ERROR_USER_IS_CREATED) */\n      swap1\n      tag_73\n      jumpi\n      mload(0x40)\n      0x08c379a000000000000000000000000000000000000000000000000000000000\n      dup2\n      mstore\n      0x04\n      add\n      tag_74\n      swap2\n      swap1\n      tag_42\n      jump\t// in\n    tag_74:\n      mload(0x40)\n      dup1\n      swap2\n      sub\n      swap1\n      revert\n    tag_73:\n      pop\n        /* \"contracts/UserManager.sol\":1407:1445  User(_fullName, _dateOfBirth, _gender) */\n      mload(0x40)\n      dup1\n      0x60\n      add\n      0x40\n      mstore\n      dup1\n        /* \"contracts/UserManager.sol\":1412:1421  _fullName */\n      dup6\n        /* \"contracts/UserManager.sol\":1407:1445  User(_fullName, _dateOfBirth, _gender) */\n      dup2\n      mstore\n      0x20\n      add\n        /* \"contracts/UserManager.sol\":1423:1435  _dateOfBirth */\n      dup5\n        /* \"contracts/UserManager.sol\":1407:1445  User(_fullName, _dateOfBirth, _gender) */\n      dup2\n      mstore\n      0x20\n      add\n        /* \"contracts/UserManager.sol\":1437:1444  _gender */\n      dup4\n        /* \"contracts/UserManager.sol\":1407:1445  User(_fullName, _dateOfBirth, _gender) */\n      0x02\n      dup2\n      gt\n      iszero\n      tag_76\n      jumpi\n      tag_77\n      tag_33\n      jump\t// in\n    tag_77:\n    tag_76:\n      dup2\n      mstore\n      pop\n        /* \"contracts/UserManager.sol\":1387:1392  users */\n      0x01\n        /* \"contracts/UserManager.sol\":1387:1404  users[msg.sender] */\n      0x00\n        /* \"contracts/UserManager.sol\":1393:1403  msg.sender */\n      caller\n        /* \"contracts/UserManager.sol\":1387:1404  users[msg.sender] */\n      0xffffffffffffffffffffffffffffffffffffffff\n      and\n      0xffffffffffffffffffffffffffffffffffffffff\n      and\n      dup2\n      mstore\n      0x20\n      add\n      swap1\n      dup2\n      mstore\n      0x20\n      add\n      0x00\n      keccak256\n        /* \"contracts/UserManager.sol\":1387:1445  users[msg.sender] = User(_fullName, _dateOfBirth, _gender) */\n      0x00\n      dup3\n      add\n      mload\n      dup2\n      0x00\n      add\n      swap1\n      dup2\n      tag_78\n      swap2\n      swap1\n      tag_79\n      jump\t// in\n    tag_78:\n      pop\n      0x20\n      dup3\n      add\n      mload\n      dup2\n      0x01\n      add\n      sstore\n      0x40\n      dup3\n      add\n      mload\n      dup2\n      0x02\n      add\n      exp(0x0100, 0x00)\n      dup2\n      sload\n      dup2\n      0xff\n      mul\n      not\n      and\n      swap1\n      dup4\n      0x02\n      dup2\n      gt\n      iszero\n      tag_80\n      jumpi\n      tag_81\n      tag_33\n      jump\t// in\n    tag_81:\n    tag_80:\n      mul\n      or\n      swap1\n      sstore\n      pop\n      swap1\n      pop\n      pop\n        /* \"contracts/UserManager.sol\":1456:1467  roleManager */\n      0x00\n      dup1\n      sload\n      swap1\n      0x0100\n      exp\n      swap1\n      div\n      0xffffffffffffffffffffffffffffffffffffffff\n      and\n        /* \"contracts/UserManager.sol\":1456:1482  roleManager.setStudentRole */\n      0xffffffffffffffffffffffffffffffffffffffff\n      and\n      0x2e1cd6c2\n        /* \"contracts/UserManager.sol\":1483:1493  msg.sender */\n      caller\n        /* \"contracts/UserManager.sol\":1456:1494  roleManager.setStudentRole(msg.sender) */\n      mload(0x40)\n      dup3\n      0xffffffff\n      and\n      0xe0\n      shl\n      dup2\n      mstore\n      0x04\n      add\n      tag_82\n      swap2\n      swap1\n      tag_83\n      jump\t// in\n    tag_82:\n      0x00\n      mload(0x40)\n      dup1\n      dup4\n      sub\n      dup2\n      0x00\n      dup8\n      dup1\n      extcodesize\n      iszero\n      dup1\n      iszero\n      tag_84\n      jumpi\n      0x00\n      dup1\n      revert\n    tag_84:\n      pop\n      gas\n      call\n      iszero\n      dup1\n      iszero\n      tag_86\n      jumpi\n      returndatasize\n      0x00\n      dup1\n      returndatacopy\n      revert(0x00, returndatasize)\n    tag_86:\n      pop\n      pop\n      pop\n      pop\n        /* \"contracts/UserManager.sol\":1251:1502  function createUser(string memory _fullName, uint256 _dateOfBirth, Gender _gender) ... */\n      pop\n      pop\n      pop\n      pop\n      jump\t// out\n        /* \"contracts/UserManager.sol\":2548:3102  function listAllNftsOfUser(address userAddr)... */\n    tag_27:\n        /* \"contracts/UserManager.sol\":2618:2634  uint256[] memory */\n      0x60\n        /* \"contracts/UserManager.sol\":2647:2675  UserToken[] memory listToken */\n      0x00\n        /* \"contracts/UserManager.sol\":2678:2694  listOfUsersToken */\n      0x02\n        /* \"contracts/UserManager.sol\":2678:2704  listOfUsersToken[userAddr] */\n      0x00\n        /* \"contracts/UserManager.sol\":2695:2703  userAddr */\n      dup5\n        /* \"contracts/UserManager.sol\":2678:2704  listOfUsersToken[userAddr] */\n      0xffffffffffffffffffffffffffffffffffffffff\n      and\n      0xffffffffffffffffffffffffffffffffffffffff\n      and\n      dup2\n      mstore\n      0x20\n      add\n      swap1\n      dup2\n      mstore\n      0x20\n      add\n      0x00\n      keccak256\n        /* \"contracts/UserManager.sol\":2647:2704  UserToken[] memory listToken = listOfUsersToken[userAddr] */\n      dup1\n      sload\n      dup1\n      0x20\n      mul\n      0x20\n      add\n      mload(0x40)\n      swap1\n      dup2\n      add\n      0x40\n      mstore\n      dup1\n      swap3\n      swap2\n      swap1\n      dup2\n      dup2\n      mstore\n      0x20\n      add\n      0x00\n      swap1\n    tag_88:\n      dup3\n      dup3\n      lt\n      iszero\n      tag_89\n      jumpi\n      dup4\n      dup3\n      swap1\n      0x00\n      mstore\n      keccak256(0x00, 0x20)\n      swap1\n      0x02\n      mul\n      add\n      mload(0x40)\n      dup1\n      0x40\n      add\n      0x40\n      mstore\n      swap1\n      dup2\n      0x00\n      dup3\n      add\n      sload\n      dup2\n      mstore\n      0x20\n      add\n      0x01\n      dup3\n      add\n      0x00\n      swap1\n      sload\n      swap1\n      0x0100\n      exp\n      swap1\n      div\n      0xff\n      and\n      iszero\n      iszero\n      iszero\n      iszero\n      dup2\n      mstore\n      pop\n      pop\n      dup2\n      mstore\n      0x20\n      add\n      swap1\n      0x01\n      add\n      swap1\n      jump(tag_88)\n    tag_89:\n      pop\n      pop\n      pop\n      pop\n      swap1\n      pop\n        /* \"contracts/UserManager.sol\":2715:2744  uint256[] memory tokenIdArray */\n      0x00\n        /* \"contracts/UserManager.sol\":2761:2770  listToken */\n      dup2\n        /* \"contracts/UserManager.sol\":2761:2777  listToken.length */\n      mload\n        /* \"contracts/UserManager.sol\":2747:2778  new uint256[](listToken.length) */\n      0xffffffffffffffff\n      dup2\n      gt\n      iszero\n      tag_91\n      jumpi\n      tag_92\n      tag_93\n      jump\t// in\n    tag_92:\n    tag_91:\n      mload(0x40)\n      swap1\n      dup1\n      dup3\n      mstore\n      dup1\n      0x20\n      mul\n      0x20\n      add\n      dup3\n      add\n      0x40\n      mstore\n      dup1\n      iszero\n      tag_94\n      jumpi\n      dup2\n      0x20\n      add\n      0x20\n      dup3\n      mul\n      dup1\n      calldatasize\n      dup4\n      calldatacopy\n      dup1\n      dup3\n      add\n      swap2\n      pop\n      pop\n      swap1\n      pop\n    tag_94:\n      pop\n        /* \"contracts/UserManager.sol\":2715:2778  uint256[] memory tokenIdArray = new uint256[](listToken.length) */\n      swap1\n      pop\n        /* \"contracts/UserManager.sol\":2789:2800  uint256 idx */\n      0x00\n        /* \"contracts/UserManager.sol\":2820:2829  uint256 i */\n      dup1\n        /* \"contracts/UserManager.sol\":2815:3065  for (uint256 i = 0; i < listToken.length; i++) {... */\n    tag_95:\n        /* \"contracts/UserManager.sol\":2839:2848  listToken */\n      dup4\n        /* \"contracts/UserManager.sol\":2839:2855  listToken.length */\n      mload\n        /* \"contracts/UserManager.sol\":2835:2836  i */\n      dup2\n        /* \"contracts/UserManager.sol\":2835:2855  i < listToken.length */\n      lt\n        /* \"contracts/UserManager.sol\":2815:3065  for (uint256 i = 0; i < listToken.length; i++) {... */\n      iszero\n      tag_96\n      jumpi\n        /* \"contracts/UserManager.sol\":2894:2904  msg.sender */\n      caller\n        /* \"contracts/UserManager.sol\":2882:2904  userAddr == msg.sender */\n      0xffffffffffffffffffffffffffffffffffffffff\n      and\n        /* \"contracts/UserManager.sol\":2882:2890  userAddr */\n      dup7\n        /* \"contracts/UserManager.sol\":2882:2904  userAddr == msg.sender */\n      0xffffffffffffffffffffffffffffffffffffffff\n      and\n      eq\n        /* \"contracts/UserManager.sol\":2882:2930  userAddr == msg.sender && !listToken[i].isPublic */\n      dup1\n      iszero\n      tag_98\n      jumpi\n      pop\n        /* \"contracts/UserManager.sol\":2909:2918  listToken */\n      dup4\n        /* \"contracts/UserManager.sol\":2919:2920  i */\n      dup2\n        /* \"contracts/UserManager.sol\":2909:2921  listToken[i] */\n      dup2\n      mload\n      dup2\n      lt\n      tag_99\n      jumpi\n      tag_100\n      tag_101\n      jump\t// in\n    tag_100:\n    tag_99:\n      0x20\n      mul\n      0x20\n      add\n      add\n      mload\n        /* \"contracts/UserManager.sol\":2909:2930  listToken[i].isPublic */\n      0x20\n      add\n      mload\n        /* \"contracts/UserManager.sol\":2908:2930  !listToken[i].isPublic */\n      iszero\n        /* \"contracts/UserManager.sol\":2882:2930  userAddr == msg.sender && !listToken[i].isPublic */\n    tag_98:\n        /* \"contracts/UserManager.sol\":2881:2967  (userAddr == msg.sender && !listToken[i].isPublic) || roleManager.isCurrentUserAdmin() */\n      dup1\n      tag_102\n      jumpi\n      pop\n        /* \"contracts/UserManager.sol\":2935:2946  roleManager */\n      0x00\n      dup1\n      sload\n      swap1\n      0x0100\n      exp\n      swap1\n      div\n      0xffffffffffffffffffffffffffffffffffffffff\n      and\n        /* \"contracts/UserManager.sol\":2935:2965  roleManager.isCurrentUserAdmin */\n      0xffffffffffffffffffffffffffffffffffffffff\n      and\n      0x9805524a\n        /* \"contracts/UserManager.sol\":2935:2967  roleManager.isCurrentUserAdmin() */\n      mload(0x40)\n      dup2\n      0xffffffff\n      and\n      0xe0\n      shl\n      dup2\n      mstore\n      0x04\n      add\n      0x20\n      mload(0x40)\n      dup1\n      dup4\n      sub\n      dup2\n      dup7\n      gas\n      staticcall\n      iszero\n      dup1\n      iszero\n      tag_104\n      jumpi\n      returndatasize\n      0x00\n      dup1\n      returndatacopy\n      revert(0x00, returndatasize)\n    tag_104:\n      pop\n      pop\n      pop\n      pop\n      mload(0x40)\n      returndatasize\n      not(0x1f)\n      0x1f\n      dup3\n      add\n      and\n      dup3\n      add\n      dup1\n      0x40\n      mstore\n      pop\n      dup2\n      add\n      swap1\n      tag_105\n      swap2\n      swap1\n      tag_106\n      jump\t// in\n    tag_105:\n        /* \"contracts/UserManager.sol\":2881:2967  (userAddr == msg.sender && !listToken[i].isPublic) || roleManager.isCurrentUserAdmin() */\n    tag_102:\n        /* \"contracts/UserManager.sol\":2881:2992  (userAddr == msg.sender && !listToken[i].isPublic) || roleManager.isCurrentUserAdmin() || listToken[i].isPublic */\n      dup1\n      tag_107\n      jumpi\n      pop\n        /* \"contracts/UserManager.sol\":2971:2980  listToken */\n      dup4\n        /* \"contracts/UserManager.sol\":2981:2982  i */\n      dup2\n        /* \"contracts/UserManager.sol\":2971:2983  listToken[i] */\n      dup2\n      mload\n      dup2\n      lt\n      tag_108\n      jumpi\n      tag_109\n      tag_101\n      jump\t// in\n    tag_109:\n    tag_108:\n      0x20\n      mul\n      0x20\n      add\n      add\n      mload\n        /* \"contracts/UserManager.sol\":2971:2992  listToken[i].isPublic */\n      0x20\n      add\n      mload\n        /* \"contracts/UserManager.sol\":2881:2992  (userAddr == msg.sender && !listToken[i].isPublic) || roleManager.isCurrentUserAdmin() || listToken[i].isPublic */\n    tag_107:\n        /* \"contracts/UserManager.sol\":2877:3053  if ((userAddr == msg.sender && !listToken[i].isPublic) || roleManager.isCurrentUserAdmin() || listToken[i].isPublic)... */\n      iszero\n      tag_110\n      jumpi\n        /* \"contracts/UserManager.sol\":3033:3042  listToken */\n      dup4\n        /* \"contracts/UserManager.sol\":3043:3044  i */\n      dup2\n        /* \"contracts/UserManager.sol\":3033:3045  listToken[i] */\n      dup2\n      mload\n      dup2\n      lt\n      tag_111\n      jumpi\n      tag_112\n      tag_101\n      jump\t// in\n    tag_112:\n    tag_111:\n      0x20\n      mul\n      0x20\n      add\n      add\n      mload\n        /* \"contracts/UserManager.sol\":3033:3053  listToken[i].tokenId */\n      0x00\n      add\n      mload\n        /* \"contracts/UserManager.sol\":3011:3023  tokenIdArray */\n      dup4\n        /* \"contracts/UserManager.sol\":3024:3029  idx++ */\n      dup4\n      dup1\n      tag_113\n      swap1\n      tag_114\n      jump\t// in\n    tag_113:\n      swap5\n      pop\n        /* \"contracts/UserManager.sol\":3011:3030  tokenIdArray[idx++] */\n      dup2\n      mload\n      dup2\n      lt\n      tag_115\n      jumpi\n      tag_116\n      tag_101\n      jump\t// in\n    tag_116:\n    tag_115:\n      0x20\n      mul\n      0x20\n      add\n      add\n        /* \"contracts/UserManager.sol\":3011:3053  tokenIdArray[idx++] = listToken[i].tokenId */\n      dup2\n      dup2\n      mstore\n      pop\n      pop\n        /* \"contracts/UserManager.sol\":2877:3053  if ((userAddr == msg.sender && !listToken[i].isPublic) || roleManager.isCurrentUserAdmin() || listToken[i].isPublic)... */\n    tag_110:\n        /* \"contracts/UserManager.sol\":2857:2860  i++ */\n      dup1\n      dup1\n      0x01\n      add\n      swap2\n      pop\n      pop\n        /* \"contracts/UserManager.sol\":2815:3065  for (uint256 i = 0; i < listToken.length; i++) {... */\n      jump(tag_95)\n    tag_96:\n      pop\n        /* \"contracts/UserManager.sol\":3082:3094  tokenIdArray */\n      dup2\n        /* \"contracts/UserManager.sol\":3075:3094  return tokenIdArray */\n      swap4\n      pop\n      pop\n      pop\n      pop\n        /* \"contracts/UserManager.sol\":2548:3102  function listAllNftsOfUser(address userAddr)... */\n      swap2\n      swap1\n      pop\n      jump\t// out\n        /* \"#utility.yul\":7:82   */\n    tag_117:\n        /* \"#utility.yul\":40:46   */\n      0x00\n        /* \"#utility.yul\":73:75   */\n      0x40\n        /* \"#utility.yul\":67:76   */\n      mload\n        /* \"#utility.yul\":57:76   */\n      swap1\n      pop\n        /* \"#utility.yul\":7:82   */\n      swap1\n      jump\t// out\n        /* \"#utility.yul\":88:205   */\n    tag_118:\n        /* \"#utility.yul\":197:198   */\n      0x00\n        /* \"#utility.yul\":194:195   */\n      dup1\n        /* \"#utility.yul\":187:199   */\n      revert\n        /* \"#utility.yul\":211:328   */\n    tag_119:\n        /* \"#utility.yul\":320:321   */\n      0x00\n        /* \"#utility.yul\":317:318   */\n      dup1\n        /* \"#utility.yul\":310:322   */\n      revert\n        /* \"#utility.yul\":334:460   */\n    tag_120:\n        /* \"#utility.yul\":371:378   */\n      0x00\n        /* \"#utility.yul\":411:453   */\n      0xffffffffffffffffffffffffffffffffffffffff\n        /* \"#utility.yul\":404:409   */\n      dup3\n        /* \"#utility.yul\":400:454   */\n      and\n        /* \"#utility.yul\":389:454   */\n      swap1\n      pop\n        /* \"#utility.yul\":334:460   */\n      swap2\n      swap1\n      pop\n      jump\t// out\n        /* \"#utility.yul\":466:562   */\n    tag_121:\n        /* \"#utility.yul\":503:510   */\n      0x00\n        /* \"#utility.yul\":532:556   */\n      tag_183\n        /* \"#utility.yul\":550:555   */\n      dup3\n        /* \"#utility.yul\":532:556   */\n      tag_120\n      jump\t// in\n    tag_183:\n        /* \"#utility.yul\":521:556   */\n      swap1\n      pop\n        /* \"#utility.yul\":466:562   */\n      swap2\n      swap1\n      pop\n      jump\t// out\n        /* \"#utility.yul\":568:690   */\n    tag_122:\n        /* \"#utility.yul\":641:665   */\n      tag_185\n        /* \"#utility.yul\":659:664   */\n      dup2\n        /* \"#utility.yul\":641:665   */\n      tag_121\n      jump\t// in\n    tag_185:\n        /* \"#utility.yul\":634:639   */\n      dup2\n        /* \"#utility.yul\":631:666   */\n      eq\n        /* \"#utility.yul\":621:684   */\n      tag_186\n      jumpi\n        /* \"#utility.yul\":680:681   */\n      0x00\n        /* \"#utility.yul\":677:678   */\n      dup1\n        /* \"#utility.yul\":670:682   */\n      revert\n        /* \"#utility.yul\":621:684   */\n    tag_186:\n        /* \"#utility.yul\":568:690   */\n      pop\n      jump\t// out\n        /* \"#utility.yul\":696:835   */\n    tag_123:\n        /* \"#utility.yul\":742:747   */\n      0x00\n        /* \"#utility.yul\":780:786   */\n      dup2\n        /* \"#utility.yul\":767:787   */\n      calldataload\n        /* \"#utility.yul\":758:787   */\n      swap1\n      pop\n        /* \"#utility.yul\":796:829   */\n      tag_188\n        /* \"#utility.yul\":823:828   */\n      dup2\n        /* \"#utility.yul\":796:829   */\n      tag_122\n      jump\t// in\n    tag_188:\n        /* \"#utility.yul\":696:835   */\n      swap3\n      swap2\n      pop\n      pop\n      jump\t// out\n        /* \"#utility.yul\":841:918   */\n    tag_124:\n        /* \"#utility.yul\":878:885   */\n      0x00\n        /* \"#utility.yul\":907:912   */\n      dup2\n        /* \"#utility.yul\":896:912   */\n      swap1\n      pop\n        /* \"#utility.yul\":841:918   */\n      swap2\n      swap1\n      pop\n      jump\t// out\n        /* \"#utility.yul\":924:1046   */\n    tag_125:\n        /* \"#utility.yul\":997:1021   */\n      tag_191\n        /* \"#utility.yul\":1015:1020   */\n      dup2\n        /* \"#utility.yul\":997:1021   */\n      tag_124\n      jump\t// in\n    tag_191:\n        /* \"#utility.yul\":990:995   */\n      dup2\n        /* \"#utility.yul\":987:1022   */\n      eq\n        /* \"#utility.yul\":977:1040   */\n      tag_192\n      jumpi\n        /* \"#utility.yul\":1036:1037   */\n      0x00\n        /* \"#utility.yul\":1033:1034   */\n      dup1\n        /* \"#utility.yul\":1026:1038   */\n      revert\n        /* \"#utility.yul\":977:1040   */\n    tag_192:\n        /* \"#utility.yul\":924:1046   */\n      pop\n      jump\t// out\n        /* \"#utility.yul\":1052:1191   */\n    tag_126:\n        /* \"#utility.yul\":1098:1103   */\n      0x00\n        /* \"#utility.yul\":1136:1142   */\n      dup2\n        /* \"#utility.yul\":1123:1143   */\n      calldataload\n        /* \"#utility.yul\":1114:1143   */\n      swap1\n      pop\n        /* \"#utility.yul\":1152:1185   */\n      tag_194\n        /* \"#utility.yul\":1179:1184   */\n      dup2\n        /* \"#utility.yul\":1152:1185   */\n      tag_125\n      jump\t// in\n    tag_194:\n        /* \"#utility.yul\":1052:1191   */\n      swap3\n      swap2\n      pop\n      pop\n      jump\t// out\n        /* \"#utility.yul\":1197:1671   */\n    tag_10:\n        /* \"#utility.yul\":1265:1271   */\n      0x00\n        /* \"#utility.yul\":1273:1279   */\n      dup1\n        /* \"#utility.yul\":1322:1324   */\n      0x40\n        /* \"#utility.yul\":1310:1319   */\n      dup4\n        /* \"#utility.yul\":1301:1308   */\n      dup6\n        /* \"#utility.yul\":1297:1320   */\n      sub\n        /* \"#utility.yul\":1293:1325   */\n      slt\n        /* \"#utility.yul\":1290:1409   */\n      iszero\n      tag_196\n      jumpi\n        /* \"#utility.yul\":1328:1407   */\n      tag_197\n      tag_118\n      jump\t// in\n    tag_197:\n        /* \"#utility.yul\":1290:1409   */\n    tag_196:\n        /* \"#utility.yul\":1448:1449   */\n      0x00\n        /* \"#utility.yul\":1473:1526   */\n      tag_198\n        /* \"#utility.yul\":1518:1525   */\n      dup6\n        /* \"#utility.yul\":1509:1515   */\n      dup3\n        /* \"#utility.yul\":1498:1507   */\n      dup7\n        /* \"#utility.yul\":1494:1516   */\n      add\n        /* \"#utility.yul\":1473:1526   */\n      tag_123\n      jump\t// in\n    tag_198:\n        /* \"#utility.yul\":1463:1526   */\n      swap3\n      pop\n        /* \"#utility.yul\":1419:1536   */\n      pop\n        /* \"#utility.yul\":1575:1577   */\n      0x20\n        /* \"#utility.yul\":1601:1654   */\n      tag_199\n        /* \"#utility.yul\":1646:1653   */\n      dup6\n        /* \"#utility.yul\":1637:1643   */\n      dup3\n        /* \"#utility.yul\":1626:1635   */\n      dup7\n        /* \"#utility.yul\":1622:1644   */\n      add\n        /* \"#utility.yul\":1601:1654   */\n      tag_126\n      jump\t// in\n    tag_199:\n        /* \"#utility.yul\":1591:1654   */\n      swap2\n      pop\n        /* \"#utility.yul\":1546:1664   */\n      pop\n        /* \"#utility.yul\":1197:1671   */\n      swap3\n      pop\n      swap3\n      swap1\n      pop\n      jump\t// out\n        /* \"#utility.yul\":1677:2006   */\n    tag_14:\n        /* \"#utility.yul\":1736:1742   */\n      0x00\n        /* \"#utility.yul\":1785:1787   */\n      0x20\n        /* \"#utility.yul\":1773:1782   */\n      dup3\n        /* \"#utility.yul\":1764:1771   */\n      dup5\n        /* \"#utility.yul\":1760:1783   */\n      sub\n        /* \"#utility.yul\":1756:1788   */\n      slt\n        /* \"#utility.yul\":1753:1872   */\n      iszero\n      tag_201\n      jumpi\n        /* \"#utility.yul\":1791:1870   */\n      tag_202\n      tag_118\n      jump\t// in\n    tag_202:\n        /* \"#utility.yul\":1753:1872   */\n    tag_201:\n        /* \"#utility.yul\":1911:1912   */\n      0x00\n        /* \"#utility.yul\":1936:1989   */\n      tag_203\n        /* \"#utility.yul\":1981:1988   */\n      dup5\n        /* \"#utility.yul\":1972:1978   */\n      dup3\n        /* \"#utility.yul\":1961:1970   */\n      dup6\n        /* \"#utility.yul\":1957:1979   */\n      add\n        /* \"#utility.yul\":1936:1989   */\n      tag_123\n      jump\t// in\n    tag_203:\n        /* \"#utility.yul\":1926:1989   */\n      swap2\n      pop\n        /* \"#utility.yul\":1882:1999   */\n      pop\n        /* \"#utility.yul\":1677:2006   */\n      swap3\n      swap2\n      pop\n      pop\n      jump\t// out\n        /* \"#utility.yul\":2012:2111   */\n    tag_127:\n        /* \"#utility.yul\":2064:2070   */\n      0x00\n        /* \"#utility.yul\":2098:2103   */\n      dup2\n        /* \"#utility.yul\":2092:2104   */\n      mload\n        /* \"#utility.yul\":2082:2104   */\n      swap1\n      pop\n        /* \"#utility.yul\":2012:2111   */\n      swap2\n      swap1\n      pop\n      jump\t// out\n        /* \"#utility.yul\":2117:2286   */\n    tag_128:\n        /* \"#utility.yul\":2201:2212   */\n      0x00\n        /* \"#utility.yul\":2235:2241   */\n      dup3\n        /* \"#utility.yul\":2230:2233   */\n      dup3\n        /* \"#utility.yul\":2223:2242   */\n      mstore\n        /* \"#utility.yul\":2275:2279   */\n      0x20\n        /* \"#utility.yul\":2270:2273   */\n      dup3\n        /* \"#utility.yul\":2266:2280   */\n      add\n        /* \"#utility.yul\":2251:2280   */\n      swap1\n      pop\n        /* \"#utility.yul\":2117:2286   */\n      swap3\n      swap2\n      pop\n      pop\n      jump\t// out\n        /* \"#utility.yul\":2292:2431   */\n    tag_129:\n        /* \"#utility.yul\":2381:2387   */\n      dup3\n        /* \"#utility.yul\":2376:2379   */\n      dup2\n        /* \"#utility.yul\":2371:2374   */\n      dup4\n        /* \"#utility.yul\":2365:2388   */\n      mcopy\n        /* \"#utility.yul\":2422:2423   */\n      0x00\n        /* \"#utility.yul\":2413:2419   */\n      dup4\n        /* \"#utility.yul\":2408:2411   */\n      dup4\n        /* \"#utility.yul\":2404:2420   */\n      add\n        /* \"#utility.yul\":2397:2424   */\n      mstore\n        /* \"#utility.yul\":2292:2431   */\n      pop\n      pop\n      pop\n      jump\t// out\n        /* \"#utility.yul\":2437:2539   */\n    tag_130:\n        /* \"#utility.yul\":2478:2484   */\n      0x00\n        /* \"#utility.yul\":2529:2531   */\n      0x1f\n        /* \"#utility.yul\":2525:2532   */\n      not\n        /* \"#utility.yul\":2520:2522   */\n      0x1f\n        /* \"#utility.yul\":2513:2518   */\n      dup4\n        /* \"#utility.yul\":2509:2523   */\n      add\n        /* \"#utility.yul\":2505:2533   */\n      and\n        /* \"#utility.yul\":2495:2533   */\n      swap1\n      pop\n        /* \"#utility.yul\":2437:2539   */\n      swap2\n      swap1\n      pop\n      jump\t// out\n        /* \"#utility.yul\":2545:2922   */\n    tag_131:\n        /* \"#utility.yul\":2633:2636   */\n      0x00\n        /* \"#utility.yul\":2661:2700   */\n      tag_209\n        /* \"#utility.yul\":2694:2699   */\n      dup3\n        /* \"#utility.yul\":2661:2700   */\n      tag_127\n      jump\t// in\n    tag_209:\n        /* \"#utility.yul\":2716:2787   */\n      tag_210\n        /* \"#utility.yul\":2780:2786   */\n      dup2\n        /* \"#utility.yul\":2775:2778   */\n      dup6\n        /* \"#utility.yul\":2716:2787   */\n      tag_128\n      jump\t// in\n    tag_210:\n        /* \"#utility.yul\":2709:2787   */\n      swap4\n      pop\n        /* \"#utility.yul\":2796:2861   */\n      tag_211\n        /* \"#utility.yul\":2854:2860   */\n      dup2\n        /* \"#utility.yul\":2849:2852   */\n      dup6\n        /* \"#utility.yul\":2842:2846   */\n      0x20\n        /* \"#utility.yul\":2835:2840   */\n      dup7\n        /* \"#utility.yul\":2831:2847   */\n      add\n        /* \"#utility.yul\":2796:2861   */\n      tag_129\n      jump\t// in\n    tag_211:\n        /* \"#utility.yul\":2886:2915   */\n      tag_212\n        /* \"#utility.yul\":2908:2914   */\n      dup2\n        /* \"#utility.yul\":2886:2915   */\n      tag_130\n      jump\t// in\n    tag_212:\n        /* \"#utility.yul\":2881:2884   */\n      dup5\n        /* \"#utility.yul\":2877:2916   */\n      add\n        /* \"#utility.yul\":2870:2916   */\n      swap2\n      pop\n        /* \"#utility.yul\":2637:2922   */\n      pop\n        /* \"#utility.yul\":2545:2922   */\n      swap3\n      swap2\n      pop\n      pop\n      jump\t// out\n        /* \"#utility.yul\":2928:3046   */\n    tag_132:\n        /* \"#utility.yul\":3015:3039   */\n      tag_214\n        /* \"#utility.yul\":3033:3038   */\n      dup2\n        /* \"#utility.yul\":3015:3039   */\n      tag_124\n      jump\t// in\n    tag_214:\n        /* \"#utility.yul\":3010:3013   */\n      dup3\n        /* \"#utility.yul\":3003:3040   */\n      mstore\n        /* \"#utility.yul\":2928:3046   */\n      pop\n      pop\n      jump\t// out\n        /* \"#utility.yul\":3052:3232   */\n    tag_33:\n        /* \"#utility.yul\":3100:3177   */\n      0x4e487b7100000000000000000000000000000000000000000000000000000000\n        /* \"#utility.yul\":3097:3098   */\n      0x00\n        /* \"#utility.yul\":3090:3178   */\n      mstore\n        /* \"#utility.yul\":3197:3201   */\n      0x21\n        /* \"#utility.yul\":3194:3195   */\n      0x04\n        /* \"#utility.yul\":3187:3202   */\n      mstore\n        /* \"#utility.yul\":3221:3225   */\n      0x24\n        /* \"#utility.yul\":3218:3219   */\n      0x00\n        /* \"#utility.yul\":3211:3226   */\n      revert\n        /* \"#utility.yul\":3238:3353   */\n    tag_133:\n        /* \"#utility.yul\":3321:3322   */\n      0x03\n        /* \"#utility.yul\":3314:3319   */\n      dup2\n        /* \"#utility.yul\":3311:3323   */\n      lt\n        /* \"#utility.yul\":3301:3347   */\n      tag_217\n      jumpi\n        /* \"#utility.yul\":3327:3345   */\n      tag_218\n      tag_33\n      jump\t// in\n    tag_218:\n        /* \"#utility.yul\":3301:3347   */\n    tag_217:\n        /* \"#utility.yul\":3238:3353   */\n      pop\n      jump\t// out\n        /* \"#utility.yul\":3359:3490   */\n    tag_134:\n        /* \"#utility.yul\":3406:3413   */\n      0x00\n        /* \"#utility.yul\":3435:3440   */\n      dup2\n        /* \"#utility.yul\":3424:3440   */\n      swap1\n      pop\n        /* \"#utility.yul\":3441:3484   */\n      tag_220\n        /* \"#utility.yul\":3478:3483   */\n      dup3\n        /* \"#utility.yul\":3441:3484   */\n      tag_133\n      jump\t// in\n    tag_220:\n        /* \"#utility.yul\":3359:3490   */\n      swap2\n      swap1\n      pop\n      jump\t// out\n        /* \"#utility.yul\":3496:3627   */\n    tag_135:\n        /* \"#utility.yul\":3554:3563   */\n      0x00\n        /* \"#utility.yul\":3587:3621   */\n      tag_222\n        /* \"#utility.yul\":3615:3620   */\n      dup3\n        /* \"#utility.yul\":3587:3621   */\n      tag_134\n      jump\t// in\n    tag_222:\n        /* \"#utility.yul\":3574:3621   */\n      swap1\n      pop\n        /* \"#utility.yul\":3496:3627   */\n      swap2\n      swap1\n      pop\n      jump\t// out\n        /* \"#utility.yul\":3633:3780   */\n    tag_136:\n        /* \"#utility.yul\":3728:3773   */\n      tag_224\n        /* \"#utility.yul\":3767:3772   */\n      dup2\n        /* \"#utility.yul\":3728:3773   */\n      tag_135\n      jump\t// in\n    tag_224:\n        /* \"#utility.yul\":3723:3726   */\n      dup3\n        /* \"#utility.yul\":3716:3774   */\n      mstore\n        /* \"#utility.yul\":3633:3780   */\n      pop\n      pop\n      jump\t// out\n        /* \"#utility.yul\":3786:4335   */\n    tag_17:\n        /* \"#utility.yul\":3963:3967   */\n      0x00\n        /* \"#utility.yul\":4001:4003   */\n      0x60\n        /* \"#utility.yul\":3990:3999   */\n      dup3\n        /* \"#utility.yul\":3986:4004   */\n      add\n        /* \"#utility.yul\":3978:4004   */\n      swap1\n      pop\n        /* \"#utility.yul\":4050:4059   */\n      dup2\n        /* \"#utility.yul\":4044:4048   */\n      dup2\n        /* \"#utility.yul\":4040:4060   */\n      sub\n        /* \"#utility.yul\":4036:4037   */\n      0x00\n        /* \"#utility.yul\":4025:4034   */\n      dup4\n        /* \"#utility.yul\":4021:4038   */\n      add\n        /* \"#utility.yul\":4014:4061   */\n      mstore\n        /* \"#utility.yul\":4078:4156   */\n      tag_226\n        /* \"#utility.yul\":4151:4155   */\n      dup2\n        /* \"#utility.yul\":4142:4148   */\n      dup7\n        /* \"#utility.yul\":4078:4156   */\n      tag_131\n      jump\t// in\n    tag_226:\n        /* \"#utility.yul\":4070:4156   */\n      swap1\n      pop\n        /* \"#utility.yul\":4166:4238   */\n      tag_227\n        /* \"#utility.yul\":4234:4236   */\n      0x20\n        /* \"#utility.yul\":4223:4232   */\n      dup4\n        /* \"#utility.yul\":4219:4237   */\n      add\n        /* \"#utility.yul\":4210:4216   */\n      dup6\n        /* \"#utility.yul\":4166:4238   */\n      tag_132\n      jump\t// in\n    tag_227:\n        /* \"#utility.yul\":4248:4328   */\n      tag_228\n        /* \"#utility.yul\":4324:4326   */\n      0x40\n        /* \"#utility.yul\":4313:4322   */\n      dup4\n        /* \"#utility.yul\":4309:4327   */\n      add\n        /* \"#utility.yul\":4300:4306   */\n      dup5\n        /* \"#utility.yul\":4248:4328   */\n      tag_136\n      jump\t// in\n    tag_228:\n        /* \"#utility.yul\":3786:4335   */\n      swap5\n      swap4\n      pop\n      pop\n      pop\n      pop\n      jump\t// out\n        /* \"#utility.yul\":4341:4458   */\n    tag_137:\n        /* \"#utility.yul\":4450:4451   */\n      0x00\n        /* \"#utility.yul\":4447:4448   */\n      dup1\n        /* \"#utility.yul\":4440:4452   */\n      revert\n        /* \"#utility.yul\":4464:4581   */\n    tag_138:\n        /* \"#utility.yul\":4573:4574   */\n      0x00\n        /* \"#utility.yul\":4570:4571   */\n      dup1\n        /* \"#utility.yul\":4563:4575   */\n      revert\n        /* \"#utility.yul\":4587:4767   */\n    tag_93:\n        /* \"#utility.yul\":4635:4712   */\n      0x4e487b7100000000000000000000000000000000000000000000000000000000\n        /* \"#utility.yul\":4632:4633   */\n      0x00\n        /* \"#utility.yul\":4625:4713   */\n      mstore\n        /* \"#utility.yul\":4732:4736   */\n      0x41\n        /* \"#utility.yul\":4729:4730   */\n      0x04\n        /* \"#utility.yul\":4722:4737   */\n      mstore\n        /* \"#utility.yul\":4756:4760   */\n      0x24\n        /* \"#utility.yul\":4753:4754   */\n      0x00\n        /* \"#utility.yul\":4746:4761   */\n      revert\n        /* \"#utility.yul\":4773:5054   */\n    tag_139:\n        /* \"#utility.yul\":4856:4883   */\n      tag_233\n        /* \"#utility.yul\":4878:4882   */\n      dup3\n        /* \"#utility.yul\":4856:4883   */\n      tag_130\n      jump\t// in\n    tag_233:\n        /* \"#utility.yul\":4848:4854   */\n      dup2\n        /* \"#utility.yul\":4844:4884   */\n      add\n        /* \"#utility.yul\":4986:4992   */\n      dup2\n        /* \"#utility.yul\":4974:4984   */\n      dup2\n        /* \"#utility.yul\":4971:4993   */\n      lt\n        /* \"#utility.yul\":4950:4968   */\n      0xffffffffffffffff\n        /* \"#utility.yul\":4938:4948   */\n      dup3\n        /* \"#utility.yul\":4935:4969   */\n      gt\n        /* \"#utility.yul\":4932:4994   */\n      or\n        /* \"#utility.yul\":4929:5017   */\n      iszero\n      tag_234\n      jumpi\n        /* \"#utility.yul\":4997:5015   */\n      tag_235\n      tag_93\n      jump\t// in\n    tag_235:\n        /* \"#utility.yul\":4929:5017   */\n    tag_234:\n        /* \"#utility.yul\":5037:5047   */\n      dup1\n        /* \"#utility.yul\":5033:5035   */\n      0x40\n        /* \"#utility.yul\":5026:5048   */\n      mstore\n        /* \"#utility.yul\":4816:5054   */\n      pop\n        /* \"#utility.yul\":4773:5054   */\n      pop\n      pop\n      jump\t// out\n        /* \"#utility.yul\":5060:5189   */\n    tag_140:\n        /* \"#utility.yul\":5094:5100   */\n      0x00\n        /* \"#utility.yul\":5121:5141   */\n      tag_237\n      tag_117\n      jump\t// in\n    tag_237:\n        /* \"#utility.yul\":5111:5141   */\n      swap1\n      pop\n        /* \"#utility.yul\":5150:5183   */\n      tag_238\n        /* \"#utility.yul\":5178:5182   */\n      dup3\n        /* \"#utility.yul\":5170:5176   */\n      dup3\n        /* \"#utility.yul\":5150:5183   */\n      tag_139\n      jump\t// in\n    tag_238:\n        /* \"#utility.yul\":5060:5189   */\n      swap2\n      swap1\n      pop\n      jump\t// out\n        /* \"#utility.yul\":5195:5503   */\n    tag_141:\n        /* \"#utility.yul\":5257:5261   */\n      0x00\n        /* \"#utility.yul\":5347:5365   */\n      0xffffffffffffffff\n        /* \"#utility.yul\":5339:5345   */\n      dup3\n        /* \"#utility.yul\":5336:5366   */\n      gt\n        /* \"#utility.yul\":5333:5389   */\n      iszero\n      tag_240\n      jumpi\n        /* \"#utility.yul\":5369:5387   */\n      tag_241\n      tag_93\n      jump\t// in\n    tag_241:\n        /* \"#utility.yul\":5333:5389   */\n    tag_240:\n        /* \"#utility.yul\":5407:5436   */\n      tag_242\n        /* \"#utility.yul\":5429:5435   */\n      dup3\n        /* \"#utility.yul\":5407:5436   */\n      tag_130\n      jump\t// in\n    tag_242:\n        /* \"#utility.yul\":5399:5436   */\n      swap1\n      pop\n        /* \"#utility.yul\":5491:5495   */\n      0x20\n        /* \"#utility.yul\":5485:5489   */\n      dup2\n        /* \"#utility.yul\":5481:5496   */\n      add\n        /* \"#utility.yul\":5473:5496   */\n      swap1\n      pop\n        /* \"#utility.yul\":5195:5503   */\n      swap2\n      swap1\n      pop\n      jump\t// out\n        /* \"#utility.yul\":5509:5657   */\n    tag_142:\n        /* \"#utility.yul\":5607:5613   */\n      dup3\n        /* \"#utility.yul\":5602:5605   */\n      dup2\n        /* \"#utility.yul\":5597:5600   */\n      dup4\n        /* \"#utility.yul\":5584:5614   */\n      calldatacopy\n        /* \"#utility.yul\":5648:5649   */\n      0x00\n        /* \"#utility.yul\":5639:5645   */\n      dup4\n        /* \"#utility.yul\":5634:5637   */\n      dup4\n        /* \"#utility.yul\":5630:5646   */\n      add\n        /* \"#utility.yul\":5623:5650   */\n      mstore\n        /* \"#utility.yul\":5509:5657   */\n      pop\n      pop\n      pop\n      jump\t// out\n        /* \"#utility.yul\":5663:6088   */\n    tag_143:\n        /* \"#utility.yul\":5741:5746   */\n      0x00\n        /* \"#utility.yul\":5766:5832   */\n      tag_245\n        /* \"#utility.yul\":5782:5831   */\n      tag_246\n        /* \"#utility.yul\":5824:5830   */\n      dup5\n        /* \"#utility.yul\":5782:5831   */\n      tag_141\n      jump\t// in\n    tag_246:\n        /* \"#utility.yul\":5766:5832   */\n      tag_140\n      jump\t// in\n    tag_245:\n        /* \"#utility.yul\":5757:5832   */\n      swap1\n      pop\n        /* \"#utility.yul\":5855:5861   */\n      dup3\n        /* \"#utility.yul\":5848:5853   */\n      dup2\n        /* \"#utility.yul\":5841:5862   */\n      mstore\n        /* \"#utility.yul\":5893:5897   */\n      0x20\n        /* \"#utility.yul\":5886:5891   */\n      dup2\n        /* \"#utility.yul\":5882:5898   */\n      add\n        /* \"#utility.yul\":5931:5934   */\n      dup5\n        /* \"#utility.yul\":5922:5928   */\n      dup5\n        /* \"#utility.yul\":5917:5920   */\n      dup5\n        /* \"#utility.yul\":5913:5929   */\n      add\n        /* \"#utility.yul\":5910:5935   */\n      gt\n        /* \"#utility.yul\":5907:6019   */\n      iszero\n      tag_247\n      jumpi\n        /* \"#utility.yul\":5938:6017   */\n      tag_248\n      tag_138\n      jump\t// in\n    tag_248:\n        /* \"#utility.yul\":5907:6019   */\n    tag_247:\n        /* \"#utility.yul\":6028:6082   */\n      tag_249\n        /* \"#utility.yul\":6075:6081   */\n      dup5\n        /* \"#utility.yul\":6070:6073   */\n      dup3\n        /* \"#utility.yul\":6065:6068   */\n      dup6\n        /* \"#utility.yul\":6028:6082   */\n      tag_142\n      jump\t// in\n    tag_249:\n        /* \"#utility.yul\":5747:6088   */\n      pop\n        /* \"#utility.yul\":5663:6088   */\n      swap4\n      swap3\n      pop\n      pop\n      pop\n      jump\t// out\n        /* \"#utility.yul\":6108:6448   */\n    tag_144:\n        /* \"#utility.yul\":6164:6169   */\n      0x00\n        /* \"#utility.yul\":6213:6216   */\n      dup3\n        /* \"#utility.yul\":6206:6210   */\n      0x1f\n        /* \"#utility.yul\":6198:6204   */\n      dup4\n        /* \"#utility.yul\":6194:6211   */\n      add\n        /* \"#utility.yul\":6190:6217   */\n      slt\n        /* \"#utility.yul\":6180:6302   */\n      tag_251\n      jumpi\n        /* \"#utility.yul\":6221:6300   */\n      tag_252\n      tag_137\n      jump\t// in\n    tag_252:\n        /* \"#utility.yul\":6180:6302   */\n    tag_251:\n        /* \"#utility.yul\":6338:6344   */\n      dup2\n        /* \"#utility.yul\":6325:6345   */\n      calldataload\n        /* \"#utility.yul\":6363:6442   */\n      tag_253\n        /* \"#utility.yul\":6438:6441   */\n      dup5\n        /* \"#utility.yul\":6430:6436   */\n      dup3\n        /* \"#utility.yul\":6423:6427   */\n      0x20\n        /* \"#utility.yul\":6415:6421   */\n      dup7\n        /* \"#utility.yul\":6411:6428   */\n      add\n        /* \"#utility.yul\":6363:6442   */\n      tag_143\n      jump\t// in\n    tag_253:\n        /* \"#utility.yul\":6354:6442   */\n      swap2\n      pop\n        /* \"#utility.yul\":6170:6448   */\n      pop\n        /* \"#utility.yul\":6108:6448   */\n      swap3\n      swap2\n      pop\n      pop\n      jump\t// out\n        /* \"#utility.yul\":6454:6563   */\n    tag_145:\n        /* \"#utility.yul\":6537:6538   */\n      0x03\n        /* \"#utility.yul\":6530:6535   */\n      dup2\n        /* \"#utility.yul\":6527:6539   */\n      lt\n        /* \"#utility.yul\":6517:6557   */\n      tag_255\n      jumpi\n        /* \"#utility.yul\":6553:6554   */\n      0x00\n        /* \"#utility.yul\":6550:6551   */\n      dup1\n        /* \"#utility.yul\":6543:6555   */\n      revert\n        /* \"#utility.yul\":6517:6557   */\n    tag_255:\n        /* \"#utility.yul\":6454:6563   */\n      pop\n      jump\t// out\n        /* \"#utility.yul\":6569:6728   */\n    tag_146:\n        /* \"#utility.yul\":6625:6630   */\n      0x00\n        /* \"#utility.yul\":6663:6669   */\n      dup2\n        /* \"#utility.yul\":6650:6670   */\n      calldataload\n        /* \"#utility.yul\":6641:6670   */\n      swap1\n      pop\n        /* \"#utility.yul\":6679:6722   */\n      tag_257\n        /* \"#utility.yul\":6716:6721   */\n      dup2\n        /* \"#utility.yul\":6679:6722   */\n      tag_145\n      jump\t// in\n    tag_257:\n        /* \"#utility.yul\":6569:6728   */\n      swap3\n      swap2\n      pop\n      pop\n      jump\t// out\n        /* \"#utility.yul\":6734:7553   */\n    tag_23:\n        /* \"#utility.yul\":6831:6837   */\n      0x00\n        /* \"#utility.yul\":6839:6845   */\n      dup1\n        /* \"#utility.yul\":6847:6853   */\n      0x00\n        /* \"#utility.yul\":6896:6898   */\n      0x60\n        /* \"#utility.yul\":6884:6893   */\n      dup5\n        /* \"#utility.yul\":6875:6882   */\n      dup7\n        /* \"#utility.yul\":6871:6894   */\n      sub\n        /* \"#utility.yul\":6867:6899   */\n      slt\n        /* \"#utility.yul\":6864:6983   */\n      iszero\n      tag_259\n      jumpi\n        /* \"#utility.yul\":6902:6981   */\n      tag_260\n      tag_118\n      jump\t// in\n    tag_260:\n        /* \"#utility.yul\":6864:6983   */\n    tag_259:\n        /* \"#utility.yul\":7050:7051   */\n      0x00\n        /* \"#utility.yul\":7039:7048   */\n      dup5\n        /* \"#utility.yul\":7035:7052   */\n      add\n        /* \"#utility.yul\":7022:7053   */\n      calldataload\n        /* \"#utility.yul\":7080:7098   */\n      0xffffffffffffffff\n        /* \"#utility.yul\":7072:7078   */\n      dup2\n        /* \"#utility.yul\":7069:7099   */\n      gt\n        /* \"#utility.yul\":7066:7183   */\n      iszero\n      tag_261\n      jumpi\n        /* \"#utility.yul\":7102:7181   */\n      tag_262\n      tag_119\n      jump\t// in\n    tag_262:\n        /* \"#utility.yul\":7066:7183   */\n    tag_261:\n        /* \"#utility.yul\":7207:7270   */\n      tag_263\n        /* \"#utility.yul\":7262:7269   */\n      dup7\n        /* \"#utility.yul\":7253:7259   */\n      dup3\n        /* \"#utility.yul\":7242:7251   */\n      dup8\n        /* \"#utility.yul\":7238:7260   */\n      add\n        /* \"#utility.yul\":7207:7270   */\n      tag_144\n      jump\t// in\n    tag_263:\n        /* \"#utility.yul\":7197:7270   */\n      swap4\n      pop\n        /* \"#utility.yul\":6993:7280   */\n      pop\n        /* \"#utility.yul\":7319:7321   */\n      0x20\n        /* \"#utility.yul\":7345:7398   */\n      tag_264\n        /* \"#utility.yul\":7390:7397   */\n      dup7\n        /* \"#utility.yul\":7381:7387   */\n      dup3\n        /* \"#utility.yul\":7370:7379   */\n      dup8\n        /* \"#utility.yul\":7366:7388   */\n      add\n        /* \"#utility.yul\":7345:7398   */\n      tag_126\n      jump\t// in\n    tag_264:\n        /* \"#utility.yul\":7335:7398   */\n      swap3\n      pop\n        /* \"#utility.yul\":7290:7408   */\n      pop\n        /* \"#utility.yul\":7447:7449   */\n      0x40\n        /* \"#utility.yul\":7473:7536   */\n      tag_265\n        /* \"#utility.yul\":7528:7535   */\n      dup7\n        /* \"#utility.yul\":7519:7525   */\n      dup3\n        /* \"#utility.yul\":7508:7517   */\n      dup8\n        /* \"#utility.yul\":7504:7526   */\n      add\n        /* \"#utility.yul\":7473:7536   */\n      tag_146\n      jump\t// in\n    tag_265:\n        /* \"#utility.yul\":7463:7536   */\n      swap2\n      pop\n        /* \"#utility.yul\":7418:7546   */\n      pop\n        /* \"#utility.yul\":6734:7553   */\n      swap3\n      pop\n      swap3\n      pop\n      swap3\n      jump\t// out\n        /* \"#utility.yul\":7559:7673   */\n    tag_147:\n        /* \"#utility.yul\":7626:7632   */\n      0x00\n        /* \"#utility.yul\":7660:7665   */\n      dup2\n        /* \"#utility.yul\":7654:7666   */\n      mload\n        /* \"#utility.yul\":7644:7666   */\n      swap1\n      pop\n        /* \"#utility.yul\":7559:7673   */\n      swap2\n      swap1\n      pop\n      jump\t// out\n        /* \"#utility.yul\":7679:7863   */\n    tag_148:\n        /* \"#utility.yul\":7778:7789   */\n      0x00\n        /* \"#utility.yul\":7812:7818   */\n      dup3\n        /* \"#utility.yul\":7807:7810   */\n      dup3\n        /* \"#utility.yul\":7800:7819   */\n      mstore\n        /* \"#utility.yul\":7852:7856   */\n      0x20\n        /* \"#utility.yul\":7847:7850   */\n      dup3\n        /* \"#utility.yul\":7843:7857   */\n      add\n        /* \"#utility.yul\":7828:7857   */\n      swap1\n      pop\n        /* \"#utility.yul\":7679:7863   */\n      swap3\n      swap2\n      pop\n      pop\n      jump\t// out\n        /* \"#utility.yul\":7869:8001   */\n    tag_149:\n        /* \"#utility.yul\":7936:7940   */\n      0x00\n        /* \"#utility.yul\":7959:7962   */\n      dup2\n        /* \"#utility.yul\":7951:7962   */\n      swap1\n      pop\n        /* \"#utility.yul\":7989:7993   */\n      0x20\n        /* \"#utility.yul\":7984:7987   */\n      dup3\n        /* \"#utility.yul\":7980:7994   */\n      add\n        /* \"#utility.yul\":7972:7994   */\n      swap1\n      pop\n        /* \"#utility.yul\":7869:8001   */\n      swap2\n      swap1\n      pop\n      jump\t// out\n        /* \"#utility.yul\":8007:8115   */\n    tag_150:\n        /* \"#utility.yul\":8084:8108   */\n      tag_270\n        /* \"#utility.yul\":8102:8107   */\n      dup2\n        /* \"#utility.yul\":8084:8108   */\n      tag_124\n      jump\t// in\n    tag_270:\n        /* \"#utility.yul\":8079:8082   */\n      dup3\n        /* \"#utility.yul\":8072:8109   */\n      mstore\n        /* \"#utility.yul\":8007:8115   */\n      pop\n      pop\n      jump\t// out\n        /* \"#utility.yul\":8121:8300   */\n    tag_151:\n        /* \"#utility.yul\":8190:8200   */\n      0x00\n        /* \"#utility.yul\":8211:8257   */\n      tag_272\n        /* \"#utility.yul\":8253:8256   */\n      dup4\n        /* \"#utility.yul\":8245:8251   */\n      dup4\n        /* \"#utility.yul\":8211:8257   */\n      tag_150\n      jump\t// in\n    tag_272:\n        /* \"#utility.yul\":8289:8293   */\n      0x20\n        /* \"#utility.yul\":8284:8287   */\n      dup4\n        /* \"#utility.yul\":8280:8294   */\n      add\n        /* \"#utility.yul\":8266:8294   */\n      swap1\n      pop\n        /* \"#utility.yul\":8121:8300   */\n      swap3\n      swap2\n      pop\n      pop\n      jump\t// out\n        /* \"#utility.yul\":8306:8419   */\n    tag_152:\n        /* \"#utility.yul\":8376:8380   */\n      0x00\n        /* \"#utility.yul\":8408:8412   */\n      0x20\n        /* \"#utility.yul\":8403:8406   */\n      dup3\n        /* \"#utility.yul\":8399:8413   */\n      add\n        /* \"#utility.yul\":8391:8413   */\n      swap1\n      pop\n        /* \"#utility.yul\":8306:8419   */\n      swap2\n      swap1\n      pop\n      jump\t// out\n        /* \"#utility.yul\":8455:9187   */\n    tag_153:\n        /* \"#utility.yul\":8574:8577   */\n      0x00\n        /* \"#utility.yul\":8603:8657   */\n      tag_275\n        /* \"#utility.yul\":8651:8656   */\n      dup3\n        /* \"#utility.yul\":8603:8657   */\n      tag_147\n      jump\t// in\n    tag_275:\n        /* \"#utility.yul\":8673:8759   */\n      tag_276\n        /* \"#utility.yul\":8752:8758   */\n      dup2\n        /* \"#utility.yul\":8747:8750   */\n      dup6\n        /* \"#utility.yul\":8673:8759   */\n      tag_148\n      jump\t// in\n    tag_276:\n        /* \"#utility.yul\":8666:8759   */\n      swap4\n      pop\n        /* \"#utility.yul\":8783:8839   */\n      tag_277\n        /* \"#utility.yul\":8833:8838   */\n      dup4\n        /* \"#utility.yul\":8783:8839   */\n      tag_149\n      jump\t// in\n    tag_277:\n        /* \"#utility.yul\":8862:8869   */\n      dup1\n        /* \"#utility.yul\":8893:8894   */\n      0x00\n        /* \"#utility.yul\":8878:9162   */\n    tag_278:\n        /* \"#utility.yul\":8903:8909   */\n      dup4\n        /* \"#utility.yul\":8900:8901   */\n      dup2\n        /* \"#utility.yul\":8897:8910   */\n      lt\n        /* \"#utility.yul\":8878:9162   */\n      iszero\n      tag_280\n      jumpi\n        /* \"#utility.yul\":8979:8985   */\n      dup2\n        /* \"#utility.yul\":8973:8986   */\n      mload\n        /* \"#utility.yul\":9006:9069   */\n      tag_281\n        /* \"#utility.yul\":9065:9068   */\n      dup9\n        /* \"#utility.yul\":9050:9063   */\n      dup3\n        /* \"#utility.yul\":9006:9069   */\n      tag_151\n      jump\t// in\n    tag_281:\n        /* \"#utility.yul\":8999:9069   */\n      swap8\n      pop\n        /* \"#utility.yul\":9092:9152   */\n      tag_282\n        /* \"#utility.yul\":9145:9151   */\n      dup4\n        /* \"#utility.yul\":9092:9152   */\n      tag_152\n      jump\t// in\n    tag_282:\n        /* \"#utility.yul\":9082:9152   */\n      swap3\n      pop\n        /* \"#utility.yul\":8938:9162   */\n      pop\n        /* \"#utility.yul\":8925:8926   */\n      0x01\n        /* \"#utility.yul\":8922:8923   */\n      dup2\n        /* \"#utility.yul\":8918:8927   */\n      add\n        /* \"#utility.yul\":8913:8927   */\n      swap1\n      pop\n        /* \"#utility.yul\":8878:9162   */\n      jump(tag_278)\n    tag_280:\n        /* \"#utility.yul\":8882:8896   */\n      pop\n        /* \"#utility.yul\":9178:9181   */\n      dup6\n        /* \"#utility.yul\":9171:9181   */\n      swap4\n      pop\n        /* \"#utility.yul\":8579:9187   */\n      pop\n      pop\n      pop\n        /* \"#utility.yul\":8455:9187   */\n      swap3\n      swap2\n      pop\n      pop\n      jump\t// out\n        /* \"#utility.yul\":9193:9566   */\n    tag_29:\n        /* \"#utility.yul\":9336:9340   */\n      0x00\n        /* \"#utility.yul\":9374:9376   */\n      0x20\n        /* \"#utility.yul\":9363:9372   */\n      dup3\n        /* \"#utility.yul\":9359:9377   */\n      add\n        /* \"#utility.yul\":9351:9377   */\n      swap1\n      pop\n        /* \"#utility.yul\":9423:9432   */\n      dup2\n        /* \"#utility.yul\":9417:9421   */\n      dup2\n        /* \"#utility.yul\":9413:9433   */\n      sub\n        /* \"#utility.yul\":9409:9410   */\n      0x00\n        /* \"#utility.yul\":9398:9407   */\n      dup4\n        /* \"#utility.yul\":9394:9411   */\n      add\n        /* \"#utility.yul\":9387:9434   */\n      mstore\n        /* \"#utility.yul\":9451:9559   */\n      tag_284\n        /* \"#utility.yul\":9554:9558   */\n      dup2\n        /* \"#utility.yul\":9545:9551   */\n      dup5\n        /* \"#utility.yul\":9451:9559   */\n      tag_153\n      jump\t// in\n    tag_284:\n        /* \"#utility.yul\":9443:9559   */\n      swap1\n      pop\n        /* \"#utility.yul\":9193:9566   */\n      swap3\n      swap2\n      pop\n      pop\n      jump\t// out\n        /* \"#utility.yul\":9572:9682   */\n    tag_154:\n        /* \"#utility.yul\":9656:9657   */\n      0x03\n        /* \"#utility.yul\":9649:9654   */\n      dup2\n        /* \"#utility.yul\":9646:9658   */\n      lt\n        /* \"#utility.yul\":9636:9676   */\n      tag_286\n      jumpi\n        /* \"#utility.yul\":9672:9673   */\n      0x00\n        /* \"#utility.yul\":9669:9670   */\n      dup1\n        /* \"#utility.yul\":9662:9674   */\n      revert\n        /* \"#utility.yul\":9636:9676   */\n    tag_286:\n        /* \"#utility.yul\":9572:9682   */\n      pop\n      jump\t// out\n        /* \"#utility.yul\":9688:9853   */\n    tag_155:\n        /* \"#utility.yul\":9756:9761   */\n      0x00\n        /* \"#utility.yul\":9787:9793   */\n      dup2\n        /* \"#utility.yul\":9781:9794   */\n      mload\n        /* \"#utility.yul\":9772:9794   */\n      swap1\n      pop\n        /* \"#utility.yul\":9803:9847   */\n      tag_288\n        /* \"#utility.yul\":9841:9846   */\n      dup2\n        /* \"#utility.yul\":9803:9847   */\n      tag_154\n      jump\t// in\n    tag_288:\n        /* \"#utility.yul\":9688:9853   */\n      swap3\n      swap2\n      pop\n      pop\n      jump\t// out\n        /* \"#utility.yul\":9859:10232   */\n    tag_37:\n        /* \"#utility.yul\":9940:9946   */\n      0x00\n        /* \"#utility.yul\":9989:9991   */\n      0x20\n        /* \"#utility.yul\":9977:9986   */\n      dup3\n        /* \"#utility.yul\":9968:9975   */\n      dup5\n        /* \"#utility.yul\":9964:9987   */\n      sub\n        /* \"#utility.yul\":9960:9992   */\n      slt\n        /* \"#utility.yul\":9957:10076   */\n      iszero\n      tag_290\n      jumpi\n        /* \"#utility.yul\":9995:10074   */\n      tag_291\n      tag_118\n      jump\t// in\n    tag_291:\n        /* \"#utility.yul\":9957:10076   */\n    tag_290:\n        /* \"#utility.yul\":10115:10116   */\n      0x00\n        /* \"#utility.yul\":10140:10215   */\n      tag_292\n        /* \"#utility.yul\":10207:10214   */\n      dup5\n        /* \"#utility.yul\":10198:10204   */\n      dup3\n        /* \"#utility.yul\":10187:10196   */\n      dup6\n        /* \"#utility.yul\":10183:10205   */\n      add\n        /* \"#utility.yul\":10140:10215   */\n      tag_155\n      jump\t// in\n    tag_292:\n        /* \"#utility.yul\":10130:10215   */\n      swap2\n      pop\n        /* \"#utility.yul\":10086:10225   */\n      pop\n        /* \"#utility.yul\":9859:10232   */\n      swap3\n      swap2\n      pop\n      pop\n      jump\t// out\n        /* \"#utility.yul\":10238:10551   */\n    tag_42:\n        /* \"#utility.yul\":10351:10355   */\n      0x00\n        /* \"#utility.yul\":10389:10391   */\n      0x20\n        /* \"#utility.yul\":10378:10387   */\n      dup3\n        /* \"#utility.yul\":10374:10392   */\n      add\n        /* \"#utility.yul\":10366:10392   */\n      swap1\n      pop\n        /* \"#utility.yul\":10438:10447   */\n      dup2\n        /* \"#utility.yul\":10432:10436   */\n      dup2\n        /* \"#utility.yul\":10428:10448   */\n      sub\n        /* \"#utility.yul\":10424:10425   */\n      0x00\n        /* \"#utility.yul\":10413:10422   */\n      dup4\n        /* \"#utility.yul\":10409:10426   */\n      add\n        /* \"#utility.yul\":10402:10449   */\n      mstore\n        /* \"#utility.yul\":10466:10544   */\n      tag_294\n        /* \"#utility.yul\":10539:10543   */\n      dup2\n        /* \"#utility.yul\":10530:10536   */\n      dup5\n        /* \"#utility.yul\":10466:10544   */\n      tag_131\n      jump\t// in\n    tag_294:\n        /* \"#utility.yul\":10458:10544   */\n      swap1\n      pop\n        /* \"#utility.yul\":10238:10551   */\n      swap3\n      swap2\n      pop\n      pop\n      jump\t// out\n        /* \"#utility.yul\":10557:10737   */\n    tag_156:\n        /* \"#utility.yul\":10605:10682   */\n      0x4e487b7100000000000000000000000000000000000000000000000000000000\n        /* \"#utility.yul\":10602:10603   */\n      0x00\n        /* \"#utility.yul\":10595:10683   */\n      mstore\n        /* \"#utility.yul\":10702:10706   */\n      0x22\n        /* \"#utility.yul\":10699:10700   */\n      0x04\n        /* \"#utility.yul\":10692:10707   */\n      mstore\n        /* \"#utility.yul\":10726:10730   */\n      0x24\n        /* \"#utility.yul\":10723:10724   */\n      0x00\n        /* \"#utility.yul\":10716:10731   */\n      revert\n        /* \"#utility.yul\":10743:11063   */\n    tag_50:\n        /* \"#utility.yul\":10787:10793   */\n      0x00\n        /* \"#utility.yul\":10824:10825   */\n      0x02\n        /* \"#utility.yul\":10818:10822   */\n      dup3\n        /* \"#utility.yul\":10814:10826   */\n      div\n        /* \"#utility.yul\":10804:10826   */\n      swap1\n      pop\n        /* \"#utility.yul\":10871:10872   */\n      0x01\n        /* \"#utility.yul\":10865:10869   */\n      dup3\n        /* \"#utility.yul\":10861:10873   */\n      and\n        /* \"#utility.yul\":10892:10910   */\n      dup1\n        /* \"#utility.yul\":10882:10963   */\n      tag_297\n      jumpi\n        /* \"#utility.yul\":10948:10952   */\n      0x7f\n        /* \"#utility.yul\":10940:10946   */\n      dup3\n        /* \"#utility.yul\":10936:10953   */\n      and\n        /* \"#utility.yul\":10926:10953   */\n      swap2\n      pop\n        /* \"#utility.yul\":10882:10963   */\n    tag_297:\n        /* \"#utility.yul\":11010:11012   */\n      0x20\n        /* \"#utility.yul\":11002:11008   */\n      dup3\n        /* \"#utility.yul\":10999:11013   */\n      lt\n        /* \"#utility.yul\":10979:10997   */\n      dup2\n        /* \"#utility.yul\":10976:11014   */\n      sub\n        /* \"#utility.yul\":10973:11057   */\n      tag_298\n      jumpi\n        /* \"#utility.yul\":11029:11047   */\n      tag_299\n      tag_156\n      jump\t// in\n    tag_299:\n        /* \"#utility.yul\":10973:11057   */\n    tag_298:\n        /* \"#utility.yul\":10794:11063   */\n      pop\n        /* \"#utility.yul\":10743:11063   */\n      swap2\n      swap1\n      pop\n      jump\t// out\n        /* \"#utility.yul\":11069:11210   */\n    tag_157:\n        /* \"#utility.yul\":11118:11122   */\n      0x00\n        /* \"#utility.yul\":11141:11144   */\n      dup2\n        /* \"#utility.yul\":11133:11144   */\n      swap1\n      pop\n        /* \"#utility.yul\":11164:11167   */\n      dup2\n        /* \"#utility.yul\":11161:11162   */\n      0x00\n        /* \"#utility.yul\":11154:11168   */\n      mstore\n        /* \"#utility.yul\":11198:11202   */\n      0x20\n        /* \"#utility.yul\":11195:11196   */\n      0x00\n        /* \"#utility.yul\":11185:11203   */\n      keccak256\n        /* \"#utility.yul\":11177:11203   */\n      swap1\n      pop\n        /* \"#utility.yul\":11069:11210   */\n      swap2\n      swap1\n      pop\n      jump\t// out\n        /* \"#utility.yul\":11216:11309   */\n    tag_158:\n        /* \"#utility.yul\":11253:11259   */\n      0x00\n        /* \"#utility.yul\":11300:11302   */\n      0x20\n        /* \"#utility.yul\":11295:11297   */\n      0x1f\n        /* \"#utility.yul\":11288:11293   */\n      dup4\n        /* \"#utility.yul\":11284:11298   */\n      add\n        /* \"#utility.yul\":11280:11303   */\n      div\n        /* \"#utility.yul\":11270:11303   */\n      swap1\n      pop\n        /* \"#utility.yul\":11216:11309   */\n      swap2\n      swap1\n      pop\n      jump\t// out\n        /* \"#utility.yul\":11315:11422   */\n    tag_159:\n        /* \"#utility.yul\":11359:11367   */\n      0x00\n        /* \"#utility.yul\":11409:11414   */\n      dup3\n        /* \"#utility.yul\":11403:11407   */\n      dup3\n        /* \"#utility.yul\":11399:11415   */\n      shl\n        /* \"#utility.yul\":11378:11415   */\n      swap1\n      pop\n        /* \"#utility.yul\":11315:11422   */\n      swap3\n      swap2\n      pop\n      pop\n      jump\t// out\n        /* \"#utility.yul\":11428:11821   */\n    tag_160:\n        /* \"#utility.yul\":11497:11503   */\n      0x00\n        /* \"#utility.yul\":11547:11548   */\n      0x08\n        /* \"#utility.yul\":11535:11545   */\n      dup4\n        /* \"#utility.yul\":11531:11549   */\n      mul\n        /* \"#utility.yul\":11570:11667   */\n      tag_304\n        /* \"#utility.yul\":11600:11666   */\n      0xffffffffffffffffffffffffffffffffffffffffffffffffffffffffffffffff\n        /* \"#utility.yul\":11589:11598   */\n      dup3\n        /* \"#utility.yul\":11570:11667   */\n      tag_159\n      jump\t// in\n    tag_304:\n        /* \"#utility.yul\":11688:11727   */\n      tag_305\n        /* \"#utility.yul\":11718:11726   */\n      dup7\n        /* \"#utility.yul\":11707:11716   */\n      dup4\n        /* \"#utility.yul\":11688:11727   */\n      tag_159\n      jump\t// in\n    tag_305:\n        /* \"#utility.yul\":11676:11727   */\n      swap6\n      pop\n        /* \"#utility.yul\":11760:11764   */\n      dup1\n        /* \"#utility.yul\":11756:11765   */\n      not\n        /* \"#utility.yul\":11749:11754   */\n      dup5\n        /* \"#utility.yul\":11745:11766   */\n      and\n        /* \"#utility.yul\":11736:11766   */\n      swap4\n      pop\n        /* \"#utility.yul\":11809:11813   */\n      dup1\n        /* \"#utility.yul\":11799:11807   */\n      dup7\n        /* \"#utility.yul\":11795:11814   */\n      and\n        /* \"#utility.yul\":11788:11793   */\n      dup5\n        /* \"#utility.yul\":11785:11815   */\n      or\n        /* \"#utility.yul\":11775:11815   */\n      swap3\n      pop\n        /* \"#utility.yul\":11504:11821   */\n      pop\n      pop\n        /* \"#utility.yul\":11428:11821   */\n      swap4\n      swap3\n      pop\n      pop\n      pop\n      jump\t// out\n        /* \"#utility.yul\":11827:11887   */\n    tag_161:\n        /* \"#utility.yul\":11855:11858   */\n      0x00\n        /* \"#utility.yul\":11876:11881   */\n      dup2\n        /* \"#utility.yul\":11869:11881   */\n      swap1\n      pop\n        /* \"#utility.yul\":11827:11887   */\n      swap2\n      swap1\n      pop\n      jump\t// out\n        /* \"#utility.yul\":11893:12035   */\n    tag_162:\n        /* \"#utility.yul\":11943:11952   */\n      0x00\n        /* \"#utility.yul\":11976:12029   */\n      tag_308\n        /* \"#utility.yul\":11994:12028   */\n      tag_309\n        /* \"#utility.yul\":12003:12027   */\n      tag_310\n        /* \"#utility.yul\":12021:12026   */\n      dup5\n        /* \"#utility.yul\":12003:12027   */\n      tag_124\n      jump\t// in\n    tag_310:\n        /* \"#utility.yul\":11994:12028   */\n      tag_161\n      jump\t// in\n    tag_309:\n        /* \"#utility.yul\":11976:12029   */\n      tag_124\n      jump\t// in\n    tag_308:\n        /* \"#utility.yul\":11963:12029   */\n      swap1\n      pop\n        /* \"#utility.yul\":11893:12035   */\n      swap2\n      swap1\n      pop\n      jump\t// out\n        /* \"#utility.yul\":12041:12116   */\n    tag_163:\n        /* \"#utility.yul\":12084:12087   */\n      0x00\n        /* \"#utility.yul\":12105:12110   */\n      dup2\n        /* \"#utility.yul\":12098:12110   */\n      swap1\n      pop\n        /* \"#utility.yul\":12041:12116   */\n      swap2\n      swap1\n      pop\n      jump\t// out\n        /* \"#utility.yul\":12122:12391   */\n    tag_164:\n        /* \"#utility.yul\":12232:12271   */\n      tag_313\n        /* \"#utility.yul\":12263:12270   */\n      dup4\n        /* \"#utility.yul\":12232:12271   */\n      tag_162\n      jump\t// in\n    tag_313:\n        /* \"#utility.yul\":12293:12384   */\n      tag_314\n        /* \"#utility.yul\":12342:12383   */\n      tag_315\n        /* \"#utility.yul\":12366:12382   */\n      dup3\n        /* \"#utility.yul\":12342:12383   */\n      tag_163\n      jump\t// in\n    tag_315:\n        /* \"#utility.yul\":12334:12340   */\n      dup5\n        /* \"#utility.yul\":12327:12331   */\n      dup5\n        /* \"#utility.yul\":12321:12332   */\n      sload\n        /* \"#utility.yul\":12293:12384   */\n      tag_160\n      jump\t// in\n    tag_314:\n        /* \"#utility.yul\":12287:12291   */\n      dup3\n        /* \"#utility.yul\":12280:12385   */\n      sstore\n        /* \"#utility.yul\":12198:12391   */\n      pop\n        /* \"#utility.yul\":12122:12391   */\n      pop\n      pop\n      pop\n      jump\t// out\n        /* \"#utility.yul\":12397:12470   */\n    tag_165:\n        /* \"#utility.yul\":12442:12445   */\n      0x00\n        /* \"#utility.yul\":12397:12470   */\n      swap1\n      jump\t// out\n        /* \"#utility.yul\":12476:12665   */\n    tag_166:\n        /* \"#utility.yul\":12553:12585   */\n      tag_318\n      tag_165\n      jump\t// in\n    tag_318:\n        /* \"#utility.yul\":12594:12659   */\n      tag_319\n        /* \"#utility.yul\":12652:12658   */\n      dup2\n        /* \"#utility.yul\":12644:12650   */\n      dup5\n        /* \"#utility.yul\":12638:12642   */\n      dup5\n        /* \"#utility.yul\":12594:12659   */\n      tag_164\n      jump\t// in\n    tag_319:\n        /* \"#utility.yul\":12529:12665   */\n      pop\n        /* \"#utility.yul\":12476:12665   */\n      pop\n      pop\n      jump\t// out\n        /* \"#utility.yul\":12671:12857   */\n    tag_167:\n        /* \"#utility.yul\":12731:12851   */\n    tag_321:\n        /* \"#utility.yul\":12748:12751   */\n      dup2\n        /* \"#utility.yul\":12741:12746   */\n      dup2\n        /* \"#utility.yul\":12738:12752   */\n      lt\n        /* \"#utility.yul\":12731:12851   */\n      iszero\n      tag_323\n      jumpi\n        /* \"#utility.yul\":12802:12841   */\n      tag_324\n        /* \"#utility.yul\":12839:12840   */\n      0x00\n        /* \"#utility.yul\":12832:12837   */\n      dup3\n        /* \"#utility.yul\":12802:12841   */\n      tag_166\n      jump\t// in\n    tag_324:\n        /* \"#utility.yul\":12775:12776   */\n      0x01\n        /* \"#utility.yul\":12768:12773   */\n      dup2\n        /* \"#utility.yul\":12764:12777   */\n      add\n        /* \"#utility.yul\":12755:12777   */\n      swap1\n      pop\n        /* \"#utility.yul\":12731:12851   */\n      jump(tag_321)\n    tag_323:\n        /* \"#utility.yul\":12671:12857   */\n      pop\n      pop\n      jump\t// out\n        /* \"#utility.yul\":12863:13406   */\n    tag_168:\n        /* \"#utility.yul\":12964:12966   */\n      0x1f\n        /* \"#utility.yul\":12959:12962   */\n      dup3\n        /* \"#utility.yul\":12956:12967   */\n      gt\n        /* \"#utility.yul\":12953:13399   */\n      iszero\n      tag_326\n      jumpi\n        /* \"#utility.yul\":12998:13036   */\n      tag_327\n        /* \"#utility.yul\":13030:13035   */\n      dup2\n        /* \"#utility.yul\":12998:13036   */\n      tag_157\n      jump\t// in\n    tag_327:\n        /* \"#utility.yul\":13082:13111   */\n      tag_328\n        /* \"#utility.yul\":13100:13110   */\n      dup5\n        /* \"#utility.yul\":13082:13111   */\n      tag_158\n      jump\t// in\n    tag_328:\n        /* \"#utility.yul\":13072:13080   */\n      dup2\n        /* \"#utility.yul\":13068:13112   */\n      add\n        /* \"#utility.yul\":13265:13267   */\n      0x20\n        /* \"#utility.yul\":13253:13263   */\n      dup6\n        /* \"#utility.yul\":13250:13268   */\n      lt\n        /* \"#utility.yul\":13247:13296   */\n      iszero\n      tag_329\n      jumpi\n        /* \"#utility.yul\":13286:13294   */\n      dup2\n        /* \"#utility.yul\":13271:13294   */\n      swap1\n      pop\n        /* \"#utility.yul\":13247:13296   */\n    tag_329:\n        /* \"#utility.yul\":13309:13389   */\n      tag_330\n        /* \"#utility.yul\":13365:13387   */\n      tag_331\n        /* \"#utility.yul\":13383:13386   */\n      dup6\n        /* \"#utility.yul\":13365:13387   */\n      tag_158\n      jump\t// in\n    tag_331:\n        /* \"#utility.yul\":13355:13363   */\n      dup4\n        /* \"#utility.yul\":13351:13388   */\n      add\n        /* \"#utility.yul\":13338:13349   */\n      dup3\n        /* \"#utility.yul\":13309:13389   */\n      tag_167\n      jump\t// in\n    tag_330:\n        /* \"#utility.yul\":12968:13399   */\n      pop\n      pop\n        /* \"#utility.yul\":12953:13399   */\n    tag_326:\n        /* \"#utility.yul\":12863:13406   */\n      pop\n      pop\n      pop\n      jump\t// out\n        /* \"#utility.yul\":13412:13529   */\n    tag_169:\n        /* \"#utility.yul\":13466:13474   */\n      0x00\n        /* \"#utility.yul\":13516:13521   */\n      dup3\n        /* \"#utility.yul\":13510:13514   */\n      dup3\n        /* \"#utility.yul\":13506:13522   */\n      shr\n        /* \"#utility.yul\":13485:13522   */\n      swap1\n      pop\n        /* \"#utility.yul\":13412:13529   */\n      swap3\n      swap2\n      pop\n      pop\n      jump\t// out\n        /* \"#utility.yul\":13535:13704   */\n    tag_170:\n        /* \"#utility.yul\":13579:13585   */\n      0x00\n        /* \"#utility.yul\":13612:13663   */\n      tag_334\n        /* \"#utility.yul\":13660:13661   */\n      0x00\n        /* \"#utility.yul\":13656:13662   */\n      not\n        /* \"#utility.yul\":13648:13653   */\n      dup5\n        /* \"#utility.yul\":13645:13646   */\n      0x08\n        /* \"#utility.yul\":13641:13654   */\n      mul\n        /* \"#utility.yul\":13612:13663   */\n      tag_169\n      jump\t// in\n    tag_334:\n        /* \"#utility.yul\":13608:13664   */\n      not\n        /* \"#utility.yul\":13693:13697   */\n      dup1\n        /* \"#utility.yul\":13687:13691   */\n      dup4\n        /* \"#utility.yul\":13683:13698   */\n      and\n        /* \"#utility.yul\":13673:13698   */\n      swap2\n      pop\n        /* \"#utility.yul\":13586:13704   */\n      pop\n        /* \"#utility.yul\":13535:13704   */\n      swap3\n      swap2\n      pop\n      pop\n      jump\t// out\n        /* \"#utility.yul\":13709:14004   */\n    tag_171:\n        /* \"#utility.yul\":13785:13789   */\n      0x00\n        /* \"#utility.yul\":13931:13960   */\n      tag_336\n        /* \"#utility.yul\":13956:13959   */\n      dup4\n        /* \"#utility.yul\":13950:13954   */\n      dup4\n        /* \"#utility.yul\":13931:13960   */\n      tag_170\n      jump\t// in\n    tag_336:\n        /* \"#utility.yul\":13923:13960   */\n      swap2\n      pop\n        /* \"#utility.yul\":13993:13996   */\n      dup3\n        /* \"#utility.yul\":13990:13991   */\n      0x02\n        /* \"#utility.yul\":13986:13997   */\n      mul\n        /* \"#utility.yul\":13980:13984   */\n      dup3\n        /* \"#utility.yul\":13977:13998   */\n      or\n        /* \"#utility.yul\":13969:13998   */\n      swap1\n      pop\n        /* \"#utility.yul\":13709:14004   */\n      swap3\n      swap2\n      pop\n      pop\n      jump\t// out\n        /* \"#utility.yul\":14009:15404   */\n    tag_79:\n        /* \"#utility.yul\":14126:14163   */\n      tag_338\n        /* \"#utility.yul\":14159:14162   */\n      dup3\n        /* \"#utility.yul\":14126:14163   */\n      tag_127\n      jump\t// in\n    tag_338:\n        /* \"#utility.yul\":14228:14246   */\n      0xffffffffffffffff\n        /* \"#utility.yul\":14220:14226   */\n      dup2\n        /* \"#utility.yul\":14217:14247   */\n      gt\n        /* \"#utility.yul\":14214:14270   */\n      iszero\n      tag_339\n      jumpi\n        /* \"#utility.yul\":14250:14268   */\n      tag_340\n      tag_93\n      jump\t// in\n    tag_340:\n        /* \"#utility.yul\":14214:14270   */\n    tag_339:\n        /* \"#utility.yul\":14294:14332   */\n      tag_341\n        /* \"#utility.yul\":14326:14330   */\n      dup3\n        /* \"#utility.yul\":14320:14331   */\n      sload\n        /* \"#utility.yul\":14294:14332   */\n      tag_50\n      jump\t// in\n    tag_341:\n        /* \"#utility.yul\":14379:14446   */\n      tag_342\n        /* \"#utility.yul\":14439:14445   */\n      dup3\n        /* \"#utility.yul\":14431:14437   */\n      dup3\n        /* \"#utility.yul\":14425:14429   */\n      dup6\n        /* \"#utility.yul\":14379:14446   */\n      tag_168\n      jump\t// in\n    tag_342:\n        /* \"#utility.yul\":14473:14474   */\n      0x00\n        /* \"#utility.yul\":14497:14501   */\n      0x20\n        /* \"#utility.yul\":14484:14501   */\n      swap1\n      pop\n        /* \"#utility.yul\":14529:14531   */\n      0x1f\n        /* \"#utility.yul\":14521:14527   */\n      dup4\n        /* \"#utility.yul\":14518:14532   */\n      gt\n        /* \"#utility.yul\":14546:14547   */\n      0x01\n        /* \"#utility.yul\":14541:15159   */\n      dup2\n      eq\n      tag_344\n      jumpi\n        /* \"#utility.yul\":15203:15204   */\n      0x00\n        /* \"#utility.yul\":15220:15226   */\n      dup5\n        /* \"#utility.yul\":15217:15294   */\n      iszero\n      tag_345\n      jumpi\n        /* \"#utility.yul\":15269:15278   */\n      dup3\n        /* \"#utility.yul\":15264:15267   */\n      dup8\n        /* \"#utility.yul\":15260:15279   */\n      add\n        /* \"#utility.yul\":15254:15280   */\n      mload\n        /* \"#utility.yul\":15245:15280   */\n      swap1\n      pop\n        /* \"#utility.yul\":15217:15294   */\n    tag_345:\n        /* \"#utility.yul\":15320:15387   */\n      tag_346\n        /* \"#utility.yul\":15380:15386   */\n      dup6\n        /* \"#utility.yul\":15373:15378   */\n      dup3\n        /* \"#utility.yul\":15320:15387   */\n      tag_171\n      jump\t// in\n    tag_346:\n        /* \"#utility.yul\":15314:15318   */\n      dup7\n        /* \"#utility.yul\":15307:15388   */\n      sstore\n        /* \"#utility.yul\":15176:15398   */\n      pop\n        /* \"#utility.yul\":14511:15398   */\n      jump(tag_343)\n        /* \"#utility.yul\":14541:15159   */\n    tag_344:\n        /* \"#utility.yul\":14593:14597   */\n      0x1f\n        /* \"#utility.yul\":14589:14598   */\n      not\n        /* \"#utility.yul\":14581:14587   */\n      dup5\n        /* \"#utility.yul\":14577:14599   */\n      and\n        /* \"#utility.yul\":14627:14664   */\n      tag_347\n        /* \"#utility.yul\":14659:14663   */\n      dup7\n        /* \"#utility.yul\":14627:14664   */\n      tag_157\n      jump\t// in\n    tag_347:\n        /* \"#utility.yul\":14686:14687   */\n      0x00\n        /* \"#utility.yul\":14700:14908   */\n    tag_348:\n        /* \"#utility.yul\":14714:14721   */\n      dup3\n        /* \"#utility.yul\":14711:14712   */\n      dup2\n        /* \"#utility.yul\":14708:14722   */\n      lt\n        /* \"#utility.yul\":14700:14908   */\n      iszero\n      tag_350\n      jumpi\n        /* \"#utility.yul\":14793:14802   */\n      dup5\n        /* \"#utility.yul\":14788:14791   */\n      dup10\n        /* \"#utility.yul\":14784:14803   */\n      add\n        /* \"#utility.yul\":14778:14804   */\n      mload\n        /* \"#utility.yul\":14770:14776   */\n      dup3\n        /* \"#utility.yul\":14763:14805   */\n      sstore\n        /* \"#utility.yul\":14844:14845   */\n      0x01\n        /* \"#utility.yul\":14836:14842   */\n      dup3\n        /* \"#utility.yul\":14832:14846   */\n      add\n        /* \"#utility.yul\":14822:14846   */\n      swap2\n      pop\n        /* \"#utility.yul\":14891:14893   */\n      0x20\n        /* \"#utility.yul\":14880:14889   */\n      dup6\n        /* \"#utility.yul\":14876:14894   */\n      add\n        /* \"#utility.yul\":14863:14894   */\n      swap5\n      pop\n        /* \"#utility.yul\":14737:14741   */\n      0x20\n        /* \"#utility.yul\":14734:14735   */\n      dup2\n        /* \"#utility.yul\":14730:14742   */\n      add\n        /* \"#utility.yul\":14725:14742   */\n      swap1\n      pop\n        /* \"#utility.yul\":14700:14908   */\n      jump(tag_348)\n    tag_350:\n        /* \"#utility.yul\":14936:14942   */\n      dup7\n        /* \"#utility.yul\":14927:14934   */\n      dup4\n        /* \"#utility.yul\":14924:14943   */\n      lt\n        /* \"#utility.yul\":14921:15100   */\n      iszero\n      tag_351\n      jumpi\n        /* \"#utility.yul\":14994:15003   */\n      dup5\n        /* \"#utility.yul\":14989:14992   */\n      dup10\n        /* \"#utility.yul\":14985:15004   */\n      add\n        /* \"#utility.yul\":14979:15005   */\n      mload\n        /* \"#utility.yul\":15037:15085   */\n      tag_352\n        /* \"#utility.yul\":15079:15083   */\n      0x1f\n        /* \"#utility.yul\":15071:15077   */\n      dup10\n        /* \"#utility.yul\":15067:15084   */\n      and\n        /* \"#utility.yul\":15056:15065   */\n      dup3\n        /* \"#utility.yul\":15037:15085   */\n      tag_170\n      jump\t// in\n    tag_352:\n        /* \"#utility.yul\":15029:15035   */\n      dup4\n        /* \"#utility.yul\":15022:15086   */\n      sstore\n        /* \"#utility.yul\":14944:15100   */\n      pop\n        /* \"#utility.yul\":14921:15100   */\n    tag_351:\n        /* \"#utility.yul\":15146:15147   */\n      0x01\n        /* \"#utility.yul\":15142:15143   */\n      0x02\n        /* \"#utility.yul\":15134:15140   */\n      dup9\n        /* \"#utility.yul\":15130:15144   */\n      mul\n        /* \"#utility.yul\":15126:15148   */\n      add\n        /* \"#utility.yul\":15120:15124   */\n      dup9\n        /* \"#utility.yul\":15113:15149   */\n      sstore\n        /* \"#utility.yul\":14548:15159   */\n      pop\n      pop\n      pop\n        /* \"#utility.yul\":14511:15398   */\n    tag_343:\n      pop\n        /* \"#utility.yul\":14101:15404   */\n      pop\n      pop\n      pop\n        /* \"#utility.yul\":14009:15404   */\n      pop\n      pop\n      jump\t// out\n        /* \"#utility.yul\":15410:15528   */\n    tag_172:\n        /* \"#utility.yul\":15497:15521   */\n      tag_354\n        /* \"#utility.yul\":15515:15520   */\n      dup2\n        /* \"#utility.yul\":15497:15521   */\n      tag_121\n      jump\t// in\n    tag_354:\n        /* \"#utility.yul\":15492:15495   */\n      dup3\n        /* \"#utility.yul\":15485:15522   */\n      mstore\n        /* \"#utility.yul\":15410:15528   */\n      pop\n      pop\n      jump\t// out\n        /* \"#utility.yul\":15534:15756   */\n    tag_83:\n        /* \"#utility.yul\":15627:15631   */\n      0x00\n        /* \"#utility.yul\":15665:15667   */\n      0x20\n        /* \"#utility.yul\":15654:15663   */\n      dup3\n        /* \"#utility.yul\":15650:15668   */\n      add\n        /* \"#utility.yul\":15642:15668   */\n      swap1\n      pop\n        /* \"#utility.yul\":15678:15749   */\n      tag_356\n        /* \"#utility.yul\":15746:15747   */\n      0x00\n        /* \"#utility.yul\":15735:15744   */\n      dup4\n        /* \"#utility.yul\":15731:15748   */\n      add\n        /* \"#utility.yul\":15722:15728   */\n      dup5\n        /* \"#utility.yul\":15678:15749   */\n      tag_172\n      jump\t// in\n    tag_356:\n        /* \"#utility.yul\":15534:15756   */\n      swap3\n      swap2\n      pop\n      pop\n      jump\t// out\n        /* \"#utility.yul\":15762:15942   */\n    tag_101:\n        /* \"#utility.yul\":15810:15887   */\n      0x4e487b7100000000000000000000000000000000000000000000000000000000\n        /* \"#utility.yul\":15807:15808   */\n      0x00\n        /* \"#utility.yul\":15800:15888   */\n      mstore\n        /* \"#utility.yul\":15907:15911   */\n      0x32\n        /* \"#utility.yul\":15904:15905   */\n      0x04\n        /* \"#utility.yul\":15897:15912   */\n      mstore\n        /* \"#utility.yul\":15931:15935   */\n      0x24\n        /* \"#utility.yul\":15928:15929   */\n      0x00\n        /* \"#utility.yul\":15921:15936   */\n      revert\n        /* \"#utility.yul\":15948:16038   */\n    tag_173:\n        /* \"#utility.yul\":15982:15989   */\n      0x00\n        /* \"#utility.yul\":16025:16030   */\n      dup2\n        /* \"#utility.yul\":16018:16031   */\n      iszero\n        /* \"#utility.yul\":16011:16032   */\n      iszero\n        /* \"#utility.yul\":16000:16032   */\n      swap1\n      pop\n        /* \"#utility.yul\":15948:16038   */\n      swap2\n      swap1\n      pop\n      jump\t// out\n        /* \"#utility.yul\":16044:16160   */\n    tag_174:\n        /* \"#utility.yul\":16114:16135   */\n      tag_360\n        /* \"#utility.yul\":16129:16134   */\n      dup2\n        /* \"#utility.yul\":16114:16135   */\n      tag_173\n      jump\t// in\n    tag_360:\n        /* \"#utility.yul\":16107:16112   */\n      dup2\n        /* \"#utility.yul\":16104:16136   */\n      eq\n        /* \"#utility.yul\":16094:16154   */\n      tag_361\n      jumpi\n        /* \"#utility.yul\":16150:16151   */\n      0x00\n        /* \"#utility.yul\":16147:16148   */\n      dup1\n        /* \"#utility.yul\":16140:16152   */\n      revert\n        /* \"#utility.yul\":16094:16154   */\n    tag_361:\n        /* \"#utility.yul\":16044:16160   */\n      pop\n      jump\t// out\n        /* \"#utility.yul\":16166:16303   */\n    tag_175:\n        /* \"#utility.yul\":16220:16225   */\n      0x00\n        /* \"#utility.yul\":16251:16257   */\n      dup2\n        /* \"#utility.yul\":16245:16258   */\n      mload\n        /* \"#utility.yul\":16236:16258   */\n      swap1\n      pop\n        /* \"#utility.yul\":16267:16297   */\n      tag_363\n        /* \"#utility.yul\":16291:16296   */\n      dup2\n        /* \"#utility.yul\":16267:16297   */\n      tag_174\n      jump\t// in\n    tag_363:\n        /* \"#utility.yul\":16166:16303   */\n      swap3\n      swap2\n      pop\n      pop\n      jump\t// out\n        /* \"#utility.yul\":16309:16654   */\n    tag_106:\n        /* \"#utility.yul\":16376:16382   */\n      0x00\n        /* \"#utility.yul\":16425:16427   */\n      0x20\n        /* \"#utility.yul\":16413:16422   */\n      dup3\n        /* \"#utility.yul\":16404:16411   */\n      dup5\n        /* \"#utility.yul\":16400:16423   */\n      sub\n        /* \"#utility.yul\":16396:16428   */\n      slt\n        /* \"#utility.yul\":16393:16512   */\n      iszero\n      tag_365\n      jumpi\n        /* \"#utility.yul\":16431:16510   */\n      tag_366\n      tag_118\n      jump\t// in\n    tag_366:\n        /* \"#utility.yul\":16393:16512   */\n    tag_365:\n        /* \"#utility.yul\":16551:16552   */\n      0x00\n        /* \"#utility.yul\":16576:16637   */\n      tag_367\n        /* \"#utility.yul\":16629:16636   */\n      dup5\n        /* \"#utility.yul\":16620:16626   */\n      dup3\n        /* \"#utility.yul\":16609:16618   */\n      dup6\n        /* \"#utility.yul\":16605:16627   */\n      add\n        /* \"#utility.yul\":16576:16637   */\n      tag_175\n      jump\t// in\n    tag_367:\n        /* \"#utility.yul\":16566:16637   */\n      swap2\n      pop\n        /* \"#utility.yul\":16522:16647   */\n      pop\n        /* \"#utility.yul\":16309:16654   */\n      swap3\n      swap2\n      pop\n      pop\n      jump\t// out\n        /* \"#utility.yul\":16660:16840   */\n    tag_176:\n        /* \"#utility.yul\":16708:16785   */\n      0x4e487b7100000000000000000000000000000000000000000000000000000000\n        /* \"#utility.yul\":16705:16706   */\n      0x00\n        /* \"#utility.yul\":16698:16786   */\n      mstore\n        /* \"#utility.yul\":16805:16809   */\n      0x11\n        /* \"#utility.yul\":16802:16803   */\n      0x04\n        /* \"#utility.yul\":16795:16810   */\n      mstore\n        /* \"#utility.yul\":16829:16833   */\n      0x24\n        /* \"#utility.yul\":16826:16827   */\n      0x00\n        /* \"#utility.yul\":16819:16834   */\n      revert\n        /* \"#utility.yul\":16846:17079   */\n    tag_114:\n        /* \"#utility.yul\":16885:16888   */\n      0x00\n        /* \"#utility.yul\":16908:16932   */\n      tag_370\n        /* \"#utility.yul\":16926:16931   */\n      dup3\n        /* \"#utility.yul\":16908:16932   */\n      tag_124\n      jump\t// in\n    tag_370:\n        /* \"#utility.yul\":16899:16932   */\n      swap2\n      pop\n        /* \"#utility.yul\":16954:17020   */\n      0xffffffffffffffffffffffffffffffffffffffffffffffffffffffffffffffff\n        /* \"#utility.yul\":16947:16952   */\n      dup3\n        /* \"#utility.yul\":16944:17021   */\n      sub\n        /* \"#utility.yul\":16941:17044   */\n      tag_371\n      jumpi\n        /* \"#utility.yul\":17024:17042   */\n      tag_372\n      tag_176\n      jump\t// in\n    tag_372:\n        /* \"#utility.yul\":16941:17044   */\n    tag_371:\n        /* \"#utility.yul\":17071:17072   */\n      0x01\n        /* \"#utility.yul\":17064:17069   */\n      dup3\n        /* \"#utility.yul\":17060:17073   */\n      add\n        /* \"#utility.yul\":17053:17073   */\n      swap1\n      pop\n        /* \"#utility.yul\":16846:17079   */\n      swap2\n      swap1\n      pop\n      jump\t// out\n\n    auxdata: 0xa264697066735822122043e73feaed6786d7aca2af74a3f6697c13445cf177331571d3fcf61bc0bbe6b964736f6c634300081a0033\n}\n",
				"bytecode": {
					"linkReferences": {},
					"object": "608060405234801561000f575f80fd5b506040516119f93803806119f9833981810160405281019061003191906101c6565b805f806101000a81548173ffffffffffffffffffffffffffffffffffffffff021916908373ffffffffffffffffffffffffffffffffffffffff16021790555060405180606001604052806040518060400160405280600581526020017f41646d696e00000000000000000000000000000000000000000000000000000081525081526020016298968081526020016002808111156100d2576100d16101f1565b5b81525060015f3373ffffffffffffffffffffffffffffffffffffffff1673ffffffffffffffffffffffffffffffffffffffff1681526020019081526020015f205f820151815f0190816101259190610458565b50602082015181600101556040820151816002015f6101000a81548160ff0219169083600281111561015a576101596101f1565b5b021790555090505050610527565b5f80fd5b5f73ffffffffffffffffffffffffffffffffffffffff82169050919050565b5f6101958261016c565b9050919050565b6101a58161018b565b81146101af575f80fd5b50565b5f815190506101c08161019c565b92915050565b5f602082840312156101db576101da610168565b5b5f6101e8848285016101b2565b91505092915050565b7f4e487b71000000000000000000000000000000000000000000000000000000005f52602160045260245ffd5b5f81519050919050565b7f4e487b71000000000000000000000000000000000000000000000000000000005f52604160045260245ffd5b7f4e487b71000000000000000000000000000000000000000000000000000000005f52602260045260245ffd5b5f600282049050600182168061029957607f821691505b6020821081036102ac576102ab610255565b5b50919050565b5f819050815f5260205f209050919050565b5f6020601f8301049050919050565b5f82821b905092915050565b5f6008830261030e7fffffffffffffffffffffffffffffffffffffffffffffffffffffffffffffffff826102d3565b61031886836102d3565b95508019841693508086168417925050509392505050565b5f819050919050565b5f819050919050565b5f61035c61035761035284610330565b610339565b610330565b9050919050565b5f819050919050565b61037583610342565b61038961038182610363565b8484546102df565b825550505050565b5f90565b61039d610391565b6103a881848461036c565b505050565b5b818110156103cb576103c05f82610395565b6001810190506103ae565b5050565b601f821115610410576103e1816102b2565b6103ea846102c4565b810160208510156103f9578190505b61040d610405856102c4565b8301826103ad565b50505b505050565b5f82821c905092915050565b5f6104305f1984600802610415565b1980831691505092915050565b5f6104488383610421565b9150826002028217905092915050565b6104618261021e565b67ffffffffffffffff81111561047a57610479610228565b5b6104848254610282565b61048f8282856103cf565b5f60209050601f8311600181146104c0575f84156104ae578287015190505b6104b8858261043d565b86555061051f565b601f1984166104ce866102b2565b5f5b828110156104f5578489015182556001820191506020850194506020810190506104d0565b86831015610512578489015161050e601f891682610421565b8355505b6001600288020188555050505b505050505050565b6114c5806105345f395ff3fe608060405234801561000f575f80fd5b5060043610610054575f3560e01c8062704c6c14610058578063091c455314610074578063541709da146100a657806380b6e64a146100c6578063d9781122146100e2575b5f80fd5b610072600480360381019061006d9190610c06565b610112565b005b61008e60048036038101906100899190610c44565b6102ea565b60405161009d93929190610d61565b60405180910390f35b6100ae6104e5565b6040516100bd93929190610d61565b60405180910390f35b6100e060048036038101906100db9190610eec565b6106de565b005b6100fc60048036038101906100f79190610c44565b6108df565b604051610109919061100f565b60405180910390f35b5f80600281111561012657610125610cee565b5b5f8054906101000a900473ffffffffffffffffffffffffffffffffffffffff1673ffffffffffffffffffffffffffffffffffffffff1663fde081746040518163ffffffff1660e01b8152600401602060405180830381865afa15801561018e573d5f803e3d5ffd5b505050506040513d601f19601f820116820180604052508101906101b29190611052565b60028111156101c4576101c3610cee565b5b146040518060400160405280600c81526020017f554e415554484f52495a454400000000000000000000000000000000000000008152509061023c576040517f08c379a0000000000000000000000000000000000000000000000000000000008152600401610233919061107d565b60405180910390fd5b505f60405180604001604052808481526020015f1515815250905060025f8573ffffffffffffffffffffffffffffffffffffffff1673ffffffffffffffffffffffffffffffffffffffff1681526020019081526020015f2081908060018154018082558091505060019003905f5260205f2090600202015f909190919091505f820151815f01556020820151816001015f6101000a81548160ff021916908315150217905550505050505050565b60605f80835f60015f8373ffffffffffffffffffffffffffffffffffffffff1673ffffffffffffffffffffffffffffffffffffffff1681526020019081526020015f2060010154116040518060400160405280601181526020017f555345525f49535f4e4f545f464f554e44000000000000000000000000000000815250906103a9576040517f08c379a00000000000000000000000000000000000000000000000000000000081526004016103a0919061107d565b60405180910390fd5b505f60015f8773ffffffffffffffffffffffffffffffffffffffff1673ffffffffffffffffffffffffffffffffffffffff1681526020019081526020015f206040518060600160405290815f82018054610402906110ca565b80601f016020809104026020016040519081016040528092919081815260200182805461042e906110ca565b80156104795780601f1061045057610100808354040283529160200191610479565b820191905f5260205f20905b81548152906001019060200180831161045c57829003601f168201915b5050505050815260200160018201548152602001600282015f9054906101000a900460ff1660028111156104b0576104af610cee565b5b60028111156104c2576104c1610cee565b5b815250509050805f01518160200151826040015194509450945050509193909250565b60605f80335f60015f8373ffffffffffffffffffffffffffffffffffffffff1673ffffffffffffffffffffffffffffffffffffffff1681526020019081526020015f2060010154116040518060400160405280601181526020017f555345525f49535f4e4f545f464f554e44000000000000000000000000000000815250906105a4576040517f08c379a000000000000000000000000000000000000000000000000000000000815260040161059b919061107d565b60405180910390fd5b505f60015f3373ffffffffffffffffffffffffffffffffffffffff1673ffffffffffffffffffffffffffffffffffffffff1681526020019081526020015f206040518060600160405290815f820180546105fd906110ca565b80601f0160208091040260200160405190810160405280929190818152602001828054610629906110ca565b80156106745780601f1061064b57610100808354040283529160200191610674565b820191905f5260205f20905b81548152906001019060200180831161065757829003601f168201915b5050505050815260200160018201548152602001600282015f9054906101000a900460ff1660028111156106ab576106aa610cee565b5b60028111156106bd576106bc610cee565b5b815250509050805f0151816020015182604001519450945094505050909192565b335f60015f8373ffffffffffffffffffffffffffffffffffffffff1673ffffffffffffffffffffffffffffffffffffffff1681526020019081526020015f2060010154146040518060400160405280600f81526020017f555345525f49535f43524541544544000000000000000000000000000000000081525090610799576040517f08c379a0000000000000000000000000000000000000000000000000000000008152600401610790919061107d565b60405180910390fd5b5060405180606001604052808581526020018481526020018360028111156107c4576107c3610cee565b5b81525060015f3373ffffffffffffffffffffffffffffffffffffffff1673ffffffffffffffffffffffffffffffffffffffff1681526020019081526020015f205f820151815f0190816108179190611297565b50602082015181600101556040820151816002015f6101000a81548160ff0219169083600281111561084c5761084b610cee565b5b02179055509050505f8054906101000a900473ffffffffffffffffffffffffffffffffffffffff1673ffffffffffffffffffffffffffffffffffffffff16632e1cd6c2336040518263ffffffff1660e01b81526004016108ac9190611375565b5f604051808303815f87803b1580156108c3575f80fd5b505af11580156108d5573d5f803e3d5ffd5b5050505050505050565b60605f60025f8473ffffffffffffffffffffffffffffffffffffffff1673ffffffffffffffffffffffffffffffffffffffff1681526020019081526020015f20805480602002602001604051908101604052809291908181526020015f905b82821015610991578382905f5260205f2090600202016040518060400160405290815f8201548152602001600182015f9054906101000a900460ff1615151515815250508152602001906001019061093e565b5050505090505f815167ffffffffffffffff8111156109b3576109b2610da5565b5b6040519080825280602002602001820160405280156109e15781602001602082028036833780820191505090505b5090505f805b8351811015610b5c573373ffffffffffffffffffffffffffffffffffffffff168673ffffffffffffffffffffffffffffffffffffffff16148015610a475750838181518110610a3957610a3861138e565b5b602002602001015160200151155b80610ada57505f8054906101000a900473ffffffffffffffffffffffffffffffffffffffff1673ffffffffffffffffffffffffffffffffffffffff16639805524a6040518163ffffffff1660e01b8152600401602060405180830381865afa158015610ab5573d5f803e3d5ffd5b505050506040513d601f19601f82011682018060405250810190610ad991906113f0565b5b80610b005750838181518110610af357610af261138e565b5b6020026020010151602001515b15610b4f57838181518110610b1857610b1761138e565b5b60200260200101515f0151838380610b2f90611448565b945081518110610b4257610b4161138e565b5b6020026020010181815250505b80806001019150506109e7565b50819350505050919050565b5f604051905090565b5f80fd5b5f80fd5b5f73ffffffffffffffffffffffffffffffffffffffff82169050919050565b5f610ba282610b79565b9050919050565b610bb281610b98565b8114610bbc575f80fd5b50565b5f81359050610bcd81610ba9565b92915050565b5f819050919050565b610be581610bd3565b8114610bef575f80fd5b50565b5f81359050610c0081610bdc565b92915050565b5f8060408385031215610c1c57610c1b610b71565b5b5f610c2985828601610bbf565b9250506020610c3a85828601610bf2565b9150509250929050565b5f60208284031215610c5957610c58610b71565b5b5f610c6684828501610bbf565b91505092915050565b5f81519050919050565b5f82825260208201905092915050565b8281835e5f83830152505050565b5f601f19601f8301169050919050565b5f610cb182610c6f565b610cbb8185610c79565b9350610ccb818560208601610c89565b610cd481610c97565b840191505092915050565b610ce881610bd3565b82525050565b7f4e487b71000000000000000000000000000000000000000000000000000000005f52602160045260245ffd5b60038110610d2c57610d2b610cee565b5b50565b5f819050610d3c82610d1b565b919050565b5f610d4b82610d2f565b9050919050565b610d5b81610d41565b82525050565b5f6060820190508181035f830152610d798186610ca7565b9050610d886020830185610cdf565b610d956040830184610d52565b949350505050565b5f80fd5b5f80fd5b7f4e487b71000000000000000000000000000000000000000000000000000000005f52604160045260245ffd5b610ddb82610c97565b810181811067ffffffffffffffff82111715610dfa57610df9610da5565b5b80604052505050565b5f610e0c610b68565b9050610e188282610dd2565b919050565b5f67ffffffffffffffff821115610e3757610e36610da5565b5b610e4082610c97565b9050602081019050919050565b828183375f83830152505050565b5f610e6d610e6884610e1d565b610e03565b905082815260208101848484011115610e8957610e88610da1565b5b610e94848285610e4d565b509392505050565b5f82601f830112610eb057610eaf610d9d565b5b8135610ec0848260208601610e5b565b91505092915050565b60038110610ed5575f80fd5b50565b5f81359050610ee681610ec9565b92915050565b5f805f60608486031215610f0357610f02610b71565b5b5f84013567ffffffffffffffff811115610f2057610f1f610b75565b5b610f2c86828701610e9c565b9350506020610f3d86828701610bf2565b9250506040610f4e86828701610ed8565b9150509250925092565b5f81519050919050565b5f82825260208201905092915050565b5f819050602082019050919050565b610f8a81610bd3565b82525050565b5f610f9b8383610f81565b60208301905092915050565b5f602082019050919050565b5f610fbd82610f58565b610fc78185610f62565b9350610fd283610f72565b805f5b83811015611002578151610fe98882610f90565b9750610ff483610fa7565b925050600181019050610fd5565b5085935050505092915050565b5f6020820190508181035f8301526110278184610fb3565b905092915050565b6003811061103b575f80fd5b50565b5f8151905061104c8161102f565b92915050565b5f6020828403121561106757611066610b71565b5b5f6110748482850161103e565b91505092915050565b5f6020820190508181035f8301526110958184610ca7565b905092915050565b7f4e487b71000000000000000000000000000000000000000000000000000000005f52602260045260245ffd5b5f60028204905060018216806110e157607f821691505b6020821081036110f4576110f361109d565b5b50919050565b5f819050815f5260205f209050919050565b5f6020601f8301049050919050565b5f82821b905092915050565b5f600883026111567fffffffffffffffffffffffffffffffffffffffffffffffffffffffffffffffff8261111b565b611160868361111b565b95508019841693508086168417925050509392505050565b5f819050919050565b5f61119b61119661119184610bd3565b611178565b610bd3565b9050919050565b5f819050919050565b6111b483611181565b6111c86111c0826111a2565b848454611127565b825550505050565b5f90565b6111dc6111d0565b6111e78184846111ab565b505050565b5b8181101561120a576111ff5f826111d4565b6001810190506111ed565b5050565b601f82111561124f57611220816110fa565b6112298461110c565b81016020851015611238578190505b61124c6112448561110c565b8301826111ec565b50505b505050565b5f82821c905092915050565b5f61126f5f1984600802611254565b1980831691505092915050565b5f6112878383611260565b9150826002028217905092915050565b6112a082610c6f565b67ffffffffffffffff8111156112b9576112b8610da5565b5b6112c382546110ca565b6112ce82828561120e565b5f60209050601f8311600181146112ff575f84156112ed578287015190505b6112f7858261127c565b86555061135e565b601f19841661130d866110fa565b5f5b828110156113345784890151825560018201915060208501945060208101905061130f565b86831015611351578489015161134d601f891682611260565b8355505b6001600288020188555050505b505050505050565b61136f81610b98565b82525050565b5f6020820190506113885f830184611366565b92915050565b7f4e487b71000000000000000000000000000000000000000000000000000000005f52603260045260245ffd5b5f8115159050919050565b6113cf816113bb565b81146113d9575f80fd5b50565b5f815190506113ea816113c6565b92915050565b5f6020828403121561140557611404610b71565b5b5f611412848285016113dc565b91505092915050565b7f4e487b71000000000000000000000000000000000000000000000000000000005f52601160045260245ffd5b5f61145282610bd3565b91507fffffffffffffffffffffffffffffffffffffffffffffffffffffffffffffffff82036114845761148361141b565b5b60018201905091905056fea264697066735822122043e73feaed6786d7aca2af74a3f6697c13445cf177331571d3fcf61bc0bbe6b964736f6c634300081a0033",
					"opcodes": "PUSH1 0x80 PUSH1 0x40 MSTORE CALLVALUE DUP1 ISZERO PUSH2 0xF JUMPI PUSH0 DUP1 REVERT JUMPDEST POP PUSH1 0x40 MLOAD PUSH2 0x19F9 CODESIZE SUB DUP1 PUSH2 0x19F9 DUP4 CODECOPY DUP2 DUP2 ADD PUSH1 0x40 MSTORE DUP2 ADD SWAP1 PUSH2 0x31 SWAP2 SWAP1 PUSH2 0x1C6 JUMP JUMPDEST DUP1 PUSH0 DUP1 PUSH2 0x100 EXP DUP2 SLOAD DUP2 PUSH20 0xFFFFFFFFFFFFFFFFFFFFFFFFFFFFFFFFFFFFFFFF MUL NOT AND SWAP1 DUP4 PUSH20 0xFFFFFFFFFFFFFFFFFFFFFFFFFFFFFFFFFFFFFFFF AND MUL OR SWAP1 SSTORE POP PUSH1 0x40 MLOAD DUP1 PUSH1 0x60 ADD PUSH1 0x40 MSTORE DUP1 PUSH1 0x40 MLOAD DUP1 PUSH1 0x40 ADD PUSH1 0x40 MSTORE DUP1 PUSH1 0x5 DUP2 MSTORE PUSH1 0x20 ADD PUSH32 0x41646D696E000000000000000000000000000000000000000000000000000000 DUP2 MSTORE POP DUP2 MSTORE PUSH1 0x20 ADD PUSH3 0x989680 DUP2 MSTORE PUSH1 0x20 ADD PUSH1 0x2 DUP1 DUP2 GT ISZERO PUSH2 0xD2 JUMPI PUSH2 0xD1 PUSH2 0x1F1 JUMP JUMPDEST JUMPDEST DUP2 MSTORE POP PUSH1 0x1 PUSH0 CALLER PUSH20 0xFFFFFFFFFFFFFFFFFFFFFFFFFFFFFFFFFFFFFFFF AND PUSH20 0xFFFFFFFFFFFFFFFFFFFFFFFFFFFFFFFFFFFFFFFF AND DUP2 MSTORE PUSH1 0x20 ADD SWAP1 DUP2 MSTORE PUSH1 0x20 ADD PUSH0 KECCAK256 PUSH0 DUP3 ADD MLOAD DUP2 PUSH0 ADD SWAP1 DUP2 PUSH2 0x125 SWAP2 SWAP1 PUSH2 0x458 JUMP JUMPDEST POP PUSH1 0x20 DUP3 ADD MLOAD DUP2 PUSH1 0x1 ADD SSTORE PUSH1 0x40 DUP3 ADD MLOAD DUP2 PUSH1 0x2 ADD PUSH0 PUSH2 0x100 EXP DUP2 SLOAD DUP2 PUSH1 0xFF MUL NOT AND SWAP1 DUP4 PUSH1 0x2 DUP2 GT ISZERO PUSH2 0x15A JUMPI PUSH2 0x159 PUSH2 0x1F1 JUMP JUMPDEST JUMPDEST MUL OR SWAP1 SSTORE POP SWAP1 POP POP POP PUSH2 0x527 JUMP JUMPDEST PUSH0 DUP1 REVERT JUMPDEST PUSH0 PUSH20 0xFFFFFFFFFFFFFFFFFFFFFFFFFFFFFFFFFFFFFFFF DUP3 AND SWAP1 POP SWAP2 SWAP1 POP JUMP JUMPDEST PUSH0 PUSH2 0x195 DUP3 PUSH2 0x16C JUMP JUMPDEST SWAP1 POP SWAP2 SWAP1 POP JUMP JUMPDEST PUSH2 0x1A5 DUP2 PUSH2 0x18B JUMP JUMPDEST DUP2 EQ PUSH2 0x1AF JUMPI PUSH0 DUP1 REVERT JUMPDEST POP JUMP JUMPDEST PUSH0 DUP2 MLOAD SWAP1 POP PUSH2 0x1C0 DUP2 PUSH2 0x19C JUMP JUMPDEST SWAP3 SWAP2 POP POP JUMP JUMPDEST PUSH0 PUSH1 0x20 DUP3 DUP5 SUB SLT ISZERO PUSH2 0x1DB JUMPI PUSH2 0x1DA PUSH2 0x168 JUMP JUMPDEST JUMPDEST PUSH0 PUSH2 0x1E8 DUP5 DUP3 DUP6 ADD PUSH2 0x1B2 JUMP JUMPDEST SWAP2 POP POP SWAP3 SWAP2 POP POP JUMP JUMPDEST PUSH32 0x4E487B7100000000000000000000000000000000000000000000000000000000 PUSH0 MSTORE PUSH1 0x21 PUSH1 0x4 MSTORE PUSH1 0x24 PUSH0 REVERT JUMPDEST PUSH0 DUP2 MLOAD SWAP1 POP SWAP2 SWAP1 POP JUMP JUMPDEST PUSH32 0x4E487B7100000000000000000000000000000000000000000000000000000000 PUSH0 MSTORE PUSH1 0x41 PUSH1 0x4 MSTORE PUSH1 0x24 PUSH0 REVERT JUMPDEST PUSH32 0x4E487B7100000000000000000000000000000000000000000000000000000000 PUSH0 MSTORE PUSH1 0x22 PUSH1 0x4 MSTORE PUSH1 0x24 PUSH0 REVERT JUMPDEST PUSH0 PUSH1 0x2 DUP3 DIV SWAP1 POP PUSH1 0x1 DUP3 AND DUP1 PUSH2 0x299 JUMPI PUSH1 0x7F DUP3 AND SWAP2 POP JUMPDEST PUSH1 0x20 DUP3 LT DUP2 SUB PUSH2 0x2AC JUMPI PUSH2 0x2AB PUSH2 0x255 JUMP JUMPDEST JUMPDEST POP SWAP2 SWAP1 POP JUMP JUMPDEST PUSH0 DUP2 SWAP1 POP DUP2 PUSH0 MSTORE PUSH1 0x20 PUSH0 KECCAK256 SWAP1 POP SWAP2 SWAP1 POP JUMP JUMPDEST PUSH0 PUSH1 0x20 PUSH1 0x1F DUP4 ADD DIV SWAP1 POP SWAP2 SWAP1 POP JUMP JUMPDEST PUSH0 DUP3 DUP3 SHL SWAP1 POP SWAP3 SWAP2 POP POP JUMP JUMPDEST PUSH0 PUSH1 0x8 DUP4 MUL PUSH2 0x30E PUSH32 0xFFFFFFFFFFFFFFFFFFFFFFFFFFFFFFFFFFFFFFFFFFFFFFFFFFFFFFFFFFFFFFFF DUP3 PUSH2 0x2D3 JUMP JUMPDEST PUSH2 0x318 DUP7 DUP4 PUSH2 0x2D3 JUMP JUMPDEST SWAP6 POP DUP1 NOT DUP5 AND SWAP4 POP DUP1 DUP7 AND DUP5 OR SWAP3 POP POP POP SWAP4 SWAP3 POP POP POP JUMP JUMPDEST PUSH0 DUP2 SWAP1 POP SWAP2 SWAP1 POP JUMP JUMPDEST PUSH0 DUP2 SWAP1 POP SWAP2 SWAP1 POP JUMP JUMPDEST PUSH0 PUSH2 0x35C PUSH2 0x357 PUSH2 0x352 DUP5 PUSH2 0x330 JUMP JUMPDEST PUSH2 0x339 JUMP JUMPDEST PUSH2 0x330 JUMP JUMPDEST SWAP1 POP SWAP2 SWAP1 POP JUMP JUMPDEST PUSH0 DUP2 SWAP1 POP SWAP2 SWAP1 POP JUMP JUMPDEST PUSH2 0x375 DUP4 PUSH2 0x342 JUMP JUMPDEST PUSH2 0x389 PUSH2 0x381 DUP3 PUSH2 0x363 JUMP JUMPDEST DUP5 DUP5 SLOAD PUSH2 0x2DF JUMP JUMPDEST DUP3 SSTORE POP POP POP POP JUMP JUMPDEST PUSH0 SWAP1 JUMP JUMPDEST PUSH2 0x39D PUSH2 0x391 JUMP JUMPDEST PUSH2 0x3A8 DUP2 DUP5 DUP5 PUSH2 0x36C JUMP JUMPDEST POP POP POP JUMP JUMPDEST JUMPDEST DUP2 DUP2 LT ISZERO PUSH2 0x3CB JUMPI PUSH2 0x3C0 PUSH0 DUP3 PUSH2 0x395 JUMP JUMPDEST PUSH1 0x1 DUP2 ADD SWAP1 POP PUSH2 0x3AE JUMP JUMPDEST POP POP JUMP JUMPDEST PUSH1 0x1F DUP3 GT ISZERO PUSH2 0x410 JUMPI PUSH2 0x3E1 DUP2 PUSH2 0x2B2 JUMP JUMPDEST PUSH2 0x3EA DUP5 PUSH2 0x2C4 JUMP JUMPDEST DUP2 ADD PUSH1 0x20 DUP6 LT ISZERO PUSH2 0x3F9 JUMPI DUP2 SWAP1 POP JUMPDEST PUSH2 0x40D PUSH2 0x405 DUP6 PUSH2 0x2C4 JUMP JUMPDEST DUP4 ADD DUP3 PUSH2 0x3AD JUMP JUMPDEST POP POP JUMPDEST POP POP POP JUMP JUMPDEST PUSH0 DUP3 DUP3 SHR SWAP1 POP SWAP3 SWAP2 POP POP JUMP JUMPDEST PUSH0 PUSH2 0x430 PUSH0 NOT DUP5 PUSH1 0x8 MUL PUSH2 0x415 JUMP JUMPDEST NOT DUP1 DUP4 AND SWAP2 POP POP SWAP3 SWAP2 POP POP JUMP JUMPDEST PUSH0 PUSH2 0x448 DUP4 DUP4 PUSH2 0x421 JUMP JUMPDEST SWAP2 POP DUP3 PUSH1 0x2 MUL DUP3 OR SWAP1 POP SWAP3 SWAP2 POP POP JUMP JUMPDEST PUSH2 0x461 DUP3 PUSH2 0x21E JUMP JUMPDEST PUSH8 0xFFFFFFFFFFFFFFFF DUP2 GT ISZERO PUSH2 0x47A JUMPI PUSH2 0x479 PUSH2 0x228 JUMP JUMPDEST JUMPDEST PUSH2 0x484 DUP3 SLOAD PUSH2 0x282 JUMP JUMPDEST PUSH2 0x48F DUP3 DUP3 DUP6 PUSH2 0x3CF JUMP JUMPDEST PUSH0 PUSH1 0x20 SWAP1 POP PUSH1 0x1F DUP4 GT PUSH1 0x1 DUP2 EQ PUSH2 0x4C0 JUMPI PUSH0 DUP5 ISZERO PUSH2 0x4AE JUMPI DUP3 DUP8 ADD MLOAD SWAP1 POP JUMPDEST PUSH2 0x4B8 DUP6 DUP3 PUSH2 0x43D JUMP JUMPDEST DUP7 SSTORE POP PUSH2 0x51F JUMP JUMPDEST PUSH1 0x1F NOT DUP5 AND PUSH2 0x4CE DUP7 PUSH2 0x2B2 JUMP JUMPDEST PUSH0 JUMPDEST DUP3 DUP2 LT ISZERO PUSH2 0x4F5 JUMPI DUP5 DUP10 ADD MLOAD DUP3 SSTORE PUSH1 0x1 DUP3 ADD SWAP2 POP PUSH1 0x20 DUP6 ADD SWAP5 POP PUSH1 0x20 DUP2 ADD SWAP1 POP PUSH2 0x4D0 JUMP JUMPDEST DUP7 DUP4 LT ISZERO PUSH2 0x512 JUMPI DUP5 DUP10 ADD MLOAD PUSH2 0x50E PUSH1 0x1F DUP10 AND DUP3 PUSH2 0x421 JUMP JUMPDEST DUP4 SSTORE POP JUMPDEST PUSH1 0x1 PUSH1 0x2 DUP9 MUL ADD DUP9 SSTORE POP POP POP JUMPDEST POP POP POP POP POP POP JUMP JUMPDEST PUSH2 0x14C5 DUP1 PUSH2 0x534 PUSH0 CODECOPY PUSH0 RETURN INVALID PUSH1 0x80 PUSH1 0x40 MSTORE CALLVALUE DUP1 ISZERO PUSH2 0xF JUMPI PUSH0 DUP1 REVERT JUMPDEST POP PUSH1 0x4 CALLDATASIZE LT PUSH2 0x54 JUMPI PUSH0 CALLDATALOAD PUSH1 0xE0 SHR DUP1 PUSH3 0x704C6C EQ PUSH2 0x58 JUMPI DUP1 PUSH4 0x91C4553 EQ PUSH2 0x74 JUMPI DUP1 PUSH4 0x541709DA EQ PUSH2 0xA6 JUMPI DUP1 PUSH4 0x80B6E64A EQ PUSH2 0xC6 JUMPI DUP1 PUSH4 0xD9781122 EQ PUSH2 0xE2 JUMPI JUMPDEST PUSH0 DUP1 REVERT JUMPDEST PUSH2 0x72 PUSH1 0x4 DUP1 CALLDATASIZE SUB DUP2 ADD SWAP1 PUSH2 0x6D SWAP2 SWAP1 PUSH2 0xC06 JUMP JUMPDEST PUSH2 0x112 JUMP JUMPDEST STOP JUMPDEST PUSH2 0x8E PUSH1 0x4 DUP1 CALLDATASIZE SUB DUP2 ADD SWAP1 PUSH2 0x89 SWAP2 SWAP1 PUSH2 0xC44 JUMP JUMPDEST PUSH2 0x2EA JUMP JUMPDEST PUSH1 0x40 MLOAD PUSH2 0x9D SWAP4 SWAP3 SWAP2 SWAP1 PUSH2 0xD61 JUMP JUMPDEST PUSH1 0x40 MLOAD DUP1 SWAP2 SUB SWAP1 RETURN JUMPDEST PUSH2 0xAE PUSH2 0x4E5 JUMP JUMPDEST PUSH1 0x40 MLOAD PUSH2 0xBD SWAP4 SWAP3 SWAP2 SWAP1 PUSH2 0xD61 JUMP JUMPDEST PUSH1 0x40 MLOAD DUP1 SWAP2 SUB SWAP1 RETURN JUMPDEST PUSH2 0xE0 PUSH1 0x4 DUP1 CALLDATASIZE SUB DUP2 ADD SWAP1 PUSH2 0xDB SWAP2 SWAP1 PUSH2 0xEEC JUMP JUMPDEST PUSH2 0x6DE JUMP JUMPDEST STOP JUMPDEST PUSH2 0xFC PUSH1 0x4 DUP1 CALLDATASIZE SUB DUP2 ADD SWAP1 PUSH2 0xF7 SWAP2 SWAP1 PUSH2 0xC44 JUMP JUMPDEST PUSH2 0x8DF JUMP JUMPDEST PUSH1 0x40 MLOAD PUSH2 0x109 SWAP2 SWAP1 PUSH2 0x100F JUMP JUMPDEST PUSH1 0x40 MLOAD DUP1 SWAP2 SUB SWAP1 RETURN JUMPDEST PUSH0 DUP1 PUSH1 0x2 DUP2 GT ISZERO PUSH2 0x126 JUMPI PUSH2 0x125 PUSH2 0xCEE JUMP JUMPDEST JUMPDEST PUSH0 DUP1 SLOAD SWAP1 PUSH2 0x100 EXP SWAP1 DIV PUSH20 0xFFFFFFFFFFFFFFFFFFFFFFFFFFFFFFFFFFFFFFFF AND PUSH20 0xFFFFFFFFFFFFFFFFFFFFFFFFFFFFFFFFFFFFFFFF AND PUSH4 0xFDE08174 PUSH1 0x40 MLOAD DUP2 PUSH4 0xFFFFFFFF AND PUSH1 0xE0 SHL DUP2 MSTORE PUSH1 0x4 ADD PUSH1 0x20 PUSH1 0x40 MLOAD DUP1 DUP4 SUB DUP2 DUP7 GAS STATICCALL ISZERO DUP1 ISZERO PUSH2 0x18E JUMPI RETURNDATASIZE PUSH0 DUP1 RETURNDATACOPY RETURNDATASIZE PUSH0 REVERT JUMPDEST POP POP POP POP PUSH1 0x40 MLOAD RETURNDATASIZE PUSH1 0x1F NOT PUSH1 0x1F DUP3 ADD AND DUP3 ADD DUP1 PUSH1 0x40 MSTORE POP DUP2 ADD SWAP1 PUSH2 0x1B2 SWAP2 SWAP1 PUSH2 0x1052 JUMP JUMPDEST PUSH1 0x2 DUP2 GT ISZERO PUSH2 0x1C4 JUMPI PUSH2 0x1C3 PUSH2 0xCEE JUMP JUMPDEST JUMPDEST EQ PUSH1 0x40 MLOAD DUP1 PUSH1 0x40 ADD PUSH1 0x40 MSTORE DUP1 PUSH1 0xC DUP2 MSTORE PUSH1 0x20 ADD PUSH32 0x554E415554484F52495A45440000000000000000000000000000000000000000 DUP2 MSTORE POP SWAP1 PUSH2 0x23C JUMPI PUSH1 0x40 MLOAD PUSH32 0x8C379A000000000000000000000000000000000000000000000000000000000 DUP2 MSTORE PUSH1 0x4 ADD PUSH2 0x233 SWAP2 SWAP1 PUSH2 0x107D JUMP JUMPDEST PUSH1 0x40 MLOAD DUP1 SWAP2 SUB SWAP1 REVERT JUMPDEST POP PUSH0 PUSH1 0x40 MLOAD DUP1 PUSH1 0x40 ADD PUSH1 0x40 MSTORE DUP1 DUP5 DUP2 MSTORE PUSH1 0x20 ADD PUSH0 ISZERO ISZERO DUP2 MSTORE POP SWAP1 POP PUSH1 0x2 PUSH0 DUP6 PUSH20 0xFFFFFFFFFFFFFFFFFFFFFFFFFFFFFFFFFFFFFFFF AND PUSH20 0xFFFFFFFFFFFFFFFFFFFFFFFFFFFFFFFFFFFFFFFF AND DUP2 MSTORE PUSH1 0x20 ADD SWAP1 DUP2 MSTORE PUSH1 0x20 ADD PUSH0 KECCAK256 DUP2 SWAP1 DUP1 PUSH1 0x1 DUP2 SLOAD ADD DUP1 DUP3 SSTORE DUP1 SWAP2 POP POP PUSH1 0x1 SWAP1 SUB SWAP1 PUSH0 MSTORE PUSH1 0x20 PUSH0 KECCAK256 SWAP1 PUSH1 0x2 MUL ADD PUSH0 SWAP1 SWAP2 SWAP1 SWAP2 SWAP1 SWAP2 POP PUSH0 DUP3 ADD MLOAD DUP2 PUSH0 ADD SSTORE PUSH1 0x20 DUP3 ADD MLOAD DUP2 PUSH1 0x1 ADD PUSH0 PUSH2 0x100 EXP DUP2 SLOAD DUP2 PUSH1 0xFF MUL NOT AND SWAP1 DUP4 ISZERO ISZERO MUL OR SWAP1 SSTORE POP POP POP POP POP POP POP JUMP JUMPDEST PUSH1 0x60 PUSH0 DUP1 DUP4 PUSH0 PUSH1 0x1 PUSH0 DUP4 PUSH20 0xFFFFFFFFFFFFFFFFFFFFFFFFFFFFFFFFFFFFFFFF AND PUSH20 0xFFFFFFFFFFFFFFFFFFFFFFFFFFFFFFFFFFFFFFFF AND DUP2 MSTORE PUSH1 0x20 ADD SWAP1 DUP2 MSTORE PUSH1 0x20 ADD PUSH0 KECCAK256 PUSH1 0x1 ADD SLOAD GT PUSH1 0x40 MLOAD DUP1 PUSH1 0x40 ADD PUSH1 0x40 MSTORE DUP1 PUSH1 0x11 DUP2 MSTORE PUSH1 0x20 ADD PUSH32 0x555345525F49535F4E4F545F464F554E44000000000000000000000000000000 DUP2 MSTORE POP SWAP1 PUSH2 0x3A9 JUMPI PUSH1 0x40 MLOAD PUSH32 0x8C379A000000000000000000000000000000000000000000000000000000000 DUP2 MSTORE PUSH1 0x4 ADD PUSH2 0x3A0 SWAP2 SWAP1 PUSH2 0x107D JUMP JUMPDEST PUSH1 0x40 MLOAD DUP1 SWAP2 SUB SWAP1 REVERT JUMPDEST POP PUSH0 PUSH1 0x1 PUSH0 DUP8 PUSH20 0xFFFFFFFFFFFFFFFFFFFFFFFFFFFFFFFFFFFFFFFF AND PUSH20 0xFFFFFFFFFFFFFFFFFFFFFFFFFFFFFFFFFFFFFFFF AND DUP2 MSTORE PUSH1 0x20 ADD SWAP1 DUP2 MSTORE PUSH1 0x20 ADD PUSH0 KECCAK256 PUSH1 0x40 MLOAD DUP1 PUSH1 0x60 ADD PUSH1 0x40 MSTORE SWAP1 DUP2 PUSH0 DUP3 ADD DUP1 SLOAD PUSH2 0x402 SWAP1 PUSH2 0x10CA JUMP JUMPDEST DUP1 PUSH1 0x1F ADD PUSH1 0x20 DUP1 SWAP2 DIV MUL PUSH1 0x20 ADD PUSH1 0x40 MLOAD SWAP1 DUP2 ADD PUSH1 0x40 MSTORE DUP1 SWAP3 SWAP2 SWAP1 DUP2 DUP2 MSTORE PUSH1 0x20 ADD DUP3 DUP1 SLOAD PUSH2 0x42E SWAP1 PUSH2 0x10CA JUMP JUMPDEST DUP1 ISZERO PUSH2 0x479 JUMPI DUP1 PUSH1 0x1F LT PUSH2 0x450 JUMPI PUSH2 0x100 DUP1 DUP4 SLOAD DIV MUL DUP4 MSTORE SWAP2 PUSH1 0x20 ADD SWAP2 PUSH2 0x479 JUMP JUMPDEST DUP3 ADD SWAP2 SWAP1 PUSH0 MSTORE PUSH1 0x20 PUSH0 KECCAK256 SWAP1 JUMPDEST DUP2 SLOAD DUP2 MSTORE SWAP1 PUSH1 0x1 ADD SWAP1 PUSH1 0x20 ADD DUP1 DUP4 GT PUSH2 0x45C JUMPI DUP3 SWAP1 SUB PUSH1 0x1F AND DUP3 ADD SWAP2 JUMPDEST POP POP POP POP POP DUP2 MSTORE PUSH1 0x20 ADD PUSH1 0x1 DUP3 ADD SLOAD DUP2 MSTORE PUSH1 0x20 ADD PUSH1 0x2 DUP3 ADD PUSH0 SWAP1 SLOAD SWAP1 PUSH2 0x100 EXP SWAP1 DIV PUSH1 0xFF AND PUSH1 0x2 DUP2 GT ISZERO PUSH2 0x4B0 JUMPI PUSH2 0x4AF PUSH2 0xCEE JUMP JUMPDEST JUMPDEST PUSH1 0x2 DUP2 GT ISZERO PUSH2 0x4C2 JUMPI PUSH2 0x4C1 PUSH2 0xCEE JUMP JUMPDEST JUMPDEST DUP2 MSTORE POP POP SWAP1 POP DUP1 PUSH0 ADD MLOAD DUP2 PUSH1 0x20 ADD MLOAD DUP3 PUSH1 0x40 ADD MLOAD SWAP5 POP SWAP5 POP SWAP5 POP POP POP SWAP2 SWAP4 SWAP1 SWAP3 POP JUMP JUMPDEST PUSH1 0x60 PUSH0 DUP1 CALLER PUSH0 PUSH1 0x1 PUSH0 DUP4 PUSH20 0xFFFFFFFFFFFFFFFFFFFFFFFFFFFFFFFFFFFFFFFF AND PUSH20 0xFFFFFFFFFFFFFFFFFFFFFFFFFFFFFFFFFFFFFFFF AND DUP2 MSTORE PUSH1 0x20 ADD SWAP1 DUP2 MSTORE PUSH1 0x20 ADD PUSH0 KECCAK256 PUSH1 0x1 ADD SLOAD GT PUSH1 0x40 MLOAD DUP1 PUSH1 0x40 ADD PUSH1 0x40 MSTORE DUP1 PUSH1 0x11 DUP2 MSTORE PUSH1 0x20 ADD PUSH32 0x555345525F49535F4E4F545F464F554E44000000000000000000000000000000 DUP2 MSTORE POP SWAP1 PUSH2 0x5A4 JUMPI PUSH1 0x40 MLOAD PUSH32 0x8C379A000000000000000000000000000000000000000000000000000000000 DUP2 MSTORE PUSH1 0x4 ADD PUSH2 0x59B SWAP2 SWAP1 PUSH2 0x107D JUMP JUMPDEST PUSH1 0x40 MLOAD DUP1 SWAP2 SUB SWAP1 REVERT JUMPDEST POP PUSH0 PUSH1 0x1 PUSH0 CALLER PUSH20 0xFFFFFFFFFFFFFFFFFFFFFFFFFFFFFFFFFFFFFFFF AND PUSH20 0xFFFFFFFFFFFFFFFFFFFFFFFFFFFFFFFFFFFFFFFF AND DUP2 MSTORE PUSH1 0x20 ADD SWAP1 DUP2 MSTORE PUSH1 0x20 ADD PUSH0 KECCAK256 PUSH1 0x40 MLOAD DUP1 PUSH1 0x60 ADD PUSH1 0x40 MSTORE SWAP1 DUP2 PUSH0 DUP3 ADD DUP1 SLOAD PUSH2 0x5FD SWAP1 PUSH2 0x10CA JUMP JUMPDEST DUP1 PUSH1 0x1F ADD PUSH1 0x20 DUP1 SWAP2 DIV MUL PUSH1 0x20 ADD PUSH1 0x40 MLOAD SWAP1 DUP2 ADD PUSH1 0x40 MSTORE DUP1 SWAP3 SWAP2 SWAP1 DUP2 DUP2 MSTORE PUSH1 0x20 ADD DUP3 DUP1 SLOAD PUSH2 0x629 SWAP1 PUSH2 0x10CA JUMP JUMPDEST DUP1 ISZERO PUSH2 0x674 JUMPI DUP1 PUSH1 0x1F LT PUSH2 0x64B JUMPI PUSH2 0x100 DUP1 DUP4 SLOAD DIV MUL DUP4 MSTORE SWAP2 PUSH1 0x20 ADD SWAP2 PUSH2 0x674 JUMP JUMPDEST DUP3 ADD SWAP2 SWAP1 PUSH0 MSTORE PUSH1 0x20 PUSH0 KECCAK256 SWAP1 JUMPDEST DUP2 SLOAD DUP2 MSTORE SWAP1 PUSH1 0x1 ADD SWAP1 PUSH1 0x20 ADD DUP1 DUP4 GT PUSH2 0x657 JUMPI DUP3 SWAP1 SUB PUSH1 0x1F AND DUP3 ADD SWAP2 JUMPDEST POP POP POP POP POP DUP2 MSTORE PUSH1 0x20 ADD PUSH1 0x1 DUP3 ADD SLOAD DUP2 MSTORE PUSH1 0x20 ADD PUSH1 0x2 DUP3 ADD PUSH0 SWAP1 SLOAD SWAP1 PUSH2 0x100 EXP SWAP1 DIV PUSH1 0xFF AND PUSH1 0x2 DUP2 GT ISZERO PUSH2 0x6AB JUMPI PUSH2 0x6AA PUSH2 0xCEE JUMP JUMPDEST JUMPDEST PUSH1 0x2 DUP2 GT ISZERO PUSH2 0x6BD JUMPI PUSH2 0x6BC PUSH2 0xCEE JUMP JUMPDEST JUMPDEST DUP2 MSTORE POP POP SWAP1 POP DUP1 PUSH0 ADD MLOAD DUP2 PUSH1 0x20 ADD MLOAD DUP3 PUSH1 0x40 ADD MLOAD SWAP5 POP SWAP5 POP SWAP5 POP POP POP SWAP1 SWAP2 SWAP3 JUMP JUMPDEST CALLER PUSH0 PUSH1 0x1 PUSH0 DUP4 PUSH20 0xFFFFFFFFFFFFFFFFFFFFFFFFFFFFFFFFFFFFFFFF AND PUSH20 0xFFFFFFFFFFFFFFFFFFFFFFFFFFFFFFFFFFFFFFFF AND DUP2 MSTORE PUSH1 0x20 ADD SWAP1 DUP2 MSTORE PUSH1 0x20 ADD PUSH0 KECCAK256 PUSH1 0x1 ADD SLOAD EQ PUSH1 0x40 MLOAD DUP1 PUSH1 0x40 ADD PUSH1 0x40 MSTORE DUP1 PUSH1 0xF DUP2 MSTORE PUSH1 0x20 ADD PUSH32 0x555345525F49535F435245415445440000000000000000000000000000000000 DUP2 MSTORE POP SWAP1 PUSH2 0x799 JUMPI PUSH1 0x40 MLOAD PUSH32 0x8C379A000000000000000000000000000000000000000000000000000000000 DUP2 MSTORE PUSH1 0x4 ADD PUSH2 0x790 SWAP2 SWAP1 PUSH2 0x107D JUMP JUMPDEST PUSH1 0x40 MLOAD DUP1 SWAP2 SUB SWAP1 REVERT JUMPDEST POP PUSH1 0x40 MLOAD DUP1 PUSH1 0x60 ADD PUSH1 0x40 MSTORE DUP1 DUP6 DUP2 MSTORE PUSH1 0x20 ADD DUP5 DUP2 MSTORE PUSH1 0x20 ADD DUP4 PUSH1 0x2 DUP2 GT ISZERO PUSH2 0x7C4 JUMPI PUSH2 0x7C3 PUSH2 0xCEE JUMP JUMPDEST JUMPDEST DUP2 MSTORE POP PUSH1 0x1 PUSH0 CALLER PUSH20 0xFFFFFFFFFFFFFFFFFFFFFFFFFFFFFFFFFFFFFFFF AND PUSH20 0xFFFFFFFFFFFFFFFFFFFFFFFFFFFFFFFFFFFFFFFF AND DUP2 MSTORE PUSH1 0x20 ADD SWAP1 DUP2 MSTORE PUSH1 0x20 ADD PUSH0 KECCAK256 PUSH0 DUP3 ADD MLOAD DUP2 PUSH0 ADD SWAP1 DUP2 PUSH2 0x817 SWAP2 SWAP1 PUSH2 0x1297 JUMP JUMPDEST POP PUSH1 0x20 DUP3 ADD MLOAD DUP2 PUSH1 0x1 ADD SSTORE PUSH1 0x40 DUP3 ADD MLOAD DUP2 PUSH1 0x2 ADD PUSH0 PUSH2 0x100 EXP DUP2 SLOAD DUP2 PUSH1 0xFF MUL NOT AND SWAP1 DUP4 PUSH1 0x2 DUP2 GT ISZERO PUSH2 0x84C JUMPI PUSH2 0x84B PUSH2 0xCEE JUMP JUMPDEST JUMPDEST MUL OR SWAP1 SSTORE POP SWAP1 POP POP PUSH0 DUP1 SLOAD SWAP1 PUSH2 0x100 EXP SWAP1 DIV PUSH20 0xFFFFFFFFFFFFFFFFFFFFFFFFFFFFFFFFFFFFFFFF AND PUSH20 0xFFFFFFFFFFFFFFFFFFFFFFFFFFFFFFFFFFFFFFFF AND PUSH4 0x2E1CD6C2 CALLER PUSH1 0x40 MLOAD DUP3 PUSH4 0xFFFFFFFF AND PUSH1 0xE0 SHL DUP2 MSTORE PUSH1 0x4 ADD PUSH2 0x8AC SWAP2 SWAP1 PUSH2 0x1375 JUMP JUMPDEST PUSH0 PUSH1 0x40 MLOAD DUP1 DUP4 SUB DUP2 PUSH0 DUP8 DUP1 EXTCODESIZE ISZERO DUP1 ISZERO PUSH2 0x8C3 JUMPI PUSH0 DUP1 REVERT JUMPDEST POP GAS CALL ISZERO DUP1 ISZERO PUSH2 0x8D5 JUMPI RETURNDATASIZE PUSH0 DUP1 RETURNDATACOPY RETURNDATASIZE PUSH0 REVERT JUMPDEST POP POP POP POP POP POP POP POP JUMP JUMPDEST PUSH1 0x60 PUSH0 PUSH1 0x2 PUSH0 DUP5 PUSH20 0xFFFFFFFFFFFFFFFFFFFFFFFFFFFFFFFFFFFFFFFF AND PUSH20 0xFFFFFFFFFFFFFFFFFFFFFFFFFFFFFFFFFFFFFFFF AND DUP2 MSTORE PUSH1 0x20 ADD SWAP1 DUP2 MSTORE PUSH1 0x20 ADD PUSH0 KECCAK256 DUP1 SLOAD DUP1 PUSH1 0x20 MUL PUSH1 0x20 ADD PUSH1 0x40 MLOAD SWAP1 DUP2 ADD PUSH1 0x40 MSTORE DUP1 SWAP3 SWAP2 SWAP1 DUP2 DUP2 MSTORE PUSH1 0x20 ADD PUSH0 SWAP1 JUMPDEST DUP3 DUP3 LT ISZERO PUSH2 0x991 JUMPI DUP4 DUP3 SWAP1 PUSH0 MSTORE PUSH1 0x20 PUSH0 KECCAK256 SWAP1 PUSH1 0x2 MUL ADD PUSH1 0x40 MLOAD DUP1 PUSH1 0x40 ADD PUSH1 0x40 MSTORE SWAP1 DUP2 PUSH0 DUP3 ADD SLOAD DUP2 MSTORE PUSH1 0x20 ADD PUSH1 0x1 DUP3 ADD PUSH0 SWAP1 SLOAD SWAP1 PUSH2 0x100 EXP SWAP1 DIV PUSH1 0xFF AND ISZERO ISZERO ISZERO ISZERO DUP2 MSTORE POP POP DUP2 MSTORE PUSH1 0x20 ADD SWAP1 PUSH1 0x1 ADD SWAP1 PUSH2 0x93E JUMP JUMPDEST POP POP POP POP SWAP1 POP PUSH0 DUP2 MLOAD PUSH8 0xFFFFFFFFFFFFFFFF DUP2 GT ISZERO PUSH2 0x9B3 JUMPI PUSH2 0x9B2 PUSH2 0xDA5 JUMP JUMPDEST JUMPDEST PUSH1 0x40 MLOAD SWAP1 DUP1 DUP3 MSTORE DUP1 PUSH1 0x20 MUL PUSH1 0x20 ADD DUP3 ADD PUSH1 0x40 MSTORE DUP1 ISZERO PUSH2 0x9E1 JUMPI DUP2 PUSH1 0x20 ADD PUSH1 0x20 DUP3 MUL DUP1 CALLDATASIZE DUP4 CALLDATACOPY DUP1 DUP3 ADD SWAP2 POP POP SWAP1 POP JUMPDEST POP SWAP1 POP PUSH0 DUP1 JUMPDEST DUP4 MLOAD DUP2 LT ISZERO PUSH2 0xB5C JUMPI CALLER PUSH20 0xFFFFFFFFFFFFFFFFFFFFFFFFFFFFFFFFFFFFFFFF AND DUP7 PUSH20 0xFFFFFFFFFFFFFFFFFFFFFFFFFFFFFFFFFFFFFFFF AND EQ DUP1 ISZERO PUSH2 0xA47 JUMPI POP DUP4 DUP2 DUP2 MLOAD DUP2 LT PUSH2 0xA39 JUMPI PUSH2 0xA38 PUSH2 0x138E JUMP JUMPDEST JUMPDEST PUSH1 0x20 MUL PUSH1 0x20 ADD ADD MLOAD PUSH1 0x20 ADD MLOAD ISZERO JUMPDEST DUP1 PUSH2 0xADA JUMPI POP PUSH0 DUP1 SLOAD SWAP1 PUSH2 0x100 EXP SWAP1 DIV PUSH20 0xFFFFFFFFFFFFFFFFFFFFFFFFFFFFFFFFFFFFFFFF AND PUSH20 0xFFFFFFFFFFFFFFFFFFFFFFFFFFFFFFFFFFFFFFFF AND PUSH4 0x9805524A PUSH1 0x40 MLOAD DUP2 PUSH4 0xFFFFFFFF AND PUSH1 0xE0 SHL DUP2 MSTORE PUSH1 0x4 ADD PUSH1 0x20 PUSH1 0x40 MLOAD DUP1 DUP4 SUB DUP2 DUP7 GAS STATICCALL ISZERO DUP1 ISZERO PUSH2 0xAB5 JUMPI RETURNDATASIZE PUSH0 DUP1 RETURNDATACOPY RETURNDATASIZE PUSH0 REVERT JUMPDEST POP POP POP POP PUSH1 0x40 MLOAD RETURNDATASIZE PUSH1 0x1F NOT PUSH1 0x1F DUP3 ADD AND DUP3 ADD DUP1 PUSH1 0x40 MSTORE POP DUP2 ADD SWAP1 PUSH2 0xAD9 SWAP2 SWAP1 PUSH2 0x13F0 JUMP JUMPDEST JUMPDEST DUP1 PUSH2 0xB00 JUMPI POP DUP4 DUP2 DUP2 MLOAD DUP2 LT PUSH2 0xAF3 JUMPI PUSH2 0xAF2 PUSH2 0x138E JUMP JUMPDEST JUMPDEST PUSH1 0x20 MUL PUSH1 0x20 ADD ADD MLOAD PUSH1 0x20 ADD MLOAD JUMPDEST ISZERO PUSH2 0xB4F JUMPI DUP4 DUP2 DUP2 MLOAD DUP2 LT PUSH2 0xB18 JUMPI PUSH2 0xB17 PUSH2 0x138E JUMP JUMPDEST JUMPDEST PUSH1 0x20 MUL PUSH1 0x20 ADD ADD MLOAD PUSH0 ADD MLOAD DUP4 DUP4 DUP1 PUSH2 0xB2F SWAP1 PUSH2 0x1448 JUMP JUMPDEST SWAP5 POP DUP2 MLOAD DUP2 LT PUSH2 0xB42 JUMPI PUSH2 0xB41 PUSH2 0x138E JUMP JUMPDEST JUMPDEST PUSH1 0x20 MUL PUSH1 0x20 ADD ADD DUP2 DUP2 MSTORE POP POP JUMPDEST DUP1 DUP1 PUSH1 0x1 ADD SWAP2 POP POP PUSH2 0x9E7 JUMP JUMPDEST POP DUP2 SWAP4 POP POP POP POP SWAP2 SWAP1 POP JUMP JUMPDEST PUSH0 PUSH1 0x40 MLOAD SWAP1 POP SWAP1 JUMP JUMPDEST PUSH0 DUP1 REVERT JUMPDEST PUSH0 DUP1 REVERT JUMPDEST PUSH0 PUSH20 0xFFFFFFFFFFFFFFFFFFFFFFFFFFFFFFFFFFFFFFFF DUP3 AND SWAP1 POP SWAP2 SWAP1 POP JUMP JUMPDEST PUSH0 PUSH2 0xBA2 DUP3 PUSH2 0xB79 JUMP JUMPDEST SWAP1 POP SWAP2 SWAP1 POP JUMP JUMPDEST PUSH2 0xBB2 DUP2 PUSH2 0xB98 JUMP JUMPDEST DUP2 EQ PUSH2 0xBBC JUMPI PUSH0 DUP1 REVERT JUMPDEST POP JUMP JUMPDEST PUSH0 DUP2 CALLDATALOAD SWAP1 POP PUSH2 0xBCD DUP2 PUSH2 0xBA9 JUMP JUMPDEST SWAP3 SWAP2 POP POP JUMP JUMPDEST PUSH0 DUP2 SWAP1 POP SWAP2 SWAP1 POP JUMP JUMPDEST PUSH2 0xBE5 DUP2 PUSH2 0xBD3 JUMP JUMPDEST DUP2 EQ PUSH2 0xBEF JUMPI PUSH0 DUP1 REVERT JUMPDEST POP JUMP JUMPDEST PUSH0 DUP2 CALLDATALOAD SWAP1 POP PUSH2 0xC00 DUP2 PUSH2 0xBDC JUMP JUMPDEST SWAP3 SWAP2 POP POP JUMP JUMPDEST PUSH0 DUP1 PUSH1 0x40 DUP4 DUP6 SUB SLT ISZERO PUSH2 0xC1C JUMPI PUSH2 0xC1B PUSH2 0xB71 JUMP JUMPDEST JUMPDEST PUSH0 PUSH2 0xC29 DUP6 DUP3 DUP7 ADD PUSH2 0xBBF JUMP JUMPDEST SWAP3 POP POP PUSH1 0x20 PUSH2 0xC3A DUP6 DUP3 DUP7 ADD PUSH2 0xBF2 JUMP JUMPDEST SWAP2 POP POP SWAP3 POP SWAP3 SWAP1 POP JUMP JUMPDEST PUSH0 PUSH1 0x20 DUP3 DUP5 SUB SLT ISZERO PUSH2 0xC59 JUMPI PUSH2 0xC58 PUSH2 0xB71 JUMP JUMPDEST JUMPDEST PUSH0 PUSH2 0xC66 DUP5 DUP3 DUP6 ADD PUSH2 0xBBF JUMP JUMPDEST SWAP2 POP POP SWAP3 SWAP2 POP POP JUMP JUMPDEST PUSH0 DUP2 MLOAD SWAP1 POP SWAP2 SWAP1 POP JUMP JUMPDEST PUSH0 DUP3 DUP3 MSTORE PUSH1 0x20 DUP3 ADD SWAP1 POP SWAP3 SWAP2 POP POP JUMP JUMPDEST DUP3 DUP2 DUP4 MCOPY PUSH0 DUP4 DUP4 ADD MSTORE POP POP POP JUMP JUMPDEST PUSH0 PUSH1 0x1F NOT PUSH1 0x1F DUP4 ADD AND SWAP1 POP SWAP2 SWAP1 POP JUMP JUMPDEST PUSH0 PUSH2 0xCB1 DUP3 PUSH2 0xC6F JUMP JUMPDEST PUSH2 0xCBB DUP2 DUP6 PUSH2 0xC79 JUMP JUMPDEST SWAP4 POP PUSH2 0xCCB DUP2 DUP6 PUSH1 0x20 DUP7 ADD PUSH2 0xC89 JUMP JUMPDEST PUSH2 0xCD4 DUP2 PUSH2 0xC97 JUMP JUMPDEST DUP5 ADD SWAP2 POP POP SWAP3 SWAP2 POP POP JUMP JUMPDEST PUSH2 0xCE8 DUP2 PUSH2 0xBD3 JUMP JUMPDEST DUP3 MSTORE POP POP JUMP JUMPDEST PUSH32 0x4E487B7100000000000000000000000000000000000000000000000000000000 PUSH0 MSTORE PUSH1 0x21 PUSH1 0x4 MSTORE PUSH1 0x24 PUSH0 REVERT JUMPDEST PUSH1 0x3 DUP2 LT PUSH2 0xD2C JUMPI PUSH2 0xD2B PUSH2 0xCEE JUMP JUMPDEST JUMPDEST POP JUMP JUMPDEST PUSH0 DUP2 SWAP1 POP PUSH2 0xD3C DUP3 PUSH2 0xD1B JUMP JUMPDEST SWAP2 SWAP1 POP JUMP JUMPDEST PUSH0 PUSH2 0xD4B DUP3 PUSH2 0xD2F JUMP JUMPDEST SWAP1 POP SWAP2 SWAP1 POP JUMP JUMPDEST PUSH2 0xD5B DUP2 PUSH2 0xD41 JUMP JUMPDEST DUP3 MSTORE POP POP JUMP JUMPDEST PUSH0 PUSH1 0x60 DUP3 ADD SWAP1 POP DUP2 DUP2 SUB PUSH0 DUP4 ADD MSTORE PUSH2 0xD79 DUP2 DUP7 PUSH2 0xCA7 JUMP JUMPDEST SWAP1 POP PUSH2 0xD88 PUSH1 0x20 DUP4 ADD DUP6 PUSH2 0xCDF JUMP JUMPDEST PUSH2 0xD95 PUSH1 0x40 DUP4 ADD DUP5 PUSH2 0xD52 JUMP JUMPDEST SWAP5 SWAP4 POP POP POP POP JUMP JUMPDEST PUSH0 DUP1 REVERT JUMPDEST PUSH0 DUP1 REVERT JUMPDEST PUSH32 0x4E487B7100000000000000000000000000000000000000000000000000000000 PUSH0 MSTORE PUSH1 0x41 PUSH1 0x4 MSTORE PUSH1 0x24 PUSH0 REVERT JUMPDEST PUSH2 0xDDB DUP3 PUSH2 0xC97 JUMP JUMPDEST DUP2 ADD DUP2 DUP2 LT PUSH8 0xFFFFFFFFFFFFFFFF DUP3 GT OR ISZERO PUSH2 0xDFA JUMPI PUSH2 0xDF9 PUSH2 0xDA5 JUMP JUMPDEST JUMPDEST DUP1 PUSH1 0x40 MSTORE POP POP POP JUMP JUMPDEST PUSH0 PUSH2 0xE0C PUSH2 0xB68 JUMP JUMPDEST SWAP1 POP PUSH2 0xE18 DUP3 DUP3 PUSH2 0xDD2 JUMP JUMPDEST SWAP2 SWAP1 POP JUMP JUMPDEST PUSH0 PUSH8 0xFFFFFFFFFFFFFFFF DUP3 GT ISZERO PUSH2 0xE37 JUMPI PUSH2 0xE36 PUSH2 0xDA5 JUMP JUMPDEST JUMPDEST PUSH2 0xE40 DUP3 PUSH2 0xC97 JUMP JUMPDEST SWAP1 POP PUSH1 0x20 DUP2 ADD SWAP1 POP SWAP2 SWAP1 POP JUMP JUMPDEST DUP3 DUP2 DUP4 CALLDATACOPY PUSH0 DUP4 DUP4 ADD MSTORE POP POP POP JUMP JUMPDEST PUSH0 PUSH2 0xE6D PUSH2 0xE68 DUP5 PUSH2 0xE1D JUMP JUMPDEST PUSH2 0xE03 JUMP JUMPDEST SWAP1 POP DUP3 DUP2 MSTORE PUSH1 0x20 DUP2 ADD DUP5 DUP5 DUP5 ADD GT ISZERO PUSH2 0xE89 JUMPI PUSH2 0xE88 PUSH2 0xDA1 JUMP JUMPDEST JUMPDEST PUSH2 0xE94 DUP5 DUP3 DUP6 PUSH2 0xE4D JUMP JUMPDEST POP SWAP4 SWAP3 POP POP POP JUMP JUMPDEST PUSH0 DUP3 PUSH1 0x1F DUP4 ADD SLT PUSH2 0xEB0 JUMPI PUSH2 0xEAF PUSH2 0xD9D JUMP JUMPDEST JUMPDEST DUP2 CALLDATALOAD PUSH2 0xEC0 DUP5 DUP3 PUSH1 0x20 DUP7 ADD PUSH2 0xE5B JUMP JUMPDEST SWAP2 POP POP SWAP3 SWAP2 POP POP JUMP JUMPDEST PUSH1 0x3 DUP2 LT PUSH2 0xED5 JUMPI PUSH0 DUP1 REVERT JUMPDEST POP JUMP JUMPDEST PUSH0 DUP2 CALLDATALOAD SWAP1 POP PUSH2 0xEE6 DUP2 PUSH2 0xEC9 JUMP JUMPDEST SWAP3 SWAP2 POP POP JUMP JUMPDEST PUSH0 DUP1 PUSH0 PUSH1 0x60 DUP5 DUP7 SUB SLT ISZERO PUSH2 0xF03 JUMPI PUSH2 0xF02 PUSH2 0xB71 JUMP JUMPDEST JUMPDEST PUSH0 DUP5 ADD CALLDATALOAD PUSH8 0xFFFFFFFFFFFFFFFF DUP2 GT ISZERO PUSH2 0xF20 JUMPI PUSH2 0xF1F PUSH2 0xB75 JUMP JUMPDEST JUMPDEST PUSH2 0xF2C DUP7 DUP3 DUP8 ADD PUSH2 0xE9C JUMP JUMPDEST SWAP4 POP POP PUSH1 0x20 PUSH2 0xF3D DUP7 DUP3 DUP8 ADD PUSH2 0xBF2 JUMP JUMPDEST SWAP3 POP POP PUSH1 0x40 PUSH2 0xF4E DUP7 DUP3 DUP8 ADD PUSH2 0xED8 JUMP JUMPDEST SWAP2 POP POP SWAP3 POP SWAP3 POP SWAP3 JUMP JUMPDEST PUSH0 DUP2 MLOAD SWAP1 POP SWAP2 SWAP1 POP JUMP JUMPDEST PUSH0 DUP3 DUP3 MSTORE PUSH1 0x20 DUP3 ADD SWAP1 POP SWAP3 SWAP2 POP POP JUMP JUMPDEST PUSH0 DUP2 SWAP1 POP PUSH1 0x20 DUP3 ADD SWAP1 POP SWAP2 SWAP1 POP JUMP JUMPDEST PUSH2 0xF8A DUP2 PUSH2 0xBD3 JUMP JUMPDEST DUP3 MSTORE POP POP JUMP JUMPDEST PUSH0 PUSH2 0xF9B DUP4 DUP4 PUSH2 0xF81 JUMP JUMPDEST PUSH1 0x20 DUP4 ADD SWAP1 POP SWAP3 SWAP2 POP POP JUMP JUMPDEST PUSH0 PUSH1 0x20 DUP3 ADD SWAP1 POP SWAP2 SWAP1 POP JUMP JUMPDEST PUSH0 PUSH2 0xFBD DUP3 PUSH2 0xF58 JUMP JUMPDEST PUSH2 0xFC7 DUP2 DUP6 PUSH2 0xF62 JUMP JUMPDEST SWAP4 POP PUSH2 0xFD2 DUP4 PUSH2 0xF72 JUMP JUMPDEST DUP1 PUSH0 JUMPDEST DUP4 DUP2 LT ISZERO PUSH2 0x1002 JUMPI DUP2 MLOAD PUSH2 0xFE9 DUP9 DUP3 PUSH2 0xF90 JUMP JUMPDEST SWAP8 POP PUSH2 0xFF4 DUP4 PUSH2 0xFA7 JUMP JUMPDEST SWAP3 POP POP PUSH1 0x1 DUP2 ADD SWAP1 POP PUSH2 0xFD5 JUMP JUMPDEST POP DUP6 SWAP4 POP POP POP POP SWAP3 SWAP2 POP POP JUMP JUMPDEST PUSH0 PUSH1 0x20 DUP3 ADD SWAP1 POP DUP2 DUP2 SUB PUSH0 DUP4 ADD MSTORE PUSH2 0x1027 DUP2 DUP5 PUSH2 0xFB3 JUMP JUMPDEST SWAP1 POP SWAP3 SWAP2 POP POP JUMP JUMPDEST PUSH1 0x3 DUP2 LT PUSH2 0x103B JUMPI PUSH0 DUP1 REVERT JUMPDEST POP JUMP JUMPDEST PUSH0 DUP2 MLOAD SWAP1 POP PUSH2 0x104C DUP2 PUSH2 0x102F JUMP JUMPDEST SWAP3 SWAP2 POP POP JUMP JUMPDEST PUSH0 PUSH1 0x20 DUP3 DUP5 SUB SLT ISZERO PUSH2 0x1067 JUMPI PUSH2 0x1066 PUSH2 0xB71 JUMP JUMPDEST JUMPDEST PUSH0 PUSH2 0x1074 DUP5 DUP3 DUP6 ADD PUSH2 0x103E JUMP JUMPDEST SWAP2 POP POP SWAP3 SWAP2 POP POP JUMP JUMPDEST PUSH0 PUSH1 0x20 DUP3 ADD SWAP1 POP DUP2 DUP2 SUB PUSH0 DUP4 ADD MSTORE PUSH2 0x1095 DUP2 DUP5 PUSH2 0xCA7 JUMP JUMPDEST SWAP1 POP SWAP3 SWAP2 POP POP JUMP JUMPDEST PUSH32 0x4E487B7100000000000000000000000000000000000000000000000000000000 PUSH0 MSTORE PUSH1 0x22 PUSH1 0x4 MSTORE PUSH1 0x24 PUSH0 REVERT JUMPDEST PUSH0 PUSH1 0x2 DUP3 DIV SWAP1 POP PUSH1 0x1 DUP3 AND DUP1 PUSH2 0x10E1 JUMPI PUSH1 0x7F DUP3 AND SWAP2 POP JUMPDEST PUSH1 0x20 DUP3 LT DUP2 SUB PUSH2 0x10F4 JUMPI PUSH2 0x10F3 PUSH2 0x109D JUMP JUMPDEST JUMPDEST POP SWAP2 SWAP1 POP JUMP JUMPDEST PUSH0 DUP2 SWAP1 POP DUP2 PUSH0 MSTORE PUSH1 0x20 PUSH0 KECCAK256 SWAP1 POP SWAP2 SWAP1 POP JUMP JUMPDEST PUSH0 PUSH1 0x20 PUSH1 0x1F DUP4 ADD DIV SWAP1 POP SWAP2 SWAP1 POP JUMP JUMPDEST PUSH0 DUP3 DUP3 SHL SWAP1 POP SWAP3 SWAP2 POP POP JUMP JUMPDEST PUSH0 PUSH1 0x8 DUP4 MUL PUSH2 0x1156 PUSH32 0xFFFFFFFFFFFFFFFFFFFFFFFFFFFFFFFFFFFFFFFFFFFFFFFFFFFFFFFFFFFFFFFF DUP3 PUSH2 0x111B JUMP JUMPDEST PUSH2 0x1160 DUP7 DUP4 PUSH2 0x111B JUMP JUMPDEST SWAP6 POP DUP1 NOT DUP5 AND SWAP4 POP DUP1 DUP7 AND DUP5 OR SWAP3 POP POP POP SWAP4 SWAP3 POP POP POP JUMP JUMPDEST PUSH0 DUP2 SWAP1 POP SWAP2 SWAP1 POP JUMP JUMPDEST PUSH0 PUSH2 0x119B PUSH2 0x1196 PUSH2 0x1191 DUP5 PUSH2 0xBD3 JUMP JUMPDEST PUSH2 0x1178 JUMP JUMPDEST PUSH2 0xBD3 JUMP JUMPDEST SWAP1 POP SWAP2 SWAP1 POP JUMP JUMPDEST PUSH0 DUP2 SWAP1 POP SWAP2 SWAP1 POP JUMP JUMPDEST PUSH2 0x11B4 DUP4 PUSH2 0x1181 JUMP JUMPDEST PUSH2 0x11C8 PUSH2 0x11C0 DUP3 PUSH2 0x11A2 JUMP JUMPDEST DUP5 DUP5 SLOAD PUSH2 0x1127 JUMP JUMPDEST DUP3 SSTORE POP POP POP POP JUMP JUMPDEST PUSH0 SWAP1 JUMP JUMPDEST PUSH2 0x11DC PUSH2 0x11D0 JUMP JUMPDEST PUSH2 0x11E7 DUP2 DUP5 DUP5 PUSH2 0x11AB JUMP JUMPDEST POP POP POP JUMP JUMPDEST JUMPDEST DUP2 DUP2 LT ISZERO PUSH2 0x120A JUMPI PUSH2 0x11FF PUSH0 DUP3 PUSH2 0x11D4 JUMP JUMPDEST PUSH1 0x1 DUP2 ADD SWAP1 POP PUSH2 0x11ED JUMP JUMPDEST POP POP JUMP JUMPDEST PUSH1 0x1F DUP3 GT ISZERO PUSH2 0x124F JUMPI PUSH2 0x1220 DUP2 PUSH2 0x10FA JUMP JUMPDEST PUSH2 0x1229 DUP5 PUSH2 0x110C JUMP JUMPDEST DUP2 ADD PUSH1 0x20 DUP6 LT ISZERO PUSH2 0x1238 JUMPI DUP2 SWAP1 POP JUMPDEST PUSH2 0x124C PUSH2 0x1244 DUP6 PUSH2 0x110C JUMP JUMPDEST DUP4 ADD DUP3 PUSH2 0x11EC JUMP JUMPDEST POP POP JUMPDEST POP POP POP JUMP JUMPDEST PUSH0 DUP3 DUP3 SHR SWAP1 POP SWAP3 SWAP2 POP POP JUMP JUMPDEST PUSH0 PUSH2 0x126F PUSH0 NOT DUP5 PUSH1 0x8 MUL PUSH2 0x1254 JUMP JUMPDEST NOT DUP1 DUP4 AND SWAP2 POP POP SWAP3 SWAP2 POP POP JUMP JUMPDEST PUSH0 PUSH2 0x1287 DUP4 DUP4 PUSH2 0x1260 JUMP JUMPDEST SWAP2 POP DUP3 PUSH1 0x2 MUL DUP3 OR SWAP1 POP SWAP3 SWAP2 POP POP JUMP JUMPDEST PUSH2 0x12A0 DUP3 PUSH2 0xC6F JUMP JUMPDEST PUSH8 0xFFFFFFFFFFFFFFFF DUP2 GT ISZERO PUSH2 0x12B9 JUMPI PUSH2 0x12B8 PUSH2 0xDA5 JUMP JUMPDEST JUMPDEST PUSH2 0x12C3 DUP3 SLOAD PUSH2 0x10CA JUMP JUMPDEST PUSH2 0x12CE DUP3 DUP3 DUP6 PUSH2 0x120E JUMP JUMPDEST PUSH0 PUSH1 0x20 SWAP1 POP PUSH1 0x1F DUP4 GT PUSH1 0x1 DUP2 EQ PUSH2 0x12FF JUMPI PUSH0 DUP5 ISZERO PUSH2 0x12ED JUMPI DUP3 DUP8 ADD MLOAD SWAP1 POP JUMPDEST PUSH2 0x12F7 DUP6 DUP3 PUSH2 0x127C JUMP JUMPDEST DUP7 SSTORE POP PUSH2 0x135E JUMP JUMPDEST PUSH1 0x1F NOT DUP5 AND PUSH2 0x130D DUP7 PUSH2 0x10FA JUMP JUMPDEST PUSH0 JUMPDEST DUP3 DUP2 LT ISZERO PUSH2 0x1334 JUMPI DUP5 DUP10 ADD MLOAD DUP3 SSTORE PUSH1 0x1 DUP3 ADD SWAP2 POP PUSH1 0x20 DUP6 ADD SWAP5 POP PUSH1 0x20 DUP2 ADD SWAP1 POP PUSH2 0x130F JUMP JUMPDEST DUP7 DUP4 LT ISZERO PUSH2 0x1351 JUMPI DUP5 DUP10 ADD MLOAD PUSH2 0x134D PUSH1 0x1F DUP10 AND DUP3 PUSH2 0x1260 JUMP JUMPDEST DUP4 SSTORE POP JUMPDEST PUSH1 0x1 PUSH1 0x2 DUP9 MUL ADD DUP9 SSTORE POP POP POP JUMPDEST POP POP POP POP POP POP JUMP JUMPDEST PUSH2 0x136F DUP2 PUSH2 0xB98 JUMP JUMPDEST DUP3 MSTORE POP POP JUMP JUMPDEST PUSH0 PUSH1 0x20 DUP3 ADD SWAP1 POP PUSH2 0x1388 PUSH0 DUP4 ADD DUP5 PUSH2 0x1366 JUMP JUMPDEST SWAP3 SWAP2 POP POP JUMP JUMPDEST PUSH32 0x4E487B7100000000000000000000000000000000000000000000000000000000 PUSH0 MSTORE PUSH1 0x32 PUSH1 0x4 MSTORE PUSH1 0x24 PUSH0 REVERT JUMPDEST PUSH0 DUP2 ISZERO ISZERO SWAP1 POP SWAP2 SWAP1 POP JUMP JUMPDEST PUSH2 0x13CF DUP2 PUSH2 0x13BB JUMP JUMPDEST DUP2 EQ PUSH2 0x13D9 JUMPI PUSH0 DUP1 REVERT JUMPDEST POP JUMP JUMPDEST PUSH0 DUP2 MLOAD SWAP1 POP PUSH2 0x13EA DUP2 PUSH2 0x13C6 JUMP JUMPDEST SWAP3 SWAP2 POP POP JUMP JUMPDEST PUSH0 PUSH1 0x20 DUP3 DUP5 SUB SLT ISZERO PUSH2 0x1405 JUMPI PUSH2 0x1404 PUSH2 0xB71 JUMP JUMPDEST JUMPDEST PUSH0 PUSH2 0x1412 DUP5 DUP3 DUP6 ADD PUSH2 0x13DC JUMP JUMPDEST SWAP2 POP POP SWAP3 SWAP2 POP POP JUMP JUMPDEST PUSH32 0x4E487B7100000000000000000000000000000000000000000000000000000000 PUSH0 MSTORE PUSH1 0x11 PUSH1 0x4 MSTORE PUSH1 0x24 PUSH0 REVERT JUMPDEST PUSH0 PUSH2 0x1452 DUP3 PUSH2 0xBD3 JUMP JUMPDEST SWAP2 POP PUSH32 0xFFFFFFFFFFFFFFFFFFFFFFFFFFFFFFFFFFFFFFFFFFFFFFFFFFFFFFFFFFFFFFFF DUP3 SUB PUSH2 0x1484 JUMPI PUSH2 0x1483 PUSH2 0x141B JUMP JUMPDEST JUMPDEST PUSH1 0x1 DUP3 ADD SWAP1 POP SWAP2 SWAP1 POP JUMP INVALID LOG2 PUSH5 0x6970667358 0x22 SLT KECCAK256 NUMBER 0xE7 EXTCODEHASH 0xEA 0xED PUSH8 0x86D7ACA2AF74A3F6 PUSH10 0x7C13445CF177331571D3 0xFC 0xF6 SHL 0xC0 0xBB 0xE6 0xB9 PUSH5 0x736F6C6343 STOP ADDMOD BYTE STOP CALLER "
				},
				"gasEstimates": {
					"creation": {
						"codeDepositCost": "1063400",
						"executionCost": "infinite",
						"totalCost": "infinite"
					},
					"external": {
						"addNftToUser(address,uint256)": "infinite",
						"createUser(string,uint256,uint8)": "infinite",
						"getCurrentUserData()": "infinite",
						"getOtherUserData(address)": "infinite",
						"listAllNftsOfUser(address)": "infinite"
					}
				},
				"methodIdentifiers": {
					"addNftToUser(address,uint256)": "00704c6c",
					"createUser(string,uint256,uint8)": "80b6e64a",
					"getCurrentUserData()": "541709da",
					"getOtherUserData(address)": "091c4553",
					"listAllNftsOfUser(address)": "d9781122"
				}
			},
			"storageLayout": {
				"storage": [
					{
						"astId": 138,
						"contract": "contracts/UserManager.sol:UserManagerContract",
						"label": "roleManager",
						"offset": 0,
						"slot": "0",
						"type": "t_contract(RoleManagerContract)131"
					},
					{
						"astId": 160,
						"contract": "contracts/UserManager.sol:UserManagerContract",
						"label": "users",
						"offset": 0,
						"slot": "1",
						"type": "t_mapping(t_address,t_struct(User)150_storage)"
					},
					{
						"astId": 166,
						"contract": "contracts/UserManager.sol:UserManagerContract",
						"label": "listOfUsersToken",
						"offset": 0,
						"slot": "2",
						"type": "t_mapping(t_address,t_array(t_struct(UserToken)155_storage)dyn_storage)"
					}
				],
				"types": {
					"t_address": {
						"encoding": "inplace",
						"label": "address",
						"numberOfBytes": "20"
					},
					"t_array(t_struct(UserToken)155_storage)dyn_storage": {
						"base": "t_struct(UserToken)155_storage",
						"encoding": "dynamic_array",
						"label": "struct UserManagerContract.UserToken[]",
						"numberOfBytes": "32"
					},
					"t_bool": {
						"encoding": "inplace",
						"label": "bool",
						"numberOfBytes": "1"
					},
					"t_contract(RoleManagerContract)131": {
						"encoding": "inplace",
						"label": "contract RoleManagerContract",
						"numberOfBytes": "20"
					},
					"t_enum(Gender)142": {
						"encoding": "inplace",
						"label": "enum UserManagerContract.Gender",
						"numberOfBytes": "1"
					},
					"t_mapping(t_address,t_array(t_struct(UserToken)155_storage)dyn_storage)": {
						"encoding": "mapping",
						"key": "t_address",
						"label": "mapping(address => struct UserManagerContract.UserToken[])",
						"numberOfBytes": "32",
						"value": "t_array(t_struct(UserToken)155_storage)dyn_storage"
					},
					"t_mapping(t_address,t_struct(User)150_storage)": {
						"encoding": "mapping",
						"key": "t_address",
						"label": "mapping(address => struct UserManagerContract.User)",
						"numberOfBytes": "32",
						"value": "t_struct(User)150_storage"
					},
					"t_string_storage": {
						"encoding": "bytes",
						"label": "string",
						"numberOfBytes": "32"
					},
					"t_struct(User)150_storage": {
						"encoding": "inplace",
						"label": "struct UserManagerContract.User",
						"members": [
							{
								"astId": 144,
								"contract": "contracts/UserManager.sol:UserManagerContract",
								"label": "fullName",
								"offset": 0,
								"slot": "0",
								"type": "t_string_storage"
							},
							{
								"astId": 146,
								"contract": "contracts/UserManager.sol:UserManagerContract",
								"label": "dateOfBirth",
								"offset": 0,
								"slot": "1",
								"type": "t_uint256"
							},
							{
								"astId": 149,
								"contract": "contracts/UserManager.sol:UserManagerContract",
								"label": "gender",
								"offset": 0,
								"slot": "2",
								"type": "t_enum(Gender)142"
							}
						],
						"numberOfBytes": "96"
					},
					"t_struct(UserToken)155_storage": {
						"encoding": "inplace",
						"label": "struct UserManagerContract.UserToken",
						"members": [
							{
								"astId": 152,
								"contract": "contracts/UserManager.sol:UserManagerContract",
								"label": "tokenId",
								"offset": 0,
								"slot": "0",
								"type": "t_uint256"
							},
							{
								"astId": 154,
								"contract": "contracts/UserManager.sol:UserManagerContract",
								"label": "isPublic",
								"offset": 0,
								"slot": "1",
								"type": "t_bool"
							}
						],
						"numberOfBytes": "64"
					},
					"t_uint256": {
						"encoding": "inplace",
						"label": "uint256",
						"numberOfBytes": "32"
					}
				}
			},
			"userdoc": {
				"kind": "user",
				"methods": {},
				"version": 1
			}
		}
	}
}