{
	"contracts/RoleManager.sol": {
		"RoleManagerContract": {
			"abi": [
				{
					"inputs": [],
					"stateMutability": "nonpayable",
					"type": "constructor"
				},
				{
					"inputs": [],
					"name": "getRole",
					"outputs": [
						{
							"internalType": "enum RoleManagerContract.RoleType",
							"name": "",
							"type": "uint8"
						}
					],
					"stateMutability": "view",
					"type": "function"
				},
				{
					"inputs": [
						{
							"internalType": "address",
							"name": "userAddr",
							"type": "address"
						}
					],
					"name": "setAdminRole",
					"outputs": [],
					"stateMutability": "nonpayable",
					"type": "function"
				},
				{
					"inputs": [
						{
							"internalType": "address",
							"name": "userAddr",
							"type": "address"
						}
					],
					"name": "setOrganizationRole",
					"outputs": [],
					"stateMutability": "nonpayable",
					"type": "function"
				},
				{
					"inputs": [
						{
							"internalType": "address",
							"name": "userAddr",
							"type": "address"
						}
					],
					"name": "setStudentRole",
					"outputs": [],
					"stateMutability": "nonpayable",
					"type": "function"
				}
			],
			"devdoc": {
				"kind": "dev",
				"methods": {},
				"version": 1
			},
			"evm": {
				"assembly": "    /* \"contracts/RoleManager.sol\":100:973  contract RoleManagerContract {... */\n  mstore(0x40, 0x80)\n    /* \"contracts/RoleManager.sol\":243:314  constructor() {... */\n  callvalue\n  dup1\n  iszero\n  tag_1\n  jumpi\n  revert(0x00, 0x00)\ntag_1:\n  pop\n    /* \"contracts/RoleManager.sol\":292:306  RoleType.ADMIN */\n  0x00\n    /* \"contracts/RoleManager.sol\":268:277  userRoles */\n  0x00\n    /* \"contracts/RoleManager.sol\":268:289  userRoles[msg.sender] */\n  0x00\n    /* \"contracts/RoleManager.sol\":278:288  msg.sender */\n  caller\n    /* \"contracts/RoleManager.sol\":268:289  userRoles[msg.sender] */\n  0xffffffffffffffffffffffffffffffffffffffff\n  and\n  0xffffffffffffffffffffffffffffffffffffffff\n  and\n  dup2\n  mstore\n  0x20\n  add\n  swap1\n  dup2\n  mstore\n  0x20\n  add\n  0x00\n  keccak256\n  0x00\n    /* \"contracts/RoleManager.sol\":268:306  userRoles[msg.sender] = RoleType.ADMIN */\n  0x0100\n  exp\n  dup2\n  sload\n  dup2\n  0xff\n  mul\n  not\n  and\n  swap1\n  dup4\n  0x02\n  dup2\n  gt\n  iszero\n  tag_4\n  jumpi\n  tag_5\n  tag_6\n  jump\t// in\ntag_5:\ntag_4:\n  mul\n  or\n  swap1\n  sstore\n  pop\n    /* \"contracts/RoleManager.sol\":100:973  contract RoleManagerContract {... */\n  jump(tag_7)\n    /* \"#utility.yul\":7:187   */\ntag_6:\n    /* \"#utility.yul\":55:132   */\n  0x4e487b7100000000000000000000000000000000000000000000000000000000\n    /* \"#utility.yul\":52:53   */\n  0x00\n    /* \"#utility.yul\":45:133   */\n  mstore\n    /* \"#utility.yul\":152:156   */\n  0x21\n    /* \"#utility.yul\":149:150   */\n  0x04\n    /* \"#utility.yul\":142:157   */\n  mstore\n    /* \"#utility.yul\":176:180   */\n  0x24\n    /* \"#utility.yul\":173:174   */\n  0x00\n    /* \"#utility.yul\":166:181   */\n  revert\n    /* \"contracts/RoleManager.sol\":100:973  contract RoleManagerContract {... */\ntag_7:\n  dataSize(sub_0)\n  dup1\n  dataOffset(sub_0)\n  0x00\n  codecopy\n  0x00\n  return\nstop\n\nsub_0: assembly {\n        /* \"contracts/RoleManager.sol\":100:973  contract RoleManagerContract {... */\n      mstore(0x40, 0x80)\n      callvalue\n      dup1\n      iszero\n      tag_1\n      jumpi\n      revert(0x00, 0x00)\n    tag_1:\n      pop\n      jumpi(tag_2, lt(calldatasize, 0x04))\n      shr(0xe0, calldataload(0x00))\n      dup1\n      0x2e1cd6c2\n      eq\n      tag_3\n      jumpi\n      dup1\n      0x4adc7cfd\n      eq\n      tag_4\n      jumpi\n      dup1\n      0xf10a45d4\n      eq\n      tag_5\n      jumpi\n      dup1\n      0xfde08174\n      eq\n      tag_6\n      jumpi\n    tag_2:\n      revert(0x00, 0x00)\n        /* \"contracts/RoleManager.sol\":735:866  function setStudentRole(address userAddr) public onlyRole(RoleType.ADMIN) {... */\n    tag_3:\n      tag_7\n      0x04\n      dup1\n      calldatasize\n      sub\n      dup2\n      add\n      swap1\n      tag_8\n      swap2\n      swap1\n      tag_9\n      jump\t// in\n    tag_8:\n      tag_10\n      jump\t// in\n    tag_7:\n      stop\n        /* \"contracts/RoleManager.sol\":451:578  function setAdminRole(address userAddr) public onlyRole(RoleType.ADMIN) {... */\n    tag_4:\n      tag_11\n      0x04\n      dup1\n      calldatasize\n      sub\n      dup2\n      add\n      swap1\n      tag_12\n      swap2\n      swap1\n      tag_9\n      jump\t// in\n    tag_12:\n      tag_13\n      jump\t// in\n    tag_11:\n      stop\n        /* \"contracts/RoleManager.sol\":586:727  function setOrganizationRole(address userAddr) public onlyRole(RoleType.ADMIN) {... */\n    tag_5:\n      tag_14\n      0x04\n      dup1\n      calldatasize\n      sub\n      dup2\n      add\n      swap1\n      tag_15\n      swap2\n      swap1\n      tag_9\n      jump\t// in\n    tag_15:\n      tag_16\n      jump\t// in\n    tag_14:\n      stop\n        /* \"contracts/RoleManager.sol\":874:970  function getRole() public view returns(RoleType) {... */\n    tag_6:\n      tag_17\n      tag_18\n      jump\t// in\n    tag_17:\n      mload(0x40)\n      tag_19\n      swap2\n      swap1\n      tag_20\n      jump\t// in\n    tag_19:\n      mload(0x40)\n      dup1\n      swap2\n      sub\n      swap1\n      return\n        /* \"contracts/RoleManager.sol\":735:866  function setStudentRole(address userAddr) public onlyRole(RoleType.ADMIN) {... */\n    tag_10:\n        /* \"contracts/RoleManager.sol\":793:807  RoleType.ADMIN */\n      0x00\n        /* \"contracts/RoleManager.sol\":387:391  role */\n      dup1\n        /* \"contracts/RoleManager.sol\":374:391  getRole() == role */\n      0x02\n      dup2\n      gt\n      iszero\n      tag_22\n      jumpi\n      tag_23\n      tag_24\n      jump\t// in\n    tag_23:\n    tag_22:\n        /* \"contracts/RoleManager.sol\":374:383  getRole() */\n      tag_25\n        /* \"contracts/RoleManager.sol\":374:381  getRole */\n      tag_18\n        /* \"contracts/RoleManager.sol\":374:383  getRole() */\n      jump\t// in\n    tag_25:\n        /* \"contracts/RoleManager.sol\":374:391  getRole() == role */\n      0x02\n      dup2\n      gt\n      iszero\n      tag_26\n      jumpi\n      tag_27\n      tag_24\n      jump\t// in\n    tag_27:\n    tag_26:\n      eq\n        /* \"contracts/RoleManager.sol\":393:422  ErrorCodes.ERROR_UNAUTHORIZED */\n      mload(0x40)\n      dup1\n      0x40\n      add\n      0x40\n      mstore\n      dup1\n      0x0c\n      dup2\n      mstore\n      0x20\n      add\n      0x554e415554484f52495a45440000000000000000000000000000000000000000\n      dup2\n      mstore\n      pop\n        /* \"contracts/RoleManager.sol\":366:423  require(getRole() == role, ErrorCodes.ERROR_UNAUTHORIZED) */\n      swap1\n      tag_28\n      jumpi\n      mload(0x40)\n      0x08c379a000000000000000000000000000000000000000000000000000000000\n      dup2\n      mstore\n      0x04\n      add\n      tag_29\n      swap2\n      swap1\n      tag_30\n      jump\t// in\n    tag_29:\n      mload(0x40)\n      dup1\n      swap2\n      sub\n      swap1\n      revert\n    tag_28:\n      pop\n        /* \"contracts/RoleManager.sol\":842:858  RoleType.STUDENT */\n      0x02\n        /* \"contracts/RoleManager.sol\":820:829  userRoles */\n      0x00\n        /* \"contracts/RoleManager.sol\":820:839  userRoles[userAddr] */\n      0x00\n        /* \"contracts/RoleManager.sol\":830:838  userAddr */\n      dup5\n        /* \"contracts/RoleManager.sol\":820:839  userRoles[userAddr] */\n      0xffffffffffffffffffffffffffffffffffffffff\n      and\n      0xffffffffffffffffffffffffffffffffffffffff\n      and\n      dup2\n      mstore\n      0x20\n      add\n      swap1\n      dup2\n      mstore\n      0x20\n      add\n      0x00\n      keccak256\n      0x00\n        /* \"contracts/RoleManager.sol\":820:858  userRoles[userAddr] = RoleType.STUDENT */\n      0x0100\n      exp\n      dup2\n      sload\n      dup2\n      0xff\n      mul\n      not\n      and\n      swap1\n      dup4\n      0x02\n      dup2\n      gt\n      iszero\n      tag_32\n      jumpi\n      tag_33\n      tag_24\n      jump\t// in\n    tag_33:\n    tag_32:\n      mul\n      or\n      swap1\n      sstore\n      pop\n        /* \"contracts/RoleManager.sol\":735:866  function setStudentRole(address userAddr) public onlyRole(RoleType.ADMIN) {... */\n      pop\n      pop\n      jump\t// out\n        /* \"contracts/RoleManager.sol\":451:578  function setAdminRole(address userAddr) public onlyRole(RoleType.ADMIN) {... */\n    tag_13:\n        /* \"contracts/RoleManager.sol\":507:521  RoleType.ADMIN */\n      0x00\n        /* \"contracts/RoleManager.sol\":387:391  role */\n      dup1\n        /* \"contracts/RoleManager.sol\":374:391  getRole() == role */\n      0x02\n      dup2\n      gt\n      iszero\n      tag_35\n      jumpi\n      tag_36\n      tag_24\n      jump\t// in\n    tag_36:\n    tag_35:\n        /* \"contracts/RoleManager.sol\":374:383  getRole() */\n      tag_37\n        /* \"contracts/RoleManager.sol\":374:381  getRole */\n      tag_18\n        /* \"contracts/RoleManager.sol\":374:383  getRole() */\n      jump\t// in\n    tag_37:\n        /* \"contracts/RoleManager.sol\":374:391  getRole() == role */\n      0x02\n      dup2\n      gt\n      iszero\n      tag_38\n      jumpi\n      tag_39\n      tag_24\n      jump\t// in\n    tag_39:\n    tag_38:\n      eq\n        /* \"contracts/RoleManager.sol\":393:422  ErrorCodes.ERROR_UNAUTHORIZED */\n      mload(0x40)\n      dup1\n      0x40\n      add\n      0x40\n      mstore\n      dup1\n      0x0c\n      dup2\n      mstore\n      0x20\n      add\n      0x554e415554484f52495a45440000000000000000000000000000000000000000\n      dup2\n      mstore\n      pop\n        /* \"contracts/RoleManager.sol\":366:423  require(getRole() == role, ErrorCodes.ERROR_UNAUTHORIZED) */\n      swap1\n      tag_40\n      jumpi\n      mload(0x40)\n      0x08c379a000000000000000000000000000000000000000000000000000000000\n      dup2\n      mstore\n      0x04\n      add\n      tag_41\n      swap2\n      swap1\n      tag_30\n      jump\t// in\n    tag_41:\n      mload(0x40)\n      dup1\n      swap2\n      sub\n      swap1\n      revert\n    tag_40:\n      pop\n        /* \"contracts/RoleManager.sol\":556:570  RoleType.ADMIN */\n      0x00\n        /* \"contracts/RoleManager.sol\":534:543  userRoles */\n      0x00\n        /* \"contracts/RoleManager.sol\":534:553  userRoles[userAddr] */\n      0x00\n        /* \"contracts/RoleManager.sol\":544:552  userAddr */\n      dup5\n        /* \"contracts/RoleManager.sol\":534:553  userRoles[userAddr] */\n      0xffffffffffffffffffffffffffffffffffffffff\n      and\n      0xffffffffffffffffffffffffffffffffffffffff\n      and\n      dup2\n      mstore\n      0x20\n      add\n      swap1\n      dup2\n      mstore\n      0x20\n      add\n      0x00\n      keccak256\n      0x00\n        /* \"contracts/RoleManager.sol\":534:570  userRoles[userAddr] = RoleType.ADMIN */\n      0x0100\n      exp\n      dup2\n      sload\n      dup2\n      0xff\n      mul\n      not\n      and\n      swap1\n      dup4\n      0x02\n      dup2\n      gt\n      iszero\n      tag_43\n      jumpi\n      tag_44\n      tag_24\n      jump\t// in\n    tag_44:\n    tag_43:\n      mul\n      or\n      swap1\n      sstore\n      pop\n        /* \"contracts/RoleManager.sol\":451:578  function setAdminRole(address userAddr) public onlyRole(RoleType.ADMIN) {... */\n      pop\n      pop\n      jump\t// out\n        /* \"contracts/RoleManager.sol\":586:727  function setOrganizationRole(address userAddr) public onlyRole(RoleType.ADMIN) {... */\n    tag_16:\n        /* \"contracts/RoleManager.sol\":649:663  RoleType.ADMIN */\n      0x00\n        /* \"contracts/RoleManager.sol\":387:391  role */\n      dup1\n        /* \"contracts/RoleManager.sol\":374:391  getRole() == role */\n      0x02\n      dup2\n      gt\n      iszero\n      tag_46\n      jumpi\n      tag_47\n      tag_24\n      jump\t// in\n    tag_47:\n    tag_46:\n        /* \"contracts/RoleManager.sol\":374:383  getRole() */\n      tag_48\n        /* \"contracts/RoleManager.sol\":374:381  getRole */\n      tag_18\n        /* \"contracts/RoleManager.sol\":374:383  getRole() */\n      jump\t// in\n    tag_48:\n        /* \"contracts/RoleManager.sol\":374:391  getRole() == role */\n      0x02\n      dup2\n      gt\n      iszero\n      tag_49\n      jumpi\n      tag_50\n      tag_24\n      jump\t// in\n    tag_50:\n    tag_49:\n      eq\n        /* \"contracts/RoleManager.sol\":393:422  ErrorCodes.ERROR_UNAUTHORIZED */\n      mload(0x40)\n      dup1\n      0x40\n      add\n      0x40\n      mstore\n      dup1\n      0x0c\n      dup2\n      mstore\n      0x20\n      add\n      0x554e415554484f52495a45440000000000000000000000000000000000000000\n      dup2\n      mstore\n      pop\n        /* \"contracts/RoleManager.sol\":366:423  require(getRole() == role, ErrorCodes.ERROR_UNAUTHORIZED) */\n      swap1\n      tag_51\n      jumpi\n      mload(0x40)\n      0x08c379a000000000000000000000000000000000000000000000000000000000\n      dup2\n      mstore\n      0x04\n      add\n      tag_52\n      swap2\n      swap1\n      tag_30\n      jump\t// in\n    tag_52:\n      mload(0x40)\n      dup1\n      swap2\n      sub\n      swap1\n      revert\n    tag_51:\n      pop\n        /* \"contracts/RoleManager.sol\":698:719  RoleType.ORGANIZATION */\n      0x01\n        /* \"contracts/RoleManager.sol\":676:685  userRoles */\n      0x00\n        /* \"contracts/RoleManager.sol\":676:695  userRoles[userAddr] */\n      0x00\n        /* \"contracts/RoleManager.sol\":686:694  userAddr */\n      dup5\n        /* \"contracts/RoleManager.sol\":676:695  userRoles[userAddr] */\n      0xffffffffffffffffffffffffffffffffffffffff\n      and\n      0xffffffffffffffffffffffffffffffffffffffff\n      and\n      dup2\n      mstore\n      0x20\n      add\n      swap1\n      dup2\n      mstore\n      0x20\n      add\n      0x00\n      keccak256\n      0x00\n        /* \"contracts/RoleManager.sol\":676:719  userRoles[userAddr] = RoleType.ORGANIZATION */\n      0x0100\n      exp\n      dup2\n      sload\n      dup2\n      0xff\n      mul\n      not\n      and\n      swap1\n      dup4\n      0x02\n      dup2\n      gt\n      iszero\n      tag_54\n      jumpi\n      tag_55\n      tag_24\n      jump\t// in\n    tag_55:\n    tag_54:\n      mul\n      or\n      swap1\n      sstore\n      pop\n        /* \"contracts/RoleManager.sol\":586:727  function setOrganizationRole(address userAddr) public onlyRole(RoleType.ADMIN) {... */\n      pop\n      pop\n      jump\t// out\n        /* \"contracts/RoleManager.sol\":874:970  function getRole() public view returns(RoleType) {... */\n    tag_18:\n        /* \"contracts/RoleManager.sol\":913:921  RoleType */\n      0x00\n        /* \"contracts/RoleManager.sol\":941:950  userRoles */\n      0x00\n        /* \"contracts/RoleManager.sol\":941:962  userRoles[msg.sender] */\n      0x00\n        /* \"contracts/RoleManager.sol\":951:961  msg.sender */\n      caller\n        /* \"contracts/RoleManager.sol\":941:962  userRoles[msg.sender] */\n      0xffffffffffffffffffffffffffffffffffffffff\n      and\n      0xffffffffffffffffffffffffffffffffffffffff\n      and\n      dup2\n      mstore\n      0x20\n      add\n      swap1\n      dup2\n      mstore\n      0x20\n      add\n      0x00\n      keccak256\n      0x00\n      swap1\n      sload\n      swap1\n      0x0100\n      exp\n      swap1\n      div\n      0xff\n      and\n        /* \"contracts/RoleManager.sol\":934:962  return userRoles[msg.sender] */\n      swap1\n      pop\n        /* \"contracts/RoleManager.sol\":874:970  function getRole() public view returns(RoleType) {... */\n      swap1\n      jump\t// out\n        /* \"#utility.yul\":88:205   */\n    tag_58:\n        /* \"#utility.yul\":197:198   */\n      0x00\n        /* \"#utility.yul\":194:195   */\n      0x00\n        /* \"#utility.yul\":187:199   */\n      revert\n        /* \"#utility.yul\":334:460   */\n    tag_60:\n        /* \"#utility.yul\":371:378   */\n      0x00\n        /* \"#utility.yul\":411:453   */\n      0xffffffffffffffffffffffffffffffffffffffff\n        /* \"#utility.yul\":404:409   */\n      dup3\n        /* \"#utility.yul\":400:454   */\n      and\n        /* \"#utility.yul\":389:454   */\n      swap1\n      pop\n        /* \"#utility.yul\":334:460   */\n      swap2\n      swap1\n      pop\n      jump\t// out\n        /* \"#utility.yul\":466:562   */\n    tag_61:\n        /* \"#utility.yul\":503:510   */\n      0x00\n        /* \"#utility.yul\":532:556   */\n      tag_79\n        /* \"#utility.yul\":550:555   */\n      dup3\n        /* \"#utility.yul\":532:556   */\n      tag_60\n      jump\t// in\n    tag_79:\n        /* \"#utility.yul\":521:556   */\n      swap1\n      pop\n        /* \"#utility.yul\":466:562   */\n      swap2\n      swap1\n      pop\n      jump\t// out\n        /* \"#utility.yul\":568:690   */\n    tag_62:\n        /* \"#utility.yul\":641:665   */\n      tag_81\n        /* \"#utility.yul\":659:664   */\n      dup2\n        /* \"#utility.yul\":641:665   */\n      tag_61\n      jump\t// in\n    tag_81:\n        /* \"#utility.yul\":634:639   */\n      dup2\n        /* \"#utility.yul\":631:666   */\n      eq\n        /* \"#utility.yul\":621:684   */\n      tag_82\n      jumpi\n        /* \"#utility.yul\":680:681   */\n      0x00\n        /* \"#utility.yul\":677:678   */\n      0x00\n        /* \"#utility.yul\":670:682   */\n      revert\n        /* \"#utility.yul\":621:684   */\n    tag_82:\n        /* \"#utility.yul\":568:690   */\n      pop\n      jump\t// out\n        /* \"#utility.yul\":696:835   */\n    tag_63:\n        /* \"#utility.yul\":742:747   */\n      0x00\n        /* \"#utility.yul\":780:786   */\n      dup2\n        /* \"#utility.yul\":767:787   */\n      calldataload\n        /* \"#utility.yul\":758:787   */\n      swap1\n      pop\n        /* \"#utility.yul\":796:829   */\n      tag_84\n        /* \"#utility.yul\":823:828   */\n      dup2\n        /* \"#utility.yul\":796:829   */\n      tag_62\n      jump\t// in\n    tag_84:\n        /* \"#utility.yul\":696:835   */\n      swap3\n      swap2\n      pop\n      pop\n      jump\t// out\n        /* \"#utility.yul\":841:1170   */\n    tag_9:\n        /* \"#utility.yul\":900:906   */\n      0x00\n        /* \"#utility.yul\":949:951   */\n      0x20\n        /* \"#utility.yul\":937:946   */\n      dup3\n        /* \"#utility.yul\":928:935   */\n      dup5\n        /* \"#utility.yul\":924:947   */\n      sub\n        /* \"#utility.yul\":920:952   */\n      slt\n        /* \"#utility.yul\":917:1036   */\n      iszero\n      tag_86\n      jumpi\n        /* \"#utility.yul\":955:1034   */\n      tag_87\n      tag_58\n      jump\t// in\n    tag_87:\n        /* \"#utility.yul\":917:1036   */\n    tag_86:\n        /* \"#utility.yul\":1075:1076   */\n      0x00\n        /* \"#utility.yul\":1100:1153   */\n      tag_88\n        /* \"#utility.yul\":1145:1152   */\n      dup5\n        /* \"#utility.yul\":1136:1142   */\n      dup3\n        /* \"#utility.yul\":1125:1134   */\n      dup6\n        /* \"#utility.yul\":1121:1143   */\n      add\n        /* \"#utility.yul\":1100:1153   */\n      tag_63\n      jump\t// in\n    tag_88:\n        /* \"#utility.yul\":1090:1153   */\n      swap2\n      pop\n        /* \"#utility.yul\":1046:1163   */\n      pop\n        /* \"#utility.yul\":841:1170   */\n      swap3\n      swap2\n      pop\n      pop\n      jump\t// out\n        /* \"#utility.yul\":1176:1356   */\n    tag_24:\n        /* \"#utility.yul\":1224:1301   */\n      0x4e487b7100000000000000000000000000000000000000000000000000000000\n        /* \"#utility.yul\":1221:1222   */\n      0x00\n        /* \"#utility.yul\":1214:1302   */\n      mstore\n        /* \"#utility.yul\":1321:1325   */\n      0x21\n        /* \"#utility.yul\":1318:1319   */\n      0x04\n        /* \"#utility.yul\":1311:1326   */\n      mstore\n        /* \"#utility.yul\":1345:1349   */\n      0x24\n        /* \"#utility.yul\":1342:1343   */\n      0x00\n        /* \"#utility.yul\":1335:1350   */\n      revert\n        /* \"#utility.yul\":1362:1478   */\n    tag_64:\n        /* \"#utility.yul\":1446:1447   */\n      0x03\n        /* \"#utility.yul\":1439:1444   */\n      dup2\n        /* \"#utility.yul\":1436:1448   */\n      lt\n        /* \"#utility.yul\":1426:1472   */\n      tag_91\n      jumpi\n        /* \"#utility.yul\":1452:1470   */\n      tag_92\n      tag_24\n      jump\t// in\n    tag_92:\n        /* \"#utility.yul\":1426:1472   */\n    tag_91:\n        /* \"#utility.yul\":1362:1478   */\n      pop\n      jump\t// out\n        /* \"#utility.yul\":1484:1617   */\n    tag_65:\n        /* \"#utility.yul\":1532:1539   */\n      0x00\n        /* \"#utility.yul\":1561:1566   */\n      dup2\n        /* \"#utility.yul\":1550:1566   */\n      swap1\n      pop\n        /* \"#utility.yul\":1567:1611   */\n      tag_94\n        /* \"#utility.yul\":1605:1610   */\n      dup3\n        /* \"#utility.yul\":1567:1611   */\n      tag_64\n      jump\t// in\n    tag_94:\n        /* \"#utility.yul\":1484:1617   */\n      swap2\n      swap1\n      pop\n      jump\t// out\n        /* \"#utility.yul\":1623:1756   */\n    tag_66:\n        /* \"#utility.yul\":1682:1691   */\n      0x00\n        /* \"#utility.yul\":1715:1750   */\n      tag_96\n        /* \"#utility.yul\":1744:1749   */\n      dup3\n        /* \"#utility.yul\":1715:1750   */\n      tag_65\n      jump\t// in\n    tag_96:\n        /* \"#utility.yul\":1702:1750   */\n      swap1\n      pop\n        /* \"#utility.yul\":1623:1756   */\n      swap2\n      swap1\n      pop\n      jump\t// out\n        /* \"#utility.yul\":1762:1911   */\n    tag_67:\n        /* \"#utility.yul\":1858:1904   */\n      tag_98\n        /* \"#utility.yul\":1898:1903   */\n      dup2\n        /* \"#utility.yul\":1858:1904   */\n      tag_66\n      jump\t// in\n    tag_98:\n        /* \"#utility.yul\":1853:1856   */\n      dup3\n        /* \"#utility.yul\":1846:1905   */\n      mstore\n        /* \"#utility.yul\":1762:1911   */\n      pop\n      pop\n      jump\t// out\n        /* \"#utility.yul\":1917:2157   */\n    tag_20:\n        /* \"#utility.yul\":2019:2023   */\n      0x00\n        /* \"#utility.yul\":2057:2059   */\n      0x20\n        /* \"#utility.yul\":2046:2055   */\n      dup3\n        /* \"#utility.yul\":2042:2060   */\n      add\n        /* \"#utility.yul\":2034:2060   */\n      swap1\n      pop\n        /* \"#utility.yul\":2070:2150   */\n      tag_100\n        /* \"#utility.yul\":2147:2148   */\n      0x00\n        /* \"#utility.yul\":2136:2145   */\n      dup4\n        /* \"#utility.yul\":2132:2149   */\n      add\n        /* \"#utility.yul\":2123:2129   */\n      dup5\n        /* \"#utility.yul\":2070:2150   */\n      tag_67\n      jump\t// in\n    tag_100:\n        /* \"#utility.yul\":1917:2157   */\n      swap3\n      swap2\n      pop\n      pop\n      jump\t// out\n        /* \"#utility.yul\":2163:2262   */\n    tag_68:\n        /* \"#utility.yul\":2215:2221   */\n      0x00\n        /* \"#utility.yul\":2249:2254   */\n      dup2\n        /* \"#utility.yul\":2243:2255   */\n      mload\n        /* \"#utility.yul\":2233:2255   */\n      swap1\n      pop\n        /* \"#utility.yul\":2163:2262   */\n      swap2\n      swap1\n      pop\n      jump\t// out\n        /* \"#utility.yul\":2268:2437   */\n    tag_69:\n        /* \"#utility.yul\":2352:2363   */\n      0x00\n        /* \"#utility.yul\":2386:2392   */\n      dup3\n        /* \"#utility.yul\":2381:2384   */\n      dup3\n        /* \"#utility.yul\":2374:2393   */\n      mstore\n        /* \"#utility.yul\":2426:2430   */\n      0x20\n        /* \"#utility.yul\":2421:2424   */\n      dup3\n        /* \"#utility.yul\":2417:2431   */\n      add\n        /* \"#utility.yul\":2402:2431   */\n      swap1\n      pop\n        /* \"#utility.yul\":2268:2437   */\n      swap3\n      swap2\n      pop\n      pop\n      jump\t// out\n        /* \"#utility.yul\":2443:2582   */\n    tag_70:\n        /* \"#utility.yul\":2532:2538   */\n      dup3\n        /* \"#utility.yul\":2527:2530   */\n      dup2\n        /* \"#utility.yul\":2522:2525   */\n      dup4\n        /* \"#utility.yul\":2516:2539   */\n      mcopy\n        /* \"#utility.yul\":2573:2574   */\n      0x00\n        /* \"#utility.yul\":2564:2570   */\n      dup4\n        /* \"#utility.yul\":2559:2562   */\n      dup4\n        /* \"#utility.yul\":2555:2571   */\n      add\n        /* \"#utility.yul\":2548:2575   */\n      mstore\n        /* \"#utility.yul\":2443:2582   */\n      pop\n      pop\n      pop\n      jump\t// out\n        /* \"#utility.yul\":2588:2690   */\n    tag_71:\n        /* \"#utility.yul\":2629:2635   */\n      0x00\n        /* \"#utility.yul\":2680:2682   */\n      0x1f\n        /* \"#utility.yul\":2676:2683   */\n      not\n        /* \"#utility.yul\":2671:2673   */\n      0x1f\n        /* \"#utility.yul\":2664:2669   */\n      dup4\n        /* \"#utility.yul\":2660:2674   */\n      add\n        /* \"#utility.yul\":2656:2684   */\n      and\n        /* \"#utility.yul\":2646:2684   */\n      swap1\n      pop\n        /* \"#utility.yul\":2588:2690   */\n      swap2\n      swap1\n      pop\n      jump\t// out\n        /* \"#utility.yul\":2696:3073   */\n    tag_72:\n        /* \"#utility.yul\":2784:2787   */\n      0x00\n        /* \"#utility.yul\":2812:2851   */\n      tag_106\n        /* \"#utility.yul\":2845:2850   */\n      dup3\n        /* \"#utility.yul\":2812:2851   */\n      tag_68\n      jump\t// in\n    tag_106:\n        /* \"#utility.yul\":2867:2938   */\n      tag_107\n        /* \"#utility.yul\":2931:2937   */\n      dup2\n        /* \"#utility.yul\":2926:2929   */\n      dup6\n        /* \"#utility.yul\":2867:2938   */\n      tag_69\n      jump\t// in\n    tag_107:\n        /* \"#utility.yul\":2860:2938   */\n      swap4\n      pop\n        /* \"#utility.yul\":2947:3012   */\n      tag_108\n        /* \"#utility.yul\":3005:3011   */\n      dup2\n        /* \"#utility.yul\":3000:3003   */\n      dup6\n        /* \"#utility.yul\":2993:2997   */\n      0x20\n        /* \"#utility.yul\":2986:2991   */\n      dup7\n        /* \"#utility.yul\":2982:2998   */\n      add\n        /* \"#utility.yul\":2947:3012   */\n      tag_70\n      jump\t// in\n    tag_108:\n        /* \"#utility.yul\":3037:3066   */\n      tag_109\n        /* \"#utility.yul\":3059:3065   */\n      dup2\n        /* \"#utility.yul\":3037:3066   */\n      tag_71\n      jump\t// in\n    tag_109:\n        /* \"#utility.yul\":3032:3035   */\n      dup5\n        /* \"#utility.yul\":3028:3067   */\n      add\n        /* \"#utility.yul\":3021:3067   */\n      swap2\n      pop\n        /* \"#utility.yul\":2788:3073   */\n      pop\n        /* \"#utility.yul\":2696:3073   */\n      swap3\n      swap2\n      pop\n      pop\n      jump\t// out\n        /* \"#utility.yul\":3079:3392   */\n    tag_30:\n        /* \"#utility.yul\":3192:3196   */\n      0x00\n        /* \"#utility.yul\":3230:3232   */\n      0x20\n        /* \"#utility.yul\":3219:3228   */\n      dup3\n        /* \"#utility.yul\":3215:3233   */\n      add\n        /* \"#utility.yul\":3207:3233   */\n      swap1\n      pop\n        /* \"#utility.yul\":3279:3288   */\n      dup2\n        /* \"#utility.yul\":3273:3277   */\n      dup2\n        /* \"#utility.yul\":3269:3289   */\n      sub\n        /* \"#utility.yul\":3265:3266   */\n      0x00\n        /* \"#utility.yul\":3254:3263   */\n      dup4\n        /* \"#utility.yul\":3250:3267   */\n      add\n        /* \"#utility.yul\":3243:3290   */\n      mstore\n        /* \"#utility.yul\":3307:3385   */\n      tag_111\n        /* \"#utility.yul\":3380:3384   */\n      dup2\n        /* \"#utility.yul\":3371:3377   */\n      dup5\n        /* \"#utility.yul\":3307:3385   */\n      tag_72\n      jump\t// in\n    tag_111:\n        /* \"#utility.yul\":3299:3385   */\n      swap1\n      pop\n        /* \"#utility.yul\":3079:3392   */\n      swap3\n      swap2\n      pop\n      pop\n      jump\t// out\n\n    auxdata: 0xa264697066735822122072e9257ed29601e339a95dc99c0766333495125ecfac5231a40b17b733c4947a64736f6c634300081e0033\n}\n",
				"bytecode": {
					"linkReferences": {},
					"object": "6080604052348015600e575f5ffd5b505f5f5f3373ffffffffffffffffffffffffffffffffffffffff1673ffffffffffffffffffffffffffffffffffffffff1681526020019081526020015f205f6101000a81548160ff02191690836002811115606a5760696073565b5b021790555060a0565b7f4e487b71000000000000000000000000000000000000000000000000000000005f52602160045260245ffd5b610616806100ad5f395ff3fe608060405234801561000f575f5ffd5b506004361061004a575f3560e01c80632e1cd6c21461004e5780634adc7cfd1461006a578063f10a45d414610086578063fde08174146100a2575b5f5ffd5b61006860048036038101906100639190610499565b6100c0565b005b610084600480360381019061007f9190610499565b6101cf565b005b6100a0600480360381019061009b9190610499565b6102dd565b005b6100aa6103ec565b6040516100b79190610537565b60405180910390f35b5f8060028111156100d4576100d36104c4565b5b6100dc6103ec565b60028111156100ee576100ed6104c4565b5b146040518060400160405280600c81526020017f554e415554484f52495a4544000000000000000000000000000000000000000081525090610166576040517f08c379a000000000000000000000000000000000000000000000000000000000815260040161015d91906105c0565b60405180910390fd5b5060025f5f8473ffffffffffffffffffffffffffffffffffffffff1673ffffffffffffffffffffffffffffffffffffffff1681526020019081526020015f205f6101000a81548160ff021916908360028111156101c6576101c56104c4565b5b02179055505050565b5f8060028111156101e3576101e26104c4565b5b6101eb6103ec565b60028111156101fd576101fc6104c4565b5b146040518060400160405280600c81526020017f554e415554484f52495a4544000000000000000000000000000000000000000081525090610275576040517f08c379a000000000000000000000000000000000000000000000000000000000815260040161026c91906105c0565b60405180910390fd5b505f5f5f8473ffffffffffffffffffffffffffffffffffffffff1673ffffffffffffffffffffffffffffffffffffffff1681526020019081526020015f205f6101000a81548160ff021916908360028111156102d4576102d36104c4565b5b02179055505050565b5f8060028111156102f1576102f06104c4565b5b6102f96103ec565b600281111561030b5761030a6104c4565b5b146040518060400160405280600c81526020017f554e415554484f52495a4544000000000000000000000000000000000000000081525090610383576040517f08c379a000000000000000000000000000000000000000000000000000000000815260040161037a91906105c0565b60405180910390fd5b5060015f5f8473ffffffffffffffffffffffffffffffffffffffff1673ffffffffffffffffffffffffffffffffffffffff1681526020019081526020015f205f6101000a81548160ff021916908360028111156103e3576103e26104c4565b5b02179055505050565b5f5f5f3373ffffffffffffffffffffffffffffffffffffffff1673ffffffffffffffffffffffffffffffffffffffff1681526020019081526020015f205f9054906101000a900460ff16905090565b5f5ffd5b5f73ffffffffffffffffffffffffffffffffffffffff82169050919050565b5f6104688261043f565b9050919050565b6104788161045e565b8114610482575f5ffd5b50565b5f813590506104938161046f565b92915050565b5f602082840312156104ae576104ad61043b565b5b5f6104bb84828501610485565b91505092915050565b7f4e487b71000000000000000000000000000000000000000000000000000000005f52602160045260245ffd5b60038110610502576105016104c4565b5b50565b5f819050610512826104f1565b919050565b5f61052182610505565b9050919050565b61053181610517565b82525050565b5f60208201905061054a5f830184610528565b92915050565b5f81519050919050565b5f82825260208201905092915050565b8281835e5f83830152505050565b5f601f19601f8301169050919050565b5f61059282610550565b61059c818561055a565b93506105ac81856020860161056a565b6105b581610578565b840191505092915050565b5f6020820190508181035f8301526105d88184610588565b90509291505056fea264697066735822122072e9257ed29601e339a95dc99c0766333495125ecfac5231a40b17b733c4947a64736f6c634300081e0033",
					"opcodes": "PUSH1 0x80 PUSH1 0x40 MSTORE CALLVALUE DUP1 ISZERO PUSH1 0xE JUMPI PUSH0 PUSH0 REVERT JUMPDEST POP PUSH0 PUSH0 PUSH0 CALLER PUSH20 0xFFFFFFFFFFFFFFFFFFFFFFFFFFFFFFFFFFFFFFFF AND PUSH20 0xFFFFFFFFFFFFFFFFFFFFFFFFFFFFFFFFFFFFFFFF AND DUP2 MSTORE PUSH1 0x20 ADD SWAP1 DUP2 MSTORE PUSH1 0x20 ADD PUSH0 KECCAK256 PUSH0 PUSH2 0x100 EXP DUP2 SLOAD DUP2 PUSH1 0xFF MUL NOT AND SWAP1 DUP4 PUSH1 0x2 DUP2 GT ISZERO PUSH1 0x6A JUMPI PUSH1 0x69 PUSH1 0x73 JUMP JUMPDEST JUMPDEST MUL OR SWAP1 SSTORE POP PUSH1 0xA0 JUMP JUMPDEST PUSH32 0x4E487B7100000000000000000000000000000000000000000000000000000000 PUSH0 MSTORE PUSH1 0x21 PUSH1 0x4 MSTORE PUSH1 0x24 PUSH0 REVERT JUMPDEST PUSH2 0x616 DUP1 PUSH2 0xAD PUSH0 CODECOPY PUSH0 RETURN INVALID PUSH1 0x80 PUSH1 0x40 MSTORE CALLVALUE DUP1 ISZERO PUSH2 0xF JUMPI PUSH0 PUSH0 REVERT JUMPDEST POP PUSH1 0x4 CALLDATASIZE LT PUSH2 0x4A JUMPI PUSH0 CALLDATALOAD PUSH1 0xE0 SHR DUP1 PUSH4 0x2E1CD6C2 EQ PUSH2 0x4E JUMPI DUP1 PUSH4 0x4ADC7CFD EQ PUSH2 0x6A JUMPI DUP1 PUSH4 0xF10A45D4 EQ PUSH2 0x86 JUMPI DUP1 PUSH4 0xFDE08174 EQ PUSH2 0xA2 JUMPI JUMPDEST PUSH0 PUSH0 REVERT JUMPDEST PUSH2 0x68 PUSH1 0x4 DUP1 CALLDATASIZE SUB DUP2 ADD SWAP1 PUSH2 0x63 SWAP2 SWAP1 PUSH2 0x499 JUMP JUMPDEST PUSH2 0xC0 JUMP JUMPDEST STOP JUMPDEST PUSH2 0x84 PUSH1 0x4 DUP1 CALLDATASIZE SUB DUP2 ADD SWAP1 PUSH2 0x7F SWAP2 SWAP1 PUSH2 0x499 JUMP JUMPDEST PUSH2 0x1CF JUMP JUMPDEST STOP JUMPDEST PUSH2 0xA0 PUSH1 0x4 DUP1 CALLDATASIZE SUB DUP2 ADD SWAP1 PUSH2 0x9B SWAP2 SWAP1 PUSH2 0x499 JUMP JUMPDEST PUSH2 0x2DD JUMP JUMPDEST STOP JUMPDEST PUSH2 0xAA PUSH2 0x3EC JUMP JUMPDEST PUSH1 0x40 MLOAD PUSH2 0xB7 SWAP2 SWAP1 PUSH2 0x537 JUMP JUMPDEST PUSH1 0x40 MLOAD DUP1 SWAP2 SUB SWAP1 RETURN JUMPDEST PUSH0 DUP1 PUSH1 0x2 DUP2 GT ISZERO PUSH2 0xD4 JUMPI PUSH2 0xD3 PUSH2 0x4C4 JUMP JUMPDEST JUMPDEST PUSH2 0xDC PUSH2 0x3EC JUMP JUMPDEST PUSH1 0x2 DUP2 GT ISZERO PUSH2 0xEE JUMPI PUSH2 0xED PUSH2 0x4C4 JUMP JUMPDEST JUMPDEST EQ PUSH1 0x40 MLOAD DUP1 PUSH1 0x40 ADD PUSH1 0x40 MSTORE DUP1 PUSH1 0xC DUP2 MSTORE PUSH1 0x20 ADD PUSH32 0x554E415554484F52495A45440000000000000000000000000000000000000000 DUP2 MSTORE POP SWAP1 PUSH2 0x166 JUMPI PUSH1 0x40 MLOAD PUSH32 0x8C379A000000000000000000000000000000000000000000000000000000000 DUP2 MSTORE PUSH1 0x4 ADD PUSH2 0x15D SWAP2 SWAP1 PUSH2 0x5C0 JUMP JUMPDEST PUSH1 0x40 MLOAD DUP1 SWAP2 SUB SWAP1 REVERT JUMPDEST POP PUSH1 0x2 PUSH0 PUSH0 DUP5 PUSH20 0xFFFFFFFFFFFFFFFFFFFFFFFFFFFFFFFFFFFFFFFF AND PUSH20 0xFFFFFFFFFFFFFFFFFFFFFFFFFFFFFFFFFFFFFFFF AND DUP2 MSTORE PUSH1 0x20 ADD SWAP1 DUP2 MSTORE PUSH1 0x20 ADD PUSH0 KECCAK256 PUSH0 PUSH2 0x100 EXP DUP2 SLOAD DUP2 PUSH1 0xFF MUL NOT AND SWAP1 DUP4 PUSH1 0x2 DUP2 GT ISZERO PUSH2 0x1C6 JUMPI PUSH2 0x1C5 PUSH2 0x4C4 JUMP JUMPDEST JUMPDEST MUL OR SWAP1 SSTORE POP POP POP JUMP JUMPDEST PUSH0 DUP1 PUSH1 0x2 DUP2 GT ISZERO PUSH2 0x1E3 JUMPI PUSH2 0x1E2 PUSH2 0x4C4 JUMP JUMPDEST JUMPDEST PUSH2 0x1EB PUSH2 0x3EC JUMP JUMPDEST PUSH1 0x2 DUP2 GT ISZERO PUSH2 0x1FD JUMPI PUSH2 0x1FC PUSH2 0x4C4 JUMP JUMPDEST JUMPDEST EQ PUSH1 0x40 MLOAD DUP1 PUSH1 0x40 ADD PUSH1 0x40 MSTORE DUP1 PUSH1 0xC DUP2 MSTORE PUSH1 0x20 ADD PUSH32 0x554E415554484F52495A45440000000000000000000000000000000000000000 DUP2 MSTORE POP SWAP1 PUSH2 0x275 JUMPI PUSH1 0x40 MLOAD PUSH32 0x8C379A000000000000000000000000000000000000000000000000000000000 DUP2 MSTORE PUSH1 0x4 ADD PUSH2 0x26C SWAP2 SWAP1 PUSH2 0x5C0 JUMP JUMPDEST PUSH1 0x40 MLOAD DUP1 SWAP2 SUB SWAP1 REVERT JUMPDEST POP PUSH0 PUSH0 PUSH0 DUP5 PUSH20 0xFFFFFFFFFFFFFFFFFFFFFFFFFFFFFFFFFFFFFFFF AND PUSH20 0xFFFFFFFFFFFFFFFFFFFFFFFFFFFFFFFFFFFFFFFF AND DUP2 MSTORE PUSH1 0x20 ADD SWAP1 DUP2 MSTORE PUSH1 0x20 ADD PUSH0 KECCAK256 PUSH0 PUSH2 0x100 EXP DUP2 SLOAD DUP2 PUSH1 0xFF MUL NOT AND SWAP1 DUP4 PUSH1 0x2 DUP2 GT ISZERO PUSH2 0x2D4 JUMPI PUSH2 0x2D3 PUSH2 0x4C4 JUMP JUMPDEST JUMPDEST MUL OR SWAP1 SSTORE POP POP POP JUMP JUMPDEST PUSH0 DUP1 PUSH1 0x2 DUP2 GT ISZERO PUSH2 0x2F1 JUMPI PUSH2 0x2F0 PUSH2 0x4C4 JUMP JUMPDEST JUMPDEST PUSH2 0x2F9 PUSH2 0x3EC JUMP JUMPDEST PUSH1 0x2 DUP2 GT ISZERO PUSH2 0x30B JUMPI PUSH2 0x30A PUSH2 0x4C4 JUMP JUMPDEST JUMPDEST EQ PUSH1 0x40 MLOAD DUP1 PUSH1 0x40 ADD PUSH1 0x40 MSTORE DUP1 PUSH1 0xC DUP2 MSTORE PUSH1 0x20 ADD PUSH32 0x554E415554484F52495A45440000000000000000000000000000000000000000 DUP2 MSTORE POP SWAP1 PUSH2 0x383 JUMPI PUSH1 0x40 MLOAD PUSH32 0x8C379A000000000000000000000000000000000000000000000000000000000 DUP2 MSTORE PUSH1 0x4 ADD PUSH2 0x37A SWAP2 SWAP1 PUSH2 0x5C0 JUMP JUMPDEST PUSH1 0x40 MLOAD DUP1 SWAP2 SUB SWAP1 REVERT JUMPDEST POP PUSH1 0x1 PUSH0 PUSH0 DUP5 PUSH20 0xFFFFFFFFFFFFFFFFFFFFFFFFFFFFFFFFFFFFFFFF AND PUSH20 0xFFFFFFFFFFFFFFFFFFFFFFFFFFFFFFFFFFFFFFFF AND DUP2 MSTORE PUSH1 0x20 ADD SWAP1 DUP2 MSTORE PUSH1 0x20 ADD PUSH0 KECCAK256 PUSH0 PUSH2 0x100 EXP DUP2 SLOAD DUP2 PUSH1 0xFF MUL NOT AND SWAP1 DUP4 PUSH1 0x2 DUP2 GT ISZERO PUSH2 0x3E3 JUMPI PUSH2 0x3E2 PUSH2 0x4C4 JUMP JUMPDEST JUMPDEST MUL OR SWAP1 SSTORE POP POP POP JUMP JUMPDEST PUSH0 PUSH0 PUSH0 CALLER PUSH20 0xFFFFFFFFFFFFFFFFFFFFFFFFFFFFFFFFFFFFFFFF AND PUSH20 0xFFFFFFFFFFFFFFFFFFFFFFFFFFFFFFFFFFFFFFFF AND DUP2 MSTORE PUSH1 0x20 ADD SWAP1 DUP2 MSTORE PUSH1 0x20 ADD PUSH0 KECCAK256 PUSH0 SWAP1 SLOAD SWAP1 PUSH2 0x100 EXP SWAP1 DIV PUSH1 0xFF AND SWAP1 POP SWAP1 JUMP JUMPDEST PUSH0 PUSH0 REVERT JUMPDEST PUSH0 PUSH20 0xFFFFFFFFFFFFFFFFFFFFFFFFFFFFFFFFFFFFFFFF DUP3 AND SWAP1 POP SWAP2 SWAP1 POP JUMP JUMPDEST PUSH0 PUSH2 0x468 DUP3 PUSH2 0x43F JUMP JUMPDEST SWAP1 POP SWAP2 SWAP1 POP JUMP JUMPDEST PUSH2 0x478 DUP2 PUSH2 0x45E JUMP JUMPDEST DUP2 EQ PUSH2 0x482 JUMPI PUSH0 PUSH0 REVERT JUMPDEST POP JUMP JUMPDEST PUSH0 DUP2 CALLDATALOAD SWAP1 POP PUSH2 0x493 DUP2 PUSH2 0x46F JUMP JUMPDEST SWAP3 SWAP2 POP POP JUMP JUMPDEST PUSH0 PUSH1 0x20 DUP3 DUP5 SUB SLT ISZERO PUSH2 0x4AE JUMPI PUSH2 0x4AD PUSH2 0x43B JUMP JUMPDEST JUMPDEST PUSH0 PUSH2 0x4BB DUP5 DUP3 DUP6 ADD PUSH2 0x485 JUMP JUMPDEST SWAP2 POP POP SWAP3 SWAP2 POP POP JUMP JUMPDEST PUSH32 0x4E487B7100000000000000000000000000000000000000000000000000000000 PUSH0 MSTORE PUSH1 0x21 PUSH1 0x4 MSTORE PUSH1 0x24 PUSH0 REVERT JUMPDEST PUSH1 0x3 DUP2 LT PUSH2 0x502 JUMPI PUSH2 0x501 PUSH2 0x4C4 JUMP JUMPDEST JUMPDEST POP JUMP JUMPDEST PUSH0 DUP2 SWAP1 POP PUSH2 0x512 DUP3 PUSH2 0x4F1 JUMP JUMPDEST SWAP2 SWAP1 POP JUMP JUMPDEST PUSH0 PUSH2 0x521 DUP3 PUSH2 0x505 JUMP JUMPDEST SWAP1 POP SWAP2 SWAP1 POP JUMP JUMPDEST PUSH2 0x531 DUP2 PUSH2 0x517 JUMP JUMPDEST DUP3 MSTORE POP POP JUMP JUMPDEST PUSH0 PUSH1 0x20 DUP3 ADD SWAP1 POP PUSH2 0x54A PUSH0 DUP4 ADD DUP5 PUSH2 0x528 JUMP JUMPDEST SWAP3 SWAP2 POP POP JUMP JUMPDEST PUSH0 DUP2 MLOAD SWAP1 POP SWAP2 SWAP1 POP JUMP JUMPDEST PUSH0 DUP3 DUP3 MSTORE PUSH1 0x20 DUP3 ADD SWAP1 POP SWAP3 SWAP2 POP POP JUMP JUMPDEST DUP3 DUP2 DUP4 MCOPY PUSH0 DUP4 DUP4 ADD MSTORE POP POP POP JUMP JUMPDEST PUSH0 PUSH1 0x1F NOT PUSH1 0x1F DUP4 ADD AND SWAP1 POP SWAP2 SWAP1 POP JUMP JUMPDEST PUSH0 PUSH2 0x592 DUP3 PUSH2 0x550 JUMP JUMPDEST PUSH2 0x59C DUP2 DUP6 PUSH2 0x55A JUMP JUMPDEST SWAP4 POP PUSH2 0x5AC DUP2 DUP6 PUSH1 0x20 DUP7 ADD PUSH2 0x56A JUMP JUMPDEST PUSH2 0x5B5 DUP2 PUSH2 0x578 JUMP JUMPDEST DUP5 ADD SWAP2 POP POP SWAP3 SWAP2 POP POP JUMP JUMPDEST PUSH0 PUSH1 0x20 DUP3 ADD SWAP1 POP DUP2 DUP2 SUB PUSH0 DUP4 ADD MSTORE PUSH2 0x5D8 DUP2 DUP5 PUSH2 0x588 JUMP JUMPDEST SWAP1 POP SWAP3 SWAP2 POP POP JUMP INVALID LOG2 PUSH5 0x6970667358 0x22 SLT KECCAK256 PUSH19 0xE9257ED29601E339A95DC99C0766333495125E 0xCF 0xAC MSTORE BALANCE LOG4 SIGNEXTEND OR 0xB7 CALLER 0xC4 SWAP5 PUSH27 0x64736F6C634300081E003300000000000000000000000000000000 "
				},
				"gasEstimates": {
					"creation": {
						"codeDepositCost": "311600",
						"executionCost": "24730",
						"totalCost": "336330"
					},
					"external": {
						"getRole()": "2691",
						"setAdminRole(address)": "infinite",
						"setOrganizationRole(address)": "infinite",
						"setStudentRole(address)": "infinite"
					}
				},
				"methodIdentifiers": {
					"getRole()": "fde08174",
					"setAdminRole(address)": "4adc7cfd",
					"setOrganizationRole(address)": "f10a45d4",
					"setStudentRole(address)": "2e1cd6c2"
				}
			},
			"storageLayout": {
				"storage": [
					{
						"astId": 23,
						"contract": "contracts/RoleManager.sol:RoleManagerContract",
						"label": "userRoles",
						"offset": 0,
						"slot": "0",
						"type": "t_mapping(t_address,t_enum(RoleType)18)"
					}
				],
				"types": {
					"t_address": {
						"encoding": "inplace",
						"label": "address",
						"numberOfBytes": "20"
					},
					"t_enum(RoleType)18": {
						"encoding": "inplace",
						"label": "enum RoleManagerContract.RoleType",
						"numberOfBytes": "1"
					},
					"t_mapping(t_address,t_enum(RoleType)18)": {
						"encoding": "mapping",
						"key": "t_address",
						"label": "mapping(address => enum RoleManagerContract.RoleType)",
						"numberOfBytes": "32",
						"value": "t_enum(RoleType)18"
					}
				}
			},
			"userdoc": {
				"kind": "user",
				"methods": {},
				"version": 1
			}
		}
	}
}